:1010000000000420F5B902001DBA02001FBA020058
:1010100021BA020023BA020025BA02000000000033
:1010200000000000000000000000000027BA0200DD
:1010300029BA0200000000002BBA02002DBA0200FB
:10104000E5880200D9ED02002FBA02002FBA020093
:101050002FBA02002FBA02002FBA02002FBA0200E4
:101060002FBA02002FBA02002FBA02002FBA0200D4
:101070002FBA0200D96802002FBA02002FBA02006C
:101080002FBA02002FBA02002FBA02002FBA0200B4
:101090002FBA02002FBA02002FBA02002FBA0200A4
:1010A0002FBA02002FBA02002FBA02002FBA020094
:1010B0002FBA02002FBA020000000000000000005A
:1010C0002FBA02002FBA02002FBA02002FBA020074
:1010D000356802002FBA02002FBA02004D980200B4
:1010E0002FBA02002FBA02000D1C030000000000FE
:1010F000000000002FBA0200000000002FBA02001A
:1011000000000000000000000000000000000000DF
:1011100000000000000000000000000000000000CF
:1011200000000000000000000000000000000000BF
:1011300000000000000000000000000000000000AF
:10114000000000000000000000000000000000009F
:10115000000000000000000000000000000000008F
:10116000000000000000000000000000000000007F
:10117000000000000000000000000000000000006F
:10118000000000000000000000000000000000005F
:10119000000000000000000000000000000000004F
:1011A000000000000000000000000000000000003F
:1011B000000000000000000000000000000000002F
:1011C000000000000000000000000000000000001F
:1011D000000000000000000000000000000000000F
:1011E00000000000000000000000000000000000FF
:1011F00000000000000000000000000000000000EF
:1012000010B5054C237833B9044B13B10448AFF340
:1012100000800123237010BDD000002000000000DA
:10122000643F040008B5034B1BB103490348AFF307
:10123000008008BD00000000D4000020643F0400CE
:10124000154B002B08BF134B9D46A3F5803A002198
:101250008B460F461348144A121A3BF0ECFC0F4B16
:10126000002B00D098470E4B002B00D09847002051
:10127000002104000D000D48002802D00C48AFF3F7
:1012800000803BF079FC2000290000F015F83BF0CD
:101290004DFC00BF0000080000000420000000001A
:1012A00000000000D0000020280101200000000004
:1012B000000000007047000070B505460E4631463C
:1012C000284625F04BFF06F0FEFB044628B90B4BE1
:1012D0000B4A0C4866213BF00BFC00F055F825F05A
:1012E00065FF18B1204606F0F4FBE8E7204606F05B
:1012F0003EFE204625F060FFF1E700BFB1E00300AD
:10130000ACE00300BAE0030038B504460D4600F037
:1013100055FA04F5637104F55C7000F04AF9234650
:1013200004F58361154A04F55E7000F09CF904F23F
:101330009233C4F88C3304F21E428023A4F8903315
:10134000C4F81824002340F2145284F8143484F8AA
:101350001534A4F81C2484F8343929462346084A55
:1013600004F6381007F093FF22460649201D05F0C9
:101370006BFB26F041F8204638BD00BF95150000F4
:101380008B140000BB13000010B5054C014620462D
:10139000FFF7BAFF00F0D6FA844200D0FEE710BD96
:1013A000F0000020D0F88C2300F292339A4203D14F
:1013B00000F6381007F08CBF7047FFF7F3BF2DE938
:1013C000F8430446051D00F55C764FF0020801273E
:1013D000284605F059FC94F8143490B1022B18D12A
:1013E000012B21D3022BF3D1304600F01DF980B937
:1013F00094F8343984F81404002BE9D084F83409C3
:10140000E5E7012BEDD194F81514304600F0DEF835
:10141000F8B1D4F88C1304F29230091A89B291B35E
:1014200025F0F2FF78B3FEE7204600F091FA08B10C
:1014300025F070FB204600F095FA0028E9D13046EF
:1014400000F0BBF80028E4D1284605F0B3FC84F88E
:101450001474284605F0C5FC28B9284605F0CAFCD6
:1014600084F81504CFE794F8C090284605F0D0FD25
:10147000B9F1000F04D094F8C0300BB984F8347976
:1014800084F81484B0E7BDE8F88308B500F05AFA90
:10149000BDE80840FFF793BF00F29233C0F88C33E9
:1014A0008023A0F8903300F6381007F011BF08B57C
:1014B00000F048FA18B1BDE80840FFF7EDBF08BDDD
:1014C00038B504460D4600F03DFA38B12A462146AB
:1014D00000F55E70BDE8384000F0CEB838BD0000C1
:1014E000F0B50C46A1B016461F4600F045FA23465B
:1014F000194A1A4D802168463BF04AFF68463BF086
:10150000AFFF69460246002001F0FCF80024BC420F
:10151000A0B20ED0292C0BD0A4EB840104EB440024
:10152000335D2A46803168443BF032FF0134EEE7F8
:10153000204600EB4000C0F18001094A68443BF0BE
:1015400027FF68463BF08CFF0DF10101421E002091
:1015500001F0D8F821B0F0BD1CE1030030E1030038
:1015600036E1030038B5D0F8183400F21E455B1B95
:1015700004469BB251B91A46294600F0E6FF40F2F4
:101580001453C4F81854A4F81C3438BD2A46FFF785
:10159000A7FFF4E7FFF7E6BF838843B103685A1C4F
:1015A000026019708388013B83800020704703200C
:1015B0007047002201608280704708B54FF6FF73C4
:1015C00083807E210068FFF7E7FF08BD7E2938B5DC
:1015D00005460C4600680AD87D2903D2112901D09E
:1015E000132906D18388012B08D8032005E0F829A8
:1015F000F7E72146FFF7D0FF40B138BD7D21FFF767
:10160000CBFF84F020012868FFF7C6FFAA88054BAE
:101610005440E4B2002033F8143083EA1223AB8044
:10162000EBE700BF3AE103002DE9F041868803684B
:10163000F543ADB2E9B204461F68B3F80480FFF782
:10164000C5FF48B9290A2046FFF7C0FF20B97E210F
:101650002068FFF7A1FF20B123681F60A3F8048072
:10166000A680BDE8F08130B500250570C0E9011203
:10167000C0E9033530BD00002DE9F843374E04467C
:101680000D468F184FF00208AF4265D0237815F849
:10169000011B012B24D01BD3022BF5D16068B0F8BD
:1016A0000490B9F1000F50D0B4F810C081F02001BF
:1016B00081EA0C02D2B236F8123083EA1C2323826C
:1016C000FFF76AFF638A0133638201232370DBE73C
:1016D0007E29D9D1012323704FF6FF732361D3E70D
:1016E0007D2917D07E2918D06068B0F80490B9F130
:1016F000000F2AD0B4F810C081EA0C02D2B236F83A
:10170000123083EA1C232382FFF746FF638A0133EA
:101710006382B9E784F80080B6E7638A002BDBD0E8
:10172000012B10D9228A4FF2B8039A420BD1636879
:101730001A68023A1A609A8802329A800021D4E923
:1017400002309847C8E70621F9E7A368E06803215B
:10175000984784F8009097E7BDE8F8833AE10300E2
:10176000182826D8DFE800F0280D0F1125131517CB
:1017700025252525191B1D1F25252525252525233F
:101780002100012070470E2070470B2070470C206D
:1017900070470920704703207047022070470420DB
:1017A0007047112070471220704713207047142093
:1017B000704700F580407047002070472DE9F041E8
:1017C0000646044646F8041B4FF40072884600F1B2
:1017D000F901304605F01DF90025A66704F17C03E8
:1017E00004F19C02C3E9005508339A42FAD1A4F8E7
:1017F0009C50C4E9285504F1A80005F070FC484B42
:10180000C4F8C830C823A4F8CC3004F1D4074FF68C
:10181000FF73A4F8D030434A84F8C0502346C4F87C
:10182000C45084F8CE5084F8CF504146384607F073
:101830002EFD00230022C4E93823C4E93A230423FF
:1018400084F8F030384BC4F8DC501B68C4F8F4302E
:10185000236884F8F85084F8F95284F8FA5284F82E
:10186000FB5284F8385384F8395384F83A5384F897
:101870003B5384F83C5384F83D5384F83E53C4F8FA
:101880004453C4F84853C4F84C53C4F85053C4F8F4
:101890005453C4F85853C4F85C53C4F86053C4F8A4
:1018A0006453C4F8685384F86C5303B9FEE71F4BC4
:1018B0001F491C602246304605F0C9F83C22002131
:1018C00004F53F703BF0B7F904F5507006F08EFA5E
:1018D00022461849206806F000F922462068164979
:1018E00006F032F92068012106F037F92546206814
:1018F000002106F0E4F82068104906F0A3FD55F831
:10190000E00B0F49224606F0E2FC77220021284630
:1019100005F0ACFE384607F0DBFC2046BDE8F08160
:1019200000F8FF07D51C000028E40300300A00205F
:10193000431D0000655700007F560000E5280000A9
:1019400035280000014B1868704700BF300A00209E
:1019500090F8F030042B1ABF90F8C00080F001001E
:101960000020704790F8F030012B06BF90F8C000BF
:1019700080F0010000207047D0F85C330133C0F8DC
:101980005C3370472DE9F843994690F83C330446A0
:101990009046002914BF0F46702713B10D20BDE8F3
:1019A000F88300F1E0053946284605F0F5FE0028E9
:1019B000F4D194F8FA2294F8FB329A420AD00B221E
:1019C0000021284605F052FE04F1D40007F080FC07
:1019D0000320E4E704F178063B46062280213046E6
:1019E00005F011FE48B91FFA89F24146A06F05F0D3
:1019F000E5FA10B9304605F0E9FD0328CFD1DEE75E
:101A0000013804289ABF024B185C0020704700BFC1
:101A100043E30300F8B511F00F0508D1022A04D101
:101A20001A462946E03005F021FE28460CE090F8E1
:101A3000FB6290F8FA72F41B0E2C06DDE0300E22E9
:101A4000002105F013FE0320F8BD90F8F942AC42E6
:101A500017D0BE4215D93C460E2C02D90F3CE4B239
:101A6000FAE7BE3400EB840494F804C01CF0100FB5
:101A70000DD00CF00F0EAE4509D16FF3041C84F8A5
:101A800004C034460E2C05D90F3CE4B2FAE7013706
:101A9000FFB2DEE7BE3400EB84040136257961F342
:101AA0000305E9B241F0100162F346112171626849
:101AB00063F3DE12626080F8FB620020C4E7134625
:101AC0000222FFF7A7BF38B511F0300F00F17804FC
:101AD00008BFC0F8C420154600230622204605F0A2
:101AE00092FD48B92946204605F0D5FC20B920468C
:101AF000BDE8384005F06ABD38BD2DE9F74304461E
:101B00000E46014668469146984603F0A5FEDDE97B
:101B100000570DB9F90717D504F178084B4606228E
:101B20003146404605F06FFDD8B97B10FA0704EB4B
:101B3000030044BFE3585D59A84790B9404603B03D
:101B4000BDE8F04305F042BDB8F1000F07D00D220B
:101B50003146204603B0BDE8F043FFF7B4BF42462C
:101B6000F6E703B0BDE8F08370B50446002694F8AC
:101B7000FA5294F8FB32AB4237D0BE3504EB850203
:101B80001379D90616D404EB85052B796FF304136A
:101B90002B7194F8FA320133DBB20F2B84F8FA324E
:101BA000E5D194F8FB3284F8FA620E2B1AD90F3B78
:101BB000DBB2FAE7C3F30301526803F06003402B82
:101BC00041F08001C2F3D71205D12046FFF77BFF19
:101BD0000028D8D070BDB3FA83F35B092046FFF725
:101BE0008CFFF5E784F8FB32C1E70020F2E7000044
:101BF0002DE9F04F044685B003F0BEFDD4E938234B
:101C0000134352D004F1E00005F02DFD2F4F019059
:101C10000025019AEBB2934247D2D4E93803C5F1CB
:101C2000200103FA01F1A5F1200220FA05FA23FAB6
:101C300002F24AEA010A4AEA020A00230AF0010211
:101C40001343A5F12003C5F12006029301D101350C
:101C5000DFE70C236B43D919DA5962BB4A68772A4C
:101C600009D12068039224F03BFF082898BF184B45
:101C7000039A98BF1A5C80212046FFF724FFA0B981
:101C8000029A012303FA02F923FA06F603FA05F889
:101C9000D4E9382349EA060922EA080023EA0901BF
:101CA00050EA0103C4E93801D1D1012384F86C332F
:101CB00005B0BDE8F08F94F86C33002BE0D0012321
:101CC00080212046FFF719FFD9E700BF2CE403006D
:101CD0003AE30300014B1868FFF78ABF300A00207F
:101CE00010B590F8C030044633B1D0F8F4308B42D0
:101CF00004BF002380F8C0302046FFF735FFF8B955
:101D000094F8F81099B101230C222046FFF7F5FE54
:101D1000B0B994F8F03084F8F800042B07D0201DF7
:101D200004F0B0FF0123C4F8F40084F8C03020466A
:101D300003F075FC20B92046BDE81040FFF758BFFE
:101D400010BDFFF7CDBFF8B500F178040546204679
:101D5000069EBDF81C7005F056FC50B93A46314657
:101D6000A86F05F02BF920B92046BDE8F84005F032
:101D70002DBCF8BD2DE9F04F042B87B004460F466B
:101D8000924602D0052B16D0FEE7014604A804F0C7
:101D900075FDDDE904654FF0070905F0010B9EB9FB
:101DA000BBF1000F10D10D2239462046FFF787FE08
:101DB00007B0BDE8F08F014604A804F09BFD4FF08A
:101DC0000809DDE90465E8E704F1A808404605F0E4
:101DD000F2FA0DF10A0203A9404605F095FA4046D1
:101DE00005F0F0FA6D10002384F83C336019BBF164
:101DF000000F01D063599E59B047012384F83C334A
:101E0000054618B1FFF7ACFC0246CDE7BDF80A3035
:101E10000193039B00934A46534639462046FFF7F9
:101E200092FF0028C4D02A46BEE708B50022FFF77B
:101E300046FE08BD38B50446006805F04CFE00219A
:101E4000206806F00FFA0021206805F051FE72228A
:101E500080212046FFF737FE054648B104F1E00037
:101E60007722002105F002FC04F1D40007F030FADB
:101E7000024B00221A60284638BD00BF300A0020FD
:101E80000021806F05F089B810B50446006805F0A0
:101E9000B3FE0146A06FBDE8104005F07EB813B553
:101EA00002A90023044641F8043DA83005F0D7F903
:101EB00020B99DF80410206805F0A2FE02B010BD04
:101EC00010B50446006824F027FF002818BF02213F
:101ED000A06F08BF0021BDE8104005F05EB837B51F
:101EE00002A90023054601F8013DA83005F00FF9CD
:101EF000044650B99DF807301BB1022B08D80121C8
:101F000000E00146286824F009FF204603B030BDF8
:101F10000724FAE710B5044654F8780B05F0C2FE22
:101F200001462046BDE8104005F059BA13B50446F5
:101F30000DF10601A83005F018F920B9BDF806101A
:101F4000206805F0B3FE02B010BD10B5044600686D
:101F500005F088FE08220146A06FBDE8104005F09C
:101F60002DB813B50822044601A9A83005F08EF952
:101F700018B90199206805F079FE02B010BD10B5BE
:101F8000044654F8780B05F0B4FE01462046BDE83F
:101F9000104005F024BA90F83A13806F04F0FDBFAA
:101FA00013B502A90023044601F8013DA83005F04D
:101FB000BEF818B99DF8073084F83A3302B010BD66
:101FC000F8B505460E460024012707FA04F333420C
:101FD000E1B204D10134202CF7D1002004E0A86F35
:101FE00004F0DBFF0028F5D0F8BD0023F7B5054667
:101FF0000C460B6000F1A8070126B5F8AE20B5F835
:10200000B0309A420FD00DF10701384605F07FF845
:1020100050B99DF807301F2B08D8226806FA03F341
:1020200013432360E9E7002003B0F0BD0720FBE77E
:10203000D0F8C810FFF7C4BF13B502A9002341F8B8
:10204000043D0446FFF7D1FF10B9019BC4F8C83026
:1020500002B010BDB0F8CC10783005F0C0B900F176
:10206000CC01A83005F081B810B50446006805F031
:1020700071FE78B9206805F08DFE68B9206806F019
:102080001AF9002814BF03210021A06FBDE81040F9
:1020900004F083BF0121F8E70221F6E710B586B00E
:1020A00006A90023044601F8013DA83005F02FF8E9
:1020B00040B99DF81730032B03D8DFE803F029055A
:1020C0000F190C2006B010BDB4F8CC200094114BB1
:1020D000D4F8C810206805F029FEF3E7B4F8CC2046
:1020E00000940D4BD4F8C810206805F03FFEE9E7D6
:1020F0000849019194F8CF10009194F8CE30B4F8CB
:10210000D0200294D4F8C810206806F0C0F8D9E7AF
:102110000020D7E70B5500006F5500002DE9F84F60
:102120000546E03005F09FFADFF85890834600241A
:102130004FF00C0A05F17808E3B29B451FD9D5E9A9
:102140003A23C4F1200022FA04F603FA00F0A4F1C5
:10215000200123FA01F106430E4306F00102002399
:10216000134301D10134E7E70AFB04F3404653F877
:10217000091005F090F90028F4D0BDE8F88F002090
:10218000FBE700BF2CE40300F7B500230022C0E901
:102190003A23044600F1A80700F1E006B4F8AE20A7
:1021A000B4F8B0309A420BD001A9384605F057F880
:1021B000054648B901220199304605F099FAEDE744
:1021C0000025284603B0F0BD012341F2080280211A
:1021D0002046FFF792FCF4E713B5044601A9A830A6
:1021E00005F03DF828B90122019904F1E00005F05D
:1021F0007FFA02B010BD13B5044601A9A83005F05E
:102200002EF828B90246019904F1E00005F070FAB1
:1022100002B010BDD0F8C410783005F03CB910B54C
:1022200000F178040421204605F035F928B920464C
:102230000321BDE8104005F02EB910BD0321783010
:1022400005F029B90021783005F025B910B500F165
:1022500078040521204605F01EF9002841D10C2103
:10226000204605F018F9E0BB1821204605F013F9C7
:10227000B8BB2021204605F00EF990BB3521204641
:1022800005F009F968BB0E21204605F004F940BBB2
:102290004FF40171204605F0FEF810BB40F20A2110
:1022A000204605F0F8F8E0B93021204605F0F3F8B3
:1022B000B8B93121204605F0EEF890B94FF48061AD
:1022C000204605F0E8F860B940F20341204605F0E9
:1022D000E2F830B9204640F20441BDE8104005F074
:1022E000DAB810BD10B5044605F0FEFB014604F156
:1022F0007800BDE8104005F009B90121806F04F0B5
:102300004CBEFFF7BDBD0421806F04F046BE0C201B
:10231000704713B504466946006805F0BDFC082205
:102320006946A06F04F04AFE02B010BD0221783069
:1023300005F087B990F8F010806F04F02EBE000011
:1023400073B504460E46A8300DF1070104F0DFFE18
:10235000A0BB9DF80730042B07D8012202FA03F135
:1023600011F01B0F02D14B0703D4032384F8F03084
:1023700001E084F8F020002384F8F8300C220123D7
:1023800031462046FFF7B9FB94F8F030042B0546A0
:1023900008D070B9201D04F075FCC4F8F4000123C6
:1023A00084F8C03015B184F8F8600025284602B0E2
:1023B00070BD074B1B68C4F8F430F0E7FFF7D0F9A5
:1023C000314602462046FFF77EFB0546EEE700BF9A
:1023D00028E403000C2A10B51C4605D041F2105326
:1023E0009A4206D0002003E0FFF7AAFF20700120E8
:1023F00010BD00F061FEF9E7F0B585B004460D466A
:102400000026014602A817468DF8076004F048F838
:10241000DDE9022303F0010102B9C1B15B1084F8C8
:102420003C63E01809B1E3589A58904701228DF8AF
:10243000070084F83C23C8B93B4629462046FFF7ED
:10244000E9FA8DF807009DF8070005B0F0BD0DF121
:1024500007033A4629462046FFF7BCFF0028F2D181
:102460000D2229462046FFF72AFBEAE7FFF778F915
:102470000246F6E773B50D4602A9002341F8043D74
:102480000446A830164604F0EAFE014650B1FFF7B4
:1024900067F9294602462046FFF711FB0146084628
:1024A00002B070BDB31E032BF9D8DFE803F00209B8
:1024B0000F0F019B002229462046FFF7ABFAEDE7FC
:1024C000019A29462046FFF797FFE7E73346019A2E
:1024D00029462046FFF74EFCE0E737B504460D4697
:1024E000A83001A904F0BBFE70B9019A0B2A26D8C6
:1024F000DFE802F0060C11111111252525161B200D
:1025000029462046FFF791FC03B030BD29462046FE
:10251000FFF790FCF8E729462046FFF7ABFFF3E70B
:102520002946204600F065FFEEE72946204600F0E8
:1025300064FFE9E72946204600F06FFFE4E7052243
:1025400029462046FFF7BBFADEE7F7B502AD0123C7
:10255000002700F1A806044680F83C3305F8017D09
:10256000304604F0C9FD042384F8F03084F8C070CC
:102570002946304604F0CBFD80B99DF807100B06C4
:102580000CD5D4F8603311F0300F03F10103C4F817
:10259000603308D006222046FFF795FA002384F81E
:1025A0003C3303B0F0BD2046FFF797FF38B19DF8EC
:1025B0000710FFF7D5F802462046FFF780FA94F897
:1025C000FA2294F8FB329A4202D02046FFF7CCFA66
:1025D0009DF8073094F8F92203F00F0332B19A42C4
:1025E0001EBFD4F864230132C4F864230F2B14BF38
:1025F0000133012384F8F932D0E700002DE9F041DE
:102600000446E03005F02FF80C4E074600254FF049
:102610000C087834EBB29F420ED908FB05F39A19E7
:10262000127A0AB90135F5E79959204604F033FFCB
:102630000028F7D0BDE8F0810020FBE72CE4030080
:1026400010B50446006824F063FBC1B2A06FBDE87A
:10265000104004F0A2BC10B50446006824F05EFDF2
:10266000C1B2A06FBDE8104004F097BC13B504469A
:102670000DF10701006824F0B1FB30B99DF8071097
:10268000A06F04F08AFC02B010BDFFF769F80146A4
:1026900004F1780004F0D5FFF5E713B502A9002393
:1026A000044601F8013DA83004F053FD20B99DF91E
:1026B0000710206824F09CFB02B010BDFEE7FEE787
:1026C00010B5044605F075FBFFF79AF90146A06FB7
:1026D000BDE8104004F061BC10B50446006805F088
:1026E000AAFA01462046BDE81040FFF769BC10B5C4
:1026F0000446006810F08CFD01462046BDE81040FD
:10270000FFF75EBC1346074A10B40446106828B1B0
:102710000A4621465DF8044BFFF734B90D205DF8F9
:10272000044B7047300A00200822006804F046BCC1
:10273000F8B50546087F0C46C0F3C003C0F340015E
:10274000C0F3800200F0010000F097FD05F178076A
:10275000064621463846FFF7E7FF40BB218A384648
:1027600004F03DFE18BBA168384604F047FEF0B9FE
:10277000E168384604F042FEC8B9217DA86F04F034
:102780000CFCA0B9617DA86F04F007FC78B9A17DAD
:10279000A86F04F002FC50B93146A86F04F0FDFBAD
:1027A00028B9E17DA86FBDE8F84004F0F6BBF8BD9C
:1027B00070B504460D46E03041F60D1104F0ECFF13
:1027C000002836D104F1780641F60D130622802147
:1027D000304604F018FF60BB29463046FFF7A4FFDF
:1027E00038BB2989304604F0FAFD10BBA97AA06FE6
:1027F00004F0D3FBE8B9E97AA06F04F0CEFBC0B9CE
:10280000297BA06F04F0C9FB98B9697BA06F04F025
:10281000C4FB70B9A97BA06F04F0BFFB48B9E97B8A
:10282000A06F04F0BAFB20B93046BDE8704004F058
:10283000CDBE70BD0B46014618B113B11846FFF767
:10284000B7BF70472DE9F8430446164603292BD835
:10285000DFE801F02C252E0241F20B55082704F188
:10286000E0082946404604F097FFE8B904F17809EA
:102870002B463A468021484604F0C5FEF0B1522D61
:1028800002D1012384F83D3340460B22002104F09D
:10289000EDFE04F1D400BDE8F84306F019BD0827A9
:1028A00096F82030DB0607D5BDE8F8830727F7E761
:1028B00041F20B550727D2E75225D0E7522D06F1FA
:1028C0000401204609D1FFF733FF0028D9D148463B
:1028D00004F07CFE0028E7D0D1E700F0DCFC002803
:1028E000F5D0D1E738B50D460446FFF72BF82A4658
:1028F0002146BDE83840FFF7A5BF10B50446006883
:1029000005F002FD0146A06FBDE8104004F045BB94
:1029100010B50446006805F029FC0146A06FBDE82B
:10292000104004F03ABBF0B5044689B0064654F8AE
:10293000780B05F0D1FC00250746A9B2B9421AD29E
:102940006A46306805F037FD08B10135F5E79DF8B6
:102950001C30DB06F9D4204604F0F0FD48B9694686
:102960003046FFF7E5FE20B9204604F006FE0028B9
:10297000EBD009B0F0BD0020FBE7F0B5054687B00D
:10298000044655F8780B05F031FD0026074601AAEC
:10299000F1B2206805F02CFD28B10136F3B29F4258
:1029A000F5D2002044E09DF81430DB07F5D5284629
:1029B00004F0C4FD00283BD101A92846FFF7B4FE6E
:1029C000B0BBBDF80C10284604F009FD80BB9DF893
:1029D0000E10A06F04F0E1FA50BB9DF80F10A06F2D
:1029E00004F0DBFA20BB9DF81010A06F04F0D5FABC
:1029F000F0B99DF81110A06F04F0CFFAC0B99DF89E
:102A00001210A06F04F0C9FA90B99DF81310A06FCE
:102A100004F0C3FA60B99DF81410A06FC1F340012F
:102A200004F0BBFA20B9284604F0A7FD0028B4D072
:102A300007B0F0BD2DE9F04304468FB007460025EE
:102A400054F8780BADF8065005F046FC80461FFAA6
:102A500085F9C14534D206AA4946386805F0ABFC71
:102A600008B10135F3E79DF83430DB06F9D4204690
:102A700004F064FDD8B906A92046FFF755FEB0B9A9
:102A8000BDF82810204604F0AAFC80B90EAE26F846
:102A9000320D02AB32464946386805F093FC48B91E
:102AA000102202A9B86F04F089FA0028F1D00FB003
:102AB000BDE8F083204604F060FD0028D1D0F6E7A1
:102AC0000020F4E710B50446006805F00EFC01464E
:102AD000A06FBDE8104004F060BA37B505460DF1AF
:102AE0000701A83004F023FB044620B99DF8071025
:102AF000286805F0FFFB204603B030BD10B5044642
:102B0000006805F083FC10220146A06FBDE810406C
:102B100004F054BA13B5002304460DF1020201A9D2
:102B2000A830019304F0F0FB38B9BDF80230102B47
:102B300005D10199206805F06CFC02B010BD06209B
:102B4000FBE737B502A90023054641F8043DA8304C
:102B500004F01FFB044618B90199286805F0DCFB56
:102B6000204603B030BD10B50446006805F0B4FB44
:102B7000C1B2A06FBDE8104004F00FBA13B502A9AE
:102B80000023044601F8013DA83004F0C0FA20B942
:102B90009DF80710206805F0A3FB02B010BD10B52A
:102BA0000446006805F0CEFB0146A06FBDE810406A
:102BB00004F0F3B937B502A90023054601F8013D39
:102BC000A83004F0A4FA044620B99DF8071028683C
:102BD00005F0BCFB204603B030BD10B504460068CC
:102BE00005F0D8FB0146A06FBDE8104004F0D5B950
:102BF00037B502A90023054601F8013DA83004F0CD
:102C000086FA044620B99DF80710286805F0C6FB2F
:102C1000204603B030BD10B50446006805F0C2FB85
:102C20000146A06FBDE8104004F0B7B937B502A95E
:102C30000023054601F8013DA83004F068FA044677
:102C400020B99DF80710286805F0B0FB204603B0B6
:102C500030BD10B5044654F8780B05F061FB014611
:102C60002046BDE8104004F0C9BB37B502A90023D7
:102C7000054641F8043DA83004F08BFA044618B923
:102C80000199286805F051FB204603B030BD10B50E
:102C90000446006805F04EFB0146A06FBDE81040F9
:102CA00004F07BB937B502A90023054601F8013DC0
:102CB000A83004F02CFA044620B99DF807102868C3
:102CC00005F03CFB204603B030BD10B59AB0044679
:102CD0006946006804F0EAFE28B96946204600F01B
:102CE00088FF1AB010BDFEF73BFD014604F17800E5
:102CF00004F0A7FCF5E710B50446006804F088FE70
:102D0000012808D002280CBF02210021A06FBDE8D5
:102D1000104004F042B90146F8E713B504460DF13E
:102D20000701A83004F0F3F948B99DF807301BB14A
:102D3000022B06D0072002E0206804F01DFE02B03E
:102D400010BD034602460146206804F0FDFDF6E78B
:102D500030B500F1A80485B00546204604F0F4FA29
:102D600058B9B5F8AE20B5F8B0309A4207D008226D
:102D700001A9204604F08AFA10B105B030BD0190D7
:102D8000204604F001FB0028F7D102A9204604F0F8
:102D900000FA0028F1D103A9204604F098FA00288F
:102DA000EBD1DDE902320199286804F0F5FDE4E792
:102DB00037B500F1A8050446284604F0C5FA58B90D
:102DC000B4F8AE20B4F8B0309A4207D0082201A976
:102DD000284604F05BFA10B103B030BD01902846DC
:102DE00004F0D2FA0028F7D10199206804F0D9FD47
:102DF000F2E713B502A9002321F8023D044600685A
:102E000004F0DAFD014628B90021A06F04F0C5F8EE
:102E100002B010BDBDF80620002AF5D0A06F04F066
:102E2000CDF80028F0D0F3E713B5044601A9A83087
:102E300004F04DFA18B90199206804F0B8FD02B009
:102E400010BD10B5044654F8780B04F0DCFD0146C3
:102E50002046BDE8104004F0C2BA30B500F1A80425
:102E600087B0054604A9204604F093F9D8B90DF1BE
:102E70000D01204604F04BF9A8B90DF10E012046D2
:102E800004F073F978B9102205A9204604F0FEF980
:102E900048B905990091BDF80E309DF80D200499B0
:102EA000286804F091FD07B030BD000030B500F196
:102EB000A80489B0054606A9204604F06AF930BB8B
:102EC0000DF11301204604F022F900BB05A92046AC
:102ED00004F04BF9D8B90DF11601204604F045F97C
:102EE000A8B9102207A9204604F0D0F978B90949F9
:102EF000029107990191BDF816100091BDF81430A8
:102F00009DF8132003950699286804F062FD09B026
:102F100030BD00BF792F00002DE9F04100F17804A9
:102F20000546884616461F46072241F602038021C1
:102F3000204604F068FB58B105F1E0000B220021A7
:102F400004F094FB05F1D400BDE8F04106F0C0B9EF
:102F50004146204604F052FA0028EDD13A46314667
:102F6000204604F0C3FA0028E6D1204604F02EFBE8
:102F70000028E1D1BDE8F08110B41C4613460A4692
:102F8000014620465DF8044BFFF7C6BF30B500F19F
:102F9000A80587B004460DF10E01284604F0E5F8B7
:102FA000A0B904A9284604F0F4F878B9102205A9BC
:102FB000284604F06BF948B9054B0093BDF80E1094
:102FC0000194DDE90423206804F00EFD07B030BD54
:102FD0002D300000F8B500F1780405460F4616467E
:102FE00041F6040307228021204604F00CFB58B16F
:102FF00005F1E0000B22002104F038FB05F1D400BC
:10300000BDE8F84006F064B93946204604F0E7F917
:103010000028EDD13146204604F0F0F90028E7D130
:10302000204604F0D3FA0028E2D1F8BD13460A4640
:1030300001461846FFF7CEBF13B504460DF1020254
:1030400001A9A83004F06BF940B9BDF80220FF2AAD
:1030500006D8D2B20199206804F0CBFC02B010BDB2
:103060000720FBE730B58BB004460DF1060202A93C
:10307000A83004F054F970B9BDF80650FF2D0CD8F3
:1030800001461A2203A839F0D6FDEBB2029A206855
:1030900003A904F0B3FC0BB030BD0720FBE710B56B
:1030A0000446006804F0B4FC831E5942A06F5941E5
:1030B000BDE8104003F071BF73B50E4602A90023AE
:1030C000044601F8013DA83004F031F830B99DF80C
:1030D0000730256863B9284604F04EFCFEF740FB34
:1030E0000222034631462046FEF794FC02B070BD32
:1030F000034602460146284604F026FCEEE77FB56B
:1031000000F1A8050023064602A92846CDE90133AF
:10311000039304F0DCF890B903A9284604F039F8C9
:10312000044660B9082201A9284604F0AFF800B1AE
:103130000194DDE902230199306804F02DFC04B00C
:1031400070BD37B505460DF10701A83003F0DFFF6C
:10315000044620B99DF80710286805F0D9F82046E4
:1031600003B030BD90F83E13806F03F016BF10B56A
:1031700000F23E310446A83003F0C9FF30B994F89C
:103180003E132068BDE8104005F0B9B810BD37B552
:1031900004460DF10701A83003F0B9FF054638B920
:1031A0009DF80710206805F0D5F80D2808BF2846BF
:1031B00003B030BD70B5044686B0002600F1780536
:1031C00001AAF1B2206805F01AF910BB9DF817307A
:1031D000DB0701D40136F3E7284604F0AFF9B0B9B4
:1031E000102201A9A06F03F0E9FE80B9BDF8141008
:1031F000284604F0F4F850B99DF81610A06F03F0BB
:10320000CCFE20B9284604F0B8F90028E2D006B078
:1032100070BD0020FBE7437C13F0040F14BF202097
:103220000020190748BF40F01000DA0648BF40F000
:103230000800590648BF40F002009A0648BF40F017
:103240000400DA0943F3010318BF40F00100DBB2C8
:1032500040EA8310C0B2704703F09FBE002204F022
:1032600005BA0A46002104F001BAC9B2006803F0A9
:1032700094BE1022006803F0A1BE00280CBF0020FD
:10328000082009B140F004000AB140F002000BB17F
:1032900040F001007047F8B5064691F820000C4652
:1032A000C0F3C003C0F38002C0F3400100F001008E
:1032B000FFF7E3FF06F178050746284604F03EF9DC
:1032C00000283BD121462846FFF72EFAB0BBA18942
:1032D000284604F084F888BBA168284604F08EF8DC
:1032E00060BB217EB06F03F058FE38BB94F9191013
:1032F0002846FFF7BAFF08BB3946B06F03F04DFE12
:10330000E0B994F82010B06FC1F30011FFF7A4FFEB
:10331000A0B92169284604F071F878B96169284696
:1033200004F06CF850B994F91A102846FFF79DFF85
:1033300020B92846BDE8F84004F01FB9F8BD10B523
:10334000044654F8780B04F0CAFC01462046BDE858
:10335000104004F053B813B5044601A9A83003F097
:1033600018FF18B90199206804F0BEFC02B010BD26
:1033700010B5044654F8780B04F074FC014620465E
:10338000FFF7D2F910BD000010B50446006804F044
:1033900033FCB0B10A280CD84FF4FA61414301F56F
:1033A0005C2101F5346104F17800BDE8104004F0BF
:1033B00025B8192807D8054941F2883303FB0011C5
:1033C000F1E70349EFE70021EDE700BFB0DB2300A1
:1033D000CC3F0D0013B502A9002341F8043D04467B
:1033E000FEF703FE18B90199206804F028FC02B02A
:1033F00010BD02231A46FEF70DBB70B504460068E7
:103400000D4604F06FFBFEF7ABF929460346022296
:103410002046BDE87040FEF7FDBAFFF7EABF10B5E1
:103420000446006804F000FB0146A06FBDE81040B0
:10343000FFF712BF10B50446006804F065FB0146B3
:10344000A06FBDE81040FFF707BF13B502A9002326
:10345000044601F8013DA83003F069FE20B99DF84B
:103460000710206804F044FB02B010BD10B50446FC
:10347000006804F06FFE011C18BF0121A06FBDE8B9
:103480001040FFF7E9BE73B502A90023054601F815
:10349000013DA83003F04BFE044688B928689DF82A
:1034A000076004F057FE003018BF0120B04207D07B
:1034B0009DF80730286833B1012104F0D3FE04469B
:1034C000204602B070BD2146F7E7000010B5044663
:1034D000006804F03FFE0238C0B2022896BF044BD9
:1034E0000021195CA06FBDE8104003F056BD00BF7D
:1034F0004BE3030013B502A90023044641F8043D41
:10350000A83003F0ACFE48B9019B032B06D8DFE8D6
:1035100003F0020F070B206804F009FE02B010BD93
:10352000206804F020FFF9E7206804F02EFFF5E79B
:10353000206804F001FEF1E710B5044654F8780B5A
:1035400004F0C6FD01462046BDE8104003F0DEBF92
:1035500037B502A90024054641F8044DA83003F010
:10356000B6FE28B90199286804F0B6FD03B030BD55
:103570002046FBE710B50446006804F00CFD082265
:103580000146A06FBDE8104003F018BD13B500233D
:1035900004460DF1020201A9A830019303F0B4FE24
:1035A00038B9BDF80230082B05D10199206804F024
:1035B000F6FC02B010BD0620FBE710B5044600681B
:1035C00004F041FD10220146A06FBDE8104003F059
:1035D000F5BC13B5002304460DF1020201A9A83081
:1035E000019303F091FE38B9BDF80230102B05D1DC
:1035F0000199206804F02BFD02B010BD0620FBE706
:1036000010B5044654F8780B04F080FD01462046BE
:10361000BDE8104003F0F2BE37B5054601A9A83059
:1036200003F0B7FD044618B90199286804F072FD4B
:10363000204603B030BD10B5044654F8780B04F0B2
:103640009DFD01462046BDE8104003F0D7BE10B5F1
:10365000044654F8780B04F062FD01462046BDE8AC
:10366000104003F0CBBE37B5054601A9A83003F0E2
:1036700090FD044618B90199286804F054FD2046CD
:1036800003B030BD10B50446006804F060FC01468C
:10369000A06FBDE8104003F080BC10B50446006880
:1036A00004F05DFC0146A06FBDE8104003F075BC5E
:1036B00010B5C2B00446FF238DF8073002AA0DF101
:1036C00007030021006804F0D0F89DF80720A06FE0
:1036D00002A903F073FC42B010BD10B5C2B004469D
:1036E000FF238DF8073002AA0DF1070301210068BE
:1036F00004F0BBF89DF80720A06F02A903F05EFC60
:1037000042B010BD10B5C2B00446FF238DF807309B
:1037100002AA0DF107030021006804F0FBFB9DF8ED
:103720000720A06F02A903F049FC42B010BD10B5FC
:10373000C2B00446FF238DF8073002AA0DF107033B
:103740000121006804F0E6FB9DF80720A06F02A9A4
:1037500003F034FC42B010BD10B50446006804F01C
:10376000FDFC0146A06FBDE8104003F016BC1FB57C
:103770000446694654F8780B04F03DFC28B96946C4
:103780002046FFF776FD04B010BDFDF7E9FF0146C6
:10379000204603F056FFF6E730B5044687B00546ED
:1037A00001A954F8780B04F0F8FC00283CD19DF8EE
:1037B00014309B0733D50DF10201286804F02FFD6A
:1037C0000DF10301286804F03CFD01A92046FEF735
:1037D000ABFF10BBBDF80C10204603F000FEE0B9B3
:1037E0009DF81310204603F009FEB0B99DF90210B0
:1037F0002046FFF73AFD80B99DF903102046FFF7F8
:1038000034FD50B99DF81110A86F03F0C6FB20B924
:103810009DF81210A86F03F0C0FB07B030BD142153
:10382000204603F00EFFF8E7FDF79AFF0146F7E7A1
:1038300010B58AB000230446ADF8023001AA0DF19C
:103840000201206804F07EFC38B901A92046FFF788
:1038500022FD0028F2D00AB010BD0020FBE730B5F1
:103860008BB000230546ADF8023000F1780401AAC0
:103870000DF10201286804F065FC68BB204603F0E6
:103880005DFE38BB01A92046FEF74EFF10BBBDF818
:103890001010204603F0A3FDE0B9BDF8201020462B
:1038A00003F09DFDB0B9BDF82210204603F097FD4E
:1038B00080B99DF91D102046FFF7D7FC50B99DF93E
:1038C0001E102046FFF7D1FC20B9204603F055FE1C
:1038D0000028CCD00BB030BD0020FBE737B5044644
:1038E00002A9002301F8013D54F8780B04F052F9C5
:1038F000851E9DF8070058B135F8021F204603F0D9
:103900006EFD28B99DF80730013B8DF80730F0E7D0
:1039100003B030BD73B50646044656F8A80B04F054
:1039200034F9B4F8B030B4F8AE209B1A9BB2012B36
:1039300016D90DF10601304603F017FC80B9BDF829
:103940000610206804F017F905460028E9D0012385
:103950005C2280212046FEF7D0F8284602B070BDD8
:103960000025FAE790F83813806FFFF775BC37B57C
:1039700002A90023044601F8013DA83003F0D7FB5B
:10398000054630B994F838239DF8073022B984F8F9
:103990003833284603B030BD002BFAD184F8380301
:1039A000206803F0CCFFF4E730B589B0002304466B
:1039B000019300F1780502AA01A9206804F0B5FA84
:1039C00080BB284603F0BAFD50BB02A92846FFF78A
:1039D00050FC28BB9DF81810A06F03F0DEFAF8B970
:1039E0009DF81A10A06F01F00101FFF735FCB8B97E
:1039F00002A8FFF710FC0146A06F03F0CEFA78B9D9
:103A00000146A06F03F0C9FA50B9BDF81C10284652
:103A100003F0E5FC20B9284603F0AFFD0028CAD02A
:103A200009B030BD0023019304F1780502AA01A971
:103A3000206803F05AFF002836D1284603F07EFDA7
:103A40000028EDD102A92846FFF713FC0028E7D192
:103A50009DF81810A06F03F0A0FA0028E0D19DF89F
:103A60001A10A06F01F00101FFF7F6FB0028D7D173
:103A700002A8FFF7D0FB0146A06F03F08EFA0028E2
:103A8000CED10121A06F03F088FA0028C8D1BDF87B
:103A90001C10284603F0A3FC0028C1D1284603F0DF
:103AA0006CFD0028C2D0BBE70020B9E730B5044662
:103AB00089B00021182202A88DF805108DF8061093
:103AC00039F0B9F894F83833002B4AD004F1A8053E
:103AD00002A9284603F0E8FB002840D10DF10701B8
:103AE000284603F014FBD0BB0DF10501284603F076
:103AF0001EFBA0BB0DF10601284603F008FB70BBBE
:103B00009DF807309DF805208DF818309DF81A3083
:103B1000206862F300039DF806208DF81A309DF8A6
:103B20001930910961F30103C2F3401161F382037B
:103B3000C2F3001161F3C303C2F3C00161F30413C4
:103B4000C2F3800161F34513C2F3400161F38613B0
:103B500062F3C71302A98DF8193003F091FE09B082
:103B600030BD0D20FBE730B5044687B0112200219F
:103B700001A839F060F894F83833D3B104F1A805FE
:103B800001A9284603F090FB88B928460DF10301EE
:103B900003F0BDFA054650B99DF8033020688DF852
:103BA000143001A903F099FE172808BF284607B072
:103BB00030BD0D20FBE790F8CE10806FFFF74CBBB7
:103BC00000F1CE01A83003F0B2BA90F8CF10806FA8
:103BD000FFF742BB00F1CF01A83003F0A8BAB0F85C
:103BE000D010783003F0FBBB00F1D001A83003F017
:103BF000BCBA7FB591F86430DB0705460C4600F18E
:103C00004F8194F864309E071DD505F17806304643
:103C100003F094FC002840F0498141F21D513046E8
:103C200003F039FC002840F04181D4E902233046FA
:103C300003F0FFFB002840F03981304603F09DFC83
:103C4000002840F0338194F8643058071CD505F102
:103C50007806304603F072FC002840F027814621A8
:103C6000304603F018FC002840F020811022A118F3
:103C7000A86F03F0A3F9002840F01881304603F044
:103C80007CFC002840F0128194F8643019071CD5A0
:103C900005F17806304603F051FC002840F006811B
:103CA0004421304603F0F7FB002840F0FF8004F188
:103CB0002001304603F02AFC002840F0F78030460F
:103CC00003F05BFC002840F0F18094F86430DA06E1
:103CD0001DD505F17806304603F030FC002840F091
:103CE000E5804521304603F0D6FB002840F0DE8019
:103CF000082204F13101A86F03F060F9002840F0B8
:103D0000D580304603F039FC002840F0CF8094F88D
:103D100064309B062BD522466B4652F8390F51680A
:103D200005F1780603C300233046CDE9023303F0E2
:103D300005FC002840F0BA806221304603F0ABFB5E
:103D4000002840F0B38069463046FFF792FA002819
:103D500040F0AD804021A86F03F01FF9002840F02B
:103D6000A680304603F009FC002840F09F8094F8BC
:103D700064305E0600F1B28094F86430DB091AD03A
:103D800005F17806304603F0D9FB002840F08E801C
:103D90003621304603F07FFB002840F08780B4F8DE
:103DA0004810304603F01BFB00287FD1304603F05B
:103DB000E4FB00287AD194F86530D80718D505F1CE
:103DC0007806304603F0BAFB00286FD12121304637
:103DD00003F061FB002869D194F84A10A86F03F042
:103DE000DCF8002862D1304603F0C7FB00285DD123
:103DF00094F86530990719D505F17806304603F037
:103E00009DFB002852D14B21304603F044FB002893
:103E10004CD1102204F14C01A86F03F0CFF8002818
:103E200044D1304603F0A9FB00283FD194F8653017
:103E30005A071BD505F17806304603F07FFBA8BB77
:103E400041F21F51304603F026FB78BBB4F85C10FA
:103E5000304603F0C4FA48BB94F85E10A86F03F034
:103E60009CF818BB304603F088FBF8B994F865302D
:103E70001B071BD505F17806304603F05FFBA8B998
:103E80002221304603F007FB80B9216E2846FEF759
:103E900097F8044650B9304603F06FFB204606E021
:103EA00000F17806304603F049FB10B1002004B061
:103EB00070BD41F21C51304603F0EDFA0028F5D1F7
:103EC000D4E90023304603F0B4FA0028EED130469E
:103ED00003F053FB00283FF494AEE7E705F17806C2
:103EE000304603F02BFB0028E0D141F21E51304652
:103EF00003F0D1FA0028D9D1616C304603F07EFA84
:103F00000028D3D1304603F038FB00283FF434AF0B
:103F1000CCE710B59AB004466946006803F07DFD11
:103F200069462046FFF765FE1AB010BD10B59AB07D
:103F300004466946006803F097FD69462046FFF78E
:103F400058FE1AB010BD2DE9F04F0C4687B09046D0
:103F500005466822002120469946DDF840A09DF8DC
:103F6000447038F068FEB8F1000F02D00023C8F8A2
:103F70000030B9F1000F02D0002389F80030BAF107
:103F8000000F02D00023CAF8003005F1A8064FF058
:103F9000010BB5F8AE20B5F8B0309A4200F0D381ED
:103FA000304603F0D1F9002840F0A98004A930463A
:103FB00003F055F9002840F0A280049B4B2B00F041
:103FC0003A8137D8362B00F009810BD8212B00F02D
:103FD0001981222B00F06F81304603F0D5F90028BB
:103FE000D7D08CE0452B00F0C580462B00F09E809A
:103FF000442BF1D12FB1B5F8AE20B5F8B0309A42CC
:1040000013D005A9304603F062F9002877D105994D
:104010000191084639F024FA102800F29281421CDE
:10402000019904F1200038F0E2FD94F8643043F087
:1040300008035BE041F21E52934200F0BB802CD893
:1040400041F21C52934246D05CD8622BC4D12FB1AE
:10405000B5F8AE20B5F8B0309A4219D0102205A9B3
:10406000304603F013F9002849D10DF10E01304616
:1040700003F04DF8002842D19DF80E30402B40F05F
:104080006081059A1368C4F839305368C4F83D302C
:1040900094F8643043F0200328E0B3F5A95F00F002
:1040A0002E81C0F0EC8041F22752934294D12FB17F
:1040B000B5F8AE20B5F8B0309A428DD0102205A9DF
:1040C000304603F0E3F8D0B9BAF1000F84D0059B75
:1040D000CAF8003080E767B1B5F8AE20B5F8B03067
:1040E0009A4206D194F8643043F0010384F86430B6
:1040F00072E72146304603F064F80028F2D007B09A
:10410000BDE8F08F57B1B5F8AE20B5F8B0309A429F
:1041100004D194F8643043F00203E7E704F10801A6
:10412000304603F04EF80028F3D0E8E72FB1B5F899
:10413000AE20B5F8B0309A4217D00DF10E0205A9A5
:10414000304603F0E1F80028D9D1BDF80E30102B2D
:1041500040F0F780059B04F1100203F1100153F8C1
:10416000040B42F8040B8B42F9D194F8643043F00D
:104170000403BBE72FB1B5F8AE20B5F8B0309A42D2
:1041800013D00DF10E0205A9304603F0BDF800284A
:10419000B5D1BDF80E30082B40F0D380059A1368D6
:1041A000C4F831305368C4F8353094F8643043F0C3
:1041B00010039BE757B1B5F8AE20B5F8B0309A427E
:1041C00004D194F8643043F040038FE704F14401D4
:1041D000304602F0DEFF0028F3D090E757B1B5F883
:1041E000AE20B5F8B0309A4204D194F8643043F070
:1041F00080037BE704F14801304602F0B6FF002857
:10420000F3D07CE72FB1B5F8AE20B5F8B0309A42C4
:104210000AD005A9304602F07AFF00287FF46FAF7C
:104220009DF81430A4F84A3094F8653043F0010347
:1042300084F86530D0E62FB1B5F8AE20B5F8B030CF
:104240009A4217D00DF10E0205A9304603F05CF832
:1042500000287FF454AFBDF80E30102B71D1059BB0
:1042600004F14C0203F1100153F8040B42F8040B63
:104270008B42F9D194F8653043F00203D8E757B187
:10428000B5F8AE20B5F8B0309A4204D194F8653054
:1042900043F00403CCE704F15C01304602F065FF13
:1042A00000287FF42CAF04F15E01304602F02FFFAE
:1042B0000028EBD023E72FB1B5F8AE20B5F8B03029
:1042C0009A4217D000232366B5F8AE20B5F8B03077
:1042D0009A420FD005A9304602F019FF00287FF45A
:1042E0000EAF9DF814301F2B2BD8226E0BFA03F360
:1042F0001343E8E794F8653043F0080398E737B1D3
:10430000B5F8AE20B5F8B0309A423FF465AE0DF185
:104310000E0205A9304602F0F7FF00287FF4EFAE49
:10432000BDF80E30FF2B0CD8B8F1000F02D0059A63
:10433000C8F80020B9F1000F3FF44EAE89F8003004
:104340004AE60720DBE60020D9E610B500239CB042
:10435000CDE900331A4602A90446FFF7F4FD18B967
:1043600002A9206803F079FB1CB010BD10B5002332
:104370009CB0CDE900331A4602A90446FFF7E3FDDD
:1043800018B902A9206803F076FB1CB010BD10B567
:1043900000239EB0CDE9003303AA0DF10B0304A95D
:1043A0000446FFF7D0FD30B99DF80B30039A206822
:1043B00004A903F06CFB1EB010BD10B500239EB025
:1043C000CDE9003303AA0DF10B0304A90446FFF75E
:1043D000BAFD30B99DF80B30039A206804A903F0A8
:1043E00060FB1EB010BD10B5A0B00123019305AB5A
:1043F000009304AA0DF10F0306A90446FFF7A3FDDD
:1044000040B9059A00929DF80F30049A20681FA9C0
:1044100003F038FB20B010BD10B5A0B0012301930C
:1044200005AB009304AA0DF10F0306A90446FFF79C
:104430008AFD40B9059A00929DF80F30049A2068D1
:104440001FA903F029FB20B010BD000010B50446E1
:10445000006803F0BAFB0138C0B2042896BF044BD1
:104460000021195CA06FBDE8104002F096BD00BFAE
:104470004EE3030070B500F1A8068EB00023054698
:104480000DF11F0130468DF81F30CDE90833CDE91D
:104490000A33CDE90C3302F04AFE044628B99DF8F0
:1044A0001F302BB9286803F08BFB20460EB070BD7F
:1044B00008A9304602F00BFF04460028F5D1B5F8F4
:1044C000AE20B5F8B0309A4238D1B5F8AE20B5F884
:1044D000B0309A4206D00AA9304602F0F8FE0446EF
:1044E0000028E2D1B5F8AE20B5F8B0309A4206D037
:1044F0000BA9304602F0EBFE04460028D5D1B5F8F2
:10450000AE20B5F8B0309A4206D00CA9304602F081
:10451000DEFE04460028C8D1B5F8AE20B5F8B030AC
:104520009A4206D00DA9304602F0D1FE044600287A
:10453000BBD10A9B53B9154B0A930AE009A930462F
:1045400002F0C5FE04460028BFD0AEE71B78002B62
:10455000F1D00B9B0BB11B780BB90D4B0B930C9B44
:104560000BB11B780BB90B4B0C930B4B03930D9BAF
:1045700002930C9B01930B9B00930495DDE90923A7
:104580000899286803F017FB04468EE759E30300F7
:1045900064E303006DE30300B35500001FB5044658
:1045A000006803F074FD034680B1596800686A46EC
:1045B00003C20023694604F17800CDE90233FEF717
:1045C00058FE18B94021A06F02F0E7FC04B010BDFE
:1045D00037B500F1A8050446102201A9284602F0CB
:1045E00055FE68B90DF10301284602F090FD38B977
:1045F0009DF80330402B05D10199206803F04BFD55
:1046000003B030BD0720FBE710B50446006803F097
:104610003AFD20B1014604F17800FEF72AFE10BDF4
:1046200010B50446006803F04FFD20B1014604F1C7
:104630007800FEF71EFE10BD70B50546064655F81B
:10464000780B03F065FA04460CB3284602F076FFB7
:10465000F0B921462846FEF70CFEC8B9217CB06FA0
:1046600002F09BFCA0B9617C284641F3000102F0F6
:10467000C5FE68B9617C284641F3400102F0BEFEE8
:1046800030B9284602F079FF10B96469DCE72046AA
:1046900070BD30B500F1A80489B0054602A92046D6
:1046A00002F002FE10BB06A9204602F030FDE8B978
:1046B0006946204602F06DFDC0B901A9204602F00E
:1046C00068FD98B9009B28681A1C9DF8193018BF1E
:1046D000012262F30003019A003218BF012262F343
:1046E000410302A98DF8193003F016FA09B030BD64
:1046F00037B50446102201A9A83002F0C7FD0546CF
:1047000030B90199206803F00CFA172808BF284631
:1047100003B030BD0221783002F093BF10B50446DB
:10472000006803F0C8F9011C18BF0121A06FBDE8A3
:104730001040FEF791BD37B502A90023054601F8E8
:10474000013DA83002F0F3FC044640B99DF8073063
:104750002868002B14BF0321002103F0B0F9204684
:1047600003B030BD38B5054655F8780B03F0DEF9D7
:10477000044674B1284602F0E1FE58B921462846A5
:10478000FEF777FD30B9284602F0F7FE10B924692C
:10479000EFE7204638BD37B50446102201A9A830FE
:1047A00002F074FD054630B90199206803F0C2F9A2
:1047B000182808BF284603B030BD37B5044610227C
:1047C00001A9A83002F062FD054630B901992068C0
:1047D00003F0B5F9172808BF284603B030BD000024
:1047E00010B50446006803F066F90138C0B202282B
:1047F00096BF044B0021195CA06FBDE8104002F089
:10480000CCBB00BF53E3030037B505460DF10701EC
:10481000A83002F07CFC044658B99DF80730013BF3
:10482000DBB2022B96BF044A0146D15C286803F034
:1048300046F9204603B030BD56E3030010B50446E8
:10484000006803F086F980F00101C9B2A06FBDE8ED
:104850001040FEF701BD37B502A90023054601F857
:10486000013DA83002F063FC044630B99DF8071002
:10487000286881F0010103F070F9204603B030BDD3
:1048800070B588B00023504E0193044602AA01A9D6
:10489000206803F053FB002841D104F17805284635
:1048A00002F04CFE002838D102A92846FEF7E1FCB0
:1048B00098BB9DF81810A06F02F06FFB68BB9DF8C5
:1048C0001C10A06FC1F38001FEF7C6FC28BB9DF849
:1048D0001C3043F301035BB20133022B8CBF014652
:1048E000F15CA06F02F059FBB8B90146A06F02F06D
:1048F00054FB90B99DF81C10A06FC1F3C001FEF7E6
:10490000ABFC50B9BDF81A10284602F068FD20B97A
:10491000284602F032FE0028B8D008B070BD00234F
:10492000294E019304F1780502AA01A9206802F03A
:10493000FEFF002845D1284602F000FE0028ECD1F9
:1049400002A92846FEF795FC0028E6D19DF818102C
:10495000A06F02F022FB0028DFD19DF81C10A06F91
:10496000C1F38001FEF778FC0028D6D19DF81C30F9
:1049700043F301035BB20133022B8CBF0146F15CB0
:10498000A06F02F00AFB0028C7D10121A06F02F03E
:1049900004FB0028C1D19DF81C10A06FC1F3C00119
:1049A000FEF75AFC0028B8D1BDF81A10284602F0CC
:1049B00016FD0028B1D1284602F0DFFD0028B3D053
:1049C000ABE70020A9E700BF48E3030030B5054688
:1049D00089B00021182202A88DF805108DF8061064
:1049E00038F029F995F83833002B3DD005F1A804AB
:1049F00002A9204602F058FC90BB0DF107012046A9
:104A000002F085FB60BB0DF10501204602F08FFB33
:104A100030BB0DF10601204602F079FB00BB9DF88A
:104A200007308DF818309DF805209DF81C3062F392
:104A300082038DF81C309DF8063003F0C003402B34
:104A400010D0C02B0CBF4FF0FF3200229DF81C305D
:104A5000286862F3010302A98DF81C3002F04DFFB3
:104A600009B030BD0122F1E70D20F9E730B5044669
:104A700087B01122002101A838F0DDF894F838330E
:104A8000D3B104F1A80501A9284602F00DFC88B9AC
:104A900028460DF1030102F03AFB054650B99DF896
:104AA000033020688DF8143001A902F038FF172870
:104AB00008BF284607B030BD0D20FBE730B500F138
:104AC000A80585B00023044601AA02A9284602933E
:104AD000ADF804300393ADF8063002F020FCD8B9ED
:104AE0000DF1060203A9284602F00EFCA0B9034608
:104AF0000299BDF80420206803F038F8014650B14F
:104B0000206803F02EF838B9D4F844330133C4F8E0
:104B1000443305B030BD0320D4F858330133C4F812
:104B20005833F6E710B5044654F8780B03F03DF916
:104B300001462046BDE8104002F051BC10B50446C5
:104B400054F8780B03F0EDF801682046BDE81040FA
:104B500002F054BC10B5044654F8780B03F0E1F8A9
:104B6000C1682046BDE8104002F048BC10B50446BC
:104B700054F8780B03F0D5F801692046BDE81040E1
:104B800002F03CBC10B5044654F8780B03F0C9F8A9
:104B900041692046BDE8104002F030BC10B5044623
:104BA00054F8780B03F0BDF881692046BDE8104049
:104BB00002F024BC10B5044654F8780B03F0B1F8A9
:104BC000C1692046BDE8104002F018BC10B504468B
:104BD00054F8780B03F0A5F8016A2046BDE81040B0
:104BE00002F00CBC10B5044654F8780B03F099F8A9
:104BF000416A2046BDE8104002F000BC10B50446F2
:104C000054F8780B03F08DF8816A2046BDE8104017
:104C100002F0F4BB10B5044654F8780B03F081F8A9
:104C2000C16A2046BDE8104002F0E8BB10B504465A
:104C300054F8780B03F075F8016B2046BDE810407E
:104C400002F0DCBB10B5044654F8780B03F069F8A9
:104C500041682046BDE8104002F0D0BB10B50446C4
:104C600054F8780B03F05DF881682046BDE81040E9
:104C700002F0C4BB10B5044654F8780B03F051F8A9
:104C8000416B2046BDE8104002F0B8BB10B50446A9
:104C900054F8780B03F045F8C16B2046BDE810408E
:104CA00002F0ACBB10B5044654F8780B03F039F8A9
:104CB000816C2046BDE8104002F0A0BB10B5044650
:104CC00054F8780B03F02DF8C16C2046BDE8104075
:104CD00002F094BB10B5044654F8780B03F021F8A9
:104CE000016D2046BDE8104002F088BB10B50446B7
:104CF00054F8780B03F015F8416D2046BDE81040DC
:104D000002F07CBB10B5044654F8780B03F009F8A8
:104D1000816D2046BDE8104002F070BB10B504461E
:104D200054F8780B02F0FDFFC16D2046BDE810403D
:104D300002F064BB10B5044654F8780B02F0F1FFA2
:104D4000016E2046BDE8104002F058BB10B5044685
:104D500054F8780B02F0E5FF416E2046BDE81040A4
:104D600002F04CBB10B5044654F8780B02F0D9FFA2
:104D7000016C2046BDE8104002F040BB10B504466F
:104D800054F8780B02F0CDFF416C2046BDE810408E
:104D900002F034BB10B5044654F8780B02F0C1FFA2
:104DA000816E2046BDE8104002F028BB10B50446D5
:104DB00054F8780B02F0B5FFC16E2046BDE81040F4
:104DC00002F01CBB10B5044654F8780B02F0A9FFA2
:104DD000016F2046BDE8104002F010BB10B504463C
:104DE00054F8780B02F09DFF416F2046BDE810405B
:104DF00002F004BB10B5044654F8780B02F091FFA2
:104E0000816F2046BDE8104002F0F8BA10B50446A4
:104E100054F8780B02F085FFC16F2046BDE81040C2
:104E200002F0ECBAD0F84413783002F0E7BAD0F8C8
:104E30004813783002F0E2BAD0F85813783002F014
:104E4000DDBAD0F84C13783002F0D8BAD0F850134D
:104E5000783002F0D3BAD0F85413783002F0CEBADA
:104E6000D0F86813783002F0C9BAD0F860137830FF
:104E700002F0C4BAD0F85C13783002F0BFBA10B5B3
:104E8000044654F8780B03F01AFA01682046BDE88E
:104E9000104002F0B3BA10B5044654F8780B03F092
:104EA0000EFA41682046BDE8104002F0A7BA10B5DE
:104EB000044654F8780B03F002FA81682046BDE8F6
:104EC000104002F09BBA10B5044654F8780B03F07A
:104ED000F6F9C1682046BDE8104002F08FBA10B55F
:104EE00004468AB054F8780B694602F09AFFBDF880
:104EF0000010204602F073FA00285CD1BDF80210C1
:104F0000204602F06CFA002855D1BDF80410204666
:104F100002F065FA00284ED1BDF80610204602F0D6
:104F20005EFA002847D1BDF80810204602F057FA73
:104F3000002840D1BDF80A10204602F050FAD0BB3C
:104F4000BDF80C10204602F04AFAA0BBBDF80E10C6
:104F5000204602F044FA70BBBDF81010204602F063
:104F60003EFA40BBBDF81210204602F038FA10BBE2
:104F7000BDF81410204602F032FAE0B9BDF8161060
:104F8000204602F02CFAB0B9BDF81810204602F005
:104F900026FA80B9BDF81A10204602F020FA50B95E
:104FA000BDF81C10204602F01AFA20B9BDF81E10F8
:104FB000204602F014FA00200AB010BD38B50446AD
:104FC00054F8780B02F0ADFE054628B920461521AD
:104FD000BDE8384002F035BB204602F0AFFA0028A9
:104FE00040F0D0802968204602F008FA002840F0FE
:104FF000C9806968204602F001FA002840F0C280AA
:10500000A968204602F0FAF9002840F0BB80E96860
:10501000204602F0F3F9002840F0B48029692046C8
:1050200002F0ECF9002840F0AD806969204602F0FA
:10503000E5F9002840F0A680A969204602F0DEF9D3
:10504000002840F09F80E969204602F0D7F9002847
:1050500040F09880296A204602F0D0F9002840F0FC
:105060009180696A204602F0C9F9002840F08A80E0
:10507000A96A204602F0C2F9002840F08380E96A5C
:10508000204602F0BBF900287CD1296B204602F0B3
:10509000B5F9002876D1696B204602F0AFF90028F7
:1050A00070D1A96B204602F0A9F900286AD12046E8
:1050B00002F063FA002865D1204602F03FFA00288A
:1050C00060D1E96B204602F099F900285AD1296C89
:1050D000204602F093F9002854D1696C204602F072
:1050E0008DF900284ED1A96C204602F087F90028DE
:1050F00048D1E96C204602F081F9002842D1296D9F
:10510000204602F07BF900283CD1696D204602F070
:1051100075F9002836D1A96D204602F06FF988BBD9
:10512000E96D204602F06AF960BB296E204602F064
:1051300065F938BB696E204602F060F910BBA96EB4
:10514000204602F05BF9E8B9E96E204602F056F914
:10515000C0B9296F204602F051F998B9696F20460D
:1051600002F04CF970B9A96F204602F047F948B92E
:10517000E96F204602F042F920B92046BDE83840E8
:1051800002F0FBB938BD38B5044654F8780B03F08B
:105190009AF8054628B920461521BDE8384002F0A6
:1051A00050BA0188204602F01AF940BB69882046AF
:1051B00002F015F918BBA988204602F010F9F0B9E1
:1051C000E988204602F00BF9C8B92989204602F087
:1051D00006F9A0B96989204602F001F978B9A989D0
:1051E000204602F0FCF850B9E989204602F0F7F8B1
:1051F00028B9298A2046BDE8384002F0F0B838BD09
:1052000010B50446006802F0FDFEC0F34001C0F393
:10521000C003C0F3800200F00100FEF72EF8014643
:10522000A06FBDE8104001F0B8BE37B502A9002458
:10523000054601F8014DA83001F069FFB0B99DF8AD
:1052400007302868C3F3C0024FF0000162F3000189
:10525000C3F3800262F34101C3F3400262F38201AF
:1052600063F3C30102F0DDFE03B030BD2046FBE76F
:1052700010B5044654F8780B02F084FE014620462F
:10528000BDE8104002F0BAB837B502A900230546C0
:1052900041F8043DA83001F07CFF044618B901999B
:1052A000286802F073FE204603B030BD10B50446F6
:1052B00054F8780B02F06CFF01462046BDE8104020
:1052C00002F08DB890F83913806FFDF7C5BF00F27A
:1052D0003931A83001F02BBF7FB500F1A8060023BB
:1052E0000446012501AA02A930460293ADF8043014
:1052F0000393ADF806308DF800308DF8015002F0C0
:105300000EF838B1D4F848330133C4F848330020DC
:1053100004B070BD0DF1060203A9304601F0F4FFA0
:105320000028EFD16B46BDF804200299206802F0F6
:105330001DFC064670B1294602F045FD3146206845
:1053400002F00FFC0028DDD0D4F858330133C4F844
:105350005833DDE70320F7E707B502A9002301F87A
:10536000013DA83001F0D3FE28B99DF80730012B8C
:1053700014BF07200C2003B05DF804FB13B50446EE
:105380000DF10601A83001F0F0FE20B9BDF80610BD
:10539000206802F0F0FB02B010BD37B504460DF1F5
:1053A0000601A83001F0E1FE054638B9BDF8061047
:1053B000206802F0E5FB172808BF284603B030BD7F
:1053C00010B50446006802F0EAFB0146A06FBDE894
:1053D0001040FDF741BF37B505460DF10701A83074
:1053E00001F0A5FE044620B99DF80710286802F0D8
:1053F000DAFB204603B030BDF8B506460D4600295D
:1054000078D091F83930C3F303079A064FEA0717AB
:1054100000F1780448BF47F001070722DB064FF090
:1054200080014FF03303204648BF47F0080702F0E1
:10543000EAF8002858D195F83610B06F01F0ADFDAC
:10544000002851D195F937102046FDF70EFF0028AE
:105450004AD1204602F072F8002845D1294620465C
:10546000FDF762F900283FD14FF6FF71204601F0A9
:10547000B6FFC8BB698E204601F0B1FFA0BB95F80E
:105480003810B06F01F089FD70BB204602F075F84E
:1054900050BB204602F052F830BB0321204601F0F9
:1054A000FAFF08BB3946B06F01F077FDE0B905F1AE
:1054B0000801204602F02AF8B0B9082205F11901C6
:1054C000204602F013F878B995F8212005F1220161
:1054D000204602F00BF838B9204602F04EF818B911
:1054E000204602F073F878B10B2106F1E000FDF7D9
:1054F000B8FE03E03021E030FDF7B0FE06F1D40045
:10550000BDE8F84003F0E4BEF8BD0B46014618467E
:10551000FFF772BF70B504460E46E9B100F1780599
:10552000392307228021284602F06DF870B93178BE
:10553000A06F01F032FD48B996F901102846FDF739
:1055400094FE18B9284602F041F878B10B2104F115
:10555000E000FDF786FE03E03021E030FDF77EFE3F
:1055600004F1D400BDE8704003F0B2BE70BD0B463C
:1055700001461846FFF7CEBF082910B5044600F1D2
:10558000E00012D002D839B1682106E017290ED008
:105590001C29F9D16C2100E06D21FDF762FE04F1B8
:1055A000D400BDE8104003F093BE6921F5E76A21FD
:1055B000F3E70B4601461846FFF7DEBFF8B5044691
:1055C00008460E4602F0FBFB04F17805074600286A
:1055D00014BF7223732306228021284602F013F899
:1055E000B0B9304602F0E9FB0146284601F0F7FE6B
:1055F00070B93146A06F01F0A3FC48B9284601F00C
:10560000E5FF28B92FB1D4F84C330133C4F84C333B
:10561000F8BDD4F850330133C4F85033F8E7F8B587
:10562000074600F55076304602F0EBFB044680B1A9
:105630000146304602F0E3FB21463846FFF7BEFF45
:1056400005460028EFD02146304602F0D5FB28461B
:10565000F8BD0546FBE710B5044679B100F550707A
:1056600002F0C7FB50B994F8FA2294F8FB329A4240
:1056700004D12046BDE81040FFF7D1BF10BD0B4656
:1056800001461846FFF7E7BFF8B590F83B330646EA
:105690000D461746CBB300F1780471230622802112
:1056A000204601F0B0FF80BBA988204601F097FE9C
:1056B00058BBAA882968B06F01F080FC28BB95F917
:1056C00010102046FDF7D1FDF8B96FF07F0120469C
:1056D000FDF7CBFDC8B93946204601F080FEA0B9E0
:1056E000204601F02BFF80B9204601F046FF60B94B
:1056F000204601F023FF40B9204601F03EFF20B9CB
:105700002046BDE8F84001F061BFF8BD13460A46E7
:1057100001461846FFF7B8BF90F83B13806FFDF7BE
:105720009BBD000037B504460DF10701A83001F01C
:10573000FEFC054668B99DF8073094F83B239A4271
:1057400007D084F83B33206833B10549224602F084
:10575000D4FA284603B030BD2A462946F7E700BFF1
:105760000D570000D1F8DC301843C1F8DC0001F11E
:10577000D40003F0ADBD00002DE9F041D0F8DC30DD
:105780000446002B5BD05B072CD590F839334BB324
:10579000006802F0DFFC012807D9002384F83933C0
:1057A000492104F1E000FDF759FD206802F0D2FC28
:1057B000042817D1206802F065FD98B1D4F8DC30D8
:1057C000254623F08003C4F8DC3055F8E00B0021B7
:1057D00002F048FD42212846FDF740FD6821284699
:1057E000FDF73FFDDFF86C80002504F1E00755F878
:1057F0000860D4F8DC301E4206D10835A02DF6D161
:105800000023C4F8DC301AE008EB0503596852297C
:1058100017D03846FDF722FDB6F5007F07D15A2193
:105820003846FDF71BFD5B213846FDF717FDD4F820
:10583000DC3023EA0603C4F8DC30002BDDD1BDE800
:10584000F08194F83D33002284F83D23002BE0D111
:10585000E2E700BF88E3030040F206539A4200F0FB
:105860009A8400F24681462A00F0FD8300F292807D
:10587000262A00F0548344D8082A00F030831FD829
:10588000032A00F03A830AD8012A4FF0000300F0FF
:10589000588340F23783CA4AC0E900237047052A7B
:1058A0004FF0000300F00D83C0F0B283062A00F031
:1058B0002083072A00F03C830023C0E900337047AF
:1058C000202A00F023830CD80C2A00F00D830D2A27
:1058D00000F03283092AEFD1BA4B03600023436002
:1058E0007047222A4FF0000300F09683C0F0138324
:1058F000232A00F0A683252ADED1B34AC0E900237B
:105900007047362A00F0218320D8302A00F06E83B9
:105910000CD8282A4FF0000300F08283C0F00483E3
:10592000292AC9D1A94AC0E900237047322A4FF079
:10593000000300F06483C0F05E83342A00F04A83E1
:10594000352AB9D1A24AC0E900237047412A00F0A4
:105950007C830FD8382A4FF0000300F04383C0F057
:105960003D833A2A00F06083402AA5D1994AC0E9D4
:1059700000237047432A4FF0000300F08183C0F0FA
:105980008383442A00F07483452A95D1924AC0E962
:10599000002370475D2A00F07B834FD8532A00F024
:1059A000948325D84A2A00F059830AD8482A4FF010
:1059B000000300F0618340F24D83884AC0E9002370
:1059C0007047502A00F0788307D84B2A7FF474AFD1
:1059D000834B0360002343607047512A00F08C839F
:1059E000522A7FF469AF7F4B036000234360704706
:1059F000582A00F0978310D8552A4FF0000300F082
:105A0000EB84C0F0E084562A00F08883572A7FF4A4
:105A100053AF754AC0E9002370475A2A4FF000037C
:105A200000F06683C0F076835B2A00F05D835C2A19
:105A30007FF442AF6D4AC0E900237047672A00F047
:105A4000838322D8622A00F088830DD8602A4FF021
:105A5000000300F07E8300F285835E2A7FF42CAF82
:105A6000634AC0E900237047642A4FF0000300F046
:105A70007D83C0F06183652A00F06283662A7FF42B
:105A80001BAF5C4AC0E90023704740F201539A42C1
:105A900000F0708316D8822A00F0BF8407D8802ACD
:105AA0007FF40AAF544B0360002343607047842A9D
:105AB00000F0B884852A7FF4FFAE504B03600023CA
:105AC0004360704740F203539A424FF0000300F0E6
:105AD0005A83C0F0548340F204518A4200F0578345
:105AE00040F205518A427FF4E7AE454AC0E90023FF
:105AF000704740F232639A4200F0608400F2EE8018
:105B000040F26D539A4200F08A8300F2838040F2A3
:105B100064539A4200F05D8328D840F20A539A42B7
:105B200000F046830BD8B2F5A16F4FF0000300F0F0
:105B30003B8340F23583334AC0E90023704740F28B
:105B40000C539A424FF0000300F03783C0F03D83BE
:105B500040F20D518A4200F0348340F20E518A42E5
:105B60007FF4AAAE284AC0E900237047B2F5AD6FB2
:105B700000F03C830CD840F266539A424FF0000389
:105B800000F0308340F22A83204AC0E900237047A6
:105B900040F26A539A424FF0000300F03083C0F0A5
:105BA0002A8340F26B518A4200F02D8340F26C51FF
:105BB0008A427FF481AE164AC0E90023704700BFD5
:105BC000E52200002D2300006D260000EF260000D6
:105BD0007F1F00001F34000075350000C552000013
:105BE000FD2A00002729000085360000DD3800006E
:105BF00001520000654700004D440000432E0000A4
:105C00009D4B0000FD4B0000754C0000D54C000082
:105C1000954D000040F2C9539A4200F0AD832AD856
:105C200040F271539A4200F095830ED840F26F53C0
:105C30009A4200F0FD82B2F5AE6F4FF00003C0F063
:105C4000F382C44AC0E90023704740F273539A427A
:105C50004FF0000300F0DB82C0F0818340F274510A
:105C60008A4200F0D882B2F5B96F7FF425AEBA4A05
:105C7000C0E90023704740F22C639A4200F08D8304
:105C800016D840F2CB539A424FF0000300F07D83C8
:105C9000C0F0778340F2CC518A4200F07A8340F220
:105CA000CD518A427FF408AEAC4AC0E90023704768
:105CB00040F22E639A424FF0000300F07783C0F069
:105CC0007183B2F5C66F00F0758340F231618A428C
:105CD0007FF4F2ADA24AC0E90023704741F20B53B2
:105CE0009A4200F0F7816ED8B2F5A85F00F0D58136
:105CF00035D840F292639A4200F0398310D8B2F559
:105D0000D26F4FF0000300F0988100F22C8340F234
:105D100033618A427FF4D0AD924AC0E900237047D4
:105D200041F209039A4200F06E8109D841F208035A
:105D30009A427FF4C1AD8C4B0360002343607047EF
:105D400041F202339A4200F0738141F209339A42E0
:105D50007FF4B2AD854B036000234360704741F28E
:105D600006539A4200F0D18116D841F202539A426A
:105D70004FF0000300F03C83C0F0C38141F20351B7
:105D80008A4200F03D8341F204518A427FF494AD8F
:105D9000774AC0E90023704741F208539A424FF016
:105DA000000300F02983C0F01B8341F209518A42AD
:105DB00000F02A8341F20A518A427FF47DAD6D4A98
:105DC000C0E90023704741F218539A4200F0AF81B6
:105DD00036D841F210539A4200F0298311D841F28B
:105DE0000D539A424FF0000300F06B81C0F0FC822B
:105DF00041F20E518A427FF45FAD5F4AC0E9002351
:105E0000704741F214539A4200F04C8109D841F294
:105E100013539A427FF450AD584B03600023436004
:105E2000704741F215539A4200F0418141F21753F5
:105E30009A427FF441AD524B0360002343607047A8
:105E400041F228539A4200F0E3821ED841F22153D6
:105E50009A4200F0BC8209D841F219539A427FF469
:105E60002BAD484B036000234360704741F222533F
:105E70009A4200F0348141F223539A427FF41CADE0
:105E8000414B0360002343607047B2F5804F1CD044
:105E900009D841F60E139A427FF40EAD3B4B0360D6
:105EA00000234360704744F201039A4212D044F247
:105EB00002039A427FF400AD354B03600023436038
:105EC0007047344AC0E900237047334B0360002316
:105ED00043607047314B0360002343607047304B91
:105EE00003600023436070472E4B03600023436030
:105EF00070472D4AC0E9002370472C4B03600023F4
:105F0000436070472A4AC0E900237047294B036069
:105F1000002343607047284AC0E900237047274B9D
:105F20000360002343607047254AC0E9002370479F
:105F3000244AC0E900237047234B036000234360D9
:105F40007047224AC0E900237047214B03600023B9
:105F500043607047F54D0000254E0000574E00008D
:105F6000974E0000C74E00001D210000254B000089
:105F70008F2C0000653100002F370000B73B000078
:105F80007B2900002D3F0000B5310000C153000007
:105F9000BF2600004D220000BD260000C1260000E3
:105FA0001323000035230000FB2200003D220000E7
:105FB00015220000811E0000891E000041260000FD
:105FC0005726000007230000032300001F220000C3
:105FD000151F0000994AC0E900237047984AC0E99C
:105FE00000237047974AC0E900237047964B03602F
:105FF000002343607047954AC0E900237047944AE4
:10600000C0E900237047934B03600023436070474F
:10601000914AC0E900237047904AC0E900237047C5
:106020008F4AC0E9002370478E4AC0E900237047B9
:106030008D4B03600023436070478C4AC0E9002306
:1060400070478B4AC0E9002370478A4B03600023E6
:1060500043607047884AC0E900237047874B03605C
:10606000002343607047864B036000234360704702
:10607000844AC0E900237047834AC0E9002370477F
:10608000824AC0E900237047814AC0E90023704773
:10609000804B03600023436070477F4B0360002305
:1060A000436070477D4B03600023436070477C4B27
:1060B00003600023436070477A4B03600023436012
:1060C0007047794AC0E900237047784B036000238A
:1060D00043607047764B0360002343607047754B05
:1060E0000360002343607047734AC0E90023704790
:1060F000724AC0E900237047714B0360002343607C
:106100007047704AC0E9002370476F4B036000235B
:10611000436070476D4AC0E9002370476C4AC0E98C
:10612000002370476B4B03600023436070476A4B4A
:106130000360002343607047684AC0E9002370474A
:10614000674AC0E900237047664B03600023436041
:106150007047654AC0E900237047644B0360002321
:1061600043607047624AC0E900237047614AC0E952
:1061700000237047604B03600023436070475F4A11
:10618000C0E9002370475E4AC0E9002370475D4ABA
:10619000C0E9002370475C4B0360002343607047F5
:1061A0005A4AC0E900237047594AC0E900237047A2
:1061B000584B0360002343607047574AC0E90023EF
:1061C0007047564AC0E900237047554AC0E900238A
:1061D0007047544B0360002343607047524AC0E944
:1061E00000237047514AC0E900237047504B0360B9
:1061F0000023436070474F4AC0E9002370474E4A6E
:10620000C0E9002370474D4AC0E9002370474C4A5B
:10621000C0E9002370474B4AC0E9002370474A4B4E
:106220000360002343607047484AC0E90023704779
:10623000474B036000234360704700BF4B1F0000C3
:10624000971F0000C11E00006920000031200000DF
:1062500055200000FD25000045220000D926000041
:10626000195700003F33000071330000DF4E00007B
:106270008933000035340000013600004F3600003D
:10628000BB3500003935000037360000CD34000042
:106290006D3400006539000071520000CB3B0000F6
:1062A000DF3B00006F370000053700005937000062
:1062B000313800005F38000081480000A939000033
:1062C00099370000AD5200003D4800009B360000A9
:1062D000B1360000DB360000133F000039460000F5
:1062E0001D470000E1470000214600009D450000D9
:1062F00009460000154700003D4B0000554B0000CB
:106300006D4B0000854B0000B54B0000CD4B0000ED
:10631000E54B0000154C0000454C00005D4C0000B2
:106320002D4C00008D4C0000A54C0000BD4C000021
:10633000ED4C0000054D00001D4D0000354D0000E6
:10634000654D00007D4D0000AD4D0000C54D0000C5
:10635000DD4D0000384B0360002343607047374A2F
:10636000C0E900237047364AC0E900237047354B27
:106370000360002343607047334B03600023436096
:106380007047324AC0E900237047314AC0E9002310
:106390007047304AC0E9002370472F4B0360002349
:1063A000436070472D4AC0E9002370472C4AC0E97A
:1063B000002370472B4AC0E9002370472A4B036033
:1063C000002343607047294AC0E900237047284BE7
:1063D0000360002343607047264AC0E900237047EA
:1063E000254AC0E900237047244AC0E900237047CA
:1063F000234AC0E900237047224AC0E900237047BE
:10640000214AC0E900237047204AC0E900237047B1
:106410001F4B03600023436070471E4B0360002343
:10642000436070471C4B03600023436070471B4B65
:1064300003600023436070470D4E00004D4D000087
:10644000BD4F0000875100002F4E0000394E000064
:10645000434E00004D4E0000614E00006B4E0000A8
:10646000754E00007F4E0000AF4E00001129000065
:10647000352A0000FB280000C52A0000672B000019
:106480009F2B0000DB2B0000532C0000172C00007A
:10649000CB2C0000F72C0000F32D00009F300000F3
:1064A000722A00F0308171D8432A00F022813AD854
:1064B000322A00F014811CD8252A00F000810BD864
:1064C000212A00F0FE80222A00F00D81072A0DD13A
:1064D000AB4B03600023FAE0302A4FF0000300F0DA
:1064E000FC8000F2F880282A00F0FB800023036083
:1064F000EDE0382A00F0E7800AD8362A4FF0000392
:1065000000F0E38000F2E580342AEFD19D4BE0E714
:10651000412A4FF0000300F0E88000F2E8803A2AB8
:10652000E4D1994BD5E74B2A00F00B8115D8472AC7
:1065300000F0E58008D8452A4FF0000300F0DD8028
:1065400040F2D980914AC1E0492A4FF0000300F09F
:10655000E68040F2F8808E4AB8E05E2A00F0DD80E6
:106560000AD85C2A4FF0000300F0CB8000F2DD80F7
:10657000552ABBD1874BACE7652A00F0C680672A55
:1065800000F0C580622AB1D1834BA2E741F20C53DF
:106590009A4200F0DE8046D841F202539A4200F05F
:1065A000DA801AD8842A00F0E08009D8812A00F025
:1065B000B280822A00F0D780732A97D1774B88E780
:1065C00041F208039A4278D0B2F5A85F00F0A180AA
:1065D000B2F5A06F8AD1724B7BE741F207539A4222
:1065E00000F0B5800FD841F204539A424FF00003F7
:1065F00000F0AB80C0F0B38041F206539A427FF4C2
:1066000075AF684B65E741F209539A424FF00003BA
:1066100000F0A780C0F0A18041F20A539A427FF4B3
:1066200065AF614B55E741F225539A4200F08580F2
:1066300021D841F218539A4279D00ED841F214531E
:106640009A426ED041F215539A426CD041F21353E4
:106650009A427FF44BAF554B3BE741F21A539A42B3
:106660004FF0000367D064D341F21B539A427FF48A
:106670003DAF4F4B2DE741F603039A427BD00DD837
:10668000B2F5C05F73D041F601039A4271D041F276
:1066900026539A427FF42AAF464B1AE741F6060387
:1066A0009A426AD041F60E139A4248D041F6050349
:1066B0009A427FF41BAF404B0BE7404B09E7404B3E
:1066C00007E7404B05E7404B03E7404A0260436061
:1066D00070473F4AFAE73F4AF8E73F4AF6E73F4B41
:1066E000F7E63F4BF5E63F4BF3E63F4AEEE73F4A1E
:1066F000ECE73F4BEDE63F4AE8E73F4AE6E73F4B32
:10670000E7E63F4AE2E73F4BE3E63F4BE1E63F4B3C
:10671000DFE63F4BDDE63F4BDBE63F4BD9E63F4A4A
:10672000D4E73F4BD5E63F4BD3E63F4ACEE73F4B5E
:10673000CFE63F4ACAE73F4AC8E73F4BC9E63F4B6F
:10674000C7E63F4BC5E63F4AC0E73F4ABEE73F4B7F
:10675000BFE63F4BBDE63F4BBBE63F4AB6E73F4A8D
:10676000B4E73F4AB2E73F4BB3E63F4BB1E63F4B9E
:10677000AFE63F4BADE63F4BABE63F4BA9E600BF74
:106780000F230000631F000057330000D3350000C3
:106790006736000043310000D1450000D9520000A7
:1067A00059530000574800006F310000C13B000002
:1067B000BB4300001944000039300000892100006B
:1067C0009B2600009F1E0000DF1E00002D1F000002
:1067D000A11F0000392000009D2000005F20000064
:1067E00025570000D53300004B34000087340000EB
:1067F000F5340000513500008D35000019360000D9
:1068000015390000BD4A0000374700000948000064
:1068100089520000754400002B520000CF52000046
:10682000D53B0000E93B00006F3900004B430000FE
:106830006D4300008F430000E7430000D753000082
:10684000152B0000432B0000A52C0000DB2A0000C4
:106850007D2B0000B52B0000F12B00006B2C0000FD
:106860002D2C00001B2D0000292E00005B2E0000A7
:10687000AD2E00008D2F000065300000632A1FD070
:1068800007D85B2A22D05C2A1ED05A2A06D1114B87
:1068900012E0832A1CD004D8662A13D00023036098
:1068A0000CE041F208039A4205D041F20F539A429C
:1068B000F4D1094B00E0094B0360002343607047AB
:1068C000074BF9E7074BF7E7074BF5E7074BF3E70C
:1068D000074BF1E7AD3A0000FF300000D92100007E
:1068E00093460000974700007D530000CD4900000B
:1068F000512D0000632A1FD007D85B2A20D05C2AC4
:1069000020D05A2A06D1114B12E0832A1CD004D879
:10691000662A13D0002303600CE041F208039A4278
:1069200005D041F205539A42F4D1094B00E0094BDE
:106930000360002343607047074BF9E7074BF7E715
:10694000074BF5E7074BF3E7074BF1E7673B000021
:106950008F310000F7210000F1460000BB47000026
:106960006D4A00009B530000B12D000070B5036814
:1069700003625A1E044611468B4202D92089014403
:10698000FAE7616202212177C4E90A330021216319
:1069900084F8341084F835104FF6FF71E186A36354
:1069A000934202D921890A44FAE7C4E90F23C4E9D2
:1069B00011330023A365A4F85C3004F15E03236760
:1069C00004F14C05284601F01CFA0146E0B904F137
:1069D0005006304601F015FA054668B95434204691
:1069E00001F00FFA054698B10146204601F007FA7A
:1069F000284601F0E0F9F2E70146304601F0FFF9E0
:106A0000284601F0D8F9E4E7284601F0F8F9D9E77B
:106A100070BD10B5016011440446416002815030E0
:106A200001F0E4F904F1540001F0E0F904F14C0044
:106A300001F0DCF900232046C4E90333C4E905333F
:106A4000FFF794FF204610BDC0E903127047C0E96C
:106A500005127047012B0AD002D3022B0ED1FEE79C
:106A6000114442688A4209D80389C91AFAE7891A87
:106A700002688A4202D903891944FAE70846704736
:106A8000012B0ED002D3022B15D1FEE78A423FBF65
:106A900043685B1A0168511A2CBF511AC91888B291
:106AA00070478A4281BF436800689A1A091A94BFE6
:106AB000891A8918F3E70021F1E710B5144612127C
:106AC0000A700122FFF7C6FF047010BD10B513460F
:106AD00001220C78FFF7BEFF00782402204480B228
