:10100000000004203D9702006597020067970200E8
:10101000699702006B9702006D97020000000000C4
:101020000000000000000000000000006F970200B8
:10103000719702000000000073970200759702008C
:101040002D66020021CB02007797020077970200FD
:101050007797020077970200779702007797020050
:101060007797020077970200779702007797020040
:1010700077970200514602007797020077970200A7
:101080007797020077970200779702007797020020
:101090007797020077970200779702007797020010
:1010A0007797020077970200779702007797020000
:1010B0007797020077970200000000000000000010
:1010C00077970200779702007797020077970200E0
:1010D000AD450200779702007797020095750200F0
:1010E000779702007797020055F902000000000090
:1010F00000000000779702000000000077970200D0
:1011000000000000000000000000000000000000DF
:1011100000000000000000000000000000000000CF
:1011200000000000000000000000000000000000BF
:1011300000000000000000000000000000000000AF
:10114000000000000000000000000000000000009F
:10115000000000000000000000000000000000008F
:10116000000000000000000000000000000000007F
:10117000000000000000000000000000000000006F
:10118000000000000000000000000000000000005F
:10119000000000000000000000000000000000004F
:1011A000000000000000000000000000000000003F
:1011B000000000000000000000000000000000002F
:1011C000000000000000000000000000000000001F
:1011D000000000000000000000000000000000000F
:1011E00000000000000000000000000000000000FF
:1011F00000000000000000000000000000000000EF
:1012000010B5054C237833B9044B13B10448AFF340
:1012100000800123237010BD400200200000000068
:101220009435040008B5034B1BB103490348AFF3E1
:10123000008008BD00000000440200209435040036
:10124000154B002B08BF134B9D46A3F5803A002198
:101250008B460F461348144A121A39F0A6FB0F4B5F
:10126000002B00D098470E4B002B00D09847002051
:10127000002104000D000D48002802D00C48AFF3F7
:10128000008039F01DFB2000290000F015F839F02E
:10129000F1FA00BF00000800000004200000000078
:1012A0000000000040020020700401200000000047
:1012B000000000007047000070B505460E4631463C
:1012C000284623F0EBFD04F06AFA044628B90B4BDC
:1012D0000B4A0C48672139F0AFFA00F047F823F0C9
:1012E00005FE18B1204604F060FAE8E7204604F055
:1012F00016FC204623F000FEF1E700BF81C003008A
:101300007CC003008AC003004FF0FF307047B0F884
:10131000AA3AB0F8AC2AC3F500618A42CCBFA0F863
:10132000AE1AA0F8AE2AB0F8AE1A21B100F2AA2087
:10133000184423F009BF704710B50A4B044640F823
:10134000043B00F0EDF9084B23600023A4F8A83219
:10135000A4F8AA3AA4F8AC3AA4F8AE3A23F0ECFE0A
:10136000204610BDF4C0030000C1030010B5044CBA
:1013700001462046FFF7E0FF024B1C6010BD00BF96
:1013800060020020780D002010B500210446B4F85A
:10139000A822A31893F8A7300A2B01D00D2B07D150
:1013A000013A92B2A4F8A822224482F8A810EEE7EB
:1013B0002AB1234604F1A801201D02F09BFC002065
:1013C000A4F8A80210BD00002DE9F8432A4FDFF869
:1013D000AC80DFF8AC9004460D468E18B54249D279
:1013E0002B780A2B19D014D8082B2ED0B4F8A83299
:1013F000B3F5FF7F27D8236801221B6829462046C2
:101400009847B4F8A8325A1CA4F8A8222A78234492
:101410002DE00D2B01D07F2BE7E7236802221B680C
:10142000394620469847B4F8A83233B12344002205
:1014300083F8A8202046FFF7A7FF236802221B6835
:101440004146204698470135C8E7B4F8A832002B3A
:10145000F9D0236803221B68494620469847B4F810
:10146000A832013B9BB2A4F8A8320022234483F89F
:10147000A820E8E7BDE8F88309C1030007C103001D
:1014800004C10300024B0A4601461868FFF79CBFDF
:10149000780D0020B0F8AE3A0BB9FFF738BF7047AF
:1014A000B0F8AE1AB0F8AA2A0A44C2F30A02A0F8A9
:1014B000AA2AB0F8AC2A521AA0F8AC2A0022A0F846
:1014C000AE2AFFF724BF2DE9F04105460E469046AF
:1014D0000027B8F1000F30D0B5F8AC4AC4F500646D
:1014E000A4B2444528BF444631468B1B9BB2A3425D
:1014F0000FD2B5F8AC2AB5F8AA3A11F8010B13448B
:10150000C3F30A032B44013283F8AA02A5F8AC2ADC
:10151000EBE7A8EB0408264428463C441FFA88F869
:10152000FFF7B8FFA7B2B8F1000F06D023F02CFEEA
:1015300018B92846FFF7B4FFCBE73846BDE8F0817D
:10154000014B1868FFF7ACBF780D00202DE9F04182
:101550000F4F104E054600244FF00C0808FB04F313
:101560003146DA59A868013403F083FE3A2CF5D1EC
:10157000084E00242B79A34208D92B68A86853F899
:101580003420314603F075FE0134F3E7BDE8F08105
:101590006CCB03002ECE0300D0F8A00004F009B9F4
:1015A000D0F8A00004F003B938B504468568D0F837
:1015B000A00004F092FB05490246284603F059FEBC
:1015C000A0680349BDE8384003F053BE4BC2030096
:1015D00049C303000149806803F04BBE49C30300BF
:1015E00010B504468AB06946D0F8A00004F01EFA8F
:1015F000BDF800202B49A06803F03BFEBDF8022097
:101600002949A06803F035FEBDF80630BDF8042076
:101610002649A06803F02DFEBDF80A30BDF8082069
:101620002349A06803F025FEBDF80E30BDF80C205C
:101630002049A06803F01DFEBDF81230BDF810204F
:101640001D49A06803F015FEBDF81630BDF8142042
:101650001A49A06803F00DFEBDF81A30BDF8182035
:101660001749A06803F005FEBDF81E30BDF81C2028
:101670001449A06803F0FDFDBDF82230BDF820201C
:101680001149A06803F0F5FDBDF82630BDF824200F
:101690000E49A06803F0EDFD2046FFF79BFF0AB05E
:1016A00010BD00BF95C90300A1C90300ACC9030068
:1016B000BEC90300D0C90300DDC90300EAC90300A5
:1016C000F7C9030025CA030004CA030019CA0300AE
:1016D00010B5044604F070F804490246A06803F00F
:1016E000C8FD2046BDE81040FFF774BF2ECE0300B2
:1016F00010B50446D0F8A00004F055FB40B10549F0
:10170000A06803F0B6FD2046BDE81040FFF762BFB9
:101710000149F5E756C903005DC9030000BA7047E7
:1017200070B5002504460E460560057185602946A2
:101730002C220C3039F039F9114A4FF47A73C4E98C
:101740000E23104BC4E9103504F14003A364214675
:1017500004F1580003F002FE22463046C4E9254455
:10176000C4E92746084904F0FFFA084BD4F8A00062
:10177000C4E9133404F14C0104F007F8204670BDAD
:1017800008000100A5350000413E00006D34000056
:101790002DE9F041074690460C4639F01BFD3D18F7
:1017A00000F001060130B8EB500F12D33846214645
:1017B0000022854221D910F8013BA3F14107052FF2
:1017C0000BD8373B1343DBB29EB10B7000260131BF
:1017D000EEE74FF0FF30BDE8F081A3F16107052F80
:1017E00001D8573BEEE7303BDBB2092BF1D813436E
:1017F000EAE71B01DAB20126DBE7081BEBE7000092
:1018000070B50C4619B9BDE87040FFF7E3BE8568B6
:10181000084604F095FC2246034603492846BDE8E5
:10182000704003F026BD00BF24CE030070B504460F
:101830000D4649B97B49806803F01BFD7A49A068D1
:1018400003F017FD2946ACE0012940F0E980156856
:101850007649284639F097FC0646002840F0A680D5
:10186000D4F8A00004F0A4F8054602687049A06806
:1018700003F0FFFC6A686F49A06803F0FAFCAA68ED
:101880006D49A06803F0F5FCEA686C49A06803F0B4
:10189000F0FC2A696A49A06803F0EBFC6A696949AF
:1018A000A06803F0E6FCAA696749A06803F0E1FCC0
:1018B000EA696649A06803F0DCFC2A6A6449A0680A
:1018C00003F0D7FC6A6A6349A06803F0D2FCAA6AF5
:1018D0006149A06803F0CDFCEA6A6049A06803F0A2
:1018E000C8FC2A6B5E49A06803F0C3FCAA6B5D4983
:1018F000A06803F0BEFCEA6B5B49A06803F0B9FC8A
:101900002A6C5A49A06803F0B4FC6A6C5849A06874
:1019100003F0AFFCAA6C5749A06803F0AAFCEA6C7C
:101920005549A06803F0A5FC2A6D5449A06803F04E
:10193000A0FC6A6D5249A06803F09BFCAA6D514956
:10194000A06803F096FCEA6D4F49A06803F091FC93
:101950002A6E4E49A06803F08CFC6A6E4C49A06860
:1019600003F087FCAA6E4B49A06803F082FCEA6E84
:101970004949A06803F07DFC2A6F4849A06803F03C
:1019800078FC6A6F4649A06803F073FCAA6F45496A
:10199000A06803F06EFC4449EA6FA06803F069FC9C
:1019A00031462046BDE87040FFF72ABF28463F4930
:1019B00039F0E9FB0546002832D1D4F8A00004F044
:1019C0000BFA064602883A49A06803F052FC728876
:1019D0003849A06803F04DFCB2883749A06803F08D
:1019E00048FCF2883549A06803F043FC3289344949
:1019F000A06803F03EFC72893249A06803F039FC0C
:101A0000B2893149A06803F034FCF2892F49A068FB
:101A100003F02FFC328A2E49A06803F02AFC11E75C
:101A20000721BEE74BC4030051C4030057C40300A1
:101A30005BC4030069C403007DC4030093C40300B6
:101A4000ACC40300BEC40300D9C40300EAC403004D
:101A5000FFC4030012C503002CC503003EC50300EC
:101A600050C5030063C503007EC503008CC5030099
:101A7000A0C50300B6C50300C7C50300DCC503004D
:101A8000EFC5030009C603001BC6030037C60300E9
:101A900054C603006BC6030082C60300A3C603003E
:101AA000C1C60300D4C60300E7C60300FCC603009A
:101AB00000C7030014C7030028C7030039C7030089
:101AC0004BC7030089C703005DC7030078C7030045
:101AD0009FC7030070B505460E46B1B9D0F8A00007
:101AE00003F07AFE044650B11249A86803F0C1FB26
:101AF000304601462846BDE87040FFF781BE0E49DA
:101B0000A86803F0B6FB2046F3E714680B492046AB
:101B100039F039FB28B90121D5F8A00003F050FEB7
:101B2000E7E70749204639F02EFB01460028F3D0AD
:101B30000720DEE766C803006BC8030072C8030015
:101B400075C8030037B504466946D0F8A00004F014
:101B5000BDF80546E0B9009A1049A06803F089FB7A
:101B60009DF804200E49A06803F083FB9DF8052032
:101B70000C49A06803F07DFB9DF806200A49A06887
:101B800003F077FB9DF807200849A06803F071FB7C
:101B900029462046FFF734FE03B030BD33CA0300A8
:101BA00046CA03005DCA030056CA030070CA030098
:101BB000F0B5134685B00446C9B9D0F8A000144F5B
:101BC00004F0BBF9461E00F10F0516F8012FA068BE
:101BD000394603F04EFBAE42F7D10E49A06803F040
:101BE00048FB00212046FFF70BFE05B0F0BD102298
:101BF00069461868FFF7CCFD102806D16946D4F86D
:101C0000A00004F09DF90146ECE70621EAE700BFD9
:101C100046C1030028C10300F0B5134685B0044651
:101C2000C9B9D0F8A000144F03F0DEFF461E00F142
:101C30000F0516F8012FA068394603F01AFBAE42D3
:101C4000F7D10E49A06803F014FB00212046FFF7EE
:101C5000D7FD05B0F0BD102269461868FFF798FD62
:101C6000102806D16946D4F8A00003F0C1FF014650
:101C7000ECE70621EAE700BF46C1030028C10300E4
:101C8000F7B5002304468DF8043071BBD0F8A000EE
:101C900003F089FF8DF80400C00703D54249A0680E
:101CA00003F0E7FA9DF80430990703D53F49A0688F
:101CB00003F0DFFA9DF804305A0703D53C49A068C9
:101CC00003F0D7FA9DF804301B0703D53949A06803
:101CD00003F0CFFA3849A06803F0CBFA0021204680
:101CE00003B0BDE8F040FFF78BBD15689E46013D8F
:101CF00019461E4618461F469C4615F8012F6AB322
:101D00006E2A25D01AD8642A1FD0BCF1000F05D046
:101D10009DF8043043F001038DF8043028B19DF89C
:101D2000043067F341038DF8043029B19DF8043085
:101D300066F382038DF804300621D0E7722A0AD0B8
:101D4000732AE2D101200746D7E701210E46D4E7E6
:101D500001239E46D1E74FF0010CCEE7BCF1000F06
:101D600005D09DF8042042F001028DF8042028B12E
:101D70009DF8042067F341028DF8042029B19DF8F5
:101D8000042066F382028DF804202BB19DF8043004
:101D90006EF3C3038DF804309DF80410D4F8A0004E
:101DA00003F010FF01469AE7AFDF0300F0DB03000A
:101DB00088C90300BDDC030028C103002DE9F04FF2
:101DC00000238BB099420446ADF802300BDD156854
:101DD0004649284639F0D7F9064630B144492846E5
:101DE00039F0D1F948B107217AE04249A06803F0FF
:101DF00040FA4149A06803F03CFADFF81C81DFF8A3
:101E00001C91DFF81CA1D4F8A00001AF3A460DF1F7
:101E1000020103F04FFF00285DD1A068002E54D1CD
:101E20009DF82430DFF8FCB013F0100F0CBF5222E5
:101E30004322494603F01DFABDF81020A068514620
:101E400003F017FA039A2D49A06803F012FA9DF9DE
:101E50001D202B49A06803F00CFA9DF91E2029498A
:101E6000A06803F006FA9DF824202749A06802F034
:101E7000010203F0FEF99DF824202349A068C2F373
:101E8000400203F0F6F99DF824201F49A068C2F330
:101E9000800203F0EEF99DF824201B49A068C2F3EC
:101EA000C00203F0E6F91949A06803F0E2F93546EB
:101EB0007A5DA0685946013503F0DBF9082DF7D1AA
:101EC0001349A06803F0D5F99DE7BDF810204146FD
:101ED00003F0CFF997E70F49A06803F0CAF9002192
:101EE0002046FFF78DFC0BB0BDE8F08F7AC80300E9
:101EF00080C8030085C80300D1C803002FC90300B0
:101F000036C903003DC9030044C9030028CB0300C0
:101F10009EC3030028C1030027C903001DC9030095
:101F200025C9030046C1030010B50446D0F8A0003F
:101F300003F08BFB01462046BDE81040FFF760BC74
:101F400038B505460C46D0F8A00069B903F078FE14
:101F5000084903461022A86803F08BF92146284659
:101F6000BDE83840FFF74CBC116803F06DFE014638
:101F7000F5E700BFC1CA03002DE9F04186B001AF0B
:101F800004463946D0F8A00003F0ACFE064650BB2C
:101F90001849A068DFF8748003F06BF935467A5D64
:101FA000A0684146013503F064F9082DF7D11249C4
:101FB000A06803F05EF9BDF80C201049A06803F09A
:101FC00058F99DF811200E49A06803F052F99DF8C8
:101FD00012200C49A06803F04CF99DF813200A491F
:101FE000A06803F046F931462046FFF709FC06B029
:101FF000BDE8F081F5C2030028C1030000C303005F
:102000000BC3030021C3030038C3030046C1030010
:1020100038B50446B1B9D0F8A00003F0A5FC78B1FA
:10202000D4F8A00022F018FD50B11749A06803F0C1
:1020300020F9002001462046BDE83840FFF7E0BB0C
:102040001249F3E715681249284639F09CF858B947
:102050001049D4F8A000224603F081FC0121D4F8F5
:10206000A00003F088FCE5E728460B4939F08BF81F
:10207000054638B901460246D4F8A00003F06FFCCB
:102080002946ECE70720D5E7C8CA0300D2CA0300F7
:10209000DDCA0300C5360000E4CA030070B505467A
:1020A0000E46A9B9D0F8A00003F0A3FE044650B133
:1020B0001349A86803F0DDF8344621462846BDE8F8
:1020C0007040FFF79DBB0F49A86803F0D2F8F4E712
:1020D00016680D49304639F056F8044628B90121F2
:1020E000D5F8A00003F08AFEE7E70849304639F04A
:1020F0004AF8044608B90146F2E70724DDE700BFC5
:10210000C8CA0300D2CA0300DDCA0300E4CA030040
:1021100038B50446F9B9D0F8A00003F0D3FD04287F
:1021200017D8DFE800F0030E101214001F49A06852
:1021300003F09FF8002001462046BDE83840FFF735
:102140005FBB1B49F3E71B49F1E71B49EFE71B495D
:10215000EDE71B49EBE715681A49284639F013F8F3
:1021600020B9D4F8A00003F09AFDE4E71649284608
:1021700039F009F820B9D4F8A00003F095FDDAE7AA
:102180001249284638F0FFFF20B9D4F8A00003F028
:102190007AFED0E70E49284638F0F5FF20B9D4F88A
:1021A000A00003F082FEC6E70720C4E781C2030057
:1021B0008CC2030097C203009FC20300A8C20300A1
:1021C000B1C20300C1C2030078DF0300CAC203002A
:1021D000D1C20300002938B5044617DD15680C4943
:1021E000284638F0D0FF50B90121D4F8A00003F000
:1021F000CAFD01462046BDE83840FFF701BB05494E
:10220000284638F0C0FF01460028EED00720F0E74E
:1022100030C4030036C4030010B50446943002F005
:102220002BFF01462046BDE81040FFF7E9BA10B584
:102230000446583003F034F901462046BDE810400A
:10224000FFF7DEBA10B50446983002F0C9F801462F
:102250002046BDE81040FFF7D3BA10B504469C30C5
:1022600002F0A2FF01462046BDE81040FFF7C8BAC1
:102270002DE9F041084F06460D4690460C46631B7B
:10228000984506DD14F8012BB068394602F0F1FFDD
:10229000F5E7BDE8F08100BF46C1030037B505464C
:1022A0000C4699B96946D0F8A00003F02BFB082230
:1022B00069462846FFF7DCFF0549A86802F0D9FF08
:1022C00021462846FFF79CFA03B030BD0721F8E706
:1022D00028C1030037B5134605460C4691B9D0F81E
:1022E000A00003F0F4FA082201462846FFF7C0FFD9
:1022F0000C49A86802F0BDFF21462846FFF780FA86
:1023000003B030BD082269461868FFF741FA00287B
:1023100001DA0621F1E76946D5F8A00003F0DBFAFF
:102320000146EAE728C1030037B5134605460C46C7
:1023300091B9D0F8A00003F006FC08220146284617
:10234000FFF796FF0C49A86802F093FF2146284644
:10235000FFF756FA03B030BD082269461868FFF748
:1023600017FA002801DA0621F1E76946D5F8A0003E
:1023700003F0EDFB0146EAE728C1030010B5CC8964
:102380004B880A8886B064BAA4B205948C8964BA72
:10239000A4B204944C8964BAA4B203940C8964BABC
:1023A000A4B20294CC8864BAA4B20194898849BAD0
:1023B00089B200915BBA52BA9BB292B2024980686C
:1023C00002F057FF06B010BD33CE03002DE9F047F1
:1023D00004468EB00D46A9BBD0F8A000DFF87C8083
:1023E0001D4F03F0FDFCAA468146AEB24E4530D2E9
:1023F00006AA3146D4F8A000ADF806A003F072FD9D
:10240000F0B99DF83430C3F30013CBB9ADF8063002
:1024100002AB0DF106023146D4F8A00003F069FDCD
:1024200070B9BDF82820A068414602F022FF02A939
:102430002046FFF7A3FF3946A06802F01AFFE7E73E
:102440000135D2E707212046FFF7DAF90EB0BDE8E3
:10245000F0870021F7E700BF28C103003BC4030059
:1024600070B5104E86B00446002501AAE9B2D4F832
:10247000A00003F05BFD78B99DF81730DB0709D5A4
:1024800001A92046FFF77AFFBDF81420A068314665
:1024900002F0EFFE0135E8E72046FFF79BF806B0B3
:1024A00070BD00BF4AC2030013B500220C4601A94B
:1024B00038F032FF019B20601B78002B14BF0620F0
:1024C000002002B010BD000073B505460C4681B96E
:1024D0008668D0F8A00003F0DBF90C4902463046CC
:1024E00002F0C7FE204601462846FFF789F902B0F0
:1024F00070BD01A91068FFF7D7FF0028F3D19DF840
:102500000410D5F8A00003F0C7F9ECE740C20300BF
:102510002DE9F04F00298DB0044640F31381156872
:102520008949284638F02FFE074600287DD0874984
:10253000284638F028FE00287FD0284603A9FFF758
:10254000B3FF0546002840F0F68004AF3A46BDF8D8
:102550000C10D4F8A00003F0BEFC0546002840F0A3
:10256000EA80BDF822207A49A068DFF8388202F0BC
:1025700080FEBDF820207749A06802F07AFE7649F7
:10258000A06802F076FE2E46BA5DA068414601368C
:1025900002F06FFE082EF7D17049A06802F069FEC4
:1025A0006F49A06802F065FE9DF82C30D80703D56E
:1025B0006C49A06802F05DFE9DF82C30990703D5A8
:1025C0006949A06802F055FE9DF82C305A0703D5E2
:1025D0006649A06802F04DFE9DF82C301B0703D51C
:1025E0006349A06802F045FE5C49A06802F041FE24
:1025F0009DF824205F49A06802F03BFE069A5E49E0
:10260000A06802F036FE079A5C49A06802F031FE2D
:102610009DF825205A49A06802F02BFE9DF926203E
:102620005849A06802F025FE85E05749A06802F0ED
:1026300020FE5649A06802F01CFED4F8A000DFF886
:1026400070A1DFF870B103F0CBFB00268146B1B278
:1026500049456BD20DF110084246D4F8A00003F0B2
:1026600041FC00285CD19DF82C30DD0658D4A068D0
:10267000BDF82220002F55D1514602F0FAFDBDF8D9
:102680002020A068594602F0F4FD069A4049A0684F
:1026900002F0EFFD079A3E49A06802F0EAFD9DF8BE
:1026A00025203C49A06802F0E4FD9DF824203A4929
:1026B000A06802F0DEFD9DF82C203849A06802F0E9
:1026C000010202F0D6FD9DF82C203449A068C2F327
:1026D000400202F0CEFD9DF82C203049A068C2F3E4
:1026E000800202F0C6FD9DF82C202C49A068C2F3A0
:1026F000C00202F0BEFD2A49A06802F0BAFD294BD3
:102700003D4618F80520A06801931946013502F0EE
:10271000B0FD082D019BF4D12349A06802F0A9FD6A
:10272000013694E7214902F0A4FDF9E70B49A068BE
:1027300002F09FFD002529462046FFF761F80DB005
:10274000BDE8F08F0725F6E77AC8030080C80300CC
:1027500036C2030045C20300F5C2030028C10300CE
:1027600052C20300AFDF0300F0DB030088C903009F
:10277000BDDC030059C2030068C2030038C3030074
:102780000BC3030076C2030072C10300C9C103007A
:1027900020C2030028C203002FC2030044C9030063
:1027A00028CB030046C103009EC3030014CB0300E3
:1027B0002FC9030025C9030073B505460C4681B92E
:1027C0008668D0F8A00003F00BFB0C4902463046A7
:1027D00002F04FFD204601462846FFF711F802B0EF
:1027E00070BD01A91068FFF75FFE0028F3D1BDF8A6
:1027F0000410D5F8A00003F0F7FAECE740C203009C
:1028000073B505460C4679B98668D0F8A00003F088
:1028100091F90C490246304602F02BFD214628462C
:10282000FEF7EEFF02B070BD01A91068FFF73CFE95
:1028300004460028F2D10199D5F8A00003F07EF9F2
:10284000ECE700BF40C2030037B5044671B98568A4
:10285000D0F8A00003F0F4FA0A490246284602F034
:1028600008FD2046FEF7B6FE03B030BD01A9106892
:10287000FFF71AFE0028F4D10199D4F8A00003F064
:10288000E4FAEEE740C2030010B5002986B0044622
:102890001FDD05A91068FFF707FEE8B9059B1F2B90
:1028A00019D8012199400F4B019300230294009302
:1028B0004FF6FF72D4F8A00003F07AFA60B90A4923
:1028C000A06802F0D6FC0949A06802F0D2FC06B06C
:1028D00010BD0021E7E7072001462046FEF790FFE4
:1028E000F5E700BFBD3C0000B4C703000DC80300FE
:1028F0004B1E012B2DE9F34105460F46164641D8E4
:10290000D2F800802049404638F03DFC0446F0B93A
:10291000012F0AD1D5F8A000AE6803F0AFF9024646
:102920001A49304602F0A5FC0AE001A97068FFF7D9
:10293000BBFD044620B90199D5F8A00003F0A2F927
:1029400021462846FEF75CFF02B0BDE8F081104941
:10295000404638F018FC0446A0B9012F05D1D5F83F
:10296000A000AE6803F093F9D9E701A97068FFF7FA
:102970009BFD04460028E3D10199D5F8A00003F09F
:102980008AF9DDE70724DBE7AFCA030040C2030092
:10299000B7CA030073B505460C4679B98668D0F806
:1029A000A00003F030FA0C490246304602F061FC08
:1029B00021462846FEF724FF02B070BD01A9106829
:1029C000FFF772FD04460028F2D19DF80410D5F8F7
:1029D000A00003F01CFAEBE740C2030073B5054604
:1029E0000C4679B98668D0F8A00003F033FA0C4998
:1029F0000246304602F03DFC21462846FEF700FF25
:102A000002B070BD01A91068FFF74EFD0446002812
:102A1000F2D19DF80410D5F8A00003F01FFAEBE7FF
:102A200040C2030073B505460C4681B98668D0F8EC
:102A3000A00002F06DFF0C490246304602F019FC7E
:102A4000204601462846FEF7DBFE02B070BD01A914
:102A50001068FFF729FD0028F3D1BDF80410D5F860
:102A6000A00002F059FFECE7D0D2030073B5054691
:102A70000C4681B98668D0F8A00003F07AFA0C49B8
:102A80000246304602F0F5FB204601462846FEF796
:102A9000B7FE02B070BD01A91068FFF705FD002860
:102AA000F3D19DF90410D5F8A00003F066FAECE725
:102AB00040C2030073B505460C4681B98668D0F85C
:102AC000A00002F042FF0C490246304602F0D1FB62
:102AD000204601462846FEF793FE02B070BD01A9CC
:102AE0001068FFF7E1FC0028F3D10199D5F8A000A8
:102AF00002F030FFEDE700BF40C20300002913B52C
:102B0000044610DD01A91068FFF7CEFC28B99DF836
:102B10000410D4F8A00003F0ADF901462046FEF7FA
:102B20006FFE02B010BD0720F7E700002DE9F04F5F
:102B3000002989B0044640F3EE801568774928469D
:102B400038F021FB0746002872D07549284638F036
:102B50001AFB002874D0284602A9FFF7A5FC0546F9
:102B6000002840F0CC8003AF3A46BDF80810D4F8F6
:102B7000A00003F0D4F90546002840F0C0809DF87D
:102B80001C206849A06802F0010202F072FB9DF867
:102B90001C30DA0740F1B3809DF816206249A06826
:102BA00002F067FBBDF814206049A06802F061FBE9
:102BB0009DF817205E49A068920202F05AFB9DF82A
:102BC0001C205C49A068C2F3400202F052FB9DF851
:102BD0001C309B0740F193805749A068DFF8908133
:102BE00002F047FB2E46BA5DA0684146013602F06E
:102BF00040FB082EF7D15149A06802F03AFB9DF83E
:102C000018204F49A06802F034FB9DF819204D4967
:102C1000A06802F02EFB9DF81A204B49A06802F034
:102C200028FB9DF81B204949A06802F022FB66E0C2
:102C30004749A06802F01DFB4649A06802F019FB55
:102C4000D4F8A000DFF834A1DFF834B103F065F95F
:102C5000002581460DF10C08EEB242463146D4F80B
:102C6000A00003F05CF9002840D1A068002F4DD1EE
:102C70009DF81620514602F0FCFABDF81420A06819
:102C8000594602F0F6FA9DF817203349A06802F081
:102C9000F0FA9DF818203149A06802F0EAFA9DF890
:102CA00019202F49A06802F0E4FA9DF81A202D4956
:102CB000A06802F0DEFA9DF81B202B49A06802F004
:102CC000D8FA2A49A06802F0D4FA294B3E4618F8EF
:102CD0000620A06801931946013602F0CAFA082EB0
:102CE000019BF4D12349A06802F0C3FA0135EBB28D
:102CF0009945AFD21149A06802F0BBFA00252946D8
:102D00002046FEF77DFD09B0BDE8F08F32461A4936
:102D100002F0AFFAEAE70725F1E700BF7AC803003F
:102D200080C80300FDC3030077CA030045C2030047
:102D300009C403001AC40300F5C2030028C103003C
:102D400025C403000BC3030021C3030038C30300E1
:102D500050C30300A3C3030036C903003DC90300E9
:102D600028C20300F6C303002FC9030028CB0300C9
:102D700046C103009EC3030014CB03002CCB030009
:102D800025C9030073B505460C4679B98668D0F8A5
:102D9000A00003F08FF80C490246304602F069FAB1
:102DA00021462846FEF72CFD02B070BD01A910682F
:102DB000FFF77AFB04460028F2D19DF80410D5F8FD
:102DC000A00003F07BF8EBE740C2030073B50546B3
:102DD0000C4679B98668D0F8A00003F073F80F4963
:102DE0000246304602F045FA21462846FEF708FD25
:102DF00002B070BD01A91068FFF756FB0446002819
:102E0000F2D101994B1EFE2B05D8C9B2D5F8A0000E
:102E100003F05CF8E8E70724E6E700BF40C20300E0
:102E200073B505460C4679B98668D0F8A00003F062
:102E300019F80C490246304602F01BFA2146284692
:102E4000FEF7DEFC02B070BD01A91068FFF72CFB95
:102E500004460028F2D19DF80410D5F8A00003F034
:102E600005F8EBE740C20300F0B50F1E85B004463D
:102E7000164644DD15682349284638F084F9D0B950
:102E8000012F3AD003A97068FFF70EFB78BBBDF89D
:102E90000C501D49A06802F0ECF91C49A06802F032
:102EA000E8F900941A4BD4F8A0002A46002102F059
:102EB00097FD00B31BE003A92846FFF7F5FAB0B968
:102EC000039B1F2B12D801259D401249A06802F0D8
:102ED000D0F91149A06802F0CCF900940F4BD4F856
:102EE000A0000022294602F067FDE2E70720014624
:102EF0002046FEF785FC05B0F0BD0546C9E7002574
:102F0000E3E700BF4BC1030052C1030062C10300ED
:102F1000E93C0000B4C703000DC80300BD3C00003D
:102F200037B5054691B901A9D0F8A00021F0F6FD0A
:102F3000044628B99DF904200C49A86802F099F9C3
:102F400021462846FEF75CFC03B030BD01A910689D
:102F5000FFF7AAFA04460028F2D19DF90410D5F82B
:102F6000A00021F0E5FD0446EAE700BF42C40300EB
:102F700073B505460C4681B98668D0F8A00002F00A
:102F800052FF0C490246304602F073F920460146D2
:102F90002846FEF735FC02B070BD01A91068FFF7A6
:102FA00083FA0028F3D1BDF80410D5F8A00002F090
:102FB0003FFFECE740C203002DE9F04702298AB049
:102FC00005460E4690463DDD01A9506802F039FCE9
:102FD000002838D108F10409023E04460DF1140A14
:102FE000B442E7B20DD0132C0AD0694659F8040F49
:102FF000FFF75AFA38BB009B04F80A300134EFE7B8
:103000002746D8F800401249204638F0BCF848B9A5
:103010003B4605AA01A9D5F8A00002F0AAFE0AB015
:10302000BDE8F0870B49204638F0ADF850B93B4673
:1030300005AA01A9D5F8A00002F0A0FE2846FEF7D7
:10304000C9FAECE7072001462846FEF7D9FBE6E778
:10305000C1D10300EACE030013B500220C4601A93A
:1030600038F0EAF9019B20601B78002B14BF062082
:10307000002002B010BD000073B505460C4699B99A
:103080008668D0F8A00002F076FB4FF47A721049FF
:10309000B0FBF2F2304602F0ECF82046014628463A
:1030A000FEF7AEFB02B070BD01290ED101A9106878
:1030B000FFF7D2FF0028F1D1019BD5F8A0004FF413
:1030C0007A71594302F05CFBE8E70720E6E700BFAE
:1030D00040C2030073B505460C4679B98668D0F83E
:1030E000A00002F098FE0C490246304602F0C1F8FA
:1030F00021462846FEF784FB02B070BD01A9106886
:10310000FFF7AAFF04460028F2D10199D5F8A000E4
:1031100002F085FEECE700BF41CA0300002330B592
:10312000136001394FF47A730A2411F8010FE8B1E2
:10313000A0F13005092D11D8B3F57A7F02BF1068D0
:103140006043106008781568303803FB0050B3F511
:103150007A7F1060E9D0B3FBF4F3E6E72E2804D1C0
:10316000B3F57A7F01D16423DFE7062030BD10B5C7
:10317000002986B0044614DD6946106802F061FB40
:1031800068B940238DF810309DF81130D4F8A000B4
:1031900043F0030369468DF8113002F025FB06B0B9
:1031A00010BD0720FBE700291FB504460BDD69466B
:1031B000106802F046FB20B96946D4F8A00002F07E
:1031C00018FB04B010BD0720FBE70000F8B505466A
:1031D00017460C4681B9D0F8A0002B4E02F000FB38
:1031E0000446BCB321462846FFF7C8F83146A86814
:1031F00002F03FF86469F4E716682449304637F076
:10320000C2FF50B93A1D611E2846FFF7B0FF0146C4
:103210002846BDE8F840FEF7F3BA1D49304637F0BE
:10322000B2FF28B93A1D611E2846FFF7BCFFEEE742
:103230001849304637F0A7FF044668B9D5F8A00012
:1032400002F0FAFC01462846FFF798F80E49A868F4
:1032500002F00FF82046DAE70F49304637F093FFC7
:10326000044620B9D5F8A00002F0DEFCEAE70B49DD
:10327000304637F088FF044620B9D5F8A00002F0A8
:10328000D7FCDFE70720C2E728C10300D8C203004C
:10329000DCC20300E0C20300EAC20300EFC2030085
:1032A00000291FB504460BDD6946106802F0C9FA13
:1032B00020B96946D4F8A00002F0A4FA04B010BD09
:1032C0000720FBE700291FB504460BDD694610689F
:1032D00002F0B7FA20B96946D4F8A00002F097FAD4
:1032E00004B010BD0720FBE770B505460E4689B94E
:1032F000D0F8A00002F090FA044630B11149A86855
:1033000001F0B7FF3446204670BD0F49A86801F0B0
:10331000B0FFF8E716680D49304637F034FF044631
:1033200028B90121D5F8A00002F07AFAEBE70849A4
:10333000304637F028FF044608B90146F2E7072473
:10334000E1E700BFC8CA0300D2CA0300DDCA030018
:10335000E4CA0300F8B5054616460C4681B9D0F814
:10336000A0001D4E02F04AFA044684B321462846C6
:10337000FFF704F83146A86801F07BFF2469F4E701
:1033800017681649384637F0FEFE50B9321D611EE7
:103390002846FFF785FF01462846BDE8F840FEF7BE
:1033A0002FBA0F49384637F0EEFE28B9321D611E9C
:1033B0002846FFF787FFEEE70A49384637F0E3FE75
:1033C00038B9321D611E2846FFF78EFFE3E720461D
:1033D000E1E70720DFE700BF28C10300D8C20300F0
:1033E000DCC203004DCB0300F7B51F460023019359
:1033F0003B78812B04460D4616462DD18B8B4A8B8C
:1034000080681649D21A083201F033FF06F1100124
:103410002046FEF7B3FFFA8896F828301049A068D6
:1034200052BA92B201F025FF01AB0422A98B2846C3
:1034300002F085FF03280BD90198A568FEF76EF905
:10344000064620F0D2FF0749821B284601F011FFF3
:103450000549A06801F00DFF03B0F0BD65C9030088
:1034600074C903008AC9030028C10300FFF7BCBF69
:1034700037B5044620F0B9FFFEF750F9002101905E
:10348000D4F8A00002F0D0F9054698B104220DEB63
:10349000020102F0C1FAE8B9218F284602F0B8FA19
:1034A000C0B9012304F10C022946D4F8A00002F0AF
:1034B00071F978B9638F013B9BB2638743B1E56BC8
:1034C00020F093FF2A46014604F1400003F048FD36
:1034D00003B030BD284602F097FAEBE72DE9F3413F
:1034E0000F1E0546164656DDD2F800802B49404691
:1034F00037F049FE05F14003AA6C044650B99342E7
:1035000045D0184603F0F6FC204601462846FEF753
:1035100077F939E093423CD1414605F11C000CF0AB
:103520009EFC0028F1D11E4A4FF47A73C5E90E23A0
:103530000124BC4225DA022C0ED0032C15D0012C1C
:1035400029D169467068FEF7AFFF0028DDD1009BE6
:103550002B870134E4B2ECE76946B068FEF7A4FFBC
:103560000028D2D1009B6B87F3E701AAF1682846B7
:10357000FFF7D4FD0028C8D1019B002B0BDDEB63C6
:10358000E7E72846FFF774FF02B0BDE8F0810D20A1
:10359000BBE70520B9E70720B7E700BF36C4030043
:1035A00008000100024B18680430FFF761BF00BF3C
:1035B000780D00202DE9F84F04460E468068364904
:1035C000364F01F056FE2C253946A06801F051FE19
:1035D000013DF9D1B2883249A068304F01F049FE6F
:1035E0001C253946A06801F044FE013DF9D12A4965
:1035F000A068DFF8C08001F03CFEB388A068AB4251
:103600003CD9414601F035FE0027B288A068EB198D
:10361000934229D232682349D25C01F02AFE013755
:10362000102FF2D14146A068DFF88C90DFF88CA013
:10363000DFF88CB001F01DFE0027B288A068EB19FE
:10364000934219D23268D25CA2F120035E2B0FD8CC
:10365000594601F00EFE0137102FEED11249A06835
:1036600001F007FE1035C8E7104901F002FED6E769
:10367000514601F0FEFDEEE74946FAE70C4E5325B0
:103680003146A06801F0F5FD013DF9D1A06802497D
:10369000BDE8F84F01F0EDBD28C10300ECCA0300FE
:1036A000EECA0300FCCA03009FC3030002CB030061
:1036B00010CB0300FACA03000DCB03000ACB0300B2
:1036C00006CB030013460A4601461846FFF772BFB1
:1036D0002DE9F04F0F1E89B00646154640F3918044
:1036E0001822002102A837F060F92F21286837F04E
:1036F0003DFD044600287FD00023037002A92868FE
:1037000002F09FF8002877D1024601A9601C37F02B
:1037100003FE019B8DF818001B78002B6FD14FF032
:103720000108DFF8E890DFF8E8A0C34647455ED01F
:1037300055F828403449204637F025FD40B99DF81A
:1037400019206BF301028DF8192008F10108EDE74B
:103750004946204637F017FD20B99DF8192060F33F
:103760000102F0E75146204637F00DFD98B1013CCB
:1037700014F8012F002AE8D0613A122A3FD8DFE876
:1037800002F0163E201B3E3E3E3E3E3E3E3E3E3E4C
:103790002A0F3E252F009DF8192042F00302D2E7A0
:1037A0009DF8192042F004028DF81920E0E79DF8F9
:1037B000192042F00802F7E79DF8192042F01002A4
:1037C000F2E79DF8192042F02002EDE79DF819205C
:1037D00042F04002E8E79DF8192042F08002E3E75A
:1037E0009DF81A2042F001028DF81A20C0E702A9C4
:1037F000D6F8A00001F0CAFE09B0BDE8F08F06209F
:10380000FAE70720F8E700BF49C903004EC90300E3
:1038100052C9030070B5002986B00646154624DD5E
:103820001122002101A837F0C0F82F21286837F0B5
:103830009DFC0446A8B10023037001A9286802F08A
:1038400000F870B902466946601C37F065FD009BC0
:103850008DF814001B7833B901A9D6F8A00001F047
:10386000C2FE06B070BD0620FBE70720F9E70000A6
:10387000F0B58DB000233A4D3A4E3B4F05930446C8
:1038800006AA05A9D4F8A00001F0B5FE002863D16E
:103890009DF828100291BDF81E10BDF81A30BDF831
:1038A0001820A06849BA89B20191BDF81C1049BA24
:1038B00089B25BBA52BA00919BB292B2294601F02A
:1038C000D8FC9DF829305A0703D53146A06801F08D
:1038D000D0FC9DF829301B0703D53946A06801F0BC
:1038E000C8FC9DF82930D80603D52049A06801F00E
:1038F000C0FC9DF82930990603D51D49A06801F048
:10390000B8FC9DF829305A0603D51A49A06801F081
:10391000B0FC9DF82930DB0903D01749A06801F0FD
:10392000A8FC9DF82A30DB0703D51449A06801F0F4
:10393000A0FC9DF8293043F301035BB2002B07D0B4
:1039400008DC01339CD10E49A06801F092FC97E796
:103950000C49F9E70C49F7E700200DB0F0BD00BFB6
:1039600087CA030076DB03007BDB030088C9030002
:1039700008CB0300AFDF030054CE0300F0DB0300ED
:1039800099CA0300A0CA0300A7CA0300F8B50446F9
:1039900016460D4639B9FFF76BFF01462046BDE8D4
:1039A000F840FDF72DBF17680B49384637F0EBFBA1
:1039B00028B9321D691E2046FFF78AFEEDE7074948
:1039C000384637F0E0FB28B9321D691E2046FFF764
:1039D00021FFE2E70720E0E7D8C2030042C303006B
:1039E0002DE9F04F89B00F46804616460021182277
:1039F00002A836F0DAFF002F56DD2F21306837F0AD
:103A0000B5FB044688B10023037002A9306801F0B9
:103A100018FF50B9024601A9601C37F07DFC019BDC
:103A20008DF818001B781BB1062009B0BDE8F08F97
:103A30000124DFF88090DFF880A0A346BC422DD09F
:103A400056F824501949284637F09DFB38B99DF89F
:103A50001C3043F004038DF81C300134EEE71449A8
:103A6000284637F090FB20B99DF81C306BF301031A
:103A7000F1E74946284637F086FB20B99DF81C300F
:103A800060F30103E7E75146284637F07CFB002846
:103A9000CAD19DF81C3043F00303DCE702A9D8F833
:103AA000A00001F0B0FDC0E70720BEE7F0DB030097
:103AB00049C903004EC9030052C9030070B586B05E
:103AC0000C46064615460021112201A836F06DFF6E
:103AD000002C1DDD2F21286837F048FB0446A8B1D3
:103AE0000023037001A9286801F0ABFE70B90246FB
:103AF0006946601C37F010FC009B8DF814001B78A1
:103B000043B901A9D6F8A00001F08FFD06B070BD41
:103B10000720FBE70620F9E7F0B58DB00023224D22
:103B2000224E234F0593044606AA05A9D4F8A00007
:103B300001F083FD002833D19DF828100291BDF8D3
:103B40001E10BDF81A30BDF81820A06849BA89B215
:103B50000191BDF81C1049BA89B25BBA52BA009102
:103B60009BB292B2294601F084FB9DF82C305B0792
:103B700003D53146A06801F07CFB9DF82C3043F35F
:103B800001035BB2002B07D008DC0133CCD109491B
:103B9000A06801F06EFBC7E73946F9E70649F7E789
:103BA00000200DB0F0BD00BF87CA0300F0DB0300AA
:103BB000A0CA030099CA0300A7CA0300F8B50446C7
:103BC00016460D4639B9FFF7A7FF01462046BDE866
:103BD000F840FDF715BE17680B49384637F0D3FAA1
:103BE00028B9321D691E2046FFF7FAFEEDE70749A6
:103BF000384637F0C8FA28B9321D691E2046FFF74B
:103C00005DFFE2E70720E0E7D8C2030042C30300FC
:103C100038B504460D46806821B91F49BDE83840D3
:103C200001F027BB91F839201C49C2F3401201F082
:103C300020FB05F108021A49A06801F01AFB194996
:103C4000A06801F016FB082205F119012046FEF7D5
:103C50000FFB1549A06801F00CFB6A8E1349A068A0
:103C600001F007FB294620460822FEF701FB95F8E4
:103C700036200F49A06801F0FCFA95F937200D496C
:103C8000A06801F0F6FA95F83820A0680A49BDE866
:103C9000384001F0EEBA00BF49C3030012CB030065
:103CA00018CB030028CB030023C9030021CB03005A
:103CB0002BCB03002FC9030033CB03000B46014677
:103CC0001846FFF7A5BF0000806811B9044901F04C
:103CD000D0BA91F901300A78024901F0CABA00BF9E
:103CE00049C303003DCB03000B4601461846FFF7CE
:103CF000EBBF00002DE9F047A2B004460D46164682
:103D00000021802202A81F4636F04FFE00238DF8C6
:103D10000730A76095B1711C284637F075FAB0429C
:103D20000CD8202302AA0DF1070128461BF070FCD5
:103D300038B120222649A06801F09BFA22B0BDE8E4
:103D4000F0879DF8077027B92249A06801F091FA21
:103D5000F4E7DDF80880204E05464FF00C0A0AFB18
:103D600005F9404659F8061037F00DFA78B94E4477
:103D7000B16873684A10C90704EB020048BFA25833
:103D800007F1FF3148BFD35803AA9847D6E701355A
:103D90003A2DE4D194F804A00025EEB2B2450FD933
:103DA0002368404653F8351003EBC50937F0EBF9AB
:103DB00001350028F1D1D9F8043003A9781E9847BD
:103DC0002379B342BAD106212046FDF719FDB5E7A4
:103DD0000BC103002BC103006CCB03002DE9FF4195
:103DE0004C8B8B8B07460E4680681349E41A01F012
:103DF00040FAA4B20025C4B1B18B102CA0462944CE
:103E000028BF4FF010086B46424689B2304602F098
:103E100096FAA4EB08045FFA88F2694638464544EE
:103E2000FEF726FAA4B2ADB2E5E70449B86801F09E
:103E300020FA04B0BDE8F08159CB030028C103008B
:103E400013460A4601461846FFF7C8BF2DE9F04160
:103E5000094E0A4D074600244FF00C0808FB04F2F7
:103E60003B68925998682946013401F002FA0B2CFC
:103E7000F4D10020BDE8F08130D103002ECE030044
:103E80002DE9F04FDFF8E4A0DFF8E4B08BB0814615
:103E90000F46904601250024BD4250DA1F2C5BDC02
:103EA00058F825602E49304637F06DF948B90AAB0D
:103EB000661C1C44092304F8203C0135EDB234464D
:103EC000EAE75146304637F05EF920B90AAB661C86
:103ED0001C440B23EFE75946304637F054F920B91C
:103EE0000AAB661C1C440823E5E71E49304637F040
:103EF0004AF920B90AAB661C1C441223DBE71A49B5
:103F0000304637F040F928BB0135EDB2BD4221DA29
:103F100058F825300193184637F05CF90130461007
:103F2000C4F12002B24217D302AB1919019BB2B2FD
:103F30001846FDF72DFC002810DB2644BDE7D9F814
:103F40000030E2B202A9D3F8A00001F0D0FB0BB020
:103F5000BDE8F08F0720FAE70320F8E70620F6E730
:103F600071D0030090D003009ED0030079D00300ED
:103F700083D0030003680129D3F8A000CCBF5168A7
:103F8000002101F09ABB000010B50368D3F8A0002F
:103F90009C6801F0B6FB03490246204601F069F92E
:103FA000002010BD40C2030003460068024A0349D6
:103FB000D0F8A00001F04EBBD543000051430000F3
:103FC0000368D3F8A00001F05DBB70B504298AB086
:103FD0000646144621DD03A95068FEF765FAD0B9FC
:103FE00004A9A068FEF760FAA8B905A9E068FEF781
:103FF0005BFA80B906AD2946206901F022FC50B970
:1040000030680095BDF814309DF810200399D0F861
:10401000A00001F057FB0AB070BD0720FBE70000CD
:1040200070B505298CB0064614462CDD04A95068ED
:10403000FEF73AFA28BB05A9A068FEF735FA00BBDF
:1040400006A9E068FEF730FAD8B907A92069FEF79B
:104050002BFAB0B908AD2946606901F0F2FB80B9CE
:104060000A4930680396CDE90151BDF81C10009152
:10407000BDF818309DF814200499D0F8A00001F084
:1040800026FB0CB070BD0720FBE700BF8D4400008D
:1040900002292DE9FF4180460D4617463EDD946812
:1040A0001F49204637F06FF800B308220DEB0201DC
:1040B0002046FDF76DFB08282ED102AC7E68194919
:1040C000304637F060F8D0B9032D27D07823042D7F
:1040D00001930DD1D8F80000019BFA68D0F8A00038
:1040E000214601F0DFFA04B0BDE8F0810446E5E7BF
:1040F00001A93869FEF7B0FF0028EBD0F3E70A49C1
:10410000304637F040F848B9D8F800302146D3F8A7
:10411000A00001F0CCFAE6E70620E4E70720E2E79A
:104120006FD00300D8C2030042C303002DE9F04F53
:104130000E1E91B08246174640F3B1801A2200212C
:1041400001A836F032FCDFF86CB101240025A6424C
:1041500040F39B801F2D03DD032011B0BDE8F08FDD
:1041600057F824804F49404637F00DF8B8B9631C22
:10417000DBB29E4240F393809DF81C2057F8230049
:1041800042F0010269468DF81C20FEF78DF90028E7
:10419000E3D1009BADF804300234E4B2D7E74249E2
:1041A000404636F0F0FFA0B9631CDBB29E4276DDDC
:1041B0009DF81C2057F8230042F0020269468DF852
:1041C0001C20FEF771F90028C7D1009BADF806301E
:1041D000E2E75946404636F0D6FF814600BB631CF5
:1041E000DBB29E425BDD9DF81C2057F8238042F035
:1041F000040240468DF81C2036F0ECFF01304508E3
:10420000102DA9D8AAB20DF109014046FDF7C0FA58
:10421000002801DA0620A0E78DF808504D46BBE7DC
:104220002249404636F0AFFFA0B9631CDBB29E4284
:1042300035DD9DF81C2057F8230042F0080269463E
:104240008DF81C20FEF730F9002886D1009BADF8D0
:104250001A30A1E71649404636F095FFF8B9631CBD
:10426000DBB29E421BDD57F82380404636F0B2FF9A
:1042700001304508202D3FF66FAFAAB208A940468D
:10428000FDF786FA002887DAC4E7DAF80000EBB217
:1042900008AA01A9D0F8A00001F02EFA5DE70720D6
:1042A0005BE700BF71D0030079D0030090D003001A
:1042B0009ED0030083D0030030B5032989B00546A2
:1042C00014461CDD02A95068FEF7EEF8A8B903A950
:1042D000A068FEF7E9F880B904A9E06801F0B1FA36
:1042E00058B9084B286800930195BDF80810039A47
:1042F000D0F8A00004AB01F0F5F909B030BD0720FB
:10430000FBE700BFB544000038B503680D4604461E
:104310000B49986800F0ADFF012D0AD002D3022DA1
:104320000AD038BD236807499868BDE8384000F0D6
:10433000A0BF23680449F7E723680449F4E700BFF6
:10434000F0D0030081C20300FFD003000DD10300B1
:104350000B4601461846FFF7D7BF000070B503684B
:104360000D46044614499868164600F082FF042D55
:1043700009D8DFE805F00314171A1D0023680F4958
:10438000986800F076FF314620680822FDF770FF3C
:1043900023680B499868BDE8704000F06ABF236845
:1043A0000849EDE723680849EAE723680749E7E792
:1043B00023680749E4E700BFA5D00300BBD0030092
:1043C00028C10300C2D00300CBD00300D5D0030026
:1043D000DAD0030013460A4601461846FFF7BEBF6F
:1043E0002DE9F14FB1F100080646174607DC00221F
:1043F0001146FFF72BFD072001B0BDE8F08FD2F882
:1044000000A0104C00254FF00C0B0BFB05F950469B
:1044100059F8041036F0B7FE78B94C44A1686368C7
:104420004A10C90706EB020044BFB258D3584146B0
:104430003A4601B0BDE8F04F184701350B2DE4D1E5
:10444000D9E700BF30D10300F8B51D4603680C4F13
:10445000144606460A4698680A4900F00AFF013CDD
:1044600025443368AC42986805D014F9012F3946C9
:1044700000F0FFFEF5E70449BDE8F84000F0F9BEA2
:1044800014CB0300E2D0030028C1030010B41C4683
:1044900013460A46014620465DF8044BFFF7D4BF99
:1044A0000068134680680A46014900F0E2BE00BF7A
:1044B00016D1030013460A4601461846FFF7F0BF1F
:1044C0002DE9F041094E0A4D074600244FF00C0833
:1044D00008FB04F23B68925998682946013400F0C1
:1044E000C8FE142CF4D10020BDE8F081F8D20300FE
:1044F0002ECE030008B568220021024836F055FA96
:10450000002008BD100D0020002970B519DD1668C7
:10451000304636F05FFE441C6408A2B2102A12D85E
:104520000B4DA91A5C3130461446FDF731F9A04213
:104530000BD195F8653043F0020385F86530002013
:1045400070BD0720FCE70320FAE70620F8E700BF6C
:10455000100D0020002970B515461ADD106836F0E0
:1045600039FE1028064616D80C4C1122002104F101
:10457000200036F01AFA3246296804F1200036F09D
:10458000F0F994F8643043F0080384F864300020B4
:1045900070BD0720FCE70620FAE700BF100D0020E1
:1045A000002938B5044627DD15681449284636F039
:1045B000EAFD38B923681249D3F8A000BDE83840B5
:1045C00001F0A4B80F49284636F0DDFD38B923685C
:1045D0000B49D3F8A000BDE8384001F0A5B80A495E
:1045E000284636F0D0FD38B923680549D3F8A00035
:1045F000BDE8384001F0BAB8072038BD8F0204008A
:10460000100D0020DDD10300E5D10300002937B5EE
:1046100011DD01A91068FDF747FF50B9074B019C58
:1046200093F86420E517C3E9004542F0010283F8DE
:10463000642003B030BD0720FBE700BF100D002051
:10464000002907B511DD01A91068FDF72DFF48B954
:10465000074B019AA3F84A2093F8652042F0010223
:1046600083F8652003B05DF804FB0720FAE700BF7C
:10467000100D0020002907B510DD01A91068FDF715
:1046800013FF40B9064B019A1A6693F8652042F071
:10469000080283F8652003B05DF804FB0720FAE701
:1046A000100D0020002907B510DD01A91068FDF7E5
:1046B000FBFE40B9064B019A5A6493F8642042F01D
:1046C000400283F8642003B05DF804FB0720FAE79A
:1046D000100D0020002907B511DD01A91068FDF7B4
:1046E000E3FE48B9074B019AA3F8482093F86420E9
:1046F00042F0800283F8642003B05DF804FB0720D9
:10470000FAE700BF100D0020002937B511DD01A91F
:104710001068FDF7C9FE50B9074B019C93F864205F
:10472000E517C3E9024542F0020283F8642003B0B2
:1047300030BD0720FBE700BF100D002037B50D1E70
:10474000144641DD01A91068FDF7AEFED0BB1F4B3A
:10475000019AA3F85C20012D83F85E002CD06168DB
:10476000013911F8012F3AB36E2A16D005D8622A02
:104770001DD0632A16D0062024E06F2A06D0722AA4
:10478000F9D193F85E2042F0200203E093F85E2016
:1047900062F07F0283F85E20E3E793F85E2042F048
:1047A0004002F7E793F85E2042F01002F2E793F838
:1047B0005E2042F00802EDE793F8652042F0040223
:1047C00083F8652003B030BD0720FBE7100D002003
:1047D000002938B504461ADD15680E49284636F01A
:1047E000D2FC38B923680C49D3F8A000BDE83840A2
:1047F00000F093BF0949284636F0C5FC38B9236854
:104800000549D3F8A000BDE8384000F094BF072068
:1048100038BD00BF8F020400100D0020DDD1030061
:10482000002907B5134619DD082269461868FCF708
:10483000AFFF002810DB0A4A6B4603CB92F86430C6
:10484000C2F8310043F01003C2F8351082F864302A
:10485000002003B05DF804FB0620FAE70720F8E724
:10486000100D002000297FB5134619DD6C4610227B
:1048700021461868FCF78CFF10280FD194E80F0030
:10488000084E06F1100585E80F0096F8643043F0F5
:10489000040386F86430002004B070BD0620FBE7F6
:1048A0000720F9E7100D002000291FB515DD694626
:1048B000106800F0C6FF044660B9094A6B4603CB96
:1048C00092F86430C2F8390043F02003C2F83D107A
:1048D00082F86430204604B010BD0724FAE700BF18
:1048E000100D00202DE9F04F0E1EC3B08146154675
:1048F00040F36E816822002108A836F056F8DFF8F0
:1049000004B301244FF00008A64240F33C8155F85F
:104910002470B049384636F036FCC8B9631CDBB2A7
:104920009E4240F355819DF8842055F8230042F0C3
:10493000010203A98DF88420FDF7B6FD002840F0A0
:104940003281039AD317CDE908230234E4B2DBE7BE
:10495000A149384636F017FCB8B9631CDBB29E4259
:1049600040F336819DF8842055F8230042F002027E
:1049700003A98DF88420FDF797FD002840F01381EE
:10498000039AD317CDE90A23DFE75946384636F0B4
:10499000FAFB0190B0B9601CC0B2864240F31881A6
:1049A0009DF8842055F8200042F004028DF8842000
:1049B0000CA91022FCF7ECFE1028019B00F0E1800E
:1049C0000620F0E08549384636F0DDFB8246F0B936
:1049D000621CD2B2964240F3FB809DF8841055F8D9
:1049E000227041F0080138468DF8841036F0F2FB51
:1049F00010288046E4D81122514610A835F0D5FF82
:104A00004246394610A835F0ACFFD0469DE77449C0
:104A1000384636F0B8FBA0B9631CDBB29E4240F3C7
:104A2000D7809DF8842055F8230042F010028DF8BD
:104A300084200DF151010822FCF7AAFE002884DA37
:104A4000BEE76849384636F09EFBC8B9631CDBB246
:104A50009E4240F3BD809DF8842055F8230042F02B
:104A6000200204A98DF8842000F0EBFE002840F01D
:104A70009A8004AB03CBCDF85900CDF85D1064E704
:104A80005949384636F07FFBA0B9631CDBB29E4221
:104A900040F39E809DF8842055F8230042F04002A8
:104AA00003A98DF88420FDF7FFFC00287BD1039B30
:104AB00019934AE74D49384636F065FBA8B9631C9F
:104AC000DBB29E4240F384809DF8842055F8230099
:104AD00042F0800203A98DF88420FDF7E5FC002850
:104AE00061D1039BADF868302FE74149384636F075
:104AF0004AFBA0B9631CDBB29E4269DD9DF88520AC
:104B000055F8230042F0010203A98DF88520FDF736
:104B1000CBFC002847D1039BADF86A3015E7354937
:104B2000384636F030FB90B9631CDBB29E424FDD55
:104B30009DF8852055F8230042F0080203A98DF85E
:104B40008520FDF7B1FC70BB039B2093FDE62A494D
:104B5000384636F018FB00283AD1631CDBB29E427F
:104B600036DD55F82370384636F034FB01304FEA15
:104B70005008B8F1800F29D81FFA88F222A93846C8
:104B80005AE79846E1E62C681C49204636F0FBFAC5
:104B900060B9D9F800005FFA88F322AA08A9D0F812
:104BA000A00000F0D4FD43B0BDE8F08F14492046CA
:104BB00036F0E9FA60B9D9F800005FFA88F322AA62
:104BC00008A9D0F8A00000F0CCFDECE70320EAE74C
:104BD0000720E8E7F1D1030001D20300A0CF0300D2
:104BE000DACE0300FED3030012D20300DDCE0300B1
:104BF00056CE03001DD203009ED003008F02040096
:104C0000DDD1030055CF03002DE9F04FB1F10009CC
:104C100093B08246904640F3CD800025DFF8C8B1BE
:104C2000ADF8145001242E46A14540F397801F2E65
:104C300000F3BC8058F824705F49384636F0A3FA78
:104C400040B99DF8143043F001038DF8143001345D
:104C5000E4B2E9E75949384636F095FA20B99DF8AB
:104C6000143043F00203F0E75946384636F08BFA29
:104C700020B99DF8143043F00403E6E75049384664
:104C800036F081FA20B99DF8143043F00803DCE7D0
:104C90004C49384636F077FA20B99DF8143043F085
:104CA0001003D2E74849384636F06DFA20B99DF82E
:104CB000143043F02003C8E74449384636F063FA1D
:104CC00020B99DF8143043F04003BEE74049384610
:104CD00036F059FA20B99DF8143043F08003B4E758
:104CE0003C49384636F04FFA30B99DF8153043F05C
:104CF00001038DF81530AAE73749384636F043FAF4
:104D0000D0B90134E4B2A14554DD58F824300393FE
:104D1000184636F05FFA01304710C6F12002BA4259
:104D200044D30AAB9919039BBAB21846FCF730FD7D
:104D300000283DDB3E448AE72849384636F023FA0E
:104D4000002837D10134E4B2A14533DD06A958F873
:104D5000240000F076FDA0B9012578E7D8F80040DE
:104D60001F49204636F00FFA70B9DAF80030D3F850
:104D7000A000F3B205B106AD00950AAA05A900F09E
:104D8000E1FC13B0BDE8F08F1649204636F0FBF980
:104D900080B9DAF80030D3F8A000F3B205B106AD5F
:104DA00000950AAA05A900F0D7FCEAE70320E8E786
:104DB0000620E6E70720E4E7F1D1030001D2030073
:104DC000A0CF0300DACE0300FED3030012D203000B
:104DD000DDCE030056CE03009ED00300E9D10300D0
:104DE0008F020400DDD1030055CF03002DE9F0410F
:104DF000084E07460D4690460C46631B984507DD56
:104E00003B6814F8012B9868314600F032FAF4E759
:104E1000BDE8F08146C1030037B591F864300C4617
:104E20009907054606D5006870498068D4E90223D1
:104E300000F01FFA94F86430DA0706D528686C4948
:104E40008068D4E9002300F014FA94F86530DB0799
:104E500006D52B68B4F84A206649986800F009FA2C
:104E600094F86530180705D52B68226E624998685A
:104E700000F0FFF994F86430590605D52B68626C90
:104E80005E49986800F0F5F994F86430DA060FD5B9
:104E90002B685B49986800F0ECF904F13101284671
:104EA0000822FFF7A3FF2B685649986800F0E1F944
:104EB00094F864309B0616D5B4F83F10B4F83B3034
:104EC000B4F83920286849BA89B20191B4F83D1084
:104ED00049BA89B200915BBA52BA9BB292B24A49BE
:104EE000806800F0C6F994F8643058070ED52B6836
:104EF0004649986800F0BDF91022A1182846FFF72E
:104F000075FF2B683F49986800F0B3F994F8643056
:104F100019070CD52B683E49986800F0AAF9286853
:104F20003C49806804F12003112200F0A2F994F8B2
:104F30006430DB0906D02B68B4F8482036499868FD
:104F400000F097F994F865309A070FD52B6833492C
:104F5000986800F08EF904F14C0128461022FFF702
:104F600045FF2B682749986800F083F994F865306D
:104F70005B0738D52B68B4F85C209868284900F0A6
:104F800078F994F95E30002B04DA2B68254998688B
:104F900000F06FF994F85E30580604D52B6822496A
:104FA000986800F066F994F85E30990604D52B688D
:104FB0001E49986800F05DF994F85E30DA0604D571
:104FC0002B681B49986800F054F994F85E301B0771
:104FD00004D52B681749986800F04BF92B680949EC
:104FE000986800F046F9002003B030BD29D20300D4
:104FF00042D2030070C503005AD203006FD20300EF
:105000007BD2030028C1030088D20300ACD2030086
:10501000B9D20300C1CA0300C8D20300D9D2030029
:10502000E0D2030054CE0300BDDC0300AFDF030079
:1050300008CB030060DB030010B503689AB0044698
:105040006946D3F8A00000F061FB18B96946204614
:10505000FFF7E2FE1AB010BD10B503689AB004461F
:105060006946D3F8A00000F05FFB18B969462046F6
:10507000FFF7D2FE1AB010BD2DE9F14F064690465B
:105080000F4629B9154901B0BDE8F04FFFF7C4BE7E
:10509000D2F800A0124C00254FF00C0B0BFB05F9C9
:1050A000504659F8041036F06EF880B94C44A168A7
:1050B00063684A10C90706EB020044BFB258D358D0
:1050C000791E08F1040201B0BDE8F04F1847013520
:1050D000142DE3D1062001B0BDE8F08F100D0020A3
:1050E000F8D203002DE9F041094E0A4D074600248D
:1050F0004FF00C0808FB04F23B6892599868294667
:10510000013400F0B6F8042CF4D10020BDE8F081A1
:1051100088D403002ECE030013B503680446694605
:10512000D3F8A00000F09CFB082269462068FDF738
:105130009FF823680349986800F09BF8002002B0AC
:1051400010BD00BF28C1030030B5012987B0144647
:1051500017DD02290C4B056818BF926803934FF0C6
:1051600000030293094B0193094B0093049008BF7D
:105170000022084B6168D5F8A00000F067FB07B07B
:1051800030BD0720FBE700BF4152000042D40300BE
:105190005BD4030037D4030008B50368D3F8A0003C
:1051A00000F059FB002008BD2DE9F14FB1F10008D6
:1051B0000646174607DC00221146FFF793FF07203B
:1051C00001B0BDE8F08FD2F800A0104C00254FF0E0
:1051D0000C0B0BFB05F9504659F8041035F0D3FFC2
:1051E00078B94C44A16863684A10C90706EB02000D
:1051F00044BFB258D35841463A4601B0BDE8F04FDB
:1052000018470135042DE4D1D9E700BF88D4030045
:1052100010B503689C6829B920460749BDE81040CD
:1052200000F027B8084600F08BFF044902462046EC
:10523000BDE8104000F01DB864D4030073D403002F
:105240000B4601461846FFF7E3BF10B5A0B0044671
:10525000134668460A46802136F030F9684635F034
:10526000B9FF236882B21B6869462046984720B080
:1052700010BD0EB403B503AA52F8041B0192FFF748
:10528000E4FF02B05DF804EB03B070472DE9F04194
:10529000094E0A4D074600244FF00C0808FB04F2A3
:1052A0003B689259986829460134FFF7E2FF062CC3
:1052B000F4D10020BDE8F081CCD403002ECE030051
:1052C000043000F07EBE000003460068024AD0F8B9
:1052D000A000191D00F063BE8955000030B50229F9
:1052E00087B00546144617D10021142201A835F0D5
:1052F0005CFB01A9206800F0A4FA58B9694660680F
:10530000FDF7D2F830B9009BADF8143001A9281D83
:1053100000F059FE07B030BD0720FBE730B5022989
:1053200087B00546144617D10021142201A835F094
:105330003CFB01A9206800F084FA58B9694660680E
:10534000FDF7B2F830B9009BADF8143001A9281D63
:1053500000F03BFE07B030BD0720FBE710B5382258
:10536000044640F8041B002135F01FFB204610BD09
:105370002DE9F34102AD302305F8013D0E461746F5
:1053800000244FF06108BC4219D001222946304662
:1053900000F042FBA0B99DF807300133DBB25B2B74
:1053A00007D07B2B09D03A2B08BF41238DF807305B
:1053B00001E08DF807800134E5E73023F6E70020AF
:1053C00002B0BDE8F08100002DE9F04300258FB068
:1053D0000C468146904629462C2203A8019535F0BB
:1053E000E4FA012C49D0032C45D0042C52D12B498E
:1053F000D8F8000035F0C7FE00284BD101A9D8F835
:105400000400FDF729FE044688BB0125022607A9F2
:1054100058F8260000F015FAB700044638BB474498
:1054200002A97868FDF740F8044600BB029BADF87E
:105430002E300236D9F800300021D3F8A00000F059
:10544000A1FD074640B3D5B10146BDF8042048464A
:10545000FFF78EFF044638B903AA394609F1040064
:1054600000F0B5FD044610B1384600F0CDFA2046F4
:105470000FB0BDE8F0832E46C9E72E46DAE758F8AC
:105480002640204635F0A6FE214682B2384600F07E
:10549000C3FADFE70724EAE70324E8E7B8D4030008
:1054A0002DE9F14FB1F100080646174607DC00224E
:1054B0001146FFF7EBFE072001B0BDE8F08FD2F8F0
:1054C00000A0114D00244FF00C0B0BFB04F95046CB
:1054D00059F8051035F057FE80B94D44A9686B683E
:1054E0004A10C90706EB020044BFB258D35808F16E
:1054F000FF313A1D01B0BDE8F04F18470134062CCA
:10550000E3D12046D8E700BFCCD403002DE9F04119
:105510000368ADF5BC6D044608460D469F68164607
:1055200000F074FA8046284600F074FA1349A8EB9C
:1055300000023846FFF79DFE06F110012068FCF7D7
:105540001DFF2368728C0E499868FFF792FE28466B
:1055500000F060FA01AE3246014640F2DB532846C5
:1055600000F05CFA002333542368064998683246F9
:10557000FFF77FFE0DF5BC6DBDE8F081BBD40300E5
:1055800013CB03002ECE0300FFF7C0BF37B501B920
:10559000FEE74B7C13F0040F14BF202400241D07EA
:1055A00048BF44F01004DA0648BF44F008049D06E2
:1055B00048BF44F004048D7C5A0648BF44F00204FE
:1055C000DA0918BF44F0010405F0010543F30103B3
:1055D00000F530400A7CCDE900455BB2983018F008
:1055E000D9F903B030BD01B9FEE700F530400A7CBF
:1055F000983018F0B5B901B102B9FEE700F53040B6
:10560000983016F05DBB13B501B9FEE70C7D0A7C3E
:1056100044F3010300F53040C4F3800400945BB20E
:10562000983018F037FA02B010BD01B9FEE700F566
:1056300030400A7C983018F013BA01B102B9FEE785
:1056400000F53040983016F0E3BB00F5304098305C
:1056500018F004BB2DE9F041044600F533407830E2
:105660000D4616461F4604F01BFE48B904F53440AB
:105670003B46324629468830BDE8F04105F070BA15
:10568000BDE8F08110B5044600F53440883005F0DF
:1056900089FB30B904F533407830BDE8104004F0A0
:1056A0009DBD10BD00F53440883005F098B900F577
:1056B00034400022883005F00DB900F534408830C0
:1056C00004F02BBF00F53540443003F0D5BF10B4D3
:1056D00000F53540BDF80440019448305DF8044BB6
:1056E00007F0F2BD00F53540603009F08FBA00F5E3
:1056F0003440883004F05ABF00F53440883004F05C
:10570000B7BF00F53440883004F025BF01B9FEE78B
:1057100000F51240C83005F0ABBE01B9FEE700F558
:105720001240C43005F0E8BF01B9FEE700F51340B0
:105730001C3005F09DBE01B9FEE700F5134018309E
:1057400006F02ABD00F51240C43006F055BB00F546
:105750001240C43006F082B900F51340183006F04C
:105760004BBB00F51340183006F078B900F5124035
:10577000C43006F09DBD00F53940143008F098BFE4
:1057800000F53940143008F089BF00F51040803032
:1057900009F072BB00F51040803009F07BBB00F0CF
:1057A0006FBC4BF63873C05C704700F079BC00F0FA
:1057B00053BC00F095BC00000048704731D5030091
:1057C00000F5114008B5383019B119F0C1FB0020BF
:1057D00008BD19F0EDFBFAE74BF27433C05C70477B
:1057E00049F23813C058704700F5114038300BF0BB
:1057F00097B800F5114038300BF0D8B849F23C1397
:10580000C058704700F5114038300AF0D1BF00F59C
:10581000114038300AF0FEBF49F24013C05C7047B7
:1058200049F24013C15470470A4611B14B78022B1C
:1058300005D800F5104000215C3009F0CDBC0020F7
:1058400070470B46014618460AF009BB00F5384080
:10585000603008F007B800F53840603008F09CB8B8
:1058600000F53840603007F059BE10B5044690B0DE
:1058700019B900F048FC10B010BD00F5144001AAA1
:105880002C3001F0F5FE01A92046F2E700F04DBCF6
:1058900049F23443C05C704738B549F2136304469B
:1058A000C35C93B900F514402C3002F0C1F80546F2
:1058B00048B904F51240C43005F0BEFE04F51340AB
:1058C000183006F007FC284638BD0D25FBE700F52B
:1058D00014406630704738B5054601B9FEE749F215
:1058E0001363C45C5CB900F51440603003F0ACFC99
:1058F00005F5164008300EF081FC204638BD0D201D
:10590000FCE7000001481EF0E5BF00BF800D00204D
:1059100049F23243C05A704738B549F2136305461D
:10592000C45C84B900F514402C3001F073FF05F518
:105930001240C43005F080FE05F51340183006F023
:10594000C9FB204638BD0D20FCE700F51540EC30C2
:1059500001F0C8BC00F51540EC3001F02FBD00F59A
:105960001440603003F084BC00F514402C304078C3
:10597000C0F3C000704710B54BF27433C45C34B947
:1059800000F514402C3003F023F8204610BD0D2004
:10599000FCE710B54BF27433C35C3BB949F22C42BF
:1059A000845C61F300048454184610BD0D20FCE7AC
:1059B00000F51440A830704770B504460D461646F1
:1059C0001946049A00F098FB04F514403246294623
:1059D000024B2C30BDE8704002F093B86B580000C9
:1059E00070B504460D4616461946049A00F096FB1B
:1059F00004F5144032462946024B2C30BDE8704075
:105A000002F09EB88D58000000F023BC408B704718
:105A100000F023BC808B704700F068BD10B41C46BA
:105A2000134622465DF8044B00F089BC73B5A023F1
:105A3000054600F580400B8044300C4600F0E7FB43
:105A400005F515466080A21D211D06F14C0000F0F1
:105A5000C9FF04F10A0204F1080106F15C0000F03C
:105A6000B7FE04F11A0204F1180106F1DC0000F09F
:105A7000AFFE05F5104004F10E0204F10C01683090
:105A800000F0B0FF05F5114004F1120204F110011D
:105A9000343000F09DFE05F5164004F1160204F1C5
:105AA00014016C3000F094FE05F5114004F11E0263
:105AB00004F11C01D83000F08BFE05F511400DF10A
:105AC000060201A9FC3000F083FEA38BBDF8042080
:105AD0001344A383BDF80620E38B05F5354013443A
:105AE000E38304F1220204F12001E83000F070FEAB
:105AF00005F536400DF1060201A90C3000F068FEF4
:105B0000238CBDF8042013442384BDF80620638C45
:105B1000134463840023A384E38402B070BD10B5F2
:105B20000446FFF73EFE20B12046BDE8104001F0DC
:105B30008DB910BD49F2F863C058704700F51640A2
:105B4000083011F0CDB900F514403C30704773B502
:105B500049F213630546C45C0E4614BB00F51440BD
:105B60002C3001F06FFE02A9FD2301F8083D05F578
:105B700016403368CDF80130083033798DF80530A0
:105B8000ADF806400EF0B6FB05F51240C43005F046
:105B900053FD05F51340183006F09CFA204602B07C
:105BA00070BD0D20FBE707B549F23C636946C35C55
:105BB0008DF8043001A80BF0E3FF9DF8000003B05E
:105BC0005DF804FB13B502AB044603F8041D6846F8
:105BD00019460BF0E7FF04F516409DF80010083059
:105BE00011F098F902B010BD00F5134080307047F5
:105BF00038B5044601B9FEE749F21363C35C8BB9BB
:105C000000F5134080300CF081F8054604F5124091
:105C1000C43005F011FD04F51340183006F05AFAAF
:105C2000284638BD0D25FBE700F517407430704756
:105C300000F517405C30704700F51740443070475E
:105C400000F514404430704738B549F213630446F8
:105C5000C35C8BB900F514402C3001F0CFFD054634
:105C600004F51240C43005F0E7FC04F51340183089
:105C700006F030FA284638BD0D25FBE749F290338F
:105C8000C058704700F5134080300CF0FDB849F261
:105C9000EC33C058704749F2EC33C150704700F5FF
:105CA000164008300FF03CBE00F5164000210830C9
:105CB0000FF0D4BD02B101B9FEE700F5164008307F
:105CC00012F0ACBF49F21363C05C704701B9FEE744
:105CD00000F5164008300EF05BBD00F516400830A8
:105CE0000EF09ABC70B50C4601B9FEE749F2136399
:105CF000C35C022B36D100F51640083011F098FC39
:105D00000368236043686360038B2381038B9B12CA
:105D1000A37290F82430E37290F82530C3F3830324
:105D20002373837F637390F82530C3F30103A37358
:105D3000866805461EF059FB237C43F0010323745B
:105D4000801B4FF47A76B0FBF6F0E073AB7E03F085
:105D50000F03DA1F53425341227C63F34102227442
:105D6000002070BD0D20FCE700F533402C3018F00A
:105D700001B800F533402C3018F000B800F533407E
:105D80002C3018F081BB00F5164010B508300C46D9
:105D900021B10021BDE8104010F078BF01210EF0C4
:105DA000BFF9204610BD00F51640083011F0E0BEE6
:105DB00010B586B006AC00F5164044F8041D0A99EB
:105DC0000291099901919DF8201000910830214617
:105DD0000FF026FA06B010BD00F5174030307047BE
:105DE00049F61803C05A704700F5184018300BF0F8
:105DF0005FBE00F51640083011F036BD00F51640C4
:105E0000083011F03DBD4BF27F03C05C70474BF290
:105E10007F03C15470474BF28003C05870474BF268
:105E20008003C150704700F53840AC3007F088BFA0
:105E300008B500F53840AC3007F0E0FF002008BDA1
:105E400000F53140A43016F043BE00F53140A430D7
:105E500016F041BE4BF27C03C05C70474BF27C03F2
:105E6000C15470474BF27D03C05C70474BF27D0319
:105E7000C15470473E2904D800F52B401C3018F05F
:105E8000D7BC0720704749F21363C35C022B04D0D0
:105E900009D3042B07D80020704700F516400321D2
:105EA000083013F023B80D20704700F51640083075
:105EB00014F0ACB94BF27E03C05C70474BF27E032A
:105EC000C15470474BF29203C05C704700F5164016
:105ED000083011F02BBE02B9FEE700F5164008307D
:105EE00012F03ABE02B9FEE700F51640083012F093
:105EF00022BE37B5144602B103B9FEE7158802AADF
:105F000000F5164022F8045D083012F0E7FC10B9E5
:105F1000BDF80430238003B030BD3E20704702B985
:105F2000FEE700F52B401C3018F0EABD02B9FEE791
:105F300000F5394088300BF003B800F51440704785
:105F400038B549F213630546C45C84B900F51340C3
:105F500080300BF043FE05F51240C43005F06CFBB9
:105F600005F51340183006F0B5F8204638BD0D2071
:105F7000FCE74BF29403C056704700F5164008301A
:105F800013F0BBBF0A4611B14B78022B05D800F5C0
:105F90001040002188300AF0E9BD0020704770B53C
:105FA00015461E460C4629B100F5104188312046A1
:105FB0000AF042FD324629462046BDE870400AF00C
:105FC0006FBD0AF097BD0AF0B7BD0AF038BD0AF000
:105FD00003BE38B50446002500F00BFFC4E90255A6
:105FE00004F1100019F0BBF904F58040103001F005
:105FF000D7F804F58040113000F0D4FD04F580405E
:106000002146143000F00EFD04F580402146443056
:1060100000F09CF849F24C0304F51040E55049F2B9
:1060200050032146E55049F254035C30E55049F2F3
:106030005803E55009F0AAF804F51140214638301C
:1060400018F0F0FE4BF638732046E55438BD0000DA
:1060500000487047800D00201EF0F2BB10B54BF6D3
:10606000387301220446C25400F58040403000F0ED
:10607000C3FD04F516400830BDE810400DF0E8BE41
:1060800010B54BF63873054CE35C2BB92046FFF78F
:10609000A0FF2046FFF7E2FF004810BD800D002062
:1060A00038B54BF638730446C25CC2B10025C554FE
:1060B0002946FFF768FE29462046FFF781FB29465F
:1060C0002046FFF766FC04F58040403000F09AFD62
:1060D00004F580401130BDE8384000F0FDBC38BD0B
:1060E00010B5044600F58040403000F091FD204698
:1060F000BDE810401EF0A4BB49F24C03C15049F268
:106100005003C2507047024649F24C030846D35828
:106110001BB149F2500151581847704749F25403D6
:10612000C15049F25803C2507047024649F2540325
:106130000846D3581BB149F25801515818477047C7
:10614000014B53F82000704778D5030038B5051D82
:1061500004464FF4A0420021284634F026FC45F2C4
:106160000403E218E55004F1840343F8803C8033D3
:106170009342FAD144F684730022E250A023238094
:10618000204638BD10B500F5A043043341B11A686C
:106190000C680A6019600288013202802146F5E726
:1061A00010BD4A681AB98B680BB9FFF7EBBFFEE761
:1061B000F8B50B4E05460C4617462B88A3420ADA63
:1061C000394630460DF03CF90028F6D02B88A34222
:1061D00003DA0320F8BD002CF8DA0020FAE700BF4C
:1061E000B0A2002010B50A4601210446FFF7E0FFE7
:1061F00058B945F20402A3582BB11968A150186090
:106200002288013A2280184610BD0023FBE700884F
:106210007047F8B506460F4605465424BC42296827
:1062200010D219B17C342D68A4B2F7E796F8291082
:10623000F06801F00301FFF7D5FF28600028F1D1D5
:10624000032005E000242C60F068FFF79BFF204648
:10625000F8BD0146C068FFF7A4BF70B5038BCD1829
:10626000ADB29D4204460E4627D3542D82BFA5F100
:1062700055017C2291FBF2F1428B13449BB28CBFFF
:1062800001310021542B05D9553B7C2293FBF2F3BD
:106290000133C91A94F82920E06802F00302FFF7DD
:1062A00087FF48B929462046FFF7B3FF20B9A38BE3
:1062B0006683B34200D9A68370BD0720FCE703685C
:1062C00001201BB10130C0B21B68FAE77047838B15
:1062D000428B1944914200DDFEE789B291428183ED
:1062E00000D9FEE700207047438B8B4200D2FEE7C7
:1062F00081830020704790F82830C3F383030A2B72
:1063000009D8012202FA03F340F24E72134214BF7D
:1063100001200020704700207047438B8B4200D241
:10632000FEE75B1A4383838B028B8B420A4494BF44
:106330000023591A02838CBF818383837047F8B589
:106340001546428B9142064642D24819348B904200
:10635000A8BF551A21448CB2A8BFADB2532C16D891
:10636000C4F15407BFB2AF4228BF2F4606F12C013B
:10637000214418463A4634F0F4FAED1B0346ADB218
:106380003B44002136687B291ED92EB9FEE7A4F1D3
:10639000540189B20027F5E77C39366889B2F2E703
:1063A000C1F17C04A4B2AC4228BF2C46301D01448C
:1063B0002246184634F0D5FA2D1B0346274436688A
:1063C000ADB2BFB2234400211DB1002EE8D1FEE7DB
:1063D00000273846F8BD2DE9F0411E46438B15468F
:1063E0008A189A42074600DDFEE7048BA8BF5D1AB3
:1063F00021448CB2A8BFADB2532C16D8C4F15408B6
:106400001FFA88F8A84528BFA8462C3031464246D6
:106410002044A5EB080534F0A4FAADB246440020B0
:106420003F687B281FD937B9FEE7A4F1540080B23A
:106430004FF00008F4E77C383F6880B2F1E7C0F124
:106440007C04A4B2AC4228BF2C463B1D31462246F8
:10645000184434F086FA2D1BA0443F68ADB21FFAF1
:1064600088F82644002015B1002FE8D1FEE7404609
:10647000BDE8F081F8B504460D46164600F12C073C
:10648000238B9E4218D994F82910E06801F003018B
:10649000FFF7A8FE30B323680360238B2060532BE3
:1064A00006D82C30C3F15402F918184434F059FAC4
:1064B000238B7C332383E3E79B1B628B2383A38B98
:1064C0003244334492B29BB29A42628300D2FEE7D6
:1064D000A3834DB12B46324600212046FFF77BFFB8
:1064E0000020F8BD0320FCE72846FAE72DE9F0413B
:1064F000478B8846D11989B206461446FFF7ADFE90
:10650000054640B94346224639463046FFF763FF09
:10651000844200D0FEE72846BDE8F08138B5054644
:1065200008460C4600F080FD214602462846BDE89C
:106530003840FFF7DBBF2DE9F043814685B0884640
:1065400017461D460026CDB1102D2C4628BF10241D
:10655000224641466B464846FFF7F1FEA0442246DC
:1065600039462D1B27446B460C983444FFF733FF04
:106570001FFA88F8BFB2ADB2A6B2E4E7304605B064
:10658000BDE8F0831F2900D9FEE700EBD10080238E
:1065900090F8202001F0070143FA01F10A4214BFEC
:1065A0000120002070471F2900D9FEE700EBD10031
:1065B000802301F007010B4190F8201021EA03012C
:1065C00080F8201070471F2900D9FEE700EBD100AA
:1065D00001F007038021194190F82030194380F819
:1065E0002010704700F1200200F1240312F8010B83
:1065F00010B99A42FAD1704701207047014489B21C
:10660000884288BF013188B2704710B50024A24289
:106610000CDD0B5D14F0010F08BF1B0203449BB29D
:10662000984288BF013398B20134F0E710BDF8B545
:1066300006461D460846D118738B994200DDFEE7D9
:10664000348B224494B2532C13D8C4F15407BFB2F4
:10665000AF4228BF2F4606F12C0121443A46ED1BDC
:10666000FFF7D3FFADB2002136687B2918D926B9D0
:10667000FEE7A4F1540189B2F6E77C39366889B2A5
:10668000F3E7C1F17C04A4B2AC4228BF2C46331D11
:1066900019442246FFF7B9FF2D1B3668ADB2002121
:1066A00015B1002EEDD1FEE7F8BD00220260704763
:1066B000006800B14068704730B50C690346ECB91A
:1066C000086191F8290064F3820081F82900486884
:1066D00040B9886830B91C682CB9C1E9011120465D
:1066E000196030BDFEE764684C601D688D60A16074
:1066F0001C68012A6160F4D11960F2E71820F0E704
:1067000091F82930C3F3800210B5FAB90B699842A9
:106710001CD14B68CBB18B68BBB10468A14203D1DB
:106720008B4208BF13460360D1E901235A60D1E9C7
:1067300001329A60002091F829300861C1E9010016
:1067400060F3820381F8293010BDFEE71720FBE7D4
:106750000022C0E90022C0E9022270470B4650F82F
:10676000232032B9032B1ABF0133DBB213469942FF
:10677000F5D11046704708B50021FFF7EFFF00B1D3
:10678000406808BD08B550F821304BB103291ABF45
:106790000131C9B20021FFF7E1FF00B9FEE743680C
:1067A000184608BD0021FFF7D9BF10B5044600699F
:1067B00094F829305B0707D528B1FFF7F3FFA04213
:1067C00014BF6068002010BD0028FCD00068F6E708
:1067D00038B500230B8013800D461446FFF768FF81
:1067E000024658B12B8801332B80FFF768FD2388C0
:1067F000184420801046FFF7D8FFF1E738BD70B588
:106800000B6906460C46C3B9206191F8295045F042
:10681000040581F8295005F003052946FFF79EFF7E
:1068200040B14368C4E901309C60446046F82540AB
:10683000002070BDC4E90144F8E71820F9E791F899
:1068400029305A0710B527D50A69904224D103F0A0
:10685000030350F8232091420BD18A68914219D04A
:1068600092F8294004F003049C4218BF002240F82B
:106870002320D1E901329A60D1E901235A60002036
:1068800091F829300861C1E9010060F3820381F8C1
:10689000293010BD0022EAE71720FAE7032970B576
:1068A00004460D461FD806693EB994F8293065F3B1
:1068B000010384F82930002016E090F8293003F015
:1068C00003028A42F7D05B07EFD501463046FFF757
:1068D000B6FF94F8293065F3010384F82930304677
:1068E000FFF78DFFE7E7072070BD2DE9F0418846EF
:1068F0001946054617461E46FFF774FC0446C0B10C
:106900008022002134F051F894F82830E56068F3D3
:10691000010363F07F033146278384F82830204643
:10692000FFF7BCFF014638B121462846FFF739FC86
:1069300000242046BDE8F0812046FFF78EFC0028A9
:10694000F7D0F1E710B55BB11C785B78FFF7CDFFAE
:1069500028B190F8283064F3C71380F8283010BDB0
:1069600001231C46F2E773B590F82930028B0E46DE
:1069700090F82810054603F0030301F00301C068F6
:10698000FFF7B3FF044628B33146FFF766FC024623
:1069900018BB0146334600942846FFF7CCFDA98B6F
:1069A000638BB14228BF31468B4200D2FEE7A18300
:1069B00095F8283094F82820C3F3830363F3850205
:1069C00084F8282095F82830D2B2DB0963F3C71287
:1069D00084F82820204602B070BD2046FFF739FC1D
:1069E0000024F7E738B500230B8013800D461446CA
:1069F000FFF7C1FE024658B12B8801332B80FFF709
:106A00005EFC2388184420801046FFF7CEFEF1E795
:106A100038BD026002B9FEE701F580414A6A426072
:106A20004862704738B504460025C0E90055034662
:106A3000064A083000F0D9F9C4E90455C4E90655FE
:106A4000C4E90855A562204638BD00BFA36A00000E
:106A5000026843680A430B4302604360083000F059
:106A6000E5B9436831EA030301D0FFF7F1BF70478E
:106A700070B5066804469EB10023056903602DB118
:106A80002B682846314698476D68F8E704F11805E9
:106A9000636913B1A169304698470834AC42F7D115
:106AA00070BD08B5FFF7D4FA00F580401430BDE89A
:106AB0000840FFF7DDBF38B5084691B215461C46C1
:106AC0001DF054FE10B924B1256038BD6FF03B00B5
:106AD000FBE72046F9E70000084A138810B5044692
