:1010000000000420BDA40200E5A40200E7A4020041
:10101000E9A40200EBA40200EDA40200000000001D
:10102000000000000000000000000000EFA402002B
:10103000F1A4020000000000F3A40200F5A40200E5
:10104000AD7302001DD90200F7A40200F7A402004C
:10105000F7A40200F7A40200F7A40200F7A402001C
:10106000F7A40200F7A40200F7A40200F7A402000C
:10107000F7A402009D530200F7A40200F7A40200A7
:10108000F7A40200F7A40200F7A40200F7A40200EC
:10109000F7A40200F7A40200F7A40200F7A40200DC
:1010A000F7A40200F7A40200F7A40200F7A40200CC
:1010B000F7A40200F7A402000000000000000000F6
:1010C000F7A40200F7A40200F7A40200F7A40200AC
:1010D000F9520200F7A40200F7A4020015830200EF
:1010E000F7A40200F7A4020051070300000000006B
:1010F00000000000F7A4020000000000F7A40200B6
:1011000000000000000000000000000000000000DF
:1011100000000000000000000000000000000000CF
:1011200000000000000000000000000000000000BF
:1011300000000000000000000000000000000000AF
:10114000000000000000000000000000000000009F
:10115000000000000000000000000000000000008F
:10116000000000000000000000000000000000007F
:10117000000000000000000000000000000000006F
:10118000000000000000000000000000000000005F
:10119000000000000000000000000000000000004F
:1011A000000000000000000000000000000000003F
:1011B000000000000000000000000000000000002F
:1011C000000000000000000000000000000000001F
:1011D000000000000000000000000000000000000F
:1011E00000000000000000000000000000000000FF
:1011F00000000000000000000000000000000000EF
:1012000010B5054C237833B9044B13B10448AFF340
:1012100000800123237010BDD000002000000000DA
:101220008C2A040008B5034B1BB103490348AFF3F4
:10123000008008BD00000000D40000208C2A0400BB
:10124000154B002B08BF134B9D46A3F5803A002198
:101250008B460F461348144A121A3AF08EFA0F4B77
:10126000002B00D098470E4B002B00D09847002051
:10127000002104000D000D48002802D00C48AFF3F7
:1012800000803AF01BFA2000290000F015F83AF02F
:10129000EFF900BF0000080000000420000000007B
:1012A00000000000D000002008FF00200000000027
:1012B000000000007047000070B505460E4631463C
:1012C000284624F0ADFC06F069F9044628B90B4B1A
:1012D0000B4A0C4866213AF0ADF900F055F824F0BD
:1012E000C7FC18B1204606F05FF9E8E7204606F093
:1012F000AAFB204624F0C2FCF1E700BFF1CB0300BB
:10130000ECCB0300FACB030038B504460D4600F0E1
:1013100055FA04F5637104F55C7000F04AF9234650
:1013200004F58361154A04F55E7000F09CF904F23F
:101330009233C4F88C3304F21E428023A4F8903315
:10134000C4F81824002340F2145284F8143484F8AA
:101350001534A4F81C2484F8343929462346084A55
:1013600004F6381007F0FFFC22460649201D05F060
:1013700063F924F0A3FD204638BD00BF9515000099
:101380008B140000BB13000010B5054C014620462D
:10139000FFF7BAFF00F0D6FA844200D0FEE710BD96
:1013A000F0000020D0F88C2300F292339A4203D14F
:1013B00000F6381007F0F8BC7047FFF7F3BF2DE9CF
:1013C000F8430446051D00F55C764FF0020801273E
:1013D000284605F051FA94F8143490B1022B18D134
:1013E000012B21D3022BF3D1304600F01DF980B937
:1013F00094F8343984F81404002BE9D084F83409C3
:10140000E5E7012BEDD194F81514304600F0DEF835
:10141000F8B1D4F88C1304F29230091A89B291B35E
:1014200024F054FD78B3FEE7204600F091FA08B1AD
:1014300024F0D2F8204600F095FA0028E9D1304691
:1014400000F0BBF80028E4D1284605F0ABFA84F898
:101450001474284605F0BDFA28B9284605F0C2FAEA
:1014600084F81504CFE794F8C090284605F0C8FB2F
:10147000B9F1000F04D094F8C0300BB984F8347976
:1014800084F81484B0E7BDE8F88308B500F05AFA90
:10149000BDE80840FFF793BF00F29233C0F88C33E9
:1014A0008023A0F8903300F6381007F07DBC08B513
:1014B00000F048FA18B1BDE80840FFF7EDBF08BDDD
:1014C00038B504460D4600F03DFA38B12A462146AB
:1014D00000F55E70BDE8384000F0CEB838BD0000C1
:1014E000F0B50C46A1B016461F4600F045FA23465B
:1014F000194A1A4D802168463AF0ECFC68463AF0E9
:1015000051FD69460246002001F0F4F80024BC4277
:10151000A0B20ED0292C0BD0A4EB840104EB440024
:10152000335D2A46803168443AF0D4FC0134EEE75A
:10153000204600EB4000C0F18001094A68443AF0BF
:10154000C9FC68463AF02EFD0DF10101421E002053
:1015500001F0D0F821B0F0BD5CCC030070CC0300EA
:1015600076CC030038B5D0F8183400F21E455B1B6A
:1015700004469BB251B91A46294600F0DEFF40F2FC
:101580001453C4F81854A4F81C3438BD2A46FFF785
:10159000A7FFF4E7FFF7E6BF838843B103685A1C4F
:1015A000026019708388013B83800020704703200C
:1015B0007047002201608280704708B54FF6FF73C4
:1015C00083807E210068FFF7E7FF08BD7E2938B5DC
:1015D00005460C4600680AD87D2903D2112901D09E
:1015E000132906D18388012B08D8032005E0F829A8
:1015F000F7E72146FFF7D0FF40B138BD7D21FFF767
:10160000CBFF84F020012868FFF7C6FFAA88054BAE
:101610005440E4B2002033F8143083EA1223AB8044
:10162000EBE700BF7ACC03002DE9F0418688036820
:10163000F543ADB2E9B204461F68B3F80480FFF782
:10164000C5FF48B9290A2046FFF7C0FF20B97E210F
:101650002068FFF7A1FF20B123681F60A3F8048072
:10166000A680BDE8F08130B500250570C0E9011203
:10167000C0E9033530BD00002DE9F843374E04467C
:101680000D468F184FF00208AF4265D0237815F849
:10169000011B012B24D01BD3022BF5D16068B0F8BD
:1016A0000490B9F1000F50D0B4F810C081F02001BF
:1016B00081EA0C02D2B236F8123083EA1C2323826C
:1016C000FFF76AFF638A0133638201232370DBE73C
:1016D0007E29D9D1012323704FF6FF732361D3E70D
:1016E0007D2917D07E2918D06068B0F80490B9F130
:1016F000000F2AD0B4F810C081EA0C02D2B236F83A
:10170000123083EA1C232382FFF746FF638A0133EA
:101710006382B9E784F80080B6E7638A002BDBD0E8
:10172000012B10D9228A4FF2B8039A420BD1636879
:101730001A68023A1A609A8802329A800021D4E923
:1017400002309847C8E70621F9E7A368E06803215B
:10175000984784F8009097E7BDE8F8837ACC0300B7
:10176000182826D8DFE800F0280D0F1125131517CB
:1017700025252525191B1D1F25252525252525233F
:101780002100012070470E2070470B2070470C206D
:1017900070470920704703207047022070470420DB
:1017A0007047112070471220704713207047142093
:1017B000704700F580407047002070472DE9F041E8
:1017C0000646044646F8041B4FF40072884600F1B2
:1017D000F901304604F015FF0025A66704F17C03EB
:1017E00004F19C02C3E9005508339A42FAD1A4F8E7
:1017F0009C50C4E9285504F1A80005F068FA484B4C
:10180000C4F8C830C823A4F8CC3004F1D4074FF68C
:10181000FF73A4F8D030434A84F8C0502346C4F87C
:10182000C45084F8CE5084F8CF504146384607F073
:101830009AFA00230022C4E93823C4E93A23042396
:1018400084F8F030384BC4F8DC501B68C4F8F4302E
:10185000236884F8F85084F8F95284F8FA5284F82E
:10186000FB5284F8385384F8395384F83A5384F897
:101870003B5384F83C5384F83D5384F83E53C4F8FA
:101880004453C4F84853C4F84C53C4F85053C4F8F4
:101890005453C4F85853C4F85C53C4F86053C4F8A4
:1018A0006453C4F8685384F86C5303B9FEE71F4BC4
:1018B0001F491C602246304604F0C1FE3C22002134
:1018C00004F53F7039F059FF04F5507005F0FAFF48
:1018D00022461849206805F06BFE2246206816490A
:1018E00005F09EFE2068012105F0A3FE2546206834
:1018F000002105F04FFE2068104906F00FFB55F857
:10190000E00B0F49224606F04EFA772200212846C6
:1019100005F0A4FC384607F047FA2046BDE8F08100
:1019200000F8FF07D51C000068CF0300300A002034
:10193000431D0000A5530000BF520000D528000041
:1019400025280000014B1868704700BF300A0020AE
:1019500090F8F030042B1ABF90F8C00080F001001E
:101960000020704790F8F030012B06BF90F8C000BF
:1019700080F0010000207047D0F85C330133C0F8DC
:101980005C3370472DE9F843994690F83C330446A0
:101990009046002914BF0F46702713B10D20BDE8F3
:1019A000F88300F1E0053946284605F0EDFC0028F3
:1019B000F4D194F8FA2294F8FB329A420AD00B221E
:1019C0000021284605F04AFC04F1D40007F0ECF9A8
:1019D0000320E4E704F178063B46062280213046E6
:1019E00005F009FC48B91FFA89F24146A06F05F0DD
:1019F000DDF810B9304605F0E1FB0328CFD1DEE772
:101A0000013804289ABF024B185C0020704700BFC1
:101A100083CE0300F8B511F00F0508D1022A04D1D6
:101A20001A462946E03005F019FC28460CE090F8EB
:101A3000FB6290F8FA72F41B0E2C06DDE0300E22E9
:101A4000002105F00BFC0320F8BD90F8F942AC42F0
:101A500017D0BE4215D93C460E2C02D90F3CE4B239
:101A6000FAE7BE3400EB840494F804C01CF0100FB5
:101A70000DD00CF00F0EAE4509D16FF3041C84F8A5
:101A800004C034460E2C05D90F3CE4B2FAE7013706
:101A9000FFB2DEE7BE3400EB84040136257961F342
:101AA0000305E9B241F0100162F346112171626849
:101AB00063F3DE12626080F8FB620020C4E7134625
:101AC0000222FFF7A7BF38B511F0300F00F17804FC
:101AD00008BFC0F8C420154600230622204605F0A2
:101AE0008AFB48B92946204605F0CDFA20B92046A0
:101AF000BDE8384005F062BB38BD2DE9F743044628
:101B00000E46014668469146984603F0C5FCDDE95D
:101B100000570DB9F90717D504F178084B4606228E
:101B20003146404605F067FBD8B97B10FA0704EB55
:101B3000030044BFE3585D59A84790B9404603B03D
:101B4000BDE8F04305F03ABBB8F1000F07D00D2215
:101B50003146204603B0BDE8F043FFF7B4BF42462C
:101B6000F6E703B0BDE8F08370B50446002694F8AC
:101B7000FA5294F8FB32AB4237D0BE3504EB850203
:101B80001379D90616D404EB85052B796FF304136A
:101B90002B7194F8FA320133DBB20F2B84F8FA324E
:101BA000E5D194F8FB3284F8FA620E2B1AD90F3B78
:101BB000DBB2FAE7C3F30301526803F06003402B82
:101BC00041F08001C2F3D71205D12046FFF77BFF19
:101BD0000028D8D070BDB3FA83F35B092046FFF725
:101BE0008CFFF5E784F8FB32C1E70020F2E7000044
:101BF0002DE9F04F044685B003F0DEFBD4E938232D
:101C0000134352D004F1E00005F025FB2F4F019063
:101C10000025019AEBB2934247D2D4E93803C5F1CB
:101C2000200103FA01F1A5F1200220FA05FA23FAB6
:101C300002F24AEA010A4AEA020A00230AF0010211
:101C40001343A5F12003C5F12006029301D101350C
:101C5000DFE70C236B43D919DA5962BB4A68772A4C
:101C600009D12068039223F09DFC082898BF184BE7
:101C7000039A98BF1A5C80212046FFF724FFA0B981
:101C8000029A012303FA02F923FA06F603FA05F889
:101C9000D4E9382349EA060922EA080023EA0901BF
:101CA00050EA0103C4E93801D1D1012384F86C332F
:101CB00005B0BDE8F08F94F86C33002BE0D0012321
:101CC00080212046FFF719FFD9E700BF6CCF030042
:101CD0007ACE0300014B1868FFF78ABF300A002054
:101CE00010B590F8C030044633B1D0F8F4308B42D0
:101CF00004BF002380F8C0302046FFF735FFF8B955
:101D000094F8F81099B101230C222046FFF7F5FE54
:101D1000B0B994F8F03084F8F800042B07D0201DF7
:101D200004F0A8FD0123C4F8F40084F8C030204674
:101D300003F095FA20B92046BDE81040FFF758BFE0
:101D400010BDFFF7CDBFF8B500F178040546204679
:101D5000069EBDF81C7005F04EFA50B93A46314661
:101D6000A86F04F023FF20B92046BDE8F84005F035
:101D700025BAF8BD2DE9F04F042B87B004460F4675
:101D8000924602D0052B16D0FEE7014604A804F0C7
:101D900085FBDDE904654FF0070905F0010B9EB9ED
:101DA000BBF1000F10D10D2239462046FFF787FE08
:101DB00007B0BDE8F08F014604A804F09FFB4FF088
:101DC0000809DDE90465E8E704F1A808404605F0E4
:101DD000EAF80DF10A0203A9404605F08DF84046E5
:101DE00005F0E8F86D10002384F83C336019BBF16E
:101DF000000F01D063599E59B047012384F83C334A
:101E0000054618B1FFF7ACFC0246CDE7BDF80A3035
:101E10000193039B00934A46534639462046FFF7F9
:101E200092FF0028C4D02A46BEE708B50022FFF77B
:101E300046FE08BD38B50446006805F0B7FB002132
:101E4000206805F07BFF0021206805F0BDFB7222B1
:101E500080212046FFF737FE054648B104F1E00037
:101E60007722002105F0FAF904F1D40006F09CFF76
:101E7000024B00221A60284638BD00BF300A0020FD
:101E80000021806F04F081BE10B50446006805F0A3
:101E90001FFC0146A06FBDE8104004F076BE13B5EC
:101EA00002A90023044641F8043DA83004F0CFFF06
:101EB00020B99DF80410206805F00EFC02B010BD9A
:101EC00010B50446006823F089FC002818BF0221E1
:101ED000A06F08BF0021BDE8104004F056BE37B522
:101EE00002A90023054601F8013DA83004F007FFD0
:101EF000044650B99DF807301BB1022B08D80121C8
:101F000000E00146286823F06BFC204603B030BD9A
:101F10000724FAE710B5044654F8780B05F02EFCB8
:101F200001462046BDE8104005F051B813B50446FF
:101F30000DF10601A83004F010FF20B9BDF806101D
:101F4000206805F01FFC02B010BD10B50446006803
:101F500005F0F4FB08220146A06FBDE8104004F034
:101F600025BE13B50822044601A9A83004F086FF57
:101F700018B90199206805F0E5FB02B010BD10B555
:101F8000044654F8780B05F020FC01462046BDE8D5
:101F9000104005F01CB890F83A13806F04F0F5BDBE
:101FA00013B502A90023044601F8013DA83004F04E
:101FB000B6FE18B99DF8073084F83A3302B010BD68
:101FC000F8B505460E460024012707FA04F333420C
:101FD000E1B204D10134202CF7D1002004E0A86F35
:101FE00004F0D3FD0028F5D0F8BD0023F7B5054671
:101FF0000C460B6000F1A8070126B5F8AE20B5F835
:10200000B0309A420FD00DF10701384604F077FE48
:1020100050B99DF807301F2B08D8226806FA03F341
:1020200013432360E9E7002003B0F0BD0720FBE77E
:10203000D0F8C810FFF7C4BF13B502A9002341F8B8
:10204000043D0446FFF7D1FF10B9019BC4F8C83026
:1020500002B010BDB0F8CC10783004F0B8BF00F179
:10206000CC01A83004F079BE10B50446006805F034
:10207000DDFB78B9206805F0F9FB68B9206805F048
:1020800086FE002814BF03210021A06FBDE8104088
:1020900004F07BBD0121F8E70221F6E710B586B018
:1020A00006A90023044601F8013DA83004F027FEEC
:1020B00040B99DF81730032B03D8DFE803F029055A
:1020C0000F190C2006B010BDB4F8CC200094114BB1
:1020D000D4F8C810206805F095FBF3E7B4F8CC20DD
:1020E00000940D4BD4F8C810206805F0ABFBE9E76D
:1020F0000849019194F8CF10009194F8CE30B4F8CB
:10210000D0200294D4F8C810206805F02CFED9E73E
:102110000020D7E74B510000AF5100002DE9F84FE8
:102120000546E03005F097F8DFF858908346002424
:102130004FF00C0A05F17808E3B29B451FD9D5E9A9
:102140003A23C4F1200022FA04F603FA00F0A4F1C5
:10215000200123FA01F106430E4306F00102002399
:10216000134301D10134E7E70AFB04F3404653F877
:10217000091004F088FF0028F4D0BDE8F88F002093
:10218000FBE700BF6CCF0300F7B500230022C0E9D6
:102190003A23044600F1A80700F1E006B4F8AE20A7
:1021A000B4F8B0309A420BD001A9384604F04FFE83
:1021B000054648B901220199304605F091F8EDE74E
:1021C0000025284603B0F0BD012341F2080280211A
:1021D0002046FFF792FCF4E713B5044601A9A830A6
:1021E00004F035FE28B90122019904F1E00005F060
:1021F00077F802B010BD13B5044601A9A83004F069
:1022000026FE28B90246019904F1E00005F068F8BD
:1022100002B010BDD0F8C410783004F034BF10B54F
:1022200000F178040421204604F02DFF28B920464F
:102230000321BDE8104004F026BF10BD0321783013
:1022400004F021BF0021783004F01DBF10B500F16B
:1022500078040521204604F016FFD8BB0C21204647
:1022600004F011FFB0BB1821204604F00CFF88BB1E
:102270002021204604F007FF60BB3521204604F0F2
:1022800002FF38BB0E21204604F0FDFE10BB4FF4C8
:102290000171204604F0F7FEE0B940F20A21204621
:1022A00004F0F1FEB0B93021204604F0ECFE88B90C
:1022B0003121204604F0E7FE60B94FF480612046EA
:1022C00004F0E1FE30B9204640F20341BDE8104081
:1022D00004F0D9BE10BD10B5044605F071F90146F1
:1022E00004F17800BDE8104004F008BF0121806FC0
:1022F00004F04BBCFFF7C4BD0421806F04F045BC63
:102300000C20704713B504466946006805F030FAA2
:1023100008226946A06F04F049FC02B010BD0221FA
:10232000783004F086BF90F8F010806F04F02DBC78
:1023300073B504460E46A8300DF1070104F0DFFC2A
:10234000A0BB9DF80730042B07D8012202FA03F145
:1023500011F01B0F02D14B0703D4032384F8F03094
:1023600001E084F8F020002384F8F8300C220123E7
:1023700031462046FFF7C1FB94F8F030042B0546A8
:1023800008D070B9201D04F075FAC4F8F4000123D8
:1023900084F8C03015B184F8F8600025284602B0F2
:1023A00070BD074B1B68C4F8F430F0E7FFF7D8F9AD
:1023B000314602462046FFF786FB0546EEE700BFA2
:1023C00068CF03000C2A10B51C4605D041F210530B
:1023D0009A4206D0002003E0FFF7AAFF20700120F8
:1023E00010BD00F061FEF9E7F0B585B004460D467A
:1023F0000026014602A817468DF8076003F06CFE20
:10240000DDE9022303F0010102B9C1B15B1084F8D8
:102410003C63E01809B1E3589A58904701228DF8BF
:10242000070084F83C23C8B93B4629462046FFF7FD
:10243000F1FA8DF807009DF8070005B0F0BD0DF129
:1024400007033A4629462046FFF7BCFF0028F2D191
:102450000D2229462046FFF732FBEAE7FFF780F915
:102460000246F6E773B50D4602A9002341F8043D84
:102470000446A830164604F0EAFC014650B1FFF7C6
:102480006FF9294602462046FFF719FB0146084628
:1024900002B070BDB31E032BF9D8DFE803F00209C8
:1024A0000F0F019B002229462046FFF7B3FAEDE704
:1024B000019A29462046FFF797FFE7E73346019A3E
:1024C00029462046FFF756FCE0E737B504460D469F
:1024D000A83001A904F0BBFC70B9019A0B2A26D8D8
:1024E000DFE802F0060C11111111252525161B201D
:1024F00029462046FFF799FC03B030BD2946204607
:10250000FFF798FCF8E729462046FFF7ABFFF3E713
:102510002946204600F043FFEEE72946204600F01A
:1025200042FFE9E72946204600F04DFFE4E7052297
:1025300029462046FFF7C3FADEE7F7B502AD0123CF
:10254000002700F1A806044680F83C3305F8017D19
:10255000304604F0C9FB042384F8F03084F8C070DE
:102560002946304604F0CBFB80B99DF807100B06D6
:102570000CD5D4F8603311F0300F03F10103C4F827
:10258000603308D006222046FFF79DFA002384F826
:102590003C3303B0F0BD2046FFF797FF38B19DF8FC
:1025A0000710FFF7DDF802462046FFF788FA94F897
:1025B000FA2294F8FB329A4202D02046FFF7D4FA6E
:1025C0009DF8073094F8F92203F00F0332B19A42D4
:1025D0001EBFD4F864230132C4F864230F2B14BF48
:1025E0000133012384F8F932D0E700002DE9F041EE
:1025F0000446E03004F02FFE0C4E074600254FF055
:102600000C087834EBB29F420ED908FB05F39A19F7
:10261000127A0AB90135F5E79959204604F033FDDD
:102620000028F7D0BDE8F0810020FBE76CCF030065
:1026300010B50446006823F0CDF8C1B2A06FBDE824
:10264000104004F0A2BA10B50446006823F0C8FA9E
:10265000C1B2A06FBDE8104004F097BA13B50446AC
:102660000DF10701006823F01BF930B99DF8071040
:10267000A06F04F08AFA02B010BDFFF771F80146AE
:1026800004F1780004F0D5FDF5E713B502A90023A5
:10269000044601F8013DA83004F053FB20B99DF930
:1026A0000710206823F006F902B010BDFEE7FEE730
:1026B00010B5044605F0E9F8FFF7A2F90146A06F4E
:1026C000BDE8104004F061BA10B50446006805F09A
:1026D0001EF801462046BDE81040FFF771BC10B55A
:1026E000044600680FF04EFD01462046BDE810404C
:1026F000FFF766BC1346074A10B40446106828B1B9
:102700000A4621465DF8044BFFF73CB90D205DF801
:10271000044B7047300A00200822006804F046BAD3
:10272000F8B50546087F0C46C0F3C003C0F340016E
:10273000C0F3800200F0010000F076FD05F178079B
:10274000064621463846FFF7E7FF40BB218A384658
:1027500004F03DFC18BBA168384604F047FCF0B912
:10276000E168384604F042FCC8B9217DA86F04F046
:102770000CFAA0B9617DA86F04F007FA78B9A17DC1
:10278000A86F04F002FA50B93146A86F04F0FDF9C1
:1027900028B9E17DA86FBDE8F84004F0F6B9F8BDAE
:1027A00070B504460D46E03041F60D1104F0ECFD25
:1027B000002836D104F1780641F60D130622802157
:1027C000304604F018FD60BB29463046FFF7A4FFF1
:1027D00038BB2989304604F0FAFB10BBA97AA06FF8
:1027E00004F0D3F9E8B9E97AA06F04F0CEF9C0B9E2
:1027F000297BA06F04F0C9F998B9697BA06F04F038
:10280000C4F970B9A97BA06F04F0BFF948B9E97B9E
:10281000A06F04F0BAF920B93046BDE8704004F06A
:10282000CDBC70BD0B46014618B113B11846FFF779
:10283000B7BF70472DE9F8430446164603292BD845
:10284000DFE801F02C252E0241F20B55082704F198
:10285000E0082946404604F097FDE8B904F17809FC
:102860002B463A468021484604F0C5FCF0B1522D73
:1028700002D1012384F83D3340460B22002104F0AD
:10288000EDFC04F1D400BDE8F84306F08DBA08274A
:1028900096F82030DB0607D5BDE8F8830727F7E771
:1028A00041F20B550727D2E75225D0E7522D06F10A
:1028B0000401204609D1FFF733FF0028D9D148464B
:1028C00004F07CFC0028E7D0D1E700F0BBFC002836
:1028D000F5D0D1E738B50D460446FFF733F82A4660
:1028E0002146BDE83840FFF7A5BF10B50446006893
:1028F00005F076FA0146A06FBDE8104004F045B936
:1029000010B50446006805F09DF90146A06FBDE8CA
:10291000104004F03AB9F0B5044689B0064654F8C0
:10292000780B05F045FA00250746A9B2B9421AD23C
:102930006A46306805F0ABFA08B10135F5E79DF855
:102940001C30DB06F9D4204604F0F0FB48B9694698
:102950003046FFF7E5FE20B9204604F006FC0028CB
:10296000EBD009B0F0BD0020FBE7F0B5054687B01D
:10297000044655F8780B05F0A5FA0026074601AA8B
:10298000F1B2206805F0A0FA28B10136F3B29F42F7
:10299000F5D2002044E09DF81430DB07F5D5284639
:1029A00004F0C4FB00283BD101A92846FFF7B4FE80
:1029B000B0BBBDF80C10284604F009FB80BB9DF8A5
:1029C0000E10A06F04F0E1F850BB9DF80F10A06F3F
:1029D00004F0DBF820BB9DF81010A06F04F0D5F8D0
:1029E000F0B99DF81110A06F04F0CFF8C0B99DF8B0
:1029F0001210A06F04F0C9F890B99DF81310A06FE1
:102A000004F0C3F860B99DF81410A06FC1F3400141
:102A100004F0BBF820B9284604F0A7FB0028B4D086
:102A200007B0F0BD2DE9F04304468FB007460025FE
:102A300054F8780BADF8065005F0BAF980461FFA45
:102A400085F9C14534D206AA4946386805F01FFA0F
:102A500008B10135F3E79DF83430DB06F9D42046A0
:102A600004F064FBD8B906A92046FFF755FEB0B9BB
:102A7000BDF82810204604F0AAFA80B90EAE26F858
:102A8000320D02AB32464946386805F007FA48B9BC
:102A9000102202A9B86F04F089F80028F1D00FB015
:102AA000BDE8F083204604F060FB0028D1D0F6E7B3
:102AB0000020F4E710B50446006805F082F90146ED
:102AC000A06FBDE8104004F060B837B505460DF1C1
:102AD0000701A83004F023F9044620B99DF8071037
:102AE000286805F073F9204603B030BD10B50446E0
:102AF000006805F0F7F910220146A06FBDE810400C
:102B000004F054B813B5002304460DF1020201A9E4
:102B1000A830019304F0F0F938B9BDF80230102B59
:102B200005D10199206805F0E0F902B010BD06203A
:102B3000FBE737B502A90023054641F8043DA8305C
:102B400004F01FF9044618B90199286805F050F9F6
:102B5000204603B030BD10B50446006805F028F9E2
:102B6000C1B2A06FBDE8104004F00FB813B502A9C0
:102B70000023044601F8013DA83004F0C0F820B954
:102B80009DF80710206805F017F902B010BD10B5C8
:102B90000446006805F042F90146A06FBDE8104008
:102BA00003F0F3BF37B502A90023054601F8013D44
:102BB000A83004F0A4F8044620B99DF8071028684E
:102BC00005F030F9204603B030BD10B5044600686A
:102BD00005F04CF90146A06FBDE8104003F0D5BFE9
:102BE00037B502A90023054601F8013DA83004F0DD
:102BF00086F8044620B99DF80710286805F03AF9D0
:102C0000204603B030BD10B50446006805F036F923
:102C10000146A06FBDE8104003F0B7BF37B502A969
:102C20000023054601F8013DA83004F068F8044689
:102C300020B99DF80710286805F024F9204603B054
:102C400030BD10B5044654F8780B05F0D5F80146B0
:102C50002046BDE8104004F0C9B937B502A90023E9
:102C6000054641F8043DA83004F08BF8044618B935
:102C70000199286805F0C5F8204603B030BD10B5AD
:102C80000446006805F0C2F80146A06FBDE8104098
:102C900003F07BBF37B502A90023054601F8013DCB
:102CA000A83004F02CF8044620B99DF807102868D5
:102CB00005F0B0F8204603B030BD10B59AB0044618
:102CC0006946006804F05DFC28B96946204600F0BA
:102CD0007AFE1AB010BDFEF743FD014604F17800FC
:102CE00004F0A7FAF5E710B50446006804F0FBFB12
:102CF000012808D002280CBF02210021A06FBDE8E6
:102D0000104003F042BF0146F8E713B504460DF149
:102D10000701A83003F0F3FF48B99DF807301BB155
:102D2000022B06D0072002E0206804F09BFB02B0D3
:102D300010BD034602460146206804F08EFBF6E70C
:102D400030B500F1A80485B00546204604F0F4F83B
:102D500058B9B5F8AE20B5F8B0309A4207D008227D
:102D600001A9204604F08AF810B105B030BD0190E9
:102D7000204604F001F90028F7D102A9204604F00A
:102D800000F80028F1D103A9204604F098F80028A3
:102D9000EBD1DDE902320199286804F068FBE4E731
:102DA00037B500F1A8050446284604F0C5F858B91F
:102DB000B4F8AE20B4F8B0309A4207D0082201A986
:102DC000284604F05BF810B103B030BD01902846EE
:102DD00004F0D2F80028F7D10199206804F04CFBE8
:102DE000F2E713B502A9002321F8023D044600686A
:102DF00004F04DFB014628B90021A06F03F0C5FE89
:102E000002B010BDBDF80620002AF5D0A06F03F077
:102E1000CDFE0028F0D0F3E713B5044601A9A83091
:102E200004F04DF818B90199206804F02BFB02B0AA
:102E300010BD10B5044654F8780B04F04FFB014662
:102E40002046BDE8104004F0C2B830B500F1A80437
:102E500087B0054604A9204603F093FFD8B90DF1C9
:102E60000D01204603F04BFFA8B90DF10E012046DD
:102E700003F073FF78B9102205A9204603F0FEFF86
:102E800048B905990091BDF80E309DF80D200499C0
:102E9000286804F004FB07B030BD000030B500F135
:102EA000A80489B0054606A9204603F06AFF30BB96
:102EB0000DF11301204603F022FF00BB05A92046B7
:102EC00003F04BFFD8B90DF11601204603F045FF82
:102ED000A8B9102207A9204603F0D0FF78B9094904
:102EE000029107990191BDF816100091BDF81430B8
:102EF0009DF8132003950699286804F0D5FA09B0C7
:102F000030BD00BF692F00002DE9F04100F17804C9
:102F10000546884616461F46072241F602038021D1
:102F2000204604F068F958B105F1E0000B220021B9
:102F300004F094F905F1D400BDE8F04105F034BF88
:102F40004146204604F052F80028EDD13A46314679
:102F5000204604F0C3F80028E6D1204604F02EF9FC
:102F60000028E1D1BDE8F08110B41C4613460A46A2
:102F7000014620465DF8044BFFF7C6BF30B500F1AF
:102F8000A80587B004460DF10E01284603F0E5FEC2
:102F9000A0B904A9284603F0F4FE78B9102205A9C7
:102FA000284603F06BFF48B9054B0093BDF80E109F
:102FB0000194DDE90423206804F081FA07B030BDF4
:102FC0001D300000F8B500F1780405460F4616469E
:102FD00041F6040307228021204604F00CF958B181
:102FE00005F1E0000B22002104F038F905F1D400CE
:102FF000BDE8F84005F0D8BE3946204603F0E7FFAB
:103000000028EDD13146204603F0F0FF0028E7D13B
:10301000204604F0D3F80028E2D1F8BD13460A4652
:1030200001461846FFF7CEBF13B504460DF1020264
:1030300001A9A83003F06BFF40B9BDF80220FF2AB8
:1030400006D8D2B20199206804F03EFA02B010BD51
:103050000720FBE730B58BB004460DF1060202A94C
:10306000A83003F054FF70B9BDF80650FF2D0CD8FE
:1030700001461A2203A838F080FBEBB2029A2068BE
:1030800003A904F026FA0BB030BD0720FBE710B50A
:103090000446006804F027FA831E5942A06F594184
:1030A000BDE8104003F071BD73B50E4602A90023C0
:1030B000044601F8013DA83003F031FE30B99DF817
:1030C0000730256863B9284604F0CCF9FEF748FBC1
:1030D0000222034631462046FEF79CFC02B070BD3A
:1030E000034602460146284604F0B7F9EEE77FB5ED
:1030F00000F1A8050023064602A92846CDE90133C0
:10310000039303F0DCFE90B903A9284603F039FECF
:10311000044660B9082201A9284603F0AFFE00B1B9
:103120000194DDE902230199306804F0A0F904B0AC
:1031300070BD37B505460DF10701A83003F0DFFD7E
:10314000044620B99DF80710286804F04DFE20467B
:1031500003B030BD90F83E13806F03F016BD10B57C
:1031600000F23E310446A83003F0C9FD30B994F8AE
:103170003E132068BDE8104004F02DBE10BD37B5E9
:1031800004460DF10701A83003F0B9FD054638B932
:103190009DF80710206804F049FE0D2808BF284656
:1031A00003B030BD70B5044686B0002600F1780546
:1031B00001AAF1B2206804F08EFE10BB9DF8173012
:1031C000DB0701D40136F3E7284603F0AFFFB0B9BF
:1031D000102201A9A06F03F0E9FC80B9BDF814101A
:1031E000284603F0F4FE50B99DF81610A06F03F0C6
:1031F000CCFC20B9284603F0B8FF0028E2D006B086
:1032000070BD0020FBE703F0C0BC002204F026B82C
:103210000A46002104F022B8C9B2006803F0B5BC28
:103220001022006803F0C2BC00280CBF0020082058
:1032300009B140F004000AB140F002000BB140F0C7
:1032400001007047F8B5064691F820000C46C0F31F
:10325000C003C0F38002C0F3400100F00100FFF79B
:10326000E3FF06F178050746284603F05FFF0028D4
:103270003BD121462846FFF74FFAB0BBA18928462B
:1032800003F0A5FE88BBA168284603F0AFFE60BB33
:10329000217EB06F03F079FC38BB94F919102846F1
:1032A000FFF7BAFF08BB3946B06F03F06EFCE0B918
:1032B00094F82010B06FC1F30011FFF7A4FFA0B97C
:1032C0002169284603F092FE78B96169284603F027
:1032D0008DFE50B994F91A102846FFF79DFF20B9CA
:1032E0002846BDE8F84003F040BFF8BD10B50446DD
:1032F00054F8780B04F05FFA01462046BDE8104010
:1033000003F074BE13B5044601A9A83003F039FDDB
:1033100018B90199206804F053FA02B010BD10B535
:10332000044654F8780B04F009FA01462046FFF7EA
:10333000F3F910BD10B50446006804F0C9F9B0B146
:103340000A280CD84FF4FA61414301F55C2101F5DC
:10335000346104F17800BDE8104003F047BE19283D
:1033600007D8054941F2883303FB0011F1E703490F
:10337000EFE70021EDE700BFB0DB2300CC3F0D00FD
:1033800013B502A9002341F8043D0446FEF72DFEC3
:1033900018B90199206804F0BEF902B010BD0223EB
:1033A0001A46FEF737BB70B5044600680D4604F0B8
:1033B00004F9FEF7D5F92946034602222046BDE866
:1033C0007040FEF727BBFFF7EABF10B50446006860
:1033D00004F095F80146A06FBDE81040FFF713BF59
:1033E00010B50446006804F0FBF80146A06FBDE884
:1033F0001040FFF708BF13B502A90023044601F8E7
:10340000013DA83003F08BFC20B99DF8071020681F
:1034100004F0DAF802B010BD10B50446006804F0FC
:1034200005FC011C18BF0121A06FBDE81040FFF78B
:10343000EABE73B502A90023054601F8013DA83094
:1034400003F06DFC044688B928689DF8076004F015
:10345000EDFB003018BF0120B04207D09DF80730C7
:10346000286833B1012104F069FC0446204602B00B
:1034700070BD2146F7E7000010B50446006804F06F
:10348000D5FB0238C0B2022896BF044B0021195C5C
:10349000A06FBDE8104003F078BB00BF8BCE0300E7
:1034A00013B502A90023044641F8043DA83003F0F7
:1034B000CEFC48B9019B032B06D8DFE803F0020FCE
:1034C000070B206804F09FFB02B010BD206804F0D9
:1034D000B6FCF9E7206804F0C4FCF5E7206804F0C6
:1034E00097FBF1E710B5044654F8780B04F05CFB49
:1034F00001462046BDE8104003F000BE37B502A9E2
:103500000024054641F8044DA83003F0D8FC28B942
:103510000199286804F04CFB03B030BD2046FBE75E
:1035200010B50446006804F0A2FA08220146A06F14
:10353000BDE8104003F03ABB13B5002304460DF17B
:10354000020201A9A830019303F0D6FC38B9BDF8F6
:103550000230082B05D10199206804F08CFA02B0E2
:1035600010BD0620FBE710B50446006804F0D7FA4A
:1035700010220146A06FBDE8104003F017BB13B541
:10358000002304460DF1020201A9A830019303F0C3
:10359000B3FC38B9BDF80230102B05D10199206871
:1035A00004F0C1FA02B010BD0620FBE710B50446D6
:1035B00054F8780B04F016FB01462046BDE8104095
:1035C00003F014BD37B5054601A9A83003F0D9FBB7
:1035D000044618B90199286804F008FB204603B096
:1035E00030BD10B5044654F8780B04F033FB0146A7
:1035F0002046BDE8104003F0F9BC10B5044654F86D
:10360000780B04F0F8FA01462046BDE8104003F0BC
:10361000EDBC37B5054601A9A83003F0B2FB04465E
:1036200018B90199286804F0EAFA204603B030BDC1
:1036300010B50446006804F0F6F90146A06FBDE835
:10364000104003F0A2BA10B50446006804F0F3F984
:103650000146A06FBDE8104003F097BA10B5C2B0A4
:103660000446FF238DF8073002AA0DF1070300215D
:10367000006804F0BBF99DF80720A06F02A903F0D1
:1036800095FA42B010BD10B5C2B00446FF238DF8C4
:10369000073002AA0DF107030121006804F0A6F922
:1036A0009DF80720A06F02A903F080FA42B010BD78
:1036B00010B50446006804F0BDFA0146A06FBDE8ED
:1036C000104003F062BA1FB50446694654F8780BFF
:1036D00004F0FDF928B969462046FFF7A1FD04B0C2
:1036E00010BDFEF73DF80146204603F0A2FDF6E7C7
:1036F00030B5044687B0054601A954F8780B04F0AC
:10370000B8FA00283CD19DF814309B0733D50DF151
:103710000201286804F0EFFA0DF10301286804F0B3
:10372000FCFA01A92046FEF7F7FF10BBBDF80C100C
:10373000204603F04CFCE0B99DF81310204603F03E
:1037400055FCB0B99DF902102046FFF765FD80B920
:103750009DF903102046FFF75FFD50B99DF8111049
:10376000A86F03F012FA20B99DF81210A86F03F0A9
:103770000CFA07B030BD1421204603F05AFDF8E7DB
:10378000FDF7EEFF0146F7E710B58AB000230446C7
:10379000ADF8023001AA0DF10201206804F03EFAF2
:1037A00038B901A92046FFF74DFD0028F2D00AB034
:1037B00010BD0020FBE730B58BB000230546ADF807
:1037C000023000F1780401AA0DF10201286804F02A
:1037D00025FA68BB204603F0A9FC38BB01A92046A6
:1037E000FEF79AFF10BBBDF81010204603F0EFFB68
:1037F000E0B9BDF82010204603F0E9FBB0B9BDF8F0
:103800002210204603F0E3FB80B99DF91D102046ED
:10381000FFF702FD50B99DF91E102046FFF7FCFC92
:1038200020B9204603F0A1FC0028CCD00BB030BD5D
:103830000020FBE737B5044602A9002301F8013D4B
:1038400054F8780B03F012FF851E9DF8070058B15D
:1038500035F8021F204603F0BAFB28B99DF807305F
:10386000013B8DF80730F0E703B030BD73B5064675
:10387000044656F8A80B03F0F4FEB4F8B030B4F8E0
:10388000AE209B1A9BB2012B16D90DF106013046D2
:1038900003F063FA80B9BDF80610206803F0D7FE84
:1038A00005460028E9D001235C2280212046FEF74E
:1038B00024F9284602B070BD0025FAE790F83813C5
:1038C000806FFFF7A0BC30B589B000230446019398
:1038D00000F1780502AA01A9206804F092F80028F6
:1038E00051D1284603F022FC00284AD102A92846DB
:1038F000FFF796FC002844D19DF81810A06F03F044
:1039000044F900283DD19DF81A10A06F01F0010183
:10391000FFF779FC002834D19DF8193013F0040F1B
:1039200014BF20210021180748BF41F01001DA061A
:1039300048BF41F00801580648BF41F002019A060D
:1039400048BF41F00401DA0943F3010318BF41F015
:103950000101DBB241EA8311C9B2A06F03F015F98E
:1039600078B90146A06F03F010F950B9BDF81C10EA
:10397000284603F02CFB20B9284603F0F6FB00286C
:10398000A8D009B030BD0020FBE790F8CE10806FC2
:10399000FFF739BC00F1CE01A83003F0C0B990F8B0
:1039A000CF10806FFFF72FBC00F1CF01A83003F0DC
:1039B000B6B9B0F8D010783003F009BB00F1D001EF
:1039C000A83003F0CAB97FB591F86430DB0705462B
:1039D0000C4600F14F8194F864309E071DD505F127
:1039E0007806304603F0A2FB002840F0498141F2FE
:1039F0001D51304603F047FB002840F04181D4E9D7
:103A00000223304603F00DFB002840F03981304698
:103A100003F0ABFB002840F0338194F86430580782
:103A20001CD505F17806304603F080FB002840F0F5
:103A300027814621304603F026FB002840F02081F4
:103A40001022A118A86F03F0B1F8002840F01881E7
:103A5000304603F08AFB002840F0128194F864306D
:103A600019071CD505F17806304603F05FFB0028E6
:103A700040F006814421304603F005FB002840F069
:103A8000FF8004F12001304603F038FB002840F0AD
:103A9000F780304603F069FB002840F0F18094F88D
:103AA0006430DA061DD505F17806304603F03EFB9A
:103AB000002840F0E5804521304603F0E4FA002874
:103AC00040F0DE80082204F13101A86F03F06EF8A7
:103AD000002840F0D580304603F047FB002840F036
:103AE000CF8094F864309B062BD522466B4652F863
:103AF000390F516805F1780603C300233046CDE93C
:103B0000023303F013FB002840F0BA8062213046F4
:103B100003F0B9FA002840F0B38069463046FFF759
:103B20007FFB002840F0AD804021A86F03F02DF806
:103B3000002840F0A680304603F017FB002840F034
:103B40009F8094F864305E0600F1B28094F864308F
:103B5000DB091AD005F17806304603F0E7FA0028B1
:103B600040F08E803621304603F08DFA002840F078
:103B70008780B4F84810304603F029FA00287FD136
:103B8000304603F0F2FA00287AD194F86530D8076D
:103B900018D505F17806304603F0C8FA00286FD131
:103BA0002121304603F06FFA002869D194F84A10B9
:103BB000A86F02F0EAFF002862D1304603F0D5FA80
:103BC00000285DD194F86530990719D505F178067C
:103BD000304603F0ABFA002852D14B21304603F0B7
:103BE00052FA00284CD1102204F14C01A86F02F0C7
:103BF000DDFF002844D1304603F0B7FA00283FD15A
:103C000094F865305A071BD505F17806304603F065
:103C10008DFAA8BB41F21F51304603F034FA78BB4D
:103C2000B4F85C10304603F0D2F948BB94F85E104B
:103C3000A86F02F0AAFF18BB304603F096FAF8B955
:103C400094F865301B071BD505F17806304603F064
:103C50006DFAA8B92221304603F015FA80B9216E19
:103C60002846FEF7ADF9044650B9304603F07DFA18
:103C7000204606E000F17806304603F057FA10B10E
:103C8000002004B070BD41F21C51304603F0FBF936
:103C90000028F5D1D4E90023304603F0C2F900280A
:103CA000EED1304603F061FA00283FF494AEE7E726
:103CB00005F17806304603F039FA0028E0D141F2E8
:103CC0001E51304603F0DFF90028D9D1616C30462F
:103CD00003F08CF90028D3D1304603F046FA0028CF
:103CE0003FF434AFCCE710B59AB00446694600689B
:103CF00003F0FEFB69462046FFF765FE1AB010BDD3
:103D000010B59AB004466946006803F018FC69468D
:103D10002046FFF758FE1AB010BD2DE9F04F0C46B3
:103D200087B0904605466822002120469946DDF876
:103D300040A09DF8447037F020FDB8F1000F02D08C
:103D40000023C8F80030B9F1000F02D0002389F831
:103D50000030BAF1000F02D00023CAF8003005F19C
:103D6000A8064FF0010BB5F8AE20B5F8B0309A4276
:103D700000F0D381304603F0DFF8002840F0A9803E
:103D800004A9304603F063F8002840F0A280049BA9
:103D90004B2B00F03A8137D8362B00F009810BD835
:103DA000212B00F01981222B00F06F81304603F0A7
:103DB000E3F80028D7D08CE0452B00F0C580462BD7
:103DC00000F09E80442BF1D12FB1B5F8AE20B5F8AC
:103DD000B0309A4213D005A9304603F070F800289D
:103DE00077D105990191084638F0DCF8102800F2E7
:103DF0009281421C019904F1200037F09AFC94F85A
:103E0000643043F008035BE041F21E52934200F03D
:103E1000BB802CD841F21C52934246D05CD8622B16
:103E2000C4D12FB1B5F8AE20B5F8B0309A4219D050
:103E3000102205A9304603F021F8002849D10DF1E0
:103E40000E01304602F05BFF002842D19DF80E3093
:103E5000402B40F06081059A1368C4F839305368EC
:103E6000C4F83D3094F8643043F0200328E0B3F503
:103E7000A95F00F02E81C0F0EC8041F227529342FE
:103E800094D12FB1B5F8AE20B5F8B0309A428DD0AC
:103E9000102205A9304602F0F1FFD0B9BAF1000FA7
:103EA00084D0059BCAF8003080E767B1B5F8AE2032
:103EB000B5F8B0309A4206D194F8643043F001036B
:103EC00084F8643072E72146304602F072FF002821
:103ED000F2D007B0BDE8F08F57B1B5F8AE20B5F815
:103EE000B0309A4204D194F8643043F00203E7E71B
:103EF00004F10801304602F05CFF0028F3D0E8E747
:103F00002FB1B5F8AE20B5F8B0309A4217D00DF108
:103F10000E0205A9304602F0EFFF0028D9D1BDF806
:103F20000E30102B40F0F780059B04F1100203F1D6
:103F3000100153F8040B42F8040B8B42F9D194F8AA
:103F4000643043F00403BBE72FB1B5F8AE20B5F8F9
:103F5000B0309A4213D00DF10E0205A9304602F09E
:103F6000CBFF0028B5D1BDF80E30082B40F0D38030
:103F7000059A1368C4F831305368C4F8353094F8A2
:103F8000643043F010039BE757B1B5F8AE20B5F8A5
:103F9000B0309A4204D194F8643043F040038FE784
:103FA00004F14401304602F0ECFE0028F3D090E723
:103FB00057B1B5F8AE20B5F8B0309A4204D194F8B4
:103FC000643043F080037BE704F14801304602F09F
:103FD000C4FE0028F3D07CE72FB1B5F8AE20B5F8C9
:103FE000B0309A420AD005A9304602F088FE002877
:103FF0007FF46FAF9DF81430A4F84A3094F8653020
:1040000043F0010384F86530D0E62FB1B5F8AE2057
:10401000B5F8B0309A4217D00DF10E0205A930461E
:1040200002F06AFF00287FF454AFBDF80E30102B69
:1040300071D1059B04F14C0203F1100153F8040BFC
:1040400042F8040B8B42F9D194F8653043F0020337
:10405000D8E757B1B5F8AE20B5F8B0309A4204D1E0
:1040600094F8653043F00403CCE704F15C0130467A
:1040700002F073FE00287FF42CAF04F15E0130469D
:1040800002F03DFE0028EBD023E72FB1B5F8AE20BB
:10409000B5F8B0309A4217D000232366B5F8AE20A9
:1040A000B5F8B0309A420FD005A9304602F027FE8D
:1040B00000287FF40EAF9DF814301F2B2BD8226EF2
:1040C0000BFA03F31343E8E794F8653043F0080371
:1040D00098E737B1B5F8AE20B5F8B0309A423FF462
:1040E00065AE0DF10E0205A9304602F005FF00286D
:1040F0007FF4EFAEBDF80E30FF2B0CD8B8F1000FF7
:1041000002D0059AC8F80020B9F1000F3FF44EAE76
:1041100089F800304AE60720DBE60020D9E610B532
:1041200000239CB0CDE900331A4602A90446FFF7EC
:10413000F4FD18B902A9206803F0FAF91CB010BD0B
:1041400010B500239CB0CDE900331A4602A90446FD
:10415000FFF7E3FD18B902A9206803F0F7F91CB0D6
:1041600010BD10B500239EB0CDE9003303AA0DF1B8
:104170000B0304A90446FFF7D0FD30B99DF80B30BE
:10418000039A206804A903F0EDF91EB010BD10B524
:1041900000239EB0CDE9003303AA0DF10B0304A95F
:1041A0000446FFF7BAFD30B99DF80B30039A20683A
:1041B00004A903F0E1F91EB010BD10B5A0B00123B1
:1041C000019305AB009304AA0DF10F0306A9044661
:1041D000FFF7A3FD40B9059A00929DF80F30049AAD
:1041E00020681FA903F0B9F920B010BD10B5A0B028
:1041F0000123019305AB009304AA0DF10F0306A957
:104200000446FFF78AFD40B9059A00929DF80F30E9
:10421000049A20681FA903F0AAF920B010BD00007D
:1042200010B50446006803F03CFA0138C0B2042817
:1042300096BF044B0021195CA06FBDE8104002F04E
:10424000A4BC00BF8ECE030070B500F1A8068EB0EE
:10425000002305460DF11F0130468DF81F30CDE9D2
:104260000833CDE90A33CDE90C3302F058FD04469A
:1042700028B99DF81F302BB9286803F00DFA2046A5
:104280000EB070BD08A9304602F019FE04460028A1
:10429000F5D1B5F8AE20B5F8B0309A4238D1B5F8BE
:1042A000AE20B5F8B0309A4206D00AA9304602F0E6
:1042B00006FE04460028E2D1B5F8AE20B5F8B030CD
:1042C0009A4206D00BA9304602F0F9FD04460028B8
:1042D000D5D1B5F8AE20B5F8B0309A4206D00CA9C9
:1042E000304602F0ECFD04460028C8D1B5F8AE20F7
:1042F000B5F8B0309A4206D00DA9304602F0DFFD85
:1043000004460028BBD10A9B53B9154B0A930AE017
:1043100009A9304602F0D3FD04460028BFD0AEE71D
:104320001B78002BF1D00B9B0BB11B780BB90D4BFD
:104330000B930C9B0BB11B780BB90B4B0C930B4BDA
:1043400003930D9B02930C9B01930B9B009304958D
:10435000DDE909230899286803F099F904468EE7F6
:1043600099CE0300A4CE0300ADCE0300F3510000AC
:104370001FB50446006803F0F6FB034680B1596898
:1043800000686A4603C20023694604F17800CDE95B
:104390000233FEF745FF18B94021A06F02F0F5FB8C
:1043A00004B010BD37B500F1A8050446102201A9DC
:1043B000284602F063FD68B90DF10301284602F0BA
:1043C0009EFC38B99DF80330402B05D10199206837
:1043D00003F0CDFB03B030BD0720FBE710B504466A
:1043E000006803F0BCFB20B1014604F17800FEF741
:1043F00017FF10BD10B50446006803F0D1FB20B1D3
:10440000014604F17800FEF70BFF10BD70B50546BC
:10441000064655F8780B03F0E7F804460CB3284637
:1044200002F084FEF0B921462846FEF7F9FEC8B92D
:10443000217CB06F02F0A9FBA0B9617C284641F352
:10444000000102F0D3FD68B9617C284641F34001C8
:1044500002F0CCFD30B9284602F087FE10B964693D
:10446000DCE7204670BD30B500F1A80489B00546F0
:1044700002A9204602F010FD10BB06A9204602F05A
:104480003EFCE8B96946204602F07BFCC0B901A9B0
:10449000204602F076FC98B9009B28681A1C9DF80B
:1044A000193018BF012262F30003019A003218BFCD
:1044B000012262F3410302A98DF8193003F098F844
:1044C00009B030BD37B50446102201A9A83002F06A
:1044D000D5FC054630B90199206803F08EF81728FD
:1044E00008BF284603B030BD0221783002F0A1BEDB
:1044F00010B50446006803F049F8011C18BF0121FB
:10450000A06FBDE81040FEF77EBE37B502A90023BC
:10451000054601F8013DA83002F001FC044640B90F
:104520009DF807302868002B14BF0321002103F0F9
:1045300031F8204603B030BD38B5054655F8780B44
:1045400003F060F8044674B1284602F0EFFD58B954
:1045500021462846FEF764FE30B9284602F005FEE3
:1045600010B92469EFE7204638BD37B5044610225C
:1045700001A9A83002F082FC054630B901992068F3
:1045800003F044F8182808BF284603B030BD37B5FB
:104590000446102201A9A83002F070FC054630B98B
:1045A0000199206803F037F8172808BF284603B0A0
:1045B00030BD000010B50446006802F0E7FF013886
:1045C000C0B2022896BF044B0021195CA06FBDE861
:1045D000104002F0DABA00BF93CE030037B50546AB
:1045E0000DF10701A83002F08AFB044658B99DF886
:1045F0000730013BDBB2022B96BF044A0146D15C77
:10460000286802F0C7FF204603B030BD96CE0300F5
:1046100010B50446006803F008F880F00101C9B243
:10462000A06FBDE81040FEF7EEBD37B502A900232C
:10463000054601F8013DA83002F071FB044630B98F
:104640009DF80710286881F0010102F0F2FF204672
:1046500003B030BD70B588B00023274E01930446E7
:1046600002AA01A9206803F0D5F9002841D104F17C
:104670007805284602F05AFD002838D102A92846BC
:10468000FEF7CEFD98BB9DF81810A06F02F07DFAE2
:1046900068BB9DF81C10A06FC1F38001FEF7B3FD4D
:1046A00028BB9DF81C3043F301035BB20133022B9E
:1046B0008CBF0146F15CA06F02F067FAB8B9014601
:1046C000A06F02F062FA90B99DF81C10A06FC1F3C0
:1046D000C001FEF798FD50B9BDF81A10284602F047
:1046E00076FC20B9284602F040FD0028B8D008B07A
:1046F00070BD0020FBE700BF88CE030030B500F19D
:10470000A80585B00023044601AA02A92846029301
:10471000ADF804300393ADF8063002F0F8FBD8B9D9
:104720000DF1060203A9284602F0E6FBA0B90346F4
:104730000299BDF80420206802F084FF014650B1C0
:10474000206802F07AFF38B9D4F844330133C4F852
:10475000443305B030BD0320D4F858330133C4F8D6
:104760005833F6E710B5044654F8780B03F089F88F
:1047700001462046BDE8104002F029BC10B50446B1
:1047800054F8780B03F039F801682046BDE8104072
:1047900002F02CBC10B5044654F8780B03F02DF849
:1047A000C1682046BDE8104002F020BC10B50446A8
:1047B00054F8780B03F021F801692046BDE8104059
:1047C00002F014BC10B5044654F8780B03F015F849
:1047D00041692046BDE8104002F008BC10B504460F
:1047E00054F8780B03F009F881692046BDE81040C1
:1047F00002F0FCBB10B5044654F8780B02F0FDFF44
:10480000C1692046BDE8104002F0F0BB10B5044677
:1048100054F8780B02F0F1FF016A2046BDE8104021
:1048200002F0E4BB10B5044654F8780B02F0E5FF43
:10483000416A2046BDE8104002F0D8BB10B50446DE
:1048400054F8780B02F0D9FF816A2046BDE8104089
:1048500002F0CCBB10B5044654F8780B02F0CDFF43
:10486000C16A2046BDE8104002F0C0BB10B5044646
:1048700054F8780B02F0C1FF016B2046BDE81040F0
:1048800002F0B4BB10B5044654F8780B02F0B5FF43
:1048900041682046BDE8104002F0A8BB10B50446B0
:1048A00054F8780B02F0A9FF81682046BDE810405B
:1048B00002F09CBB10B5044654F8780B02F09DFF43
:1048C000416B2046BDE8104002F090BB10B5044695
:1048D00054F8780B02F091FFC16B2046BDE8104000
:1048E00002F084BB10B5044654F8780B02F085FF43
:1048F000816C2046BDE8104002F078BB10B504463C
:1049000054F8780B02F079FFC16C2046BDE81040E6
:1049100002F06CBB10B5044654F8780B02F06DFF42
:10492000016D2046BDE8104002F060BB10B50446A2
:1049300054F8780B02F061FF416D2046BDE810404D
:1049400002F054BB10B5044654F8780B02F055FF42
:10495000816D2046BDE8104002F048BB10B504460A
:1049600054F8780B02F049FFC16D2046BDE81040B5
:1049700002F03CBB10B5044654F8780B02F03DFF42
:10498000016E2046BDE8104002F030BB10B5044671
:1049900054F8780B02F031FF416E2046BDE810401C
:1049A00002F024BB10B5044654F8780B02F025FF42
:1049B000016C2046BDE8104002F018BB10B504465B
:1049C00054F8780B02F019FF416C2046BDE8104006
:1049D00002F00CBB10B5044654F8780B02F00DFF42
:1049E000816E2046BDE8104002F000BB10B50446C1
:1049F00054F8780B02F001FFC16E2046BDE810406C
:104A000002F0F4BA10B5044654F8780B02F0F5FE43
:104A1000016F2046BDE8104002F0E8BA10B5044628
:104A200054F8780B02F0E9FE416F2046BDE81040D3
:104A300002F0DCBA10B5044654F8780B02F0DDFE43
:104A4000816F2046BDE8104002F0D0BA10B5044690
:104A500054F8780B02F0D1FEC16F2046BDE810403B
:104A600002F0C4BAD0F84413783002F0BFBAD0F8DC
:104A70004813783002F0BABAD0F85813783002F000
:104A8000B5BAD0F84C13783002F0B0BAD0F8501361
:104A9000783002F0ABBAD0F85413783002F0A6BAEE
:104AA000D0F86813783002F0A1BAD0F860137830EB
:104AB00002F09CBAD0F85C13783002F097BA10B5C7
:104AC000044654F8780B03F066F901682046BDE807
:104AD000104002F08BBA10B5044654F8780B03F07E
:104AE0005AF941682046BDE8104002F07FBA10B57F
:104AF000044654F8780B03F04EF981682046BDE86F
:104B0000104002F073BA10B5044654F8780B03F065
:104B100042F9C1682046BDE8104002F067BA10B5FE
:104B200004468AB054F8780B694602F0E6FEBDF8F8
:104B30000010204602F04BFA00285CD1BDF80210AC
:104B4000204602F044FA002855D1BDF80410204652
:104B500002F03DFA00284ED1BDF80610204602F0C2
:104B600036FA002847D1BDF80810204602F02FFA87
:104B7000002840D1BDF80A10204602F028FAD0BB28
:104B8000BDF80C10204602F022FAA0BBBDF80E10B2
:104B9000204602F01CFA70BBBDF81010204602F04F
:104BA00016FA40BBBDF81210204602F010FA10BBF6
:104BB000BDF81410204602F00AFAE0B9BDF816104C
:104BC000204602F004FAB0B9BDF81810204602F0F1
:104BD000FEF980B9BDF81A10204602F0F8F950B974
:104BE000BDF81C10204602F0F2F920B9BDF81E10E5
:104BF000204602F0ECF900200AB010BD38B504469A
:104C000054F8780B02F0F9FD054628B92046152125
:104C1000BDE8384002F00DBB204602F087FA0028BC
:104C200040F0D0802968204602F0E0F9002840F0EA
:104C3000C9806968204602F0D9F9002840F0C28096
:104C4000A968204602F0D2F9002840F0BB80E9684C
:104C5000204602F0CBF9002840F0B48029692046B4
:104C600002F0C4F9002840F0AD806969204602F0E6
:104C7000BDF9002840F0A680A969204602F0B6F9E7
:104C8000002840F09F80E969204602F0AFF9002833
:104C900040F09880296A204602F0A8F9002840F0E8
:104CA0009180696A204602F0A1F9002840F08A80CC
:104CB000A96A204602F09AF9002840F08380E96A48
:104CC000204602F093F900287CD1296B204602F09F
:104CD0008DF9002876D1696B204602F087F900280B
:104CE00070D1A96B204602F081F900286AD12046D4
:104CF00002F03BFA002865D1204602F017FA00289E
:104D000060D1E96B204602F071F900285AD1296C74
:104D1000204602F06BF9002854D1696C204602F05D
:104D200065F900284ED1A96C204602F05FF90028F1
:104D300048D1E96C204602F059F9002842D1296D8A
:104D4000204602F053F900283CD1696D204602F05C
:104D50004DF9002836D1A96D204602F047F988BBED
:104D6000E96D204602F042F960BB296E204602F050
:104D70003DF938BB696E204602F038F910BBA96EC8
:104D8000204602F033F9E8B9E96E204602F02EF928
:104D9000C0B9296F204602F029F998B9696F2046F9
:104DA00002F024F970B9A96F204602F01FF948B942
:104DB000E96F204602F01AF920B92046BDE83840D4
:104DC00002F0D3B938BD38B5044654F8780B02F078
:104DD000E6FF054628B920461521BDE8384002F017
:104DE00028BA0188204602F0F2F840BB69882046C4
:104DF00002F0EDF818BBA988204602F0E8F8F0B9F7
:104E0000E988204602F0E3F8C8B92989204602F073
:104E1000DEF8A0B96989204602F0D9F878B9A989E5
:104E2000204602F0D4F850B9E989204602F0CFF8C4
:104E300028B9298A2046BDE8384002F0C8B838BDF4
:104E400010B50446006802F049FEC0F34001C0F30B
:104E5000C003C0F3800200F00100FEF7E5F901464F
:104E6000A06FBDE8104001F090BE37B502A9002444
:104E7000054601F8014DA83001F041FFB0B99DF899
:104E800007302868C3F3C0024FF0000162F300014D
:104E9000C3F3800262F34101C3F3400262F3820173
:104EA00063F3C30102F029FE03B030BD2046FBE7E7
:104EB00010B5044654F8780B02F0D0FD01462046A8
:104EC000BDE8104002F092B837B502A900230546AC
:104ED00041F8043DA83001F054FF044618B9019987
:104EE000286802F0BFFD204603B030BD10B504466F
:104EF00054F8780B02F0B8FE01462046BDE8104099
:104F000002F065B890F83913806FFEF77CB900F2B3
:104F10003931A83001F003BF7FB500F1A8060023A6
:104F20000446012501AA02A930460293ADF80430D7
:104F30000393ADF806308DF800308DF8015001F084
:104F4000E6FF38B1D4F848330133C4F848330020C1
:104F500004B070BD0DF1060203A9304601F0CCFF8C
:104F60000028EFD16B46BDF804200299206802F0BA
:104F700069FB064670B1294602F091FC3146206873
:104F800002F05BFB0028DDD0D4F858330133C4F8BD
:104F90005833DDE70320F7E707B502A9002301F83E
:104FA000013DA83001F0ABFE28B99DF80730012B78
:104FB00014BF07200C2003B05DF804FB13B50446B2
:104FC0000DF10601A83001F0C8FE20B9BDF80610A9
:104FD000206802F03CFB02B010BD37B504460DF16D
:104FE0000601A83001F0B9FE054638B9BDF8061033
:104FF000206802F031FB172808BF284603B030BDF7
:1050000010B50446006802F036FB0146A06FBDE80B
:105010001040FEF7F8B837B505460DF10701A83086
:1050200001F07DFE044620B99DF80710286802F0C3
:1050300026FB204603B030BDF8B506460D460029D4
:1050400078D091F83930C3F303079A064FEA07176F
:1050500000F1780448BF47F001070722DB064FF054
:1050600080014FF03303204648BF47F0080702F0A5
:10507000C2F8002858D195F83610B06F01F085FDC0
:10508000002851D195F937102046FEF7C5F80028C1
:105090004AD1204602F04AF8002845D12946204648
:1050A000FDF73AFB00283FD14FF6FF71204601F093
:1050B0008EFFC8BB698E204601F089FFA0BB95F822
:1050C0003810B06F01F061FD70BB204602F04DF862
:1050D00050BB204602F02AF830BB0321204601F0E5
:1050E000D2FF08BB3946B06F01F04FFDE0B905F1C2
:1050F0000801204602F002F8B0B9082205F11901B2
:10510000204601F0EBFF78B995F8212005F1220146
:10511000204601F0E3FF38B9204602F026F818B91E
:10512000204602F04BF878B10B2106F1E000FEF7C3
:105130006FF803E03021E030FEF767F806F1D400A5
:10514000BDE8F84003F030BEF8BD0B4601461846F6
:10515000FFF772BF70B504460E46E9B100F178055D
:10516000392307228021284602F045F870B93178AA
:10517000A06F01F00AFD48B996F901102846FEF724
:105180004BF818B9284602F019F878B10B2104F150
:10519000E000FEF73DF803E03021E030FEF735F89F
:1051A00004F1D400BDE8704003F0FEBD70BD0B46B5
:1051B00001461846FFF7CEBF082910B5044600F196
:1051C000E00012D002D839B1682106E017290ED0CC
:1051D0001C29F9D16C2100E06D21FEF719F804F1CA
:1051E000D400BDE8104003F0DFBD6921F5E76A2176
:1051F000F3E70B4601461846FFF7DEBFF8B5044655
:1052000008460E4602F047FB04F1780507460028E1
:1052100014BF7223732306228021284601F0EBFF7E
:10522000B0B9304602F035FB0146284601F0CFFE0A
:1052300070B93146A06F01F07BFC48B9284601F0F7
:10524000BDFF28B92FB1D4F84C330133C4F84C3327
:10525000F8BDD4F850330133C4F85033F8E7F8B54B
:10526000074600F55076304602F037FB044680B121
:105270000146304602F02FFB21463846FFF7BEFFBD
:1052800005460028EFD02146304602F021FB284693
:10529000F8BD0546FBE710B5044679B100F550703E
:1052A00002F013FB50B994F8FA2294F8FB329A42B8
:1052B00004D12046BDE81040FFF7D1BF10BD0B461A
:1052C00001461846FFF7E7BFF8B590F83B330646AE
:1052D0000D461746CBB300F17804712306228021D6
:1052E000204601F088FF80BBA988204601F06FFEB0
:1052F00058BBAA882968B06F01F058FC28BB95F903
:1053000010102046FDF788FFF8B96FF07F012046A6
:10531000FDF782FFC8B93946204601F058FEA0B912
:10532000204601F003FF80B9204601F01EFF60B95E
:10533000204601F0FBFE40B9204601F016FF20B9DF
:105340002046BDE8F84001F039BFF8BD13460A46D3
:1053500001461846FFF7B8BF90F83B13806FFDF782
:1053600052BF000037B504460DF10701A83001F027
:10537000D6FC054668B99DF8073094F83B239A425D
:1053800007D084F83B33206833B10549224602F048
:1053900020FA284603B030BD2A462946F7E700BF69
:1053A0004D530000D1F8DC301843C1F8DC0001F1A6
:1053B000D40003F0F9BC00002DE9F041D0F8DC3056
:1053C0000446002B5BD05B072CD590F839334BB3E8
:1053D000006802F02BFC012807D9002384F8393338
:1053E000492104F1E000FDF710FF206802F01EFCE7
:1053F000042817D1206802F0B1FC98B1D4F8DC3051
:10540000254623F08003C4F8DC3055F8E00B00217A
:1054100002F094FC42212846FDF7F7FE6821284659
:10542000FDF7F6FEDFF86C80002504F1E00755F883
:105430000860D4F8DC301E4206D10835A02DF6D124
:105440000023C4F8DC301AE008EB05035968522940
:1054500017D03846FDF7D9FEB6F5007F07D15A219F
:105460003846FDF7D2FE5B213846FDF7CEFED4F874
:10547000DC3023EA0603C4F8DC30002BDDD1BDE8C4
:10548000F08194F83D33002284F83D23002BE0D1D5
:10549000E2E700BFC8CE030040F207539A4200F093
:1054A0009384B2F5A16F80F04581462A00F0018413
:1054B00000F29280262A00F0588344D8082A00F08F
:1054C00034831FD8032A00F03E830AD8012A4FF004
:1054D000000300F09B8340F23B83CB4AC0E90023EA
:1054E0007047052A4FF0000300F01183C0F0B58328
:1054F000062A00F02483072A00F040830023C0E935
:1055000000337047202A00F027830CD80C2A00F0C3
:1055100011830D2A00F03683092AEFD1BB4B0360BB
:10552000002343607047222A4FF0000300F0998364
:10553000C0F01783232A00F0AA83252ADED1B44ABB
:10554000C0E900237047362A00F0648320D8302A4F
:1055500000F071830CD8282A4FF0000300F08583F7
:10556000C0F00883292AC9D1AA4AC0E9002370479C
:10557000322A4FF0000300F06783C0F06183342AC1
:1055800000F04D83352AB9D1A34AC0E90023704702
:10559000412A00F080830FD8382A4FF0000300F032
:1055A0004683C0F040833A2A00F06383402AA5D1A5
:1055B0009A4AC0E900237047432A4FF0000300F0E5
:1055C0008583C0F08783442A00F07883452A95D1EB
:1055D000934AC0E9002370475E2A00F09B834CD8B1
:1055E000532A00F0928325D84A2A00F05D830AD816
:1055F000482A4FF0000300F0658340F25183894A46
:10560000C0E900237047502A00F0768307D84B2A60
:105610007FF474AF844B0360002343607047512ACA
:1056200000F08F83522A7FF469AF804B0360002320
:1056300043607047592A00F093830DD8552A4FF0E4
:10564000000300F0E184C0F0D684572A7FF456AFFF
:10565000774AC0E9002370475B2A4FF0000300F04F
:105660006883C0F06A835C2A00F038835D2A7FF487
:1056700045AF704AC0E900237047802A00F0E584F6
:1056800022D8632A00F076830DD8612A4FF00003F8
:1056900000F07D8300F27783602A7FF42FAF664AA3
:1056A000C0E900237047652A4FF0000300F06783CC
:1056B000C0F07583662A00F06E83672A7FF41EAF00
:1056C0005E4AC0E90023704740F202539A4200F05C
:1056D0006A8318D8842A00F0BD8407D8822A7FF410
:1056E0000DAF574B0360002343607047852A00F0DD
:1056F000B68440F201539A427FF400AF514B0360ED
:1057000000234360704740F204539A424FF0000375
:1057100000F05283C0F04C8340F205518A4200F001
:105720004F8340F206518A427FF4E8AE464AC0E910
:105730000023704740F233639A4200F0578400F22E
:10574000F68040F26E539A4200F0838300F2868026
:1057500040F265539A4200F0558329D840F20B532A
:105760009A4200F046830CD840F209539A424FF017
:10577000000300F0328340F22C83344AC0E9002356
:10578000704740F20D539A424FF0000300F02D8312
:10579000C0F0278340F20E518A4200F02F8340F27E
:1057A00064518A427FF4AAAE294AC0E900237047B7
:1057B00040F269539A4200F033830ED840F26753A7
:1057C0009A4200F02883B2F5AD6F4FF00003C0F0AD
:1057D0001E83204AC0E90023704740F26B539A426F
:1057E0004FF0000300F02583C0F01F8340F26C519E
:1057F0008A4200F02A8340F26D518A427FF47EAEE5
:10580000154AC0E900237047D72200001F2300007B
:105810005D260000DF2600007F1F0000CB33000064
:1058200021350000054F0000ED2A00001729000077
:1058300031360000BD380000F5430000B5450000DA
:10584000E72C00007D470000F547000055480000A8
:10585000CD4800002D490000ED49000040F2CA5338
:105860009A4200F0A38327D840F272539A4200F084
:10587000FD820BD8B2F5AE6F4FF0000300F0F2825C
:1058800040F2EC82C24AC0E90023704740F27453F0
:105890009A424FF0000300F0D482C0F0CE82B2F5FD
:1058A000B96F00F07F8340F2C9518A427FF426AE7F
:1058B000B84AC0E90023704740F22D639A4200F0D5
:1058C000868316D840F2CC539A424FF0000300F082
:1058D0007683C0F0708340F2CD518A4200F073832A
:1058E00040F22C618A427FF409AEAB4AC0E9002342
:1058F0007047B2F5C66F00F06F8309D840F22E638F
:105900009A427FF4FBADA54B0360002343607047D0
:1059100040F231639A4200F0648340F232639A426B
:105920007FF4ECAD9E4B036000234360704741F26F
:105930000B539A4200F0F3816BD841F201539A4223
:1059400000F0048236D841F208039A4200F08081C8
:1059500012D840F291639A4200F01A8340F29263A7
:105960009A4200F01A83B2F5D26F7FF4C7AD8D4B27
:10597000036000234360704741F202339A4200F013
:105980007C8109D841F209039A427FF4B7AD864B76
:10599000036000234360704741F209339A4200F0EC
:1059A0007181B2F5A85F7FF4A9AD804B036000233D
:1059B0004360704741F206539A4200F0CC8111D8FF
:1059C00041F203539A424FF0000300F03183C0F0DC
:1059D000278341F204518A427FF490AD744AC0E9B2
:1059E0000023704741F208539A424FF0000300F041
:1059F0001B83C0F00D8341F209518A4200F01C83E1
:105A000041F20A518A427FF479AD6A4AC0E9002323
:105A1000704741F218539A4200F0A78136D841F2FC
:105A200010539A4200F0208311D841F20D539A424C
:105A30004FF0000300F06581C0F0EE8241F20E519C
:105A40008A427FF45BAD5C4AC0E90023704741F2B3
:105A500014539A4200F0468109D841F213539A42F6
:105A60007FF44CAD554B036000234360704741F217
:105A700015539A4200F03B8141F217539A427FF44A
:105A80003DAD4F4B036000234360704741F2285304
:105A90009A4200F0D5821ED841F221539A4200F07A
:105AA000AE8209D841F219539A427FF427AD454B93
:105AB000036000234360704741F222539A4200F092
:105AC000338141F223539A427FF418AD3E4B036079
:105AD000002343607047B2F5804F1CD009D841F6CF
:105AE0000E139A427FF40AAD384B036000234360E3
:105AF000704744F201039A4212D044F202039A42E0
:105B00007FF4FCAC324B0360002343607047314AA2
:105B1000C0E900237047304B0360002343607047A7
:105B20002E4B03600023436070472D4B036000231E
:105B3000436070472B4B03600023436070472A4A41
:105B4000C0E900237047294B03600023436070477E
:105B5000274AC0E900237047264B036000234360B7
:105B60007047254AC0E900237047244B0360002397
:105B700043607047224AC0E900237047214AC0E9C8
:105B800000237047204B036000234360704700BF31
:105B90004D4A00006F4A0000A14A0000B54A0000CB
:105BA000EF4A00001F4B0000ED250000B14E000041
:105BB0007F2C000055310000873600008B39000033
:105BC0006B290000013D0000A531000001500000DC
:105BD000AF2600004D220000AD260000B1260000D7
:105BE0000523000027230000ED2200003D220000D5
:105BF00015220000811E0000891E000031260000D1
:105C000047260000F9220000F52200009A4AC0E968
:105C100000237047994B0360002343607047984A04
:105C2000C0E900237047974AC0E900237047964AAD
:105C3000C0E900237047954B036000234360704721
:105C4000934AC0E900237047924AC0E90023704795
:105C5000914B0360002343607047904AC0E90023E2
:105C600070478F4AC0E9002370478E4AC0E900237D
:105C700070478D4AC0E9002370478C4B03600023B6
:105C8000436070478A4B0360002343607047894A32
:105C9000C0E900237047884B0360002343607047CE
:105CA000864AC0E900237047854B036000234360A8
:105CB0007047844B0360002343607047824AC0E909
:105CC00000237047814AC0E900237047804AC0E939
:105CD000002370477F4AC0E9002370477E4AC0E92D
:105CE000002370477D4B03600023436070477C4B6B
:105CF00003600023436070477A4B036000234360D6
:105D00007047794AC0E900237047784B036000234D
:105D100043607047764B0360002343607047754BC8
:105D20000360002343607047734B036000234360AC
:105D30007047724AC0E900237047714AC0E90023E6
:105D40007047704B03600023436070476E4B0360E5
:105D50000023436070476D4B03600023436070472E
:105D60006B4B03600023436070476A4B0360002362
:105D700043607047684B0360002343607047674A85
:105D8000C0E900237047664AC0E900237047654AAE
:105D9000C0E900237047644AC0E900237047634AA2
:105DA000C0E900237047624B0360002343607047E3
:105DB000604AC0E9002370475F4AC0E9002370478A
:105DC0005E4AC0E9002370475D4B036000234360D7
:105DD00070475C4AC0E9002370475B4AC0E9002372
:105DE00070475A4AC0E900237047594AC0E9002366
:105DF0007047584B0360002343607047564AC0E920
:105E000000237047554B0360002343607047544A9A
:105E1000C0E900237047534B036000234360704781
:105E2000514B0360002343607047504AC0E9002390
:105E300070474F4AC0E9002370474E4AC0E900232B
:105E400070474D4AC0E9002370474C4AC0E900231F
:105E500070474B4B0360002343607047494AC0E9D9
:105E600000237047484AC0E900237047474B03604E
:105E700000234360704700BF1F220000151F000071
:105E80004B1F0000971F0000C11E0000692000008A
:105E900031200000552000001D2100004522000097
:105EA000C926000059530000ED3200001F330000E6
:105EB0006547000035330000E1330000AD350000D8
:105EC000FB35000067350000E5340000E3350000D5
:105ED0007934000019340000353800009F39000083
:105EE000B3390000C73600005D360000B13600004F
:105EF000414E000089370000B737000055460000CA
:105F0000C7380000F1360000ED4E000011460000D9
:105F100047360000E73C00000D440000F14400005B
:105F200071430000DD43000039450000E9440000F2
:105F300095470000AD470000C5470000DD47000061
:105F40000D480000254800003D480000854800003D
:105F50009D4800006D480000B5480000E54800007D
:105F6000FD48000015490000454900005D4900005A
:105F700075490000A5490000BD490000D549000051
:105F8000054A00001D4A0000354A00008D49000006
:105F9000384B0360002343607047374B0360002396
:105FA00043607047354AC0E900237047344B0360B3
:105FB000002343607047334AC0E900237047324AE8
:105FC000C0E900237047314AC0E900237047304BD5
:105FD00003600023436070472E4B0360002343603F
:105FE00070472D4B03600023436070472B4B0360C9
:105FF0000023436070472A4AC0E900237047294BB9
:106000000360002343607047274AC0E900237047BC
:10601000264AC0E900237047254AC0E9002370479B
:10602000244AC0E900237047234AC0E9002370478F
:10603000224AC0E900237047214AC0E90023704783
:10604000204B03600023436070471F4B0360002315
:10605000436070471D4B03600023436070471C4B37
:1060600003600023436070471A4B036000234360C2
:10607000704700BFFD4B0000C74D0000654A00009F
:10608000794A0000834A00008D4A0000974A0000C8
:10609000AB4A0000BF4A0000D74A0000074B00008F
:1060A00001290000252A0000EB280000B52A000085
:1060B000572B00008F2B0000CB2B0000432C00003F
:1060C000072C0000BB2C000021420000E32D000043
:1060D000332E00008F300000722A00F02B8168D828
:1060E000422A00F0178132D8312A00F0078116D8F1
:1060F000222A00F0098108D8072A00F0F180212A1D
:1061000000F0F4800023036008E1282A00F0FA8000
:10611000302A00F0F580252AF4D1A24BE1E0372A9D
:1061200000F0EA8009D8342A00F0E480362A00F032
:10613000DF80322AE6D19C4BD3E03A2A00F0E68099
:10614000412A00F0E580382ADCD1984BC9E04A2A80
:1061500000F0EC8015D8462A00F0E48008D8442AE4
:106160004FF0000300F0DC8040F2D680904AD4E08B
:10617000482A4FF0000300F0F78040F2D5808D4AA6
:10618000CBE05E2A00F0E08009D8552A00F0F080CC
:106190005C2A00F0CD804B2AB4D1874BA1E0652A60
:1061A00000F0CA80672A00F0C980622AAAD1834B16
:1061B00097E041F20C539A4200F0DE8046D841F25B
:1061C00002539A4200F0DA801AD8842A00F0E08064
:1061D00009D8812A00F0B680822A00F0D780732A7D
:1061E00090D1774B7DE041F208039A427CD0B2F522
:1061F000A85F00F0A580B2F5A06F83D1714B70E06D
:1062000041F207539A4200F0B5800FD841F204538F
:106210009A424FF0000300F0A980C0F0B38041F231
:1062200006539A427FF46EAF674B5AE041F209532E
:106230009A424FF0000300F0A780C0F0A18041F225
:106240000A539A427FF45EAF604B4AE041F2255315
:106250009A4200F0858021D841F218539A4279D0B1
:106260000ED841F214539A4270D041F215539A421B
:106270006ED041F213539A427FF444AF544B30E056
:1062800041F21A539A424FF0000367D064D341F2AF
:106290001B539A427FF436AF4E4B22E041F6030384
:1062A0009A427BD00DD8B2F5C05F73D041F601039E
:1062B0009A4271D041F226539A427FF423AF464B63
:1062C0000FE041F606039A426AD041F60E139A4255
:1062D00048D041F605039A427FF414AF3F4B00E0EB
:1062E0003F4B0360002319E03E4BFAE73E4BF8E7D3
:1062F0003E4BF6E73E4BF4E73E4BF2E73E4BF0E712
:106300003E4BEEE73E4BECE73E4BEAE73E4BE8E721
:106310003E4BE6E73E4BE4E73E4A0260436070478F
:106320003D4AFAE73D4BDCE73D4AF6E73D4BD8E70F
:106330003D4BD6E73D4BD4E73D4BD2E73D4BD0E755
:106340003D4BCEE73D4BCCE73D4BCAE73D4BC8E765
:106350003D4BC6E73D4BC4E73D4ADEE73D4ADCE73F
:106360003D4BBEE73D4BBCE73D4AD6E73D4AD4E74F
:106370003D4BB6E73D4BB4E73D4BB2E73D4BB0E795
:106380003D4ACAE73D4AC8E73D4AC6E73D4BA8E754
:106390003D4BA6E73D4BA4E73D4BA2E73D4BA0E7B5
:1063A0003D4B9EE78B2600005F200000DF1E0000B3
:1063B000393500000F4F0000052B0000A5430000F9
:1063C000194F0000994F00002B4600005F3100007C
:1063D000953900008F410000ED4100002930000098
:1063E00001230000892100009F1E00002D1F0000D6
:1063F000631F0000A11F0000392000009D20000045
:10640000655300008133000005330000F7330000BE
:1064100033340000A1340000FD3400007F3500005B
:10642000C5350000133600006D380000FD46000041
:106430000B450000DD450000C94E00004942000048
:106440006B4E0000A9390000BD3900001F4100005B
:106450004141000063410000BB41000017500000B3
:10646000332B0000952C000033310000CB2A0000B4
:106470006D2B0000A52B0000E12B00005B2C000021
:106480001D2C00000B2D0000192E00004B2E0000CB
:106490009D2E00007D2F000055300000662A1AD086
:1064A00006D85C2A19D0632A13D0002303600EE0BB
:1064B00041F208039A4207D041F20F539A420ED09C
:1064C000832AF2D1074B00E0074B036000234360AF
:1064D0007047064BF9E7064BF7E7064BF5E7064B27
:1064E000F3E700BF412D0000D92100006744000000
:1064F0006B450000BD4F0000EF300000662A1AD047
:1065000006D85C2A19D0632A13D0002303600EE05A
:1065100041F208039A4207D041F205539A420ED045
:10652000832AF2D1074B00E0074B0360002343604E
:106530007047064BF9E7064BF7E7064BF5E7064BC6
:10654000F3E700BFA12D0000F7210000C5440000C3
:106550008F450000DB4F00007F31000070B50368FD
:1065600003625A1E044611468B4202D92089014417
:10657000FAE7616202212177C4E90A33002121632D
:1065800084F8341084F835104FF6FF71E186A36368
:10659000934202D921890A44FAE7C4E90F23C4E9E6
:1065A00011330023A365A4F85C3004F15E03236774
:1065B00004F14C05284601F090F90146E0B904F1D8
:1065C0005006304601F089F9054668B95434204632
:1065D00001F083F9054698B10146204601F07BF9A8
:1065E000284601F054F9F2E70146304601F073F90C
:1065F000284601F04CF9E4E7284601F06CF9D9E7A8
:1066000070BD10B5016011440446416002815030F4
:1066100001F058F904F1540001F054F904F14C0070
:1066200001F050F900232046C4E90333C4E90533DF
:10663000FFF794FF204610BDC0E903127047C0E980
:1066400005127047012B0AD002D3022B0ED1FEE7B0
:10665000114442688A4209D80389C91AFAE7891A9B
:1066600002688A4202D903891944FAE7084670474A
:10667000012B0ED002D3022B15D1FEE78A423FBF79
:1066800043685B1A0168511A2CBF511AC91888B2A5
:1066900070478A4281BF436800689A1A091A94BFFA
:1066A000891A8918F3E70021F1E710B51446121290
:1066B0000A700122FFF7C6FF047010BD10B5134623
:1066C00001220C78FFF7BEFF00782402204480B23C
:1066D00010BD2DE9F041876A90F81C80C26A0E4611
:1066E000434639460446FFF7C3FF0128054614D93F
:1066F000424639462046FFF7E1FF023DC5F30D054E
:10670000354340EA0502434692B239462046FFF738
:10671000CCFFE36AA362BDE8F081E762FBE72DE905
:10672000F047067F022E80460F4691461C4622D037
:106730004D68836A9D4221D13346C26A2946FFF7DC
:1067400097FF3F68824633463A4629464046FFF760
:106750008FFF2044504511DC94B119F8013B3B7088
:10676000394698F81C3001224046FFF76BFF013C88
:10677000A4B20746F0E70D20BDE8F0870720FBE74D
:106780002046F9E72DE9F047057F022D04460F4624
:106790001CD04E68836A9E4218D1D0F82C802B46BC
:1067A00042463146FFF764FF3F6881462B463A4632
:1067B00031462046FFF75CFF814507D92B4642460C
:1067C00039462046BDE8F047FFF752BF0020BDE83C
:1067D000F0872DE9F041067F022E04460F4616D0C1
:1067E0004D68836A9D4214D13346C26A2946FFF739
:1067F0003FFF3F68804633463A4629462046FFF72A
:1068000037FF804505D9E7620020BDE8F0810D2003
:10681000FBE70720F9E770B5037F022B044627D07A
:106820000021FFF756FF237F04EB830304F14C069E
:106830001A6A2263A26A1A62304601F04EF80546CF
:1068400058B10146304601F046F8207F1430294601
:1068500004EB800001F039F8EEE7E56825B1234646
:10686000227F216B2069A84702232377002070BD77
:106870000D20FCE7006B7047C26B436A9A4205D15A
:10688000836B006A1B1A58425841704700207047BA
:1068900090F8353033B9C36B426A9B1A18BF012395
:1068A00080F83430704738B50446806D08B9172039
:1068B00038BDB4F85C5000F0ECFF8542F7D204F12B
:1068C0005E0510232A46B4F85C10A06D00F0F2FFBC
:1068D0000028ECD0B4F85C30A56403442844206759
:1068E000A4F85C300020E3E738B590F83450016C30
:1068F0002A460446FFF7E2FE430401D4172038BDC0
:10690000A16D05F1140004EB800081B900F0E5FFF2
:10691000A0650028F2D00023A4F85C302046FFF7E1
:10692000C2FF0028EBD1022384F83530E7E700F0FE
:10693000D6FFEDE7F8B5044694F83460656C25643D
:1069400004EB86073B6A9D4227D032462946204603
:10695000FFF7B4FE030402D5BB6B9D421DD1C0F30B
:106960000D023346023229462046FFF76BFE3346BE
:1069700007466064022229462046FFF763FE8742ED
:10698000A06404D0012384F835300020F8BD2046EF
:10699000FFF7AAFF0028CFD1F8E7032384F83530AA
:1069A0001720F3E710B50146FFF766FF044670B9FC
:1069B0000846FFF76DFF91F834300E3351F823305D
:1069C0008C65C1E91033BDE81040FFF7B3BF172055
:1069D00010BD90F8350003281ABFB0FA80F04009C6
:1069E0000120704738B590F83520012A044603D0BD
:1069F000022A14D0002510E0816C90F834300D7814
:106A0000FFF720FE636CA064984206D12046FFF792
:106A10006BFF10B12046FFF78DFF284638BD836C11
:106A2000026F13F8015B83649342F6D1FFF73BFFDB
:106A3000EFE7D0E90E23416A99420CD1017F012989
:106A400009D00168531E994202D902891344FAE71A
:106A50004362C3637047016A91420AD1027F42B127
:106A600041680133994202D802899B1AFAE703620E
:106A70008363704738B5037F022B044611D0083377
:106A800000F14C0550F82330C0E90A33284600F0E5
:106A900024FF014618B1284600F01DFFF6E7022347
:106AA00023772046BDE83840FFF7C3BFF8B5047F21
:106AB000022C05460F4600D1FEE72346C66AB4FA0B
:106AC00084F46409012231460834FFF7BBFD55F810
:106AD0002430834203D03770E8620020F8BD284696
