:10100000000004207D7F0200A57F0200A77F020070
:10101000A97F0200AB7F0200AD7F0200000000004C
:10102000000000000000000000000000AF7F020090
:10103000B17F020000000000B37F0200B57F020014
:101040006D4E0200DDB30200B77F0200B77F0200E1
:10105000B77F0200B77F0200B77F0200B77F0200B0
:10106000B77F0200B77F0200B77F0200B77F0200A0
:10107000B77F0200912E0200B77F0200B77F020007
:10108000B77F0200B77F0200B77F0200B77F020080
:10109000B77F0200B77F0200B77F0200B77F020070
:1010A000B77F0200B77F0200B77F0200B77F020060
:1010B000B77F0200B77F02000000000000000000C0
:1010C000B77F0200B77F0200B77F0200B77F020040
:1010D000ED2D0200B77F0200B77F0200D55D020050
:1010E000B77F0200B77F020011E20200000000009B
:1010F00000000000B77F020000000000B77F020080
:1011000000000000000000000000000000000000DF
:1011100000000000000000000000000000000000CF
:1011200000000000000000000000000000000000BF
:1011300000000000000000000000000000000000AF
:10114000000000000000000000000000000000009F
:10115000000000000000000000000000000000008F
:10116000000000000000000000000000000000007F
:10117000000000000000000000000000000000006F
:10118000000000000000000000000000000000005F
:10119000000000000000000000000000000000004F
:1011A000000000000000000000000000000000003F
:1011B000000000000000000000000000000000002F
:1011C000000000000000000000000000000000001F
:1011D000000000000000000000000000000000000F
:1011E00000000000000000000000000000000000FF
:1011F00000000000000000000000000000000000EF
:1012000010B5054C237833B9044B13B10448AFF340
:1012100000800123237010BD400200200000000068
:10122000D41D040008B5034B1BB103490348AFF3B9
:10123000008008BD0000000044020020D41D04000E
:10124000154B002B08BF134B9D46A3F5803A002198
:101250008B460F461348144A121A38F004F80F4B05
:10126000002B00D098470E4B002B00D09847002051
:10127000002104000D000D48002802D00C48AFF3F7
:10128000008037F07BFF2000290000F015F837F0D0
:101290004FFF00BF00000800000004200000000015
:1012A0000000000040020020500201200000000069
:1012B000000000007047000070B505460E4631463C
:1012C000284622F00BFA03F03CFF044628B90B4BEA
:1012D0000B4A0C48672137F00DFF00F047F822F069
:1012E00025FA18B1204603F032FFE8E7204604F063
:1012F000E8F8204622F020FAF1E700BF41A90300F8
:101300003CA903004AA903004FF0FF307047B0F832
:10131000AA3AB0F8AC2AC3F500618A42CCBFA0F863
:10132000AE1AA0F8AE2AB0F8AE1A21B100F2AA2087
:10133000184422F029BB704710B50A4B044640F808
:10134000043B00F0EDF9084B23600023A4F8A83219
:10135000A4F8AA3AA4F8AC3AA4F8AE3A22F00CFBEE
:10136000204610BDB4A90300C0A9030010B5044C69
:1013700001462046FFF7E0FF024B1C6010BD00BF96
:1013800060020020780D002010B500210446B4F85A
:10139000A822A31893F8A7300A2B01D00D2B07D150
:1013A000013A92B2A4F8A822224482F8A810EEE7EB
:1013B0002AB1234604F1A801201D02F0EFF9002014
:1013C000A4F8A80210BD00002DE9F8432A4FDFF869
:1013D000AC80DFF8AC9004460D468E18B54249D279
:1013E0002B780A2B19D014D8082B2ED0B4F8A83299
:1013F000B3F5FF7F27D8236801221B6829462046C2
:101400009847B4F8A8325A1CA4F8A8222A78234492
:101410002DE00D2B01D07F2BE7E7236802221B680C
:10142000394620469847B4F8A83233B12344002205
:1014300083F8A8202046FFF7A7FF236802221B6835
:101440004146204698470135C8E7B4F8A832002B3A
:10145000F9D0236803221B68494620469847B4F810
:10146000A832013B9BB2A4F8A8320022234483F89F
:10147000A820E8E7BDE8F883C9A90300C7A90300CD
:10148000C4A90300024B0A4601461868FFF79CBF37
:10149000780D0020B0F8AE3A0BB9FFF738BF7047AF
:1014A000B0F8AE1AB0F8AA2A0A44C2F30A02A0F8A9
:1014B000AA2AB0F8AC2A521AA0F8AC2A0022A0F846
:1014C000AE2AFFF724BF2DE9F04105460E469046AF
:1014D0000027B8F1000F30D0B5F8AC4AC4F500646D
:1014E000A4B2444528BF444631468B1B9BB2A3425D
:1014F0000FD2B5F8AC2AB5F8AA3A11F8010B13448B
:10150000C3F30A032B44013283F8AA02A5F8AC2ADC
:10151000EBE7A8EB0408264428463C441FFA88F869
:10152000FFF7B8FFA7B2B8F1000F06D022F04CFACF
:1015300018B92846FFF7B4FFCBE73846BDE8F0817D
:10154000014B1868FFF7ACBF780D00202DE9F04182
:101550000F4F104E054600244FF00C0808FB04F313
:101560003146DA59A868013403F0D7FB372CF5D19E
:10157000084E00242B79A34208D92B68A86853F899
:101580003420314603F0C9FB0134F3E7BDE8F081B4
:10159000F0B303008EB60300D0F8A00003F0DBBD6B
:1015A000D0F8A00003F0D5BD38B504468568D0F862
:1015B000A00004F064F805490246284603F0ADFB9C
:1015C000A0680349BDE8384003F0A7BB0BAB03009C
:1015D00002AC03000149806803F09FBB02AC03002A
:1015E00010B504468AB06946D0F8A00003F0F0FEBA
:1015F000BDF800202B49A06803F08FFBBDF8022046
:101600002949A06803F089FBBDF80630BDF8042025
:101610002649A06803F081FBBDF80A30BDF8082018
:101620002349A06803F079FBBDF80E30BDF80C200B
:101630002049A06803F071FBBDF81230BDF81020FE
:101640001D49A06803F069FBBDF81630BDF81420F1
:101650001A49A06803F061FBBDF81A30BDF81820E4
:101660001749A06803F059FBBDF81E30BDF81C20D7
:101670001449A06803F051FBBDF82230BDF82020CA
:101680001149A06803F049FBBDF82630BDF82420BD
:101690000E49A06803F041FB2046FFF79BFF0AB00C
:1016A00010BD00BF41B203004DB2030058B20300A9
:1016B0006AB203007CB2030089B2030096B2030051
:1016C000A3B20300D1B20300B0B20300C5B203005D
:1016D00010B5044603F042FD04490246A06803F039
:1016E0001CFB2046BDE81040FFF774BF8EB6030018
:1016F00010B50446D0F8A00004F027F840B1054921
:10170000A06803F00AFB2046BDE81040FFF762BF67
:101710000149F5E702B2030009B2030000BA7047BD
:1017200070B5002504460E460560057185602946A2
:101730002C220C3037F097FD114A4FF47A73C4E92C
:101740000E23104BC4E9103504F14003A364214675
:1017500004F1580003F056FB22463046C4E9254404
:10176000C4E92746084903F0D1FF084BD4F8A0008C
:10177000C4E9133404F14C0103F0D9FC204670BDD8
:10178000080001008D350000E938000055340000E4
:101790002DE9F041074690460C4638F079F93D189E
:1017A00000F001060130B8EB500F12D33846214645
:1017B0000022854221D910F8013BA3F14107052FF2
:1017C0000BD8373B1343DBB29EB10B7000260131BF
:1017D000EEE74FF0FF30BDE8F081A3F16107052F80
:1017E00001D8573BEEE7303BDBB2092BF1D813436E
:1017F000EAE71B01DAB20126DBE7081BEBE7000092
:1018000070B50C4619B9BDE87040FFF7E3BE8568B6
:10181000084604F067F92246034603492846BDE816
:10182000704003F07ABA00BF84B6030070B5044676
:101830000D4649B97B49806803F06FFA7A49A06880
:1018400003F06BFA2946ACE0012940F0E980156805
:101850007649284638F0F5F80646002840F0A6807C
:10186000D4F8A00003F076FD054602687049A06830
:1018700003F053FA6A686F49A06803F04EFAAA6849
:101880006D49A06803F049FAEA686C49A06803F062
:1018900044FA2A696A49A06803F03FFA6A6969490B
:1018A000A06803F03AFAAA696749A06803F035FA1C
:1018B000EA696649A06803F030FA2A6A6449A068B8
:1018C00003F02BFA6A6A6349A06803F026FAAA6A51
:1018D0006149A06803F021FAEA6A6049A06803F050
:1018E0001CFA2A6B5E49A06803F017FAAA6B5D49DF
:1018F000A06803F012FAEA6B5B49A06803F00DFAE6
:101900002A6C5A49A06803F008FA6A6C5849A06822
:1019100003F003FAAA6C5749A06803F0FEF9EA6CD9
:101920005549A06803F0F9F92A6D5449A06803F0FD
:10193000F4F96A6D5249A06803F0EFF9AA6D5149B4
:10194000A06803F0EAF9EA6D4F49A06803F0E5F9F1
:101950002A6E4E49A06803F0E0F96A6E4C49A0680F
:1019600003F0DBF9AA6E4B49A06803F0D6F9EA6EE2
:101970004949A06803F0D1F92A6F4849A06803F0EB
:10198000CCF96A6F4649A06803F0C7F9AA6F4549C8
:10199000A06803F0C2F94449EA6FA06803F0BDF9FA
:1019A00031462046BDE87040FFF72ABF28463F4930
:1019B00038F047F80546002832D1D4F8A00003F0EB
:1019C000DDFE064602883A49A06803F0A6F972884F
:1019D0003849A06803F0A1F9B2883749A06803F03C
:1019E0009CF9F2883549A06803F097F932893449A7
:1019F000A06803F092F972893249A06803F08DF96A
:101A0000B2893149A06803F088F9F2892F49A068AA
:101A100003F083F9328A2E49A06803F07EF911E7BA
:101A20000721BEE704AD03000AAD030010AD0300BB
:101A300014AD030022AD030036AD03004CAD03002E
:101A400065AD030077AD030092AD0300A3AD0300C5
:101A5000B8AD0300CBAD0300E5AD0300F7AD030067
:101A600009AE03001CAE030037AE030045AE030011
:101A700059AE03006FAE030080AE030095AE0300C5
:101A8000A8AE0300C2AE0300D4AE0300F0AE030064
:101A90000DAF030024AF03003BAF03005CAF0300B6
:101AA0007AAF03008DAF0300A0AF0300B5AF030012
:101AB000B9AF0300CDAF0300E1AF0300F2AF030005
:101AC00004B0030042B0030016B0030031B00300BD
:101AD00058B0030070B505460E46B1B9D0F8A00065
:101AE00003F04CFB044650B11249A86803F015F905
:101AF000304601462846BDE87040FFF781BE0E49DA
:101B0000A86803F00AF92046F3E714680B49204659
:101B100037F097FF28B90121D5F8A00003F022FB88
:101B2000E7E70749204637F08CFF01460028F3D04D
:101B30000720DEE71FB1030024B103002BB103002F
:101B40002EB1030037B504466946D0F8A00003F073
:101B50008FFD0546E0B9009A1049A06803F0DDF852
:101B60009DF804200E49A06803F0D7F89DF80520E1
:101B70000C49A06803F0D1F89DF806200A49A06836
:101B800003F0CBF89DF807200849A06803F0C5F8DA
:101B900029462046FFF734FE03B030BDDFB2030014
:101BA000F2B2030009B3030002B303001CB3030045
:101BB000F0B5134685B00446C9B9D0F8A000144F5B
:101BC00003F08DFE461E00F10F0516F8012FA068E8
:101BD000394603F0A2F8AE42F7D10E49A06803F0EF
:101BE0009CF800212046FFF70BFE05B0F0BD102247
:101BF00069461868FFF7CCFD102806D16946D4F86D
:101C0000A00003F06FFE0146ECE70621EAE700BF03
:101C100006AA0300E8A90300F0B5134685B0044600
:101C2000C9B9D0F8A000144F03F0B0FC461E00F173
:101C30000F0516F8012FA068394603F06EF8AE4282
:101C4000F7D10E49A06803F068F800212046FFF79D
:101C5000D7FD05B0F0BD102269461868FFF798FD62
:101C6000102806D16946D4F8A00003F093FC014681
:101C7000ECE70621EAE700BF06AA0300E8A9030093
:101C8000F7B5002304468DF8043071BBD0F8A000EE
:101C900003F05BFC8DF80400C00703D54249A0683F
:101CA00003F03BF89DF80430990703D53F49A0683D
:101CB00003F033F89DF804305A0703D53C49A06877
:101CC00003F02BF89DF804301B0703D53949A068B1
:101CD00003F023F83849A06803F01FF800212046DC
:101CE00003B0BDE8F040FFF78BBD15689E46013D8F
:101CF00019461E4618461F469C4615F8012F6AB322
:101D00006E2A25D01AD8642A1FD0BCF1000F05D046
:101D10009DF8043043F001038DF8043028B19DF89C
:101D2000043067F341038DF8043029B19DF8043085
:101D300066F382038DF804300621D0E7722A0AD0B8
:101D4000732AE2D101200746D7E701210E46D4E7E6
:101D500001239E46D1E74FF0010CCEE7BCF1000F06
:101D600005D09DF8042042F001028DF8042028B12E
:101D70009DF8042067F341028DF8042029B19DF8F5
:101D8000042066F382028DF804202BB19DF8043004
:101D90006EF3C3038DF804309DF80410D4F8A0004E
:101DA00003F0E2FB01469AE7EBC703002CC40300F3
:101DB00034B20300F9C40300E8A903002DE9F04F91
:101DC00000238BB099420446ADF802300BDD156854
:101DD0004649284637F035FE064630B14449284684
:101DE00037F02FFE48B107217AE04249A06802F09F
:101DF00094FF4149A06802F090FFDFF81C81DFF8F2
:101E00001C91DFF81CA1D4F8A00001AF3A460DF1F7
:101E1000020103F021FC00285DD1A068002E54D1FE
:101E20009DF82430DFF8FCB013F0100F0CBF5222E5
:101E30004322494602F071FFBDF81020A0685146C8
:101E400002F06BFF039A2D49A06802F066FF9DF92E
:101E50001D202B49A06802F060FF9DF91E20294932
:101E6000A06802F05AFF9DF824202749A06802F0DC
:101E7000010202F052FF9DF824202349A068C2F31A
:101E8000400202F04AFF9DF824201F49A068C2F3D7
:101E9000800202F042FF9DF824201B49A068C2F393
:101EA000C00202F03AFF1949A06802F036FF354639
:101EB0007A5DA0685946013502F02FFF082DF7D151
:101EC0001349A06802F029FF9DE7BDF810204146A4
:101ED00002F023FF97E70F49A06802F01EFF0021E0
:101EE0002046FFF78DFC0BB0BDE8F08F33B1030047
:101EF00039B103003EB103008AB10300E8B1030029
:101F0000EFB10300F6B10300FDB10300ACB3030071
:101F100057AC0300E8A90300E0B10300D6B1030009
:101F2000DEB1030006AA030038B505460C46D0F81A
:101F3000A00069B903F056FB084903461022A868BF
:101F400002F0EBFE21462846BDE83840FFF758BCBA
:101F5000116803F04BFB0146F5E700BF45B30300F2
:101F60002DE9F04186B001AF04463946D0F8A00013
:101F700003F08AFB064650BB1849A068DFF874805E
:101F800002F0CBFE35467A5DA0684146013502F08D
:101F9000C4FE082DF7D11249A06802F0BEFEBDF8BC
:101FA0000C201049A06802F0B8FE9DF811200E49DF
:101FB000A06802F0B2FE9DF812200C49A06802F061
:101FC000ACFE9DF813200A49A06802F0A6FE314637
:101FD0002046FFF715FC06B0BDE8F081B5AB030065
:101FE000E8A90300C0AB0300CBAB0300E1AB0300E7
:101FF000F8AB030006AA030038B50446B1B9D0F81F
:10200000A00003F083F978B1D4F8A00021F044F9DE
:1020100050B11749A06802F080FE0020014620461A
:10202000BDE83840FFF7ECBB1249F3E715681249E9
:10203000284637F006FD58B91049D4F8A0002246CA
:1020400003F05FF90121D4F8A00003F066F9E5E799
:1020500028460B4937F0F5FC054638B901460246DB
:10206000D4F8A00003F04DF92946ECE70720D5E7A6
:102070004CB3030056B3030061B30300AD36000058
:1020800068B3030070B505460E46A9B9D0F8A000A4
:1020900003F081FB044650B11349A86802F03DFEED
:1020A000344621462846BDE87040FFF7A9BB0F49DA
:1020B000A86802F032FEF4E716680D49304637F0A2
:1020C000C0FC044628B90121D5F8A00003F068FB44
:1020D000E7E70849304637F0B4FC044608B9014642
:1020E000F2E70724DDE700BF4CB3030056B303005B
:1020F00061B3030068B3030038B50446F9B9D0F8FA
:10210000A00003F0B1FA042817D8DFE800F0030EAE
:10211000101214001F49A06802F0FFFD00200146C4
:102120002046BDE83840FFF76BBB1B49F3E71B496E
:10213000F1E71B49EFE71B49EDE71B49EBE71568A2
:102140001A49284637F07DFC20B9D4F8A00003F0E6
:1021500078FAE4E71649284637F073FC20B9D4F83A
:10216000A00003F073FADAE71249284637F069FC59
:1021700020B9D4F8A00003F058FBD0E70E49284658
:1021800037F05FFC20B9D4F8A00003F060FBC6E78D
:102190000720C4E741AB03004CAB030057AB03007F
:1021A0005FAB030068AB030071AB030081AB0300BE
:1021B000B4C703008AAB030091AB0300002938B514
:1021C000044617DD15680C49284637F03AFC50B92B
:1021D0000121D4F8A00003F0A8FA01462046BDE88A
:1021E0003840FFF70DBB0549284637F02AFC014669
:1021F0000028EED00720F0E7E9AC0300EFAC0300C5
:1022000010B50446943002F08BFC01462046BDE830
:102210001040FFF7F5BA10B50446583002F094FEAE
:1022200001462046BDE81040FFF7EABA10B5044663
:10223000983001F029FE01462046BDE81040FFF726
:10224000DFBA10B504469C3002F002FD014620467C
:10225000BDE81040FFF7D4BA2DE9F041084F06461B
:102260000D4690460C46631B984506DD14F8012B7D
:10227000B068394602F051FDF5E7BDE8F08100BFD6
:1022800006AA030037B505460C4699B96946D0F849
:10229000A00003F009F8082269462846FFF7DCFF92
:1022A0000549A86802F039FD21462846FFF7A8FA3B
:1022B00003B030BD0721F8E7E8A9030037B513469E
:1022C00005460C4691B9D0F8A00002F0D2FF0822D2
:1022D00001462846FFF7C0FF0C49A86802F01DFD23
:1022E00021462846FFF78CFA03B030BD0822694624
:1022F0001868FFF74DFA002801DA0621F1E7694670
:10230000D5F8A00002F0B9FF0146EAE7E8A903000A
:1023100037B5134605460C4691B9D0F8A00003F036
:10232000E4F8082201462846FFF796FF0C49A86802
:1023300002F0F3FC21462846FFF762FA03B030BDF5
:10234000082269461868FFF723FA002801DA0621F7
:10235000F1E76946D5F8A00003F0CBF80146EAE7BB
:10236000E8A9030010B5CC894B880A8886B064BA06
:10237000A4B205948C8964BAA4B204944C8964BA5A
:10238000A4B203940C8964BAA4B20294CC8864BA4F
:10239000A4B20194898849BA89B200915BBA52BA51
:1023A0009BB292B20249806802F0B7FC06B010BD41
:1023B00093B603002DE9F04704468EB00D46A9BB45
:1023C000D0F8A000DFF87C801D4F03F0DBF9AA46AF
:1023D0008146AEB24E4530D206AA3146D4F8A000AE
:1023E000ADF806A003F050FAF0B99DF83430C3F30D
:1023F0000013CBB9ADF8063002AB0DF10602314641
:10240000D4F8A00003F047FA70B9BDF82820A068FE
:10241000414602F082FC02A92046FFF7A3FF39469D
:10242000A06802F07AFCE7E70135D2E707212046F1
:10243000FFF7E6F90EB0BDE8F0870021F7E700BF2F
:10244000E8A90300F4AC030070B5104E86B0044652
:10245000002501AAE9B2D4F8A00003F039FA78B94E
:102460009DF81730DB0709D501A92046FFF77AFF51
:10247000BDF81420A068314602F04FFC0135E8E7B2
:102480002046FFF7A7F806B070BD00BF0AAB0300F7
:1024900013B500220C4601A937F09CFB019B20607C
:1024A0001B78002B14BF0620002002B010BD0000D6
:1024B00073B505460C4681B98668D0F8A00002F0D5
:1024C000B9FE0C490246304602F027FC2046014680
:1024D0002846FFF795F902B070BD01A91068FFF713
:1024E000D7FF0028F3D19DF80410D5F8A00002F022
:1024F000A5FEECE700AB03002DE9F04F00298DB0FD
:10250000044640F3138115688949284637F099FA43
:10251000074600287DD08749284637F092FA0028E0
:102520007FD0284603A9FFF7B3FF0546002840F0F7
:10253000F68004AF3A46BDF80C10D4F8A00003F0C2
:102540009CF90546002840F0EA80BDF822207A492F
:10255000A068DFF8388202F0E0FBBDF82020774960
:10256000A06802F0DAFB7649A06802F0D6FB2E469E
:10257000BA5DA0684146013602F0CFFB082EF7D1C4
:102580007049A06802F0C9FB6F49A06802F0C5FB62
:102590009DF82C30D80703D56C49A06802F0BDFB2C
:1025A0009DF82C30990703D56949A06802F0B5FB66
:1025B0009DF82C305A0703D56649A06802F0ADFBA0
:1025C0009DF82C301B0703D56349A06802F0A5FBDA
:1025D0005C49A06802F0A1FB9DF824205F49A06837
:1025E00002F09BFB069A5E49A06802F096FB079AF0
:1025F0005C49A06802F091FB9DF825205A49A0682B
:1026000002F08BFB9DF926205849A06802F085FB5B
:1026100085E05749A06802F080FB5649A06802F0A7
:102620007CFBD4F8A000DFF870A1DFF870B103F0F4
:10263000A9F800268146B1B249456BD20DF11008C8
:102640004246D4F8A00003F01FF900285CD19DF8A1
:102650002C30DD0658D4A068BDF82220002F55D1BB
:10266000514602F05AFBBDF82020A068594602F0FE
:1026700054FB069A4049A06802F04FFB079A3E4976
:10268000A06802F04AFB9DF825203C49A06802F0B2
:1026900044FB9DF824203A49A06802F03EFB9DF8D7
:1026A0002C203849A06802F0010202F036FB9DF8A8
:1026B0002C203449A068C2F3400202F02EFB9DF8A2
:1026C0002C203049A068C2F3800202F026FB9DF85E
:1026D0002C202C49A068C2F3C00202F01EFB2A493C
:1026E000A06802F01AFB294B3D4618F80520A068A7
:1026F00001931946013502F010FB082D019BF4D11E
:102700002349A06802F009FB013694E7214902F051
:1027100004FBF9E70B49A06802F0FFFA00252946FF
:102720002046FFF76DF80DB0BDE8F08F0725F6E7FE
:1027300033B1030039B10300F6AA030005AB03006F
:10274000B5AB0300E8A9030012AB0300EBC703001D
:102750002CC4030034B20300F9C4030019AB030016
:1027600028AB0300F8AB0300CBAB030036AB030090
:1027700032AA030089AA0300E0AA0300E8AA030022
:10278000EFAA0300FDB10300ACB3030006AA0300E7
:1027900057AC030098B30300E8B10300DEB10300B7
:1027A00073B505460C4681B98668D0F8A00002F0E2
:1027B000E9FF0C490246304602F0AFFA20460146D6
:1027C0002846FFF71DF802B070BD01A91068FFF799
:1027D0005FFE0028F3D1BDF80410D5F8A00002F088
:1027E000D5FFECE700AB030073B505460C4679B99D
:1027F0008668D0F8A00002F06FFE0C490246304611
:1028000002F08BFA21462846FEF7FAFF02B070BDAF
:1028100001A91068FFF73CFE04460028F2D1019997
:10282000D5F8A00002F05CFEECE700BF00AB0300AF
:1028300037B5044671B98568D0F8A00002F0D2FF20
:102840000A490246284602F068FA2046FEF7C2FE10
:1028500003B030BD01A91068FFF71AFE0028F4D1BB
:102860000199D4F8A00002F0C2FFEEE700AB03002C
:1028700010B5002986B004461FDD05A91068FFF7D2
:1028800007FEE8B9059B1F2B19D8012199400F4B72
:1028900001930023029400934FF6FF72D4F8A00036
:1028A00002F058FF60B90A49A06802F036FA0949F7
:1028B000A06802F032FA06B010BD0021E7E7072059
:1028C00001462046FEF79CFFF5E700BF6537000094
:1028D0006DB00300C6B003004B1E012B2DE9F34180
:1028E00005460F46164641D8D2F80080204940469A
:1028F00037F0A7F80446F0B9012F0AD1D5F8A000A7
:10290000AE6802F08DFE02461A49304602F005FA22
:102910000AE001A97068FFF7BBFD044620B90199E0
:10292000D5F8A00002F080FE21462846FEF768FF99
:1029300002B0BDE8F0811049404637F082F8044605
:10294000A0B9012F05D1D5F8A000AE6802F071FE44
:10295000D9E701A97068FFF79BFD04460028E3D181
:102960000199D5F8A00002F068FEDDE70724DBE757
:1029700033B3030000AB03003BB3030073B505465C
:102980000C4679B98668D0F8A00002F00EFF0C4919
:102990000246304602F0C1F921462846FEF730FFD4
:1029A00002B070BD01A91068FFF772FD044600284F
:1029B000F2D19DF80410D5F8A00002F0FAFEEBE782
:1029C00000AB030073B505460C4679B98668D0F8AC
:1029D000A00002F011FF0C490246304602F09DF9BA
:1029E00021462846FEF70CFF02B070BD01A9106811
:1029F000FFF74EFD04460028F2D19DF80410D5F8EB
:102A0000A00002F0FDFEEBE700AB030073B5054646
:102A10000C4681B98668D0F8A00002F04BFC0C4946
:102A20000246304602F079F9204601462846FEF774
:102A3000E7FE02B070BD01A91068FFF729FD00286C
:102A4000F3D1BDF80410D5F8A00002F037FCECE794
:102A500020BB030073B505460C4681B98668D0F8E3
:102A6000A00002F058FF0C490246304602F055F92A
:102A7000204601462846FEF7C3FE02B070BD01A9FC
:102A80001068FFF705FD0028F3D19DF90410D5F873
:102A9000A00002F044FFECE700AB030073B505466D
:102AA0000C4681B98668D0F8A00002F020FC0C49E1
:102AB0000246304602F031F9204601462846FEF72C
:102AC0009FFE02B070BD01A91068FFF7E1FC00286D
:102AD000F3D10199D5F8A00002F00EFCEDE700BF9C
:102AE00000AB0300002913B5044610DD01A91068EE
:102AF000FFF7CEFC28B99DF80410D4F8A00002F02E
:102B00008BFE01462046FEF77BFE02B010BD07207B
:102B1000F7E700002DE9F04F002989B0044640F3A3
:102B2000EE8015687749284636F08BFF0746002867
:102B300072D07549284636F084FF002874D02846A4
:102B400002A9FFF7A5FC0546002840F0CC8003AFA2
:102B50003A46BDF80810D4F8A00002F0B2FE0546CF
:102B6000002840F0C0809DF81C206849A06802F051
:102B7000010202F0D2F89DF81C30DA0740F1B38070
:102B80009DF816206249A06802F0C7F8BDF814202D
:102B90006049A06802F0C1F89DF817205E49A0685E
:102BA000920202F0BAF89DF81C205C49A068C2F3BA
:102BB000400202F0B2F89DF81C309B0740F1938070
:102BC0005749A068DFF8908102F0A7F82E46BA5D59
:102BD000A0684146013602F0A0F8082EF7D151490D
:102BE000A06802F09AF89DF818204F49A06802F0FA
:102BF00094F89DF819204D49A06802F08EF89DF8D0
:102C00001A204B49A06802F088F89DF81B2049491A
:102C1000A06802F082F866E04749A06802F07DF8FB
:102C20004649A06802F079F8D4F8A000DFF834A192
:102C3000DFF834B102F043FE002581460DF10C08A7
:102C4000EEB242463146D4F8A00002F03AFE002827
:102C500040D1A068002F4DD19DF81620514602F0BA
:102C60005CF8BDF81420A068594602F056F89DF8AB
:102C700017203349A06802F050F89DF81820314918
:102C8000A06802F04AF89DF819202F49A06802F0C8
:102C900044F89DF81A202D49A06802F03EF89DF8EE
:102CA0001B202B49A06802F038F82A49A06802F0DE
:102CB00034F8294B3E4618F80620A06801931946BF
:102CC000013602F02AF8082E019BF4D12349A068AE
:102CD00002F023F80135EBB29945AFD21149A06853
:102CE00002F01BF8002529462046FEF789FD09B0B1
:102CF000BDE8F08F32461A4902F00FF8EAE70725DF
:102D0000F1E700BF33B1030039B10300B6AC0300F3
:102D100023B3030005AB0300C2AC0300D3AC030034
:102D2000B5AB0300E8A90300DEAC0300CBAB0300A6
:102D3000E1AB0300F8AB030009AC03005CAC03009B
:102D4000EFB10300F6B10300E8AA0300AFAC030043
:102D5000E8B10300ACB3030006AA030057AC0300BC
:102D600098B30300B0B30300DEB1030073B50546AA
:102D70000C4679B98668D0F8A00002F06DFD0C49C8
:102D80000246304601F0C9FF21462846FEF738FDCD
:102D900002B070BD01A91068FFF77AFB0446002855
:102DA000F2D19DF80410D5F8A00002F059FDEBE730
:102DB00000AB030073B505460C4679B98668D0F8B8
:102DC000A00002F051FD0F490246304601F0A5FF78
:102DD00021462846FEF714FD02B070BD01A9106817
:102DE000FFF756FB04460028F2D101994B1EFE2B3B
:102DF00005D8C9B2D5F8A00002F03AFDE8E70724EB
:102E0000E6E700BF00AB030073B505460C4679B991
:102E10008668D0F8A00002F0F7FC0C490246304664
:102E200001F07BFF21462846FEF7EAFC02B070BDA8
:102E300001A91068FFF72CFB04460028F2D19DF889
:102E40000410D5F8A00002F0E3FCEBE700AB0300B0
:102E5000F0B50F1E85B00446164644DD15682349BB
:102E6000284636F0EEFDD0B9012F3AD003A970689C
:102E7000FFF70EFB78BBBDF80C501D49A06801F0B0
:102E80004CFF1C49A06801F048FF00941A4BD4F88D
:102E9000A0002A46002102F075FA00B31BE003A946
:102EA0002846FFF7F5FAB0B9039B1F2B12D801256E
:102EB0009D401249A06801F030FF1149A06801F05F
:102EC0002CFF00940F4BD4F8A0000022294602F0FA
:102ED00045FAE2E7072001462046FEF791FC05B0DF
:102EE000F0BD0546C9E70025E3E700BF0BAA0300D4
:102EF00012AA030022AA0300913700006DB003005C
:102F0000C6B003006537000037B5054691B901A981
:102F1000D0F8A00020F022FA044628B99DF9042038
:102F20000C49A86801F0F9FE21462846FEF768FC26
:102F300003B030BD01A91068FFF7AAFA04460028C3
:102F4000F2D19DF90410D5F8A00020F011FA044642
:102F5000EAE700BFFBAC030073B505460C4681B938
:102F60008668D0F8A00002F030FC0C4902463046DA
:102F700001F0D3FE204601462846FEF741FC02B090
:102F800070BD01A91068FFF783FA0028F3D1BDF8DE
:102F90000410D5F8A00002F01DFCECE700AB030024
:102FA0002DE9F04702298AB005460E4690463DDDE0
:102FB00001A9506802F017F9002838D108F1040976
:102FC000023E04460DF1140AB442E7B20DD0132CB0
:102FD0000AD0694659F8040FFFF75AFA38BB009B2C
:102FE00004F80A300134EFE72746D8F800401249C8
:102FF000204636F026FD48B93B4605AA01A9D5F87A
:10300000A00002F088FB0AB0BDE8F0870B4920461B
:1030100036F017FD50B93B4605AA01A9D5F8A00026
:1030200002F07EFB2846FEF7D5FAECE707200146C2
:103030002846FEF7E5FBE6E711BA03004AB70300AE
:1030400013B500220C4601A936F054FE019B206006
:103050001B78002B14BF0620002002B010BD00001A
:1030600073B505460C4699B98668D0F8A00002F001
:1030700054F84FF47A721049B0FBF2F2304601F086
:103080004CFE204601462846FEF7BAFB02B070BD52
:1030900001290ED101A91068FFF7D2FF0028F1D154
:1030A000019BD5F8A0004FF47A71594302F03AF829
:1030B000E8E70720E6E700BF00AB030073B505466D
:1030C0000C4679B98668D0F8A00002F076FB0C496E
:1030D0000246304601F021FE21462846FEF790FBCD
:1030E00002B070BD01A91068FFF7AAFF04460028CE
:1030F000F2D10199D5F8A00002F063FBECE700BF24
:10310000EDB20300002330B5136001394FF47A7338
:103110000A2411F8010FE8B1A0F13005092D11D8EA
:10312000B3F57A7F02BF10686043106008781568B5
:10313000303803FB0050B3F57A7F1060E9D0B3FB61
:10314000F4F3E6E72E2804D1B3F57A7F01D16423A6
:10315000DFE7062030BD10B5002986B0044614DD37
:103160006946106802F03FF868B940238DF81030C6
:103170009DF81130D4F8A00043F0030369468DF8A0
:10318000113002F003F806B010BD0720FBE700295C
:103190001FB504460BDD6946106802F024F820B91B
:1031A0006946D4F8A00001F0F6FF04B010BD072076
:1031B000FBE70000F8B5054617460C4681B9D0F884
:1031C000A0002B4E01F0DEFF0446BCB3214628468A
:1031D000FFF7C8F83146A86801F09FFD6469F4E77D
:1031E00016682449304636F02CFC50B93A1D611E51
:1031F0002846FFF7B0FF01462846BDE8F840FEF735
:10320000FFBA1D49304636F01CFC28B93A1D611E34
:103210002846FFF7BCFFEEE71849304636F011FCB0
:10322000044668B9D5F8A00002F0D8F9014628464E
:10323000FFF798F80E49A86801F06FFD2046DAE71D
:103240000F49304636F0FDFB044620B9D5F8A00002
:1032500002F0BCF9EAE70B49304636F0F2FB0446CF
:1032600020B9D5F8A00002F0B5F9DFE70720C2E7E2
:10327000E8A9030098AB03009CAB0300A0AB0300DC
:10328000AAAB0300AFAB030000291FB504460BDD5A
:103290006946106801F0A7FF20B96946D4F8A0007C
:1032A00001F082FF04B010BD0720FBE700291FB525
:1032B00004460BDD6946106801F095FF20B96946A8
:1032C000D4F8A00001F075FF04B010BD0720FBE7A3
:1032D00070B505460E4689B9D0F8A00001F06EFF22
:1032E000044630B11149A86801F017FD3446204664
:1032F00070BD0F49A86801F010FDF8E716680D4988
:10330000304636F09EFB044628B90121D5F8A000CE
:1033100001F058FFEBE70849304636F092FB0446CF
:1033200008B90146F2E70724E1E700BF4CB3030008
:1033300056B3030061B3030068B30300F8B5054654
:1033400016460C4681B9D0F8A0001D4E01F028FFAA
:10335000044684B321462846FFF704F83146A8689E
:1033600001F0DBFC2469F4E717681649384636F0AB
:1033700068FB50B9321D611E2846FFF785FF0146E4
:103380002846BDE8F840FEF73BBA0F49384636F00C
:1033900058FB28B9321D611E2846FFF787FFEEE76C
:1033A0000A49384636F04DFB38B9321D611E2846B1
:1033B000FFF78EFFE3E72046E1E70720DFE700BFE6
:1033C000E8A9030098AB03009CAB0300D1B3030052
:1033D000F7B51F46002301933B78812B04460D4629
:1033E00016462DD18B8B4A8B80681649D21A08322B
:1033F00001F093FC06F110012046FEF7B3FFFA88B6
:1034000096F828301049A06852BA92B201F085FCB3
:1034100001AB0422A98B284602F063FC03280BD9D8
:103420000198A568FEF77AF906461FF0FEFB0749EA
:10343000821B284601F071FC0549A06801F06DFC73
:1034400003B0F0BD11B2030020B2030036B2030096
:10345000E8A90300FFF7BCBF37B504461FF0E5FB42
:10346000FEF75CF900210190D4F8A00001F0AEFE57
:10347000054698B104220DEB020101F09FFFE8B967
:10348000218F284601F096FFC0B9012304F10C02F8
:103490002946D4F8A00001F04FFE78B9638F013BB4
:1034A0009BB2638743B1E56B1FF0BFFB2A46014621
:1034B00004F1400003F026FA03B030BD284601F0C5
:1034C00075FFEBE72DE9F3410F1E0546164656DD65
:1034D000D2F800802B49404636F0B3FA05F140039C
:1034E000AA6C044650B9934245D0184603F0D4F96B
:1034F000204601462846FEF783F939E093423CD145
:10350000414605F11C000BF0D8FB0028F1D11E4A02
:103510004FF47A73C5E90E230124BC4225DA022C4C
:103520000ED0032C15D0012C29D169467068FEF706
:10353000AFFF0028DDD1009B2B870134E4B2ECE71C
:103540006946B068FEF7A4FF0028D2D1009B6B87C4
:10355000F3E701AAF1682846FFF7D4FD0028C8D197
:10356000019B002B0BDDEB63E7E72846FFF774FFB9
:1035700002B0BDE8F0810D20BBE70520B9E70720C8
:10358000B7E700BFEFAC030008000100024B18686A
:103590000430FFF761BF00BF780D00202DE9F84F20
:1035A00004460E4680683649364F01F0B6FB2C259E
:1035B0003946A06801F0B1FB013DF9D1B28832492A
:1035C000A068304F01F0A9FB1C253946A06801F026
:1035D000A4FB013DF9D12A49A068DFF8C08001F0C1
:1035E0009CFBB388A068AB423CD9414601F095FBF7
:1035F0000027B288A068EB19934229D23268234988
:10360000D25C01F08AFB0137102FF2D14146A0684D
:10361000DFF88C90DFF88CA0DFF88CB001F07DFB38
:103620000027B288A068EB19934219D23268D25CA5
:10363000A2F120035E2B0FD8594601F06EFB013733
:10364000102FEED11249A06801F067FB1035C8E7D2
:10365000104901F062FBD6E7514601F05EFBEEE750
:103660004946FAE70C4E53253146A06801F055FB58
:10367000013DF9D1A0680249BDE8F84F01F04DBB0A
:10368000E8A9030070B3030072B3030080B3030022
:1036900058AC030086B3030094B303007EB3030069
:1036A00091B303008EB303008AB3030013460A46A6
:1036B00001461846FFF772BF38B504460D468068CC
:1036C00021B91F49BDE8384001F027BB91F83920E6
:1036D0001C49C2F3401201F020FB05F108021A490F
:1036E000A06801F01AFB1949A06801F016FB082236
:1036F00005F119012046FEF7AFFD1549A06801F05C
:103700000CFB6A8E1349A06801F007FB294620468E
:103710000822FEF7A1FD95F836200F49A06801F0B8
:10372000FCFA95F937200D49A06801F0F6FA95F8F2
:103730003820A0680A49BDE8384001F0EEBA00BF61
:1037400002AC030096B303009CB30300ACB30300C8
:10375000DCB10300A5B30300AFB30300E8B103007D
:10376000B7B303000B4601461846FFF7A5BF00009C
:10377000806811B9044901F0D0BA91F901300A7892
:10378000024901F0CABA00BF02AC0300C1B3030092
:103790000B4601461846FFF7EBBF00002DE9F04746
:1037A000A2B004460D4616460021802202A81F46FC
:1037B00035F059FD00238DF80730A76095B1711CD5
:1037C000284636F07FF9B0420CD8202302AA0DF12A
:1037D000070128461AF03CFB38B120222649A06890
:1037E00001F09BFA22B0BDE8F0879DF8077027B979
:1037F0002249A06801F091FAF4E7DDF80880204E34
:1038000005464FF00C0A0AFB05F9404659F8061028
:1038100036F017F978B94E44B16873684A10C90791
:1038200004EB020048BFA25807F1FF3148BFD3584C
:1038300003AA9847D6E70135372DE4D194F804A0C0
:103840000025EEB2B2450FD92368404653F8351033
:1038500003EBC50936F0F5F801350028F1D1D9F8A8
:10386000043003A9781E98472379B342BAD10621C0
:103870002046FDF7C5FFB5E7CBA90300EBA9030080
:10388000F0B303002DE9FF414C8B8B8B07460E46AE
:1038900080681349E41A01F040FAA4B20025C4B1CB
:1038A000B18B102CA046294428BF4FF010086B465E
:1038B000424689B2304602F014FAA4EB08045FFADB
:1038C00088F2694638464544FEF7C6FCA4B2ADB25C
:1038D000E5E70449B86801F020FA04B0BDE8F081DA
:1038E000DDB30300E8A9030013460A460146184663
:1038F000FFF7C8BF2DE9F041094E0A4D07460024E5
:103900004FF00C0808FB04F23B689259986829466E
:10391000013401F002FA0B2CF4D10020BDE8F08153
:1039200080B903008EB603002DE9F04FDFF8E4A064
:10393000DFF8E4B08BB081460F46904601250024A5
:10394000BD4250DA1F2C5BDC58F825602E4930460A
:1039500036F077F848B90AAB661C1C44092304F812
:10396000203C0135EDB23446EAE75146304636F0A8
:1039700068F820B90AAB661C1C440B23EFE75946D4
:10398000304636F05EF820B90AAB661C1C440823AA
:10399000E5E71E49304636F054F820B90AAB661CFC
:1039A0001C441223DBE71A49304636F04AF828BB9C
:1039B0000135EDB2BD4221DA58F8253001931846A1
:1039C00036F066F801304610C4F12002B24217D337
:1039D00002AB1919019BB2B21846FDF7D9FE0028B7
:1039E00010DB2644BDE7D9F80030E2B202A9D3F8D3
:1039F000A00001F04EFB0BB0BDE8F08F0720FAE706
:103A00000320F8E70620F6E7C2B80300E1B8030098
:103A1000EFB80300CAB80300D4B803000368012953
:103A2000D3F8A000CCBF5168002101F018BB000002
:103A300010B50368D3F8A0009C6801F034FB03497B
:103A40000246204601F069F9002010BD00AB0300DA
:103A500003460068024A0349D0F8A00001F0EABA20
:103A60007D3E0000F93D00000368D3F8A00001F09E
:103A7000E6BA70B504298AB00646144621DD03A9CA
:103A80005068FEF705FDD0B904A9A068FEF700FD57
:103A9000A8B905A9E068FEF7FBFC80B906AD294688
:103AA000206901F0A0FB50B930680095BDF81430D2
:103AB0009DF810200399D0F8A00001F0D5FA0AB0C3
:103AC00070BD0720FBE7000070B505298CB00646E5
:103AD00014462CDD04A95068FEF7DAFC28BB05A9C2
:103AE000A068FEF7D5FC00BB06A9E068FEF7D0FC95
:103AF000D8B907A92069FEF7CBFCB0B908AD2946B3
:103B0000606901F070FB80B90A4930680396CDE91D
:103B10000151BDF81C100091BDF818309DF814201B
:103B20000499D0F8A00001F0A4FA0CB070BD0720F1
:103B3000FBE700BF353F000002292DE9FF41804629
:103B40000D4617463EDD94681F49204635F079FF43
:103B500000B308220DEB02012046FDF719FE0828EC
:103B60002ED102AC7E681949304635F06AFFD0B9D3
:103B7000032D27D07823042D01930DD1D8F8000010
:103B8000019BFA68D0F8A000214601F05DFA04B06C
:103B9000BDE8F0810446E5E701A93869FFF750FA6E
:103BA0000028EBD0F3E70A49304635F04AFF48B920
:103BB000D8F800302146D3F8A00001F04AFAE6E731
:103BC0000620E4E70720E2E7B9B8030098AB03005A
:103BD000BBB803002DE9F04F0E1E91B08246174688
:103BE00040F3B1801A22002101A835F03CFBDFF838
:103BF0006CB101240025A64240F39B801F2D03DDFC
:103C0000032011B0BDE8F08F57F824804F4940469B
:103C100035F017FFB8B9631CDBB29E4240F39380C6
:103C20009DF81C2057F8230042F0010269468DF8E8
:103C30001C20FEF72DFC0028E3D1009BADF80430DA
:103C40000234E4B2D7E74249404635F0FAFEA0B963
:103C5000631CDBB29E4276DD9DF81C2057F82300E2
:103C600042F0020269468DF81C20FEF711FC002884
:103C7000C7D1009BADF80630E2E75946404635F023
:103C8000E0FE814600BB631CDBB29E425BDD9DF81B
:103C90001C2057F8238042F0040240468DF81C2077
:103CA00035F0F6FE01304508102DA9D8AAB20DF165
:103CB00009014046FDF76CFD002801DA0620A0E767
:103CC0008DF808504D46BBE72249404635F0B9FE15
:103CD000A0B9631CDBB29E4235DD9DF81C2057F86D
:103CE000230042F0080269468DF81C20FEF7D0FB45
:103CF000002886D1009BADF81A30A1E7164940464E
:103D000035F09FFEF8B9631CDBB29E421BDD57F80D
:103D10002380404635F0BCFE01304508202D3FF69B
:103D20006FAFAAB208A94046FDF732FD002887DA36
:103D3000C4E7DAF80000EBB208AA01A9D0F8A000A5
:103D400001F0ACF95DE707205BE700BFC2B80300F4
:103D5000CAB80300E1B80300EFB80300D4B8030009
:103D600030B5032989B0054614461CDD02A9506808
:103D7000FEF78EFBA8B903A9A068FEF789FB80B9FE
:103D800004A9E06801F02FFA58B9084B286800939D
:103D90000195BDF80810039AD0F8A00004AB01F01B
:103DA00073F909B030BD0720FBE700BF5D3F00009D
:103DB00038B503680D4604460B49986800F0ADFF1E
:103DC000012D0AD002D3022D0AD038BD236807493D
:103DD0009868BDE8384000F0A0BF23680449F7E7C1
:103DE00023680449F4E700BF41B9030041AB030075
:103DF00050B903005EB903000B4601461846FFF7B1
:103E0000D7BF000070B503680D4604461449986892
:103E1000164600F082FF042D09D8DFE805F00314F0
:103E2000171A1D0023680F49986800F076FF314685
:103E300020680822FEF710FA23680B499868BDE84D
:103E4000704000F06ABF23680849EDE7236808491D
:103E5000EAE723680749E7E723680749E4E700BF83
:103E6000F6B803000CB90300E8A9030013B9030076
:103E70001CB9030026B903002BB9030013460A46F8
:103E800001461846FFF7BEBF2DE9F14FB1F100081A
:103E90000646174607DC00221146FFF72BFD0720D8
:103EA00001B0BDE8F08FD2F800A0104C00254FF013
:103EB0000C0B0BFB05F9504659F8041035F0C1FD09
:103EC00078B94C44A16863684A10C90706EB020040
:103ED00044BFB258D35841463A4601B0BDE8F04F0E
:103EE000184701350B2DE4D1D9E700BF80B9030095
:103EF000F8B51D4603680C4F144606460A469868F6
:103F00000A4900F00AFF013C25443368AC42986836
:103F100005D014F9012F394600F0FFFEF5E70449FA
:103F2000BDE8F84000F0F9BE98B3030033B90300D0
:103F3000E8A9030010B41C4613460A460146204671
:103F40005DF8044BFFF7D4BF0068134680680A464B
:103F5000014900F0E2BE00BF67B9030013460A46FC
:103F600001461846FFF7F0BF2DE9F041094E0A4D12
:103F7000074600244FF00C0808FB04F23B689259F6
:103F800098682946013400F0C8FE142CF4D10020B2
:103F9000BDE8F08148BB03008EB6030008B5682277
:103FA0000021024835F05FF9002008BD100D002007
:103FB000002970B519DD1668304635F069FD441CDE
:103FC0006408A2B2102A12D80B4DA91A5C313046EF
:103FD0001446FDF7DDFBA0420BD195F8653043F0A8
:103FE000020385F86530002070BD0720FCE7032040
:103FF000FAE70620F8E700BF100D0020002970B591
:1040000015461ADD106835F043FD1028064616D80F
:104010000C4C1122002104F1200035F024F9324625
:10402000296804F1200035F0FAF894F8643043F080
:10403000080384F86430002070BD0720FCE70620E8
:10404000FAE700BF100D0020002938B5044627DD2F
:1040500015681449284635F0F4FC38B9236812492C
:10406000D3F8A000BDE8384001F022B80F49284637
:1040700035F0E7FC38B923680B49D3F8A000BDE858
:10408000384001F023B80A49284635F0DAFC38B93F
:1040900023680549D3F8A000BDE8384001F038B8DE
:1040A000072038BDCBEA0300100D00202DBA030015
:1040B00035BA0300002937B511DD01A91068FEF7F4
:1040C000E7F950B9074B019C93F86420E517C3E961
:1040D000004542F0010283F8642003B030BD0720A0
:1040E000FBE700BF100D0020002907B511DD01A975
:1040F0001068FEF7CDF948B9074B019AA3F84A209A
:1041000093F8652042F0010283F8652003B05DF862
:1041100004FB0720FAE700BF100D0020002907B5B7
:1041200010DD01A91068FEF7B3F940B9064B019AFA
:104130001A6693F8652042F0080283F8652003B000
:104140005DF804FB0720FAE7100D0020002907B5F1
:1041500010DD01A91068FEF79BF940B9064B019AE2
:104160005A6493F8642042F0400283F8642003B05C
:104170005DF804FB0720FAE7100D0020002907B5C1
:1041800011DD01A91068FEF783F948B9074B019AC0
:10419000A3F8482093F8642042F0800283F864205A
:1041A00003B05DF804FB0720FAE700BF100D002004
:1041B000002937B511DD01A91068FEF769F950B97A
:1041C000074B019C93F86420E517C3E9024542F0D0
:1041D000020283F8642003B030BD0720FBE700BF74
:1041E000100D002037B50D1E144641DD01A91068E1
:1041F000FEF74EF9D0BB1F4B019AA3F85C20012DAE
:1042000083F85E002CD06168013911F8012F3AB3B0
:104210006E2A16D005D8622A1DD0632A16D0062031
:1042200024E06F2A06D0722AF9D193F85E2042F07A
:10423000200203E093F85E2062F07F0283F85E20A4
:10424000E3E793F85E2042F04002F7E793F85E2040
:1042500042F01002F2E793F85E2042F00802EDE728
:1042600093F8652042F0040283F8652003B030BD66
:104270000720FBE7100D0020002938B504461ADDA1
:1042800015680E49284635F0DCFB38B923680C491F
:10429000D3F8A000BDE8384000F011BF0949284616
:1042A00035F0CFFB38B923680549D3F8A000BDE845
:1042B000384000F012BF072038BD00BFCBEA030032
:1042C000100D00202DBA0300002907B5134619DD93
:1042D000082269461868FDF75BFA002810DB0A4AD5
:1042E0006B4603CB92F86430C2F8310043F0100300
:1042F000C2F8351082F86430002003B05DF804FB8A
:104300000620FAE70720F8E7100D002000297FB506
:10431000134619DD6C46102221461868FDF738FA5D
:1043200010280FD194E80F00084E06F1100585E81B
:104330000F0096F8643043F0040386F864300020E0
:1043400004B070BD0620FBE70720F9E7100D002040
:1043500000291FB515DD6946106800F044FF0446CA
:1043600060B9094A6B4603CB92F86430C2F8390051
:1043700043F02003C2F83D1082F86430204604B0B8
:1043800010BD0724FAE700BF100D00202DE9F04F03
:104390000E1EC3B08146154640F36E81682200218F
:1043A00008A834F060FFDFF804B301244FF00008E0
:1043B000A64240F33C8155F82470B049384635F0A8
:1043C00040FBC8B9631CDBB29E4240F355819DF8A7
:1043D000842055F8230042F0010203A98DF88420BF
:1043E000FEF756F8002840F03281039AD317CDE942
:1043F00008230234E4B2DBE7A149384635F021FB5B
:10440000B8B9631CDBB29E4240F336819DF884202C
:1044100055F8230042F0020203A98DF88420FEF72C
:1044200037F8002840F01381039AD317CDE90A2307
:10443000DFE75946384635F004FB0190B0B9601CFF
:10444000C0B2864240F318819DF8842055F82000C0
:1044500042F004028DF884200CA91022FDF798F98F
:104460001028019B00F0E1800620F0E085493846E5
:1044700035F0E7FA8246F0B9621CD2B2964240F3B8
:10448000FB809DF8841055F8227041F008013846F1
:104490008DF8841035F0FCFA10288046E4D81122FB
:1044A000514610A834F0DFFE4246394610A834F0D9
:1044B000B6FED0469DE77449384635F0C2FAA0B939
:1044C000631CDBB29E4240F3D7809DF8842055F8F0
:1044D000230042F010028DF884200DF151010822D2
:1044E000FDF756F9002884DABEE76849384635F00A
:1044F000A8FAC8B9631CDBB29E4240F3BD809DF8A8
:10450000842055F8230042F0200204A98DF884206D
:1045100000F069FE002840F09A8004AB03CBCDF890
:104520005900CDF85D1064E75949384635F089FAED
:10453000A0B9631CDBB29E4240F39E809DF88420AC
:1045400055F8230042F0400203A98DF88420FDF7BE
:104550009FFF00287BD1039B19934AE74D493846BA
:1045600035F06FFAA8B9631CDBB29E4240F3848039
:104570009DF8842055F8230042F0800203A98DF8AD
:104580008420FDF785FF002861D1039BADF86830DA
:104590002FE74149384635F054FAA0B9631CDBB225
:1045A0009E4269DD9DF8852055F8230042F0010206
:1045B00003A98DF88520FDF76BFF002847D1039BE9
:1045C000ADF86A3015E73549384635F03AFA90B912
:1045D000631CDBB29E424FDD9DF8852055F8230019
:1045E00042F0080203A98DF88520FDF751FF70BB4A
:1045F000039B2093FDE62A49384635F022FA00282D
:104600003AD1631CDBB29E4236DD55F82370384642
:1046100035F03EFA01304FEA5008B8F1800F29D842
:104620001FFA88F222A938465AE79846E1E62C6834
:104630001C49204635F005FA60B9D9F800005FFA48
:1046400088F322AA08A9D0F8A00000F052FD43B0D8
:10465000BDE8F08F1449204635F0F3F960B9D9F878
:1046600000005FFA88F322AA08A9D0F8A00000F0A1
:104670004AFDECE70320EAE70720E8E741BA030038
:1046800051BA0300F0B703003AB703004EBC030071
:1046900062BA03003DB70300B6B603006DBA03006B
:1046A000EFB80300CBEA03002DBA0300B5B703004F
:1046B0002DE9F04FB1F1000993B08246904640F3E6
:1046C000CD800025DFF8C8B1ADF8145001242E4686
:1046D000A14540F397801F2E00F3BC8058F824704A
:1046E0005F49384635F0ADF940B99DF8143043F0D4
:1046F00001038DF814300134E4B2E9E75949384632
:1047000035F09FF920B99DF8143043F00203F0E72B
:104710005946384635F095F920B99DF8143043F0E4
:104720000403E6E75049384635F08BF920B99DF887
:10473000143043F00803DCE74C49384635F081F982
:1047400020B99DF8143043F01003D2E748493846A9
:1047500035F077F920B99DF8143043F02003C8E70D
:104760004449384635F06DF920B99DF8143043F0CE
:104770004003BEE74049384635F063F920B99DF85B
:10478000143043F08003B4E73C49384635F059F91A
:1047900030B99DF8153043F001038DF81530AAE7C4
:1047A0003749384635F04DF9D0B90134E4B2A14566
:1047B00054DD58F824300393184635F069F9013078
:1047C0004710C6F12002BA4244D30AAB9919039BA1
:1047D000BAB21846FCF7DCFF00283DDB3E448AE70E
:1047E0002849384635F02DF9002837D10134E4B294
:1047F000A14533DD06A958F8240000F0F4FCA0B967
:10480000012578E7D8F800401F49204635F019F90E
:1048100070B9DAF80030D3F8A000F3B205B106ADF4
:1048200000950AAA05A900F05FFC13B0BDE8F08F5F
:104830001649204635F005F980B9DAF80030D3F88A
:10484000A000F3B205B106AD00950AAA05A900F0D3
:1048500055FCEAE70320E8E70620E6E70720E4E75F
:1048600041BA030051BA0300F0B703003AB703009E
:104870004EBC030062BA03003DB70300B6B60300A6
:10488000EFB8030039BA0300CBEA03002DBA0300E6
:10489000B5B703002DE9F041084E07460D46904696
:1048A0000C46631B984507DD3B6814F8012B98689C
:1048B000314600F032FAF4E7BDE8F08106AA0300C1
:1048C00037B591F864300C469907054606D500685F
:1048D00070498068D4E9022300F01FFA94F864302C
:1048E000DA0706D528686C498068D4E9002300F00F
:1048F00014FA94F86530DB0706D52B68B4F84A2023
:104900006649986800F009FA94F86530180705D5EB
:104910002B68226E6249986800F0FFF994F86430C1
:10492000590605D52B68626C5E49986800F0F5F968
:1049300094F86430DA060FD52B685B49986800F06C
:10494000ECF904F1310128460822FFF7A3FF2B6898
:104950005649986800F0E1F994F864309B0616D542
:10496000B4F83F10B4F83B30B4F83920286849BA9D
:1049700089B20191B4F83D1049BA89B200915BBA8D
:1049800052BA9BB292B24A49806800F0C6F994F8D4
:10499000643058070ED52B684649986800F0BDF979
:1049A0001022A1182846FFF775FF2B683F49986829
:1049B00000F0B3F994F8643019070CD52B683E4920
:1049C000986800F0AAF928683C49806804F120033F
:1049D000112200F0A2F994F86430DB0906D02B68AC
:1049E000B4F848203649986800F097F994F8653093
:1049F0009A070FD52B683349986800F08EF904F1B7
:104A00004C0128461022FFF745FF2B68274998687C
:104A100000F083F994F865305B0738D52B68B4F85B
:104A20005C209868284900F078F994F95E30002BF2
:104A300004DA2B682549986800F06FF994F85E3025
:104A4000580604D52B682249986800F066F994F856
:104A50005E30990604D52B681E49986800F05DF910
:104A600094F85E30DA0604D52B681B49986800F08C
:104A700054F994F85E301B0704D52B6817499868E1
:104A800000F04BF92B680949986800F046F90020BE
:104A900003B030BD79BA030092BA030029AE030017
:104AA000AABA0300BFBA0300CBBA0300E8A9030007
:104AB000D8BA0300FCBA030009BB030045B30300E6
:104AC00018BB030029BB030030BB0300B4B60300CE
:104AD000F9C40300EBC703008CB30300B0C30300A9
:104AE00010B503689AB004466946D3F8A00000F0F8
:104AF000DFFA18B969462046FFF7E2FE1AB010BD8A
:104B000010B503689AB004466946D3F8A00000F0D7
:104B1000DDFA18B969462046FFF7D2FE1AB010BD7B
:104B20002DE9F14F064690460F4629B9154901B0C7
:104B3000BDE8F04FFFF7C4BED2F800A0124C00252C
:104B40004FF00C0B0BFB05F9504659F8041034F0EC
:104B500078FF80B94C44A16863684A10C90706EB26
:104B6000020044BFB258D358791E08F1040201B0C4
:104B7000BDE8F04F18470135142DE3D1062001B0F0
:104B8000BDE8F08F100D002048BB03002DE9F04177
:104B9000094E0A4D074600244FF00C0808FB04F2AA
:104BA0003B68925998682946013400F0B6F8042C05
:104BB000F4D10020BDE8F081D8BC03008EB603001C
:104BC00013B5036804466946D3F8A00000F01AFB49
:104BD000082269462068FDF73FFB2368034998686F
:104BE00000F09BF8002002B010BD00BFE8A9030050
:104BF00030B5012987B0144617DD02290C4B056832
:104C000018BF926803934FF000030293094B01937E
:104C1000094B0093049008BF0022084B6168D5F847
:104C2000A00000F0E5FA07B030BD0720FBE700BFA9
:104C3000E94C000092BC0300ABBC030087BC03003E
:104C400008B50368D3F8A00000F0D7FA002008BD2B
:104C50002DE9F14FB1F100080646174607DC0022A6
:104C60001146FFF793FF072001B0BDE8F08FD2F89F
:104C700000A0104C00254FF00C0B0BFB05F9504623
:104C800059F8041034F0DDFE78B94C44A16863682B
:104C90004A10C90706EB020044BFB258D358414638
:104CA0003A4601B0BDE8F04F18470135042DE4D174
:104CB000D9E700BFD8BC030010B503689C6829B9C8
:104CC00020460749BDE8104000F027B8084600F02C
:104CD00009FF044902462046BDE8104000F01DB817
:104CE000B4BC0300C3BC03000B4601461846FFF7E3
:104CF000E3BF10B5A0B00446134668460A468021BB
:104D000035F03AF8684634F0C3FE236882B21B6877
:104D100069462046984720B010BD0EB403B503AADB
:104D200052F8041B0192FFF7E4FF02B05DF804EBB8
:104D300003B070472DE9F041094E0A4D07460024A3
:104D40004FF00C0808FB04F23B689259986829461A
:104D50000134FFF7E2FF062CF4D10020BDE8F0811A
:104D60001CBD03008EB60300043000F0FCBD000043
:104D700003460068024AD0F8A000191D00F0E1BD0A
:104D80003150000030B5022987B00546144617D1CE
:104D90000021142201A834F066FA01A9206800F06D
:104DA00022FA58B969466068FDF772FB30B9009B7A
:104DB000ADF8143001A9281D00F0D7FD07B030BDB3
:104DC0000720FBE730B5022987B00546144617D106
:104DD0000021142201A834F046FA01A9206800F04D
:104DE00002FA58B969466068FDF752FB30B9009B7A
:104DF000ADF8143001A9281D00F0B9FD07B030BD91
:104E00000720FBE710B53822044640F8041B0021B8
:104E100034F029FA204610BD2DE9F34102AD3023CC
:104E200005F8013D0E46174600244FF06108BC42CC
:104E300019D001222946304600F0C0FAA0B99DF8E9
:104E400007300133DBB25B2B07D07B2B09D03A2B29
:104E500008BF41238DF8073001E08DF80780013449
:104E6000E5E73023F6E7002002B0BDE8F08100005E
:104E70002DE9F04300258FB00C4681469046294627
:104E80002C2203A8019534F0EEF9012C49D0032C13
:104E900045D0042C52D12B49D8F8000034F0D1FD74
:104EA00000284BD101A9D8F80400FEF7C9F8044640
:104EB00088BB0125022607A958F8260000F093F9BF
:104EC000B700044638BB474402A97868FDF7E0FA0A
:104ED000044600BB029BADF82E300236D9F80030F4
:104EE0000021D3F8A00000F01FFD074640B3D5B164
:104EF0000146BDF804204846FFF78EFF044638B946
:104F000003AA394609F1040000F033FD044610B14C
:104F1000384600F04BFA20460FB0BDE8F0832E462D
:104F2000C9E72E46DAE758F82640204634F0B0FDAF
:104F3000214682B2384600F041FADFE70724EAE76B
:104F40000324E8E708BD03002DE9F14FB1F10008A3
:104F50000646174607DC00221146FFF7EBFE072046
:104F600001B0BDE8F08FD2F800A0114D00244FF041
:104F70000C0B0BFB04F9504659F8051034F061FD99
:104F800080B94D44A9686B684A10C90706EB020056
:104F900044BFB258D35808F1FF313A1D01B0BDE803
:104FA000F04F18470134062CE3D12046D8E700BF64
:104FB0001CBD03002DE9F0410368ADF5BC6D04464E
:104FC00008460D469F68164600F0F2F980462846CE
:104FD00000F0F2F91349A8EB00023846FFF79DFEF6
:104FE00006F110012068FDF7BDF92368728C0E49A7
:104FF0009868FFF792FE284600F0DEF901AE3246CF
:10500000014640F2DB53284600F0DAF9002333541E
:105010002368064998683246FFF77FFE0DF5BC6DA0
:10502000BDE8F0810BBD030097B303008EB603000B
:10503000FFF7C0BF00F532406C3004F0BFBC00F594
:1050400032406C3004F0DCBD00F532406C3004F0CE
:10505000F4BB00F5324000226C3004F069BB00F56F
:1050600032406C3004F087B900F53340283003F04B
:10507000D5BF10B400F53340BDF8044001942C3086
:105080005DF8044B07F04EB800F53340443008F0AB
:10509000EBBC00F532406C3004F0B6B900F532409C
:1050A0006C3004F013BA00F532406C3004F081B972
:1050B00001B9FEE700F51240C83005F007B901B9A3
:1050C000FEE700F51240C43005F044BA01B9FEE72E
:1050D00000F513401C3005F0F9B801B9FEE700F502
:1050E0001340183005F086BF00F51240C43005F0BB
:1050F000B1BD00F51240C43005F0DEBB00F5134031
:10510000183005F0A7BD00F51340183005F0D4BBEA
:1051100000F51240C43005F0F9BF00F53640F43018
:1051200008F0F4B900F53640F43008F0E5B900F5C0
:105130001040803008F0CEBD00F51040803008F0FF
:10514000D7BD00F06FBC4BF61853C05C704700F041
:1051500079BC00F053BC00F095BC000000487047DB
:1051600081BD030000F5114008B5383019B118F0C1
:105170000FFB002008BD18F03BFBFAE74BF2682359
:10518000C05C704749F23813C058704700F51140B1
:1051900038300AF0F3BA00F5114038300AF034BB69
:1051A00049F23C13C058704700F5114038300AF0FE
:1051B0002DBA00F5114038300AF05ABA49F24013BE
:1051C000C05C704749F24013C15470470A4611B1A0
:1051D0004B78022B05D800F5104000215C3008F018
:1051E00029BF002070470B460146184609F065BDEF
:1051F00000F53640403007F063BA00F536404030E5
:1052000007F0F8BA00F53640403007F0B5B810B5F1
:10521000044690B019B900F048FC10B010BD00F57C
:10522000144001AA2C3001F0F5FE01A92046F2E756
:1052300000F04DBC49F23443C05C704738B549F2C8
:1052400013630446C35C93B900F514402C3002F09C
:10525000C1F8054648B904F51240C43005F01AF902
:1052600004F51340183005F063FE284638BD0D25BF
:10527000FBE700F514406630704738B5054601B9C4
:10528000FEE749F21363C45C5CB900F5144060307A
:1052900003F0ACFC05F5164008300DF0C1FE2046C9
:1052A00038BD0D20FCE7000001481DF033BF00BFF2
:1052B000800D002049F23243C05A704738B549F298
:1052C00013630546C45C84B900F514402C3001F02A
:1052D00073FF05F51240C43005F0DCF805F5134006
:1052E000183005F025FE204638BD0D20FCE700F5FE
:1052F0001540EC3001F0C8BC00F51540EC3001F071
:105300002FBD00F51440603003F084BC00F514405C
:105310002C304078C0F3C000704710B54BF26823C2
:10532000C45C34B900F514402C3003F023F8204657
:1053300010BD0D20FCE710B54BF26823C35C3BB9F0
:1053400049F22C42845C61F300048454184610BD79
:105350000D20FCE700F51440A830704770B50446F6
:105360000D4616461946049A00F098FB04F51440C1
:1053700032462946024B2C30BDE8704002F093B80B
:105380000F52000070B504460D4616461946049AA1
:1053900000F096FB04F5144032462946024B2C30AF
:1053A000BDE8704002F09EB83152000000F023BC0E
:1053B000408B704700F023BC808B704700F068BDC5
:1053C00010B41C46134622465DF8044B00F089BC1D
:1053D00073B5A023054600F580400B8044300C4691
:1053E00000F0E7FB05F515466080A21D211D06F1C2
:1053F0004C0000F0C9FF04F10A0204F1080106F1B3
:105400005C0000F0B7FE04F11A0204F1180106F185
:10541000DC0000F0AFFE05F5104004F10E0204F1CF
:105420000C01683000F0B0FF05F5114004F11202E4
:1054300004F11001343000F09DFE05F5164004F132
:10544000160204F114016C3000F094FE05F51140D1
:1054500004F11E0204F11C01D83000F08BFE05F5AA
:1054600011400DF1060201A9FC3000F083FEA38B70
:10547000BDF804201344A383BDF80620E38B05F593
:1054800033401344E38304F1220204F12001C830C5
:1054900000F070FE05F533400DF1060201A9EC3075
:1054A00000F068FE238CBDF8042013442384BDF86B
:1054B0000620638C134463840023A384E38402B036
:1054C00070BD10B50446FFF73EFE20B12046BDE892
:1054D000104001F08DB910BD49F2F863C058704713
:1054E00000F51640083010F001BC00F514403C30C7
:1054F000704773B549F213630546C45C0E4614BB8E
:1055000000F514402C3001F06FFE02A9FD2301F8D4
:10551000083D05F516403368CDF801300830337981
:105520008DF80530ADF806400DF0F6FD05F512409A
:10553000C43004F0AFFF05F51340183005F0F8FC57
:10554000204602B070BD0D20FBE707B549F23C6371
:105550006946C35C8DF8043001A80BF031FA9DF860
:10556000000003B05DF804FB13B502AB044603F87A
:10557000041D684619460BF035FA04F516409DF8EF
:105580000010083010F0CCFB02B010BD00F5134045
:105590008030704738B5044601B9FEE749F213631D
:1055A000C35C8BB900F5134080300BF0CFFA054691
:1055B00004F51240C43004F06DFF04F513401830B8
:1055C00005F0B6FC284638BD0D25FBE700F5174071
:1055D0007430704700F517405C30704700F5174095
:1055E0004430704700F514404430704738B549F2F4
:1055F00013630446C35C8BB900F514402C3001F0F2
:10560000CFFD054604F51240C43004F043FF04F515
:105610001340183005F08CFC284638BD0D25FBE7FB
:1056200049F29033C058704700F5134080300BF0BA
:105630004BBB49F2EC33C058704749F2EC33C150D0
:10564000704700F5164008300FF070B800F51640AE
:10565000002108300FF008B802B101B9FEE700F5EB
:105660001640083012F0E2B949F21363C05C70478B
:1056700001B9FEE700F5164008300DF09BBF00F5BC
:10568000164008300DF0DABE70B50C4601B9FEE7E1
:1056900049F21363C35C022B36D100F51640083083
:1056A00010F0CCFE0368236043686360038B2381A2
:1056B000038B9B12A37290F82430E37290F825308C
:1056C000C3F383032373837F637390F82530C3F39D
:1056D0000103A373866805461DF0A7FA237C43F0F7
:1056E00001032374801B4FF47A76B0FBF6F0E0736D
:1056F000AB7E03F00F03DA1F53425341227C63F366
:1057000041022274002070BD0D20FCE700F53240FC
:10571000203016F05BBF00F53240203016F05ABF43
:1057200000F53240203017F0DBBA00F5164010B516
:1057300008300C4621B10021BDE8104010F0ACB992
:1057400001210DF0FFFB204610BD00F5164008308A
:1057500011F014B910B586B006AC00F5164044F847
:10576000041D0A990291099901919DF82010009158
:10577000083021460EF05AFC06B010BD00F5174067
:105780003030704749F61803C05A704700F518408A
:1057900018300BF0ADB800F51640083010F06ABFB5
:1057A00000F51640083010F071BF4BF27F03C05C6B
:1057B00070474BF27F03C15470474BF28003C058CF
:1057C00070474BF28003C150704700F536408C3073
:1057D00007F0E4B908B500F536408C3007F03CFA24
:1057E000002008BD00F53040983015F07DBF00F571
:1057F0003040983015F07BBF4BF27C03C05C7047A3
:105800004BF27C03C15470474BF27D03C05C704780
:105810004BF27D03C15470473E2904D800F52B405C
:105820001C3017F031BC0720704749F21363C35C8A
:10583000022B04D009D3042B07D80020704700F5B1
:1058400016400321083012F059BA0D20704700F5B8
:105850001640083013F0E2BB4BF27E03C05C704789
:105860004BF27E03C15470474BF29203C05C704709
:1058700000F51640083011F05FB802B9FEE700F5F8
:105880001640083012F070B802B9FEE700F5164075
:10589000083012F058B837B5144602B103B9FEE724
:1058A000158802AA00F5164022F8045D083011F0B0
:1058B0001DFF10B9BDF80430238003B030BD3E2079
:1058C000704702B9FEE700F52B401C3017F044BDCD
:1058D00002B9FEE700F5374068300AF051BA00F52A
:1058E0001440704738B549F213630546C45C84B967
:1058F00000F5134080300BF091F805F51240C430EC
:1059000004F0C8FD05F51340183005F011FB2046E2
:1059100038BD0D20FCE74BF29403C056704700F5EC
:105920001640083013F0F1B90A4611B14B78022B3A
:1059300005D800F51040002188300AF037B8002063
:10594000704770B515461E460C4629B100F510414A
:105950008831204609F09EFF324629462046BDE8A0
:10596000704009F0BDBF09F0E5BF0AF005B809F0C5
:1059700094BF0AF051B838B50446002500F00BFF7B
:10598000C4E9025504F1100018F009F904F580404B
:10599000103001F0D7F804F58040113000F0D4FD4C
:1059A00004F580402146143000F00EFD04F58040DF
:1059B0002146443000F09CF849F24C0304F51040B5
:1059C000E55049F250032146E55049F254035C305A
:1059D000E55049F25803E55008F006FB04F5114084
:1059E0002146383017F04AFE4BF618532046E5544E
:1059F00038BD000000487047800D00201DF040BBFE
:105A000010B54BF6185301220446C25400F58040ED
:105A1000403000F0C3FD04F516400830BDE81040EA
:105A20000DF028B910B54BF61853054CE35C2BB9B3
:105A30002046FFF7A0FF2046FFF7E2FF004810BD19
:105A4000800D002038B54BF618530446C25CC2B135
:105A50000025C5542946FFF768FE29462046FFF772
:105A600081FB29462046FFF766FC04F58040403064
:105A700000F09AFD04F580401130BDE8384000F098
:105A8000FDBC38BD10B5044600F58040403000F044
:105A900091FD2046BDE810401DF0F2BA49F24C03DA
:105AA000C15049F25003C2507047024649F24C03BC
:105AB0000846D3581BB149F2500151581847704756
:105AC00049F25403C15049F25803C250704702468C
:105AD00049F254030846D3581BB149F258015158B2
:105AE00018477047014B53F820007047C8BD0300AA
:105AF00038B5051D04464FF4A0420021284633F076
:105B0000B2FB45F20403E218E55004F1840343F8C4
:105B1000803C80339342FAD144F684730022E250F1
:105B2000A0232380204638BD10B500F5A0430433E0
:105B300041B11A680C680A6019600288013202805B
:105B40002146F5E710BD4A681AB98B680BB9FFF713
:105B5000EBBFFEE7F8B50B4E05460C4617462B8803
:105B6000A3420ADA394630460CF08AFB0028F6D008
:105B70002B88A34203DA0320F8BD002CF8DA0020BA
:105B8000FAE700BFB0A2002010B50A460121044682
:105B9000FFF7E0FF58B945F20402A3582BB119688A
:105BA000A15018602288013A2280184610BD0023B7
:105BB000FBE700887047F8B506460F4605465424B3
:105BC000BC42296810D219B17C342D68A4B2F7E721
:105BD00096F82910F06801F00301FFF7D5FF28605F
:105BE0000028F1D1032005E000242C60F068FFF7C5
:105BF0009BFF2046F8BD0146C068FFF7A4BF70B503
:105C0000038BCD18ADB29D4204460E4627D3542DCA
:105C100082BFA5F155017C2291FBF2F1428B134426
:105C20009BB28CBF01310021542B05D9553B7C22FE
:105C300093FBF2F30133C91A94F82920E06802F0CB
:105C40000302FFF787FF48B929462046FFF7B3FF55
:105C500020B9A38B6683B34200D9A68370BD072009
:105C6000FCE7036801201BB10130C0B21B68FAE7F2
:105C70007047838B428B1944914200DDFEE789B265
:105C80009142818300D9FEE700207047438B8B420D
:105C900000D2FEE781830020704790F82830C3F3DC
:105CA00083030A2B09D8012202FA03F340F24E7251
:105CB000134214BF01200020704700207047438B1F
:105CC0008B4200D2FEE75B1A4383838B028B8B42AD
:105CD0000A4494BF0023591A02838CBF81838383B3
:105CE0007047F8B51546428B9142064642D2481994
:105CF000348B9042A8BF551A21448CB2A8BFADB2D4
:105D0000532C16D8C4F15407BFB2AF4228BF2F4658
:105D100006F12C01214418463A4633F080FAED1B77
:105D20000346ADB23B44002136687B291ED92EB90B
:105D3000FEE7A4F1540189B20027F5E77C39366803
:105D400089B2F2E7C1F17C04A4B2AC4228BF2C4670
:105D5000301D01442246184633F061FA2D1B0346DC
:105D600027443668ADB2BFB2234400211DB1002ED6
:105D7000E8D1FEE700273846F8BD2DE9F0411E4680
:105D8000438B15468A189A42074600DDFEE7048BCE
:105D9000A8BF5D1A21448CB2A8BFADB2532C16D84F
:105DA000C4F154081FFA88F8A84528BFA8462C302B
:105DB000314642462044A5EB080533F030FAADB237
:105DC000464400203F687B281FD937B9FEE7A4F17D
:105DD000540080B24FF00008F4E77C383F6880B28E
:105DE000F1E7C0F17C04A4B2AC4228BF2C463B1DB5
:105DF00031462246184433F012FA2D1BA0443F6866
:105E0000ADB21FFA88F82644002015B1002FE8D162
:105E1000FEE74046BDE8F081F8B504460D4616465B
:105E200000F12C07238B9E4218D994F82910E068C2
:105E300001F00301FFF7A8FE30B323680360238B52
:105E40002060532B06D82C30C3F15402F9181844A3
:105E500033F0E5F9238B7C332383E3E79B1B628BD1
:105E60002383A38B3244334492B29BB29A4262831F
:105E700000D2FEE7A3834DB12B46324600212046D7
:105E8000FFF77BFF0020F8BD0320FCE72846FAE778
:105E90002DE9F041478B8846D11989B20646144650
:105EA000FFF7ADFE054640B9434622463946304627
:105EB000FFF763FF844200D0FEE72846BDE8F0818B
:105EC00038B5054608460C4600F080FD21460246DE
:105ED0002846BDE83840FFF7DBBF2DE9F043814697
:105EE00085B0884617461D460026CDB1102D2C469C
:105EF00028BF1024224641466B464846FFF7F1FE74
:105F0000A044224639462D1B27446B460C98344446
:105F1000FFF733FF1FFA88F8BFB2ADB2A6B2E4E7CD
:105F2000304605B0BDE8F0831F2900D9FEE700EB3D
:105F3000D100802390F8202001F0070143FA01F1FD
:105F40000A4214BF0120002070471F2900D9FEE734
:105F500000EBD100802301F007010B4190F82010E5
:105F600021EA030180F8201070471F2900D9FEE7BD
:105F700000EBD10001F007038021194190F8203097
:105F8000194380F82010704700F1200200F124032B
:105F900012F8010B10B99A42FAD1704701207047EC
:105FA000014489B2884288BF013188B2704710B578
:105FB0000024A2420CDD0B5D14F0010F08BF1B0290
:105FC00003449BB2984288BF013398B20134F0E792
:105FD00010BDF8B506461D460846D118738B994288
:105FE00000DDFEE7348B224494B2532C13D8C4F165
:105FF0005407BFB2AF4228BF2F4606F12C012144FF
:106000003A46ED1BFFF7D3FFADB2002136687B297E
:1060100018D926B9FEE7A4F1540189B2F6E77C3914
:10602000366889B2F3E7C1F17C04A4B2AC4228BF60
:106030002C46331D19442246FFF7B9FF2D1B366845
:10604000ADB2002115B1002EEDD1FEE7F8BD002262
:1060500002607047006800B14068704730B50C6955
:106060000346ECB9086191F8290064F3820081F8D5
:106070002900486840B9886830B91C682CB9C1E962
:1060800001112046196030BDFEE764684C601D6850
:106090008D60A1601C68012A6160F4D11960F2E78B
:1060A0001820F0E791F82930C3F3800210B5FAB94F
:1060B0000B6998421CD14B68CBB18B68BBB10468AB
:1060C000A14203D18B4208BF13460360D1E90123EB
:1060D0005A60D1E901329A60002091F829300861B4
:1060E000C1E9010060F3820381F8293010BDFEE7A9
:1060F0001720FBE70022C0E90022C0E90222704716
:106100000B4650F8232032B9032B1ABF0133DBB200
:1061100013469942F5D11046704708B50021FFF7A4
:10612000EFFF00B1406808BD08B550F821304BB111
:1061300003291ABF0131C9B20021FFF7E1FF00B9FD
:10614000FEE74368184608BD0021FFF7D9BF10B528
:106150000446006994F829305B0707D528B1FFF79A
:10616000F3FFA04214BF6068002010BD0028FCD0DF
:106170000068F6E738B500230B8013800D461446FF
:10618000FFF768FF024658B12B8801332B80FFF7D9
:1061900068FD2388184420801046FFF7D8FFF1E7F8
:1061A00038BD70B50B6906460C46C3B9206191F83D
:1061B000295045F0040581F8295005F003052946CA
:1061C000FFF79EFF40B14368C4E901309C60446022
:1061D00046F82540002070BDC4E90144F8E71820C6
:1061E000F9E791F829305A0710B527D50A69904286
:1061F00024D103F0030350F8232091420BD18A6885
:10620000914219D092F8294004F003049C4218BF2F
:10621000002240F82320D1E901329A60D1E901231C
:106220005A60002091F829300861C1E9010060F34B
:10623000820381F8293010BD0022EAE71720FAE72F
:10624000032970B504460D461FD806693EB994F877
:10625000293065F3010384F82930002016E090F816
:10626000293003F003028A42F7D05B07EFD50146DD
:106270003046FFF7B6FF94F8293065F3010384F840
:1062800029303046FFF78DFFE7E7072070BD2DE985
:10629000F04188461946054617461E46FFF774FC2E
:1062A0000446C0B18022002132F0DDFF94F828308E
:1062B000E56068F3010363F07F033146278384F8C8
:1062C00028302046FFF7BCFF014638B1214628465A
:1062D000FFF739FC00242046BDE8F0812046FFF797
:1062E0008EFC0028F7D0F1E710B55BB11C785B7825
:1062F000FFF7CDFF28B190F8283064F3C71380F87A
:10630000283010BD01231C46F2E773B590F8293000
:10631000028B0E4690F82810054603F0030301F0A7
:106320000301C068FFF7B3FF044628B33146FFF707
:1063300066FC024618BB0146334600942846FFF728
:10634000CCFDA98B638BB14228BF31468B4200D272
:10635000FEE7A18395F8283094F82820C3F383033F
:1063600063F3850284F8282095F82830D2B2DB093F
:1063700063F3C71284F82820204602B070BD20467F
:10638000FFF739FC0024F7E738B500230B801380B2
:106390000D461446FFF7C1FE024658B12B88013363
:1063A0002B80FFF75EFC2388184420801046FFF7FF
:1063B000CEFEF1E738BD026002B9FEE701F580418B
:1063C0004A6A42604862704738B504460025C0E911
:1063D00000550346064A083000F0D9F9C4E90455CF
:1063E000C4E90655C4E90855A562204638BD00BF7A
:1063F00047640000026843680A430B43026043603D
:10640000083000F0E5B9436831EA030301D0FFF733
:10641000F1BF704770B5066804469EB10023056958
:1064200003602DB12B682846314698476D68F8E720
:1064300004F11805636913B1A1693046984708341F
:10644000AC42F7D170BD08B5FFF7D4FA00F5804033
:106450001430BDE80840FFF7DDBF38B5084691B2FB
:1064600015461C461CF0A2FD10B924B1256038BDAC
:106470006FF03B00FBE72046F9E70000084A13886D
:1064800010B5044603B9FEE7013B9BB213802BB95C
:10649000044828F0E0FD044828F052FF204610BDD3
:1064A000A0CA0020A8CA002064CC002031B16FF03F
:1064B0000043994208BF0121016070470121FBE7B9
:1064C000026848F24E33A2FB032313EB520244BF8F
:1064D00022F000420132026010467047034B1B88D5
:1064E00003B9FEE70248FFF7EBBF00BFA0CA0020D8
:1064F000A4CA002013B5044628F011FF012300931D
:10650000002220230249204628F029FF02B010BDB6
:106510005B64000013B5044628F098FD0023009347
:10652000034A0449204628F007FE02B010BD00BF10
:1065300064CC002091F3020008B528F067FEBDE8A6
:10654000084000F00BBB000037B5104C23884FF615
:10655000FF729342054600D1FEE78BB90C48FFF766
:10656000C9FF0C48FFF7D6FF04220DEB02010948D2
:10657000FFF7E2FF00B1FEE701990748FFF796FF3A
:10658000238828460133238003B030BDA0CA0020F1
:1065900064CC0020A8CA0020A4CA002001481DF035
:1065A00053BF00BF800D002001481DF08FBF00BF0A
:1065B000800D002001481EF051B800BF800D002062
:1065C0000029B2F80431034814BF012102211DF053
:1065D000D5BF00BF800D00200A46102305210148C9
:1065E0001DF0D0BF800D0020437C23B9027C0348FE
:1065F00005211DF0DDBF0D20704700BF800D00207C
:106600001FB504AB102223F8022D0446027C009330
:106610000521034607481DF05BFF20B9BDF80E3089
:106620000F2B98BF1720003018BF0120607404B0F2
:1066300010BD00BF800D0020002202744274FFF7DD
:10664000DFBF10B50023044603744374FFF7F4FF63
:10665000204610BD427C22B9027C01320274FFF751
:10666000CFBF70471FB51C4604AB084823F8024D46
:106670000093134600221DF02BFF20B9BDF80E3009
:10668000A34238BF172004B010BD00BF800D00200A
:106690000A4624230321FFF7E5BF0A460823042105
:1066A000FFF7E0BF10B58AB00C46242301AA0321EE
:1066B000FFF7D8FF28B92422214601A832F0A0FD17
:1066C00028B124232246032102481DF057FF0AB0B7
:1066D00010BD00BF800D002013B508230C466A468C
:1066E0000421FFF7BFFF28B908222146684632F08F
:1066F00087FD28B108232246042102481DF03EFFF1
:1067000002B010BD800D00201FB51C4604AB094827
:1067100023F8024D0093134600221DF0D9FE30B934
:10672000BDF80E30069AA34228BF2346138004B05A
:1067300010BD00BF800D00201FB500290DF10E0314
:10674000009314BF012102214FF480731446FFF718
:10675000DBFF18B9BDF80E30A4F8043104B010BD49
:1067600001481DF00BBF00BF800D00204FF0FF322D
:1067700001481DF01DBF00BF800D0020002914BF7F
:1067800001210221FFF7F2BF0521FFF7EFBF0260F1
:106790000022426070470022C0E9002270470000DA
:1067A00038B544688C420FD04B686BB9074DA8428E
:1067B00008D12CB9C0E90011FAF77CFD204638BD9C
:1067C000616041601846FAE71820F8E7800D002064
:1067D00001460148FFF7E4BF800D002003682BB19C
:1067E0005A68026002B9426000225A601846704737
:1067F00070B5466804462046FFF7F0FF054650B1E5
:1068000003689847AE42F6D1236823B10248BDE839
:106810007040FAF74FBD70BD800D00204368496895
:10682000981AC00F8A1AB0EBD27F04BF581AC00F53
:1068300070470000036870B505460C4623B94B68E5
:106840000948BDE8704018478B6898472B685A681C
:10685000831A002BB8BF121A23680146A8BF002272
:106860000148BDE870401847800D002070B58D6864
:106870008D420C4607D003688B4206D10560114655
:10688000FFF7D8FFA46070BD1346002BFAD09A68BA
:10689000A242F9D19D60F5E70146024A0248FFF79E
:1068A000E5BF00BF70C30300880D00202DE9F04153
:1068B00006460C469046FFF7D9FF35683DB934606F
:1068C000A56041463046BDE8F041FFF7B3BF002761
:1068D000D8F808309847294602462046FFF79EFF21
:1068E00040B11FB1A560BC60BDE8F0813368A36012
:1068F0003460E6E7AB682F460BB11D46E8E7AC60B5
:10690000A360F1E7002A00DAFEE711444160024A81
:1069100001460248FFF7CABF70C30300880D00207C
:1069200070B5046805460E467CB18B68984763686D
:10693000C01A002809DB284632462146FFF796FF99
:1069400023682046BDE87040184731462846BDE818
:106950007040FFF76FBF401AC00F704710B5044674
:10696000FEF7F1FB30B104F108000349BDE8104027
:10697000FFF7D6BF10BD00BF70C30300002A00DAC6
:10698000FEE711444160024A01460248FFF78EBF0C
:1069900064C303008C0D00200146024A0248FFF741
:1069A00065BF00BF64C303008C0D002010B5044612
:1069B000FEF7C9FB30B104F10C000349BDE81040FB
:1069C000FFF7AEBF10BD00BF64C303004378FF2BC9
:1069D00004D1408840BA043080B27047981C704798
:1069E0004378FF2B0CBF0423022318447047FFF7A2
:1069F000F7BF2DE9F347858B448B0A9EAC420746CF
:106A00008A469046994641D3641BA4B2012C3DD9D5
:106A10006B46022229463846FFF763F99DF801309C
:106A2000FF2B1ED06846FFF7D1FF84422ED39DF87E
:106A30000030534526D1B8F1000F01D0A8F800501E
:106A4000B9F1000F01D0A9F800000EB39DF8013094
:106A5000A3F1FF02534253413370002002B0BDE85E
:106A6000F087032C12D901AB042229463846FFF7E0
:106A700038F9BDF806305BBA9BB2221F934205D8A5
:106A800001A8D0E70544ADB2241ABEE71720E5E718
:106A90003046E3E7F0B585B01F4600230093164665
:106AA0000DF10E0303AA0546FFF7A3FF044650B9F4
:106AB000BDF80E20BDF80C10B2423B4628BF32464E
:106AC0002846FFF70EF9204605B0F0BD07B50023B4
:106AD0000093FFF78EFF03B05DF804FB30B585B07F
