:10100000000004207D970200A5970200A797020028
:10101000A9970200AB970200AD9702000000000004
:10102000000000000000000000000000AF97020078
:10103000B197020000000000B3970200B5970200CC
:101040006D66020061CB0200B7970200B7970200FD
:10105000B7970200B7970200B7970200B797020050
:10106000B7970200B7970200B7970200B797020040
:10107000B797020099460200B7970200B79702009F
:10108000B7970200B7970200B7970200B797020020
:10109000B7970200B7970200B7970200B797020010
:1010A000B7970200B7970200B7970200B797020000
:1010B000B7970200B7970200000000000000000090
:1010C000B7970200B7970200B7970200B7970200E0
:1010D000F5450200B7970200B7970200D5750200E8
:1010E000B7970200B797020095F9020000000000D0
:1010F00000000000B797020000000000B797020050
:1011000000000000000000000000000000000000DF
:1011100000000000000000000000000000000000CF
:1011200000000000000000000000000000000000BF
:1011300000000000000000000000000000000000AF
:10114000000000000000000000000000000000009F
:10115000000000000000000000000000000000008F
:10116000000000000000000000000000000000007F
:10117000000000000000000000000000000000006F
:10118000000000000000000000000000000000005F
:10119000000000000000000000000000000000004F
:1011A000000000000000000000000000000000003F
:1011B000000000000000000000000000000000002F
:1011C000000000000000000000000000000000001F
:1011D000000000000000000000000000000000000F
:1011E00000000000000000000000000000000000FF
:1011F00000000000000000000000000000000000EF
:1012000010B5054C237833B9044B13B10448AFF340
:1012100000800123237010BD480200200000000060
:101220001436040008B5034B1BB103490348AFF360
:10123000008008BD000000004C02002014360400AD
:10124000154B002B08BF134B9D46A3F5803A002198
:101250008B460F461348144A121A39F0C6FB0F4B3F
:10126000002B00D098470E4B002B00D09847002051
:10127000002104000D000D48002802D00C48AFF3F7
:10128000008039F03DFB2000290000F015F839F00E
:1012900011FB00BF00000800000004200000000057
:1012A000000000004802002070040120000000003F
:1012B00000000000704700002DE9F047DFF80881CA
:1012C000DFF80891DFF808A19EB006460F463946C0
:1012D000304623F007FE04F0C7FA044628B9334B22
:1012E000334A8521334839F0C7FA00F0A5F8602267
:1012F000002106A839F079FB01220023CDE904235F
:1013000001238DF875302C4B1693CDE90089B52358
:101310008DF844308DF848300023C020DE211A2299
:101320000393CDF808A06B468DF841008DF842106C
:101330008DF843208DF845008DF846108DF8472034
:101340000FCB08AD85E80F0095231C488DF874304D
:1013500039F060FF1028024603D9194B194ACD21F4
:10136000C0E716490CA839F01CFB9DF8743004A99D
:1013700043F0080320468DF8743004F033FA01215D
:10138000204604F081FA0121204604F060FD23F09C
:10139000D1FD18B1204604F06DFA98E7204604F01C
:1013A00022FC204623F0CCFDF1E700BFD9C00300AA
:1013B000BCC00300E2C0030022220F00080000208E
:1013C00044C10300C1C003001234C0DE1AB5123498
:1013D000C0DE1AB54FF0FF307047B0F8AA3AB0F847
:1013E000AC2AC3F500618A42CCBFA0F8AE1AA0F8BF
:1013F000AE2AB0F8AE1A21B100F2AA20184423F0A8
:10140000C7BE704710B50A4B044640F8043B00F0D5
:10141000EDF9084B23600023A4F8A832A4F8AA3AF7
:10142000A4F8AC3AA4F8AE3A23F0AAFE204610BDC8
:1014300070C103007CC1030010B5044C0146204676
:10144000FFF7E0FF024B1C6010BD00BF68020020E8
:10145000800D002010B500210446B4F8A822A3187E
:1014600093F8A7300A2B01D00D2B07D1013A92B285
:10147000A4F8A822224482F8A810EEE72AB1234655
:1014800004F1A801201D02F09BFC0020A4F8A80292
:1014900010BD00002DE9F8432A4FDFF8AC80DFF8DB
:1014A000AC9004460D468E18B54249D22B780A2BD3
:1014B00019D014D8082B2ED0B4F8A832B3F5FF7F7A
:1014C00027D8236801221B68294620469847B4F88C
:1014D000A8325A1CA4F8A8222A7823442DE00D2B08
:1014E00001D07F2BE7E7236802221B68394620469C
:1014F0009847B4F8A83233B12344002283F8A820D7
:101500002046FFF7A7FF236802221B6841462046BA
:1015100098470135C8E7B4F8A832002BF9D0236802
:1015200003221B68494620469847B4F8A832013B7D
:101530009BB2A4F8A8320022234483F8A820E8E74D
:10154000BDE8F88385C1030083C1030080C10300A7
:10155000024B0A4601461868FFF79CBF800D002029
:10156000B0F8AE3A0BB9FFF738BF7047B0F8AE1A13
:10157000B0F8AA2A0A44C2F30A02A0F8AA2AB0F8CC
:10158000AC2A521AA0F8AC2A0022A0F8AE2AFFF723
:1015900024BF2DE9F04105460E4690460027B8F1DC
:1015A000000F30D0B5F8AC4AC4F50064A4B244458D
:1015B00028BF444631468B1B9BB2A3420FD2B5F8DD
:1015C000AC2AB5F8AA3A11F8010B1344C3F30A0385
:1015D0002B44013283F8AA02A5F8AC2AEBE7A8EB6A
:1015E0000408264428463C441FFA88F8FFF7B8FF51
:1015F000A7B2B8F1000F06D023F0EAFD18B92846CB
:10160000FFF7B4FFCBE73846BDE8F081014B18681F
:10161000FFF7ACBF800D00202DE9F0410F4F104EB9
:10162000054600244FF00C0808FB04F33146DA5954
:10163000A868013403F083FE3A2CF5D1084E00244B
:101640002B79A34208D92B68A86853F83420314677
:1016500003F075FE0134F3E7BDE8F081E8CB030049
:10166000AACE0300D0F8A00004F008B9D0F8A0007A
:1016700004F002B938B504468568D0F8A00004F03B
:1016800090FB05490246284603F059FEA06803492D
:10169000BDE8384003F053BEC7C20300C5C3030012
:1016A0000149806803F04BBEC5C3030010B5044672
:1016B0008AB06946D0F8A00004F01CFABDF80020FA
:1016C0002B49A06803F03BFEBDF802202949A06821
:1016D00003F035FEBDF80630BDF804202649A068A9
:1016E00003F02DFEBDF80A30BDF808202349A0689C
:1016F00003F025FEBDF80E30BDF80C202049A0688F
:1017000003F01DFEBDF81230BDF810201D49A06881
:1017100003F015FEBDF81630BDF814201A49A06874
:1017200003F00DFEBDF81A30BDF818201749A06867
:1017300003F005FEBDF81E30BDF81C201449A0685A
:1017400003F0FDFDBDF82230BDF820201149A0684E
:1017500003F0F5FDBDF82630BDF824200E49A06841
:1017600003F0EDFD2046FFF79BFF0AB010BD00BF60
:1017700011CA03001DCA030028CA03003ACA0300A5
:101780004CCA030059CA030066CA030073CA0300A7
:10179000A1CA030080CA030095CA030010B504461D
:1017A00004F06EF804490246A06803F0C8FD204624
:1017B000BDE81040FFF774BFAACE030010B5044681
:1017C000D0F8A00004F053FB40B10549A06803F035
:1017D000B6FD2046BDE81040FFF762BF0149F5E7BE
:1017E000D2C90300D9C9030000BA704770B50025FB
:1017F00004460E4605600571856029462C220C3092
:1018000039F0F3F8114A4FF47A73C4E90E23104B00
:10181000C4E9103504F14003A364214604F15800E3
:1018200003F002FE22463046C4E92544C4E92746B7
:10183000084904F0FDFA084BD4F8A000C4E91334B9
:1018400004F14C0104F006F8204670BD08000100C8
:10185000713600000D3F0000393500002DE9F041E0
:10186000074690460C4639F0D5FC3D1800F00106BD
:101870000130B8EB500F12D3384621460022854282
:1018800021D910F8013BA3F14107052F0BD8373BB5
:101890001343DBB29EB10B7000260131EEE74FF02F
:1018A000FF30BDE8F081A3F16107052F01D8573B58
:1018B000EEE7303BDBB2092BF1D81343EAE71B011B
:1018C000DAB20126DBE7081BEBE7000070B50C4637
:1018D00019B9BDE87040FFF7E3BE8568084604F01B
:1018E00093FC2246034603492846BDE8704003F0B6
:1018F00026BD00BFA0CE030070B504460D4649B911
:101900007B49806803F01BFD7A49A06803F017FD4E
:101910002946ACE0012940F0E9801568764928465F
:1019200039F051FC0646002840F0A680D4F8A0000B
:1019300004F0A2F8054602687049A06803F0FFFCB5
:101940006A686F49A06803F0FAFCAA686D49A0684C
:1019500003F0F5FCEA686C49A06803F0F0FC2A6922
:101960006A49A06803F0EBFC6A696949A06803F062
:10197000E6FCAA696749A06803F0E1FCEA696649E8
:10198000A06803F0DCFC2A6A6449A06803F0D7FC75
:101990006A6A6349A06803F0D2FCAA6A6149A06838
:1019A00003F0CDFCEA6A6049A06803F0C8FC2A6B2A
:1019B0005E49A06803F0C3FCAA6B5D49A06803F010
:1019C000BEFCEA6B5B49A06803F0B9FC2A6C5A497B
:1019D000A06803F0B4FC6A6C5849A06803F0AFFC3F
:1019E000AA6C5749A06803F0AAFCEA6C5549A068A4
:1019F00003F0A5FC2A6D5449A06803F0A0FC6A6DB1
:101A00005249A06803F09BFCAA6D5149A06803F0FD
:101A100096FCEA6D4F49A06803F091FC2A6E4E498E
:101A2000A06803F08CFC6A6E4C49A06803F087FC48
:101A3000AA6E4B49A06803F082FCEA6E4949A0688F
:101A400003F07DFC2A6F4849A06803F078FC6A6FB8
:101A50004649A06803F073FCAA6F4549A06803F0EB
:101A60006EFC4449EA6FA06803F069FC31462046E9
:101A7000BDE87040FFF72ABF28463F4939F0A3FB75
:101A80000546002832D1D4F8A00004F009FA064631
:101A900002883A49A06803F052FC72883849A0686D
:101AA00003F04DFCB2883749A06803F048FCF28887
:101AB0003549A06803F043FC32893449A06803F03B
:101AC0003EFC72893249A06803F039FCB289314981
:101AD000A06803F034FCF2892F49A06803F02FFCC2
:101AE000328A2E49A06803F02AFC11E70721BEE7DD
:101AF000C7C40300CDC40300D3C40300D7C403008C
:101B0000E5C40300F9C403000FC5030028C50300A2
:101B10003AC5030055C5030066C503007BC5030035
:101B20008EC50300A8C50300BAC50300CCC50300D9
:101B3000DFC50300FAC5030008C603001CC6030086
:101B400032C6030043C6030058C603006BC6030039
:101B500085C6030097C60300B3C60300D0C60300C2
:101B6000E7C60300FEC603001FC703003DC703000E
:101B700050C7030063C7030078C703007CC7030096
:101B800090C70300A4C70300B5C70300C7C703007D
:101B900005C80300D9C70300F4C703001BC803002E
:101BA00070B505460E46B1B9D0F8A00003F078FE36
:101BB000044650B11249A86803F0C1FB3046014603
:101BC0002846BDE87040FFF781BE0E49A86803F0C3
:101BD000B6FB2046F3E714680B49204639F0F3FAC8
:101BE00028B90121D5F8A00003F04EFEE7E7074928
:101BF000204639F0E8FA01460028F3D00720DEE756
:101C0000E2C80300E7C80300EEC80300F1C8030000
:101C100037B504466946D0F8A00004F0BBF8054685
:101C2000E0B9009A1049A06803F089FB9DF80420F0
:101C30000E49A06803F083FB9DF805200C49A068BD
:101C400003F07DFB9DF806200A49A06803F077FBAE
:101C50009DF807200849A06803F071FB294620463B
:101C6000FFF734FE03B030BDAFCA0300C2CA0300A1
:101C7000D9CA0300D2CA0300ECCA0300F0B5134668
:101C800085B00446C9B9D0F8A000144F04F0B9F9E2
:101C9000461E00F10F0516F8012FA068394603F023
:101CA0004EFBAE42F7D10E49A06803F048FB00217D
:101CB0002046FFF70BFE05B0F0BD102269461868FC
:101CC000FFF7CCFD102806D16946D4F8A00004F037
:101CD0009BF90146ECE70621EAE700BFC2C1030019
:101CE000A4C10300F0B5134685B00446C9B9D0F8C5
:101CF000A000144F03F0DCFF461E00F10F0516F89C
:101D0000012FA068394603F01AFBAE42F7D10E4905
:101D1000A06803F014FB00212046FFF7D7FD05B0B3
:101D2000F0BD102269461868FFF798FD102806D10B
:101D30006946D4F8A00003F0BFFF0146ECE7062196
:101D4000EAE700BFC2C10300A4C10300F7B5002346
:101D500004468DF8043071BBD0F8A00003F087FF73
:101D60008DF80400C00703D54249A06803F0E7FAE4
:101D70009DF80430990703D53F49A06803F0DFFAC6
:101D80009DF804305A0703D53C49A06803F0D7FA00
:101D90009DF804301B0703D53949A06803F0CFFA3A
:101DA0003849A06803F0CBFA0021204603B0BDE813
:101DB000F040FFF78BBD15689E46013D19461E4653
:101DC00018461F469C4615F8012F6AB36E2A25D087
:101DD0001AD8642A1FD0BCF1000F05D09DF804303A
:101DE00043F001038DF8043028B19DF8043067F307
:101DF00041038DF8043029B19DF8043066F3820365
:101E00008DF804300621D0E7722A0AD0732AE2D175
:101E100001200746D7E701210E46D4E701239E465D
:101E2000D1E74FF0010CCEE7BCF1000F05D09DF8D3
:101E3000042042F001028DF8042028B19DF804200E
:101E400067F341028DF8042029B19DF8042066F360
:101E500082028DF804202BB19DF804306EF3C30389
:101E60008DF804309DF80410D4F8A00003F00EFFA4
:101E700001469AE72BE003006CDC030004CA030070
:101E800039DD0300A4C103002DE9F04F00238BB01E
:101E900099420446ADF802300BDD156846492846E4
:101EA00039F091F9064630B14449284639F08BF9AA
:101EB00048B107217AE04249A06803F040FA41495D
:101EC000A06803F03CFADFF81C81DFF81C91DFF812
:101ED0001CA1D4F8A00001AF3A460DF1020103F0B5
:101EE0004DFF00285DD1A068002E54D19DF824300C
:101EF000DFF8FCB013F0100F0CBF5222432249460A
:101F000003F01DFABDF81020A068514603F017FA3F
:101F1000039A2D49A06803F012FA9DF91D202B4960
:101F2000A06803F00CFA9DF91E202949A06803F06F
:101F300006FA9DF824202749A06802F0010203F068
:101F4000FEF99DF824202349A068C2F3400203F063
:101F5000F6F99DF824201F49A068C2F3800203F01F
:101F6000EEF99DF824201B49A068C2F3C00203F0DB
:101F7000E6F91949A06803F0E2F935467A5DA068F0
:101F80005946013503F0DBF9082DF7D11349A06854
:101F900003F0D5F99DE7BDF81020414603F0CFF9D5
:101FA00097E70F49A06803F0CAF900212046FFF720
:101FB0008DFC0BB0BDE8F08FF6C80300FCC8030031
:101FC00001C903004DC90300ABC90300B2C9030036
:101FD000B9C90300C0C90300A4CB03001AC403009D
:101FE000A4C10300A3C9030099C90300A1C9030048
:101FF000C2C1030010B50446D0F8A00003F08BFB6B
:1020000001462046BDE81040FFF760BC38B50546E4
:102010000C46D0F8A00069B903F076FE08490346E3
:102020001022A86803F08BF921462846BDE8384005
:10203000FFF74CBC116803F06BFE0146F5E700BFEB
:102040003DCB03002DE9F04186B001AF044639468F
:10205000D0F8A00003F0AAFE064650BB1849A068BD
:10206000DFF8748003F06BF935467A5DA06841466D
:10207000013503F064F9082DF7D11249A06803F087
:102080005EF9BDF80C201049A06803F058F99DF8DE
:1020900011200E49A06803F052F99DF812200C4956
:1020A000A06803F04CF99DF813200A49A06803F0DA
:1020B00046F931462046FFF709FC06B0BDE8F0813D
:1020C00071C30300A4C103007CC3030087C30300E2
:1020D0009DC30300B4C30300C2C1030038B5044666
:1020E000B1B9D0F8A00003F0A3FC78B1D4F8A000F7
:1020F00022F0D6FC50B11749A06803F020F9002067
:1021000001462046BDE83840FFF7E0BB1249F3E73F
:1021100015681249284639F056F858B91049D4F8CC
:10212000A000224603F07FFC0121D4F8A00003F0B8
:1021300086FCE5E728460B4939F045F8054638B9ED
:1021400001460246D4F8A00003F06DFC2946ECE7F6
:102150000720D5E744CB03004ECB030059CB030047
:102160009137000060CB030070B505460E46A9B953
:10217000D0F8A00003F0A1FE044650B11349A868AE
:1021800003F0DDF8344621462846BDE87040FFF7ED
:102190009DBB0F49A86803F0D2F8F4E716680D4913
:1021A000304639F010F8044628B90121D5F8A000CE
:1021B00003F088FEE7E70849304639F004F80446A2
:1021C00008B90146F2E70724DDE700BF44CB03006E
:1021D0004ECB030059CB030060CB030038B5044657
:1021E000F9B9D0F8A00003F0D1FD042817D8DFE832
:1021F00000F0030E101214001F49A06803F09FF8AE
:10220000002001462046BDE83840FFF75FBB1B4970
:10221000F3E71B49F1E71B49EFE71B49EDE71B49D2
:10222000EBE715681A49284638F0CDFF20B9D4F8F5
:10223000A00003F098FDE4E71649284638F0C3FFF4
:1022400020B9D4F8A00003F093FDDAE7124928463C
:1022500038F0B9FF20B9D4F8A00003F078FED0E739
:102260000E49284638F0AFFF20B9D4F8A00003F09B
:1022700080FEC6E70720C4E7FDC2030008C30300D1
:1022800013C303001BC3030024C303002DC30300B7
:102290003DC30300F4DF030046C303004DC3030046
:1022A000002938B5044617DD15680C49284638F072
:1022B0008AFF50B90121D4F8A00003F0C8FD0146FF
:1022C0002046BDE83840FFF701BB0549284638F0F5
:1022D0007AFF01460028EED00720F0E7ACC40300E7
:1022E000B2C4030010B50446943002F02BFF01463F
:1022F0002046BDE81040FFF7E9BA10B50446583053
:1023000003F034F901462046BDE81040FFF7DEBA7D
:1023100010B50446983002F0C9F801462046BDE8E1
:102320001040FFF7D3BA10B504469C3002F0A2FF6C
:1023300001462046BDE81040FFF7C8BA2DE9F0413C
:10234000084F06460D4690460C46631B984506DD31
:1023500014F8012BB068394602F0F1FFF5E7BDE84B
:10236000F08100BFC2C1030037B505460C4699B9DC
:102370006946D0F8A00003F029FB082269462846E8
:10238000FFF7DCFF0549A86802F0D9FF214628467F
:10239000FFF79CFA03B030BD0721F8E7A4C10300A2
:1023A00037B5134605460C4691B9D0F8A00003F0A6
:1023B000F2FA082201462846FFF7C0FF0C49A86838
:1023C00002F0BDFF21462846FFF780FA03B030BD7A
:1023D000082269461868FFF741FA002801DA062149
:1023E000F1E76946D5F8A00003F0D9FA0146EAE71B
:1023F000A4C1030037B5134605460C4691B9D0F881
:10240000A00003F004FC082201462846FFF796FFCF
:102410000C49A86802F093FF21462846FFF756FAB8
:1024200003B030BD082269461868FFF717FA002884
:1024300001DA0621F1E76946D5F8A00003F0EBFBCD
:102440000146EAE7A4C1030010B5CC894B880A888D
:1024500086B064BAA4B205948C8964BAA4B2049418
:102460004C8964BAA4B203940C8964BAA4B20294ED
:10247000CC8864BAA4B20194898849BA89B200911F
:102480005BBA52BA9BB292B20249806802F057FF1F
:1024900006B010BDAFCE03002DE9F04704468EB064
:1024A0000D46A9BBD0F8A000DFF87C801D4F03F0DB
:1024B000FBFCAA468146AEB24E4530D206AA314652
:1024C000D4F8A000ADF806A003F070FDF0B99DF8B7
:1024D0003430C3F30013CBB9ADF8063002AB0DF1C5
:1024E00006023146D4F8A00003F067FD70B9BDF8CC
:1024F0002820A068414602F022FF02A92046FFF7EB
:10250000A3FF3946A06802F01AFFE7E70135D2E7DA
:1025100007212046FFF7DAF90EB0BDE8F087002169
:10252000F7E700BFA4C10300B7C4030070B5104EA5
:1025300086B00446002501AAE9B2D4F8A00003F051
:1025400059FD78B99DF81730DB0709D501A9204658
:10255000FFF77AFFBDF81420A068314602F0EFFEC5
:102560000135E8E72046FFF79BF806B070BD00BFD5
:10257000C6C2030013B500220C4601A938F0ECFED8
:10258000019B20601B78002B14BF0620002002B0A6
:1025900010BD000073B505460C4681B98668D0F8B9
:1025A000A00003F0D9F90C490246304602F0C7FEFC
:1025B000204601462846FFF789F902B070BD01A9FF
:1025C0001068FFF7D7FF0028F3D19DF80410D5F865
:1025D000A00003F0C5F9ECE7BCC203002DE9F04F01
:1025E00000298DB0044640F31381156889492846B7
:1025F00038F0E9FD074600287DD08749284638F0A5
:10260000E2FD00287FD0284603A9FFF7B3FF054667
:10261000002840F0F68004AF3A46BDF80C10D4F81C
:10262000A00003F0BCFC0546002840F0EA80BDF89D
:1026300022207A49A068DFF8388202F080FEBDF8D7
:1026400020207749A06802F07AFE7649A06802F05F
:1026500076FE2E46BA5DA0684146013602F06FFE56
:10266000082EF7D17049A06802F069FE6F49A06892
:1026700002F065FE9DF82C30D80703D56C49A068A0
:1026800002F05DFE9DF82C30990703D56949A068DA
:1026900002F055FE9DF82C305A0703D56649A06814
:1026A00002F04DFE9DF82C301B0703D56349A0684E
:1026B00002F045FE5C49A06802F041FE9DF824202E
:1026C0005F49A06802F03BFE069A5E49A06802F0EE
:1026D00036FE079A5C49A06802F031FE9DF825207D
:1026E0005A49A06802F02BFE9DF926205849A0689F
:1026F00002F025FE85E05749A06802F020FE564909
:10270000A06802F01CFED4F8A000DFF870A1DFF88A
:1027100070B103F0C9FB00268146B1B249456BD2C6
:102720000DF110084246D4F8A00003F03FFC002849
:102730005CD19DF82C30DD0658D4A068BDF822206D
:10274000002F55D1514602F0FAFDBDF82020A068B7
:10275000594602F0F4FD069A4049A06802F0EFFDE8
:10276000079A3E49A06802F0EAFD9DF825203C4901
:10277000A06802F0E4FD9DF824203A49A06802F028
:10278000DEFD9DF82C203849A06802F0010202F01D
:10279000D6FD9DF82C203449A068C2F3400202F017
:1027A000CEFD9DF82C203049A068C2F3800202F0D3
:1027B000C6FD9DF82C202C49A068C2F3C00202F08F
:1027C000BEFD2A49A06802F0BAFD294B3D4618F823
:1027D0000520A06801931946013502F0B0FD082DCF
:1027E000019BF4D12349A06802F0A9FD013694E7CA
:1027F000214902F0A4FDF9E70B49A06802F09FFD12
:10280000002529462046FFF761F80DB0BDE8F08F9E
:102810000725F6E7F6C80300FCC80300B2C20300B0
:10282000C1C2030071C30300A4C10300CEC20300F0
:102830002BE003006CDC030004CA030039DD030055
:10284000D5C20300E4C20300B4C3030087C303007E
:10285000F2C20300EEC1030045C203009CC20300A4
:10286000A4C20300ABC20300C0C90300A4CB030091
:10287000C2C103001AC4030090CB0300ABC903001C
:10288000A1C9030073B505460C4681B98668D0F826
:10289000A00003F009FB0C490246304602F04FFD50
:1028A000204601462846FFF711F802B070BD01A985
:1028B0001068FFF75FFE0028F3D1BDF80410D5F8CB
:1028C000A00003F0F5FAECE7BCC2030073B50546BF
:1028D0000C4679B98668D0F8A00003F08FF90C494E
:1028E0000246304602F02BFD21462846FEF7EEFF59
:1028F00002B070BD01A91068FFF73CFE0446002835
:10290000F2D10199D5F8A00003F07CF9ECE700BF03
:10291000BCC2030037B5044671B98568D0F8A00081
:1029200003F0F2FA0A490246284602F008FD204662
:10293000FEF7B6FE03B030BD01A91068FFF71AFE1E
:102940000028F4D10199D4F8A00003F0E2FAEEE7F0
:10295000BCC2030010B5002986B004461FDD05A9DE
:102960001068FFF707FEE8B9059B1F2B19D8012156
:1029700099400F4B01930023029400934FF6FF728E
:10298000D4F8A00003F078FA60B90A49A06802F010
:10299000D6FC0949A06802F0D2FC06B010BD0021A7
:1029A000E7E7072001462046FEF790FFF5E700BF66
:1029B000893D000030C8030089C803004B1E012B6D
:1029C0002DE9F34105460F46164641D8D2F800805E
:1029D0002049404638F0F7FB0446F0B9012F0AD1F0
:1029E000D5F8A000AE6803F0ADF902461A493046AA
:1029F00002F0A5FC0AE001A97068FFF7BBFD0446E0
:102A000020B90199D5F8A00003F0A0F92146284685
:102A1000FEF75CFF02B0BDE8F0811049404638F097
:102A2000D2FB0446A0B9012F05D1D5F8A000AE68AD
:102A300003F091F9D9E701A97068FFF79BFD0446FF
:102A40000028E3D10199D5F8A00003F088F9DDE76B
:102A50000724DBE72BCB0300BCC2030033CB03000E
:102A600073B505460C4679B98668D0F8A00003F026
:102A70002EFA0C490246304602F061FC21462846F7
:102A8000FEF724FF02B070BD01A91068FFF772FDC8
:102A900004460028F2D19DF80410D5F8A00003F0F8
:102AA0001AFAEBE7BCC2030073B505460C4679B9C8
:102AB0008668D0F8A00003F031FA0C49024630468F
:102AC00002F03DFC21462846FEF700FF02B070BD33
:102AD00001A91068FFF74EFD04460028F2D19DF8C9
:102AE0000410D5F8A00003F01DFAEBE7BCC2030008
:102AF00073B505460C4681B98668D0F8A00002F08F
:102B00006BFF0C490246304602F019FC2046014694
:102B10002846FEF7DBFE02B070BD01A91068FFF782
:102B200029FD0028F3D1BDF80410D5F8A00002F06B
:102B300057FFECE74CD3030073B505460C4681B94B
:102B40008668D0F8A00003F078FA0C4902463046B7
:102B500002F0F5FB204601462846FEF7B7FE02B01C
:102B600070BD01A91068FFF705FD0028F3D19DF99C
:102B70000410D5F8A00003F064FAECE7BCC203002F
:102B800073B505460C4681B98668D0F8A00002F0FE
:102B900040FF0C490246304602F0D1FB2046014678
:102BA0002846FEF793FE02B070BD01A91068FFF73A
:102BB000E1FC0028F3D10199D5F8A00002F02EFF26
:102BC000EDE700BFBCC20300002913B5044610DDC9
:102BD00001A91068FFF7CEFC28B99DF80410D4F8BD
:102BE000A00003F0ABF901462046FEF76FFE02B0ED
:102BF00010BD0720F7E700002DE9F04F002989B04C
:102C0000044640F3EE8015687749284638F0DBFA31
:102C10000746002872D07549284638F0D4FA0028B3
:102C200074D0284602A9FFF7A5FC0546002840F00D
:102C3000CC8003AF3A46BDF80810D4F8A00003F0EA
:102C4000D2F90546002840F0C0809DF81C20684954
:102C5000A06802F0010202F072FB9DF81C30DA0756
:102C600040F1B3809DF816206249A06802F067FB2E
:102C7000BDF814206049A06802F061FB9DF81720A0
:102C80005E49A068920202F05AFB9DF81C205C4944
:102C9000A068C2F3400202F052FB9DF81C309B0773
:102CA00040F193805749A068DFF8908102F047FB1C
:102CB0002E46BA5DA0684146013602F040FB082E60
:102CC000F7D15149A06802F03AFB9DF818204F490E
:102CD000A06802F034FB9DF819204D49A06802F06D
:102CE0002EFB9DF81A204B49A06802F028FB9DF8A6
:102CF0001B204949A06802F022FB66E04749A06812
:102D000002F01DFB4649A06802F019FBD4F8A000B0
:102D1000DFF834A1DFF834B103F063F90025814610
:102D20000DF10C08EEB242463146D4F8A00003F093
:102D30005AF9002840D1A068002F4DD19DF81620E7
:102D4000514602F0FCFABDF81420A068594602F082
:102D5000F6FA9DF817203349A06802F0F0FA9DF8C2
:102D600018203149A06802F0EAFA9DF819202F498D
:102D7000A06802F0E4FA9DF81A202D49A06802F03C
:102D8000DEFA9DF81B202B49A06802F0D8FA2A49E8
:102D9000A06802F0D4FA294B3E4618F80620A06835
:102DA00001931946013602F0CAFA082E019BF4D1AC
:102DB0002349A06802F0C3FA0135EBB29945AFD2BE
:102DC0001149A06802F0BBFA002529462046FEF70B
:102DD0007DFD09B0BDE8F08F32461A4902F0AFFA26
:102DE000EAE70725F1E700BFF6C80300FCC80300C7
:102DF00079C40300F3CA0300C1C2030085C4030001
:102E000096C4030071C30300A4C10300A1C403005E
:102E100087C303009DC30300B4C30300CCC30300F6
:102E20001FC40300B2C90300B9C90300A4C2030050
:102E300072C40300ABC90300A4CB0300C2C10300EA
:102E40001AC4030090CB0300A8CB0300A1C9030060
:102E500073B505460C4679B98668D0F8A00003F032
:102E60008DF80C490246304602F069FA21462846A0
:102E7000FEF72CFD02B070BD01A91068FFF77AFBC8
:102E800004460028F2D19DF80410D5F8A00003F004
:102E900079F8EBE7BCC2030073B505460C4679B977
:102EA0008668D0F8A00003F071F80F49024630465A
:102EB00002F045FA21462846FEF708FD02B070BD33
:102EC00001A91068FFF756FB04460028F2D10199CA
:102ED0004B1EFE2B05D8C9B2D5F8A00003F05AF856
:102EE000E8E70724E6E700BFBCC2030073B5054668
:102EF0000C4679B98668D0F8A00003F017F80C49A1
:102F00000246304602F01BFA21462846FEF7DEFC58
:102F100002B070BD01A91068FFF72CFB0446002821
:102F2000F2D19DF80410D5F8A00003F003F8EBE708
:102F3000BCC20300F0B50F1E85B00446164644DD42
:102F400015682349284638F03EF9D0B9012F3AD008
:102F500003A97068FFF70EFB78BBBDF80C501D4944
:102F6000A06802F0ECF91C49A06802F0E8F90094AE
:102F70001A4BD4F8A0002A46002102F095FD00B3B8
:102F80001BE003A92846FFF7F5FAB0B9039B1F2BF6
:102F900012D801259D401249A06802F0D0F91149CC
:102FA000A06802F0CCF900940F4BD4F8A0000022E6
:102FB000294602F065FDE2E7072001462046FEF7BC
:102FC00085FC05B0F0BD0546C9E70025E3E700BF75
:102FD000C7C10300CEC10300DEC10300B53D000040
:102FE00030C8030089C80300893D000037B5054695
:102FF00091B901A9D0F8A00021F0B4FD044628B988
:103000009DF904200C49A86802F099F92146284648
:10301000FEF75CFC03B030BD01A91068FFF7AAFA07
:1030200004460028F2D19DF90410D5F8A00021F043
:10303000A3FD0446EAE700BFBEC4030073B505461E
:103040000C4681B98668D0F8A00002F050FF0C4908
:103050000246304602F073F9204601462846FEF744
:1030600035FC02B070BD01A91068FFF783FA002893
:10307000F3D1BDF80410D5F8A00002F03DFFECE755
:10308000BCC203002DE9F04702298AB005460E466E
:1030900090463DDD01A9506802F037FC002838D188
:1030A00008F10409023E04460DF1140AB442E7B2E5
:1030B0000DD0132C0AD0694659F8040FFFF75AFABD
:1030C00038BB009B04F80A300134EFE72746D8F8F4
:1030D00000401249204638F076F848B93B4605AA28
:1030E00001A9D5F8A00002F0A8FE0AB0BDE8F0875B
:1030F0000B49204638F067F850B93B4605AA01A9AC
:10310000D5F8A00002F09EFE2846FEF7C9FAECE7CB
:10311000072001462846FEF7D9FBE6E73DD203002B
:1031200066CF030013B500220C4601A938F0A4F9BC
:10313000019B20601B78002B14BF0620002002B0EA
:1031400010BD000073B505460C4699B98668D0F8E5
:10315000A00002F075FB4FF47A721049B0FBF2F256
:10316000304602F0ECF8204601462846FEF7AEFB5A
:1031700002B070BD01290ED101A91068FFF7D2FF7E
:103180000028F1D1019BD5F8A0004FF47A71594382
:1031900002F05BFBE8E70720E6E700BFBCC20300E4
:1031A00073B505460C4679B98668D0F8A00002F0E0
:1031B00096FE0C490246304602F0C1F821462846E8
:1031C000FEF784FB02B070BD01A91068FFF7AAFFEB
:1031D00004460028F2D10199D5F8A00002F083FE40
:1031E000ECE700BFBDCA0300002330B5136001390E
:1031F0004FF47A730A2411F8010FE8B1A0F13005F9
:10320000092D11D8B3F57A7F02BF106860431060B2
:1032100008781568303803FB0050B3F57A7F1060EA
:10322000E9D0B3FBF4F3E6E72E2804D1B3F57A7FB7
:1032300001D16423DFE7062030BD10B5002986B038
:10324000044614DD6946106802F05FFB68B940234C
:103250008DF810309DF81130D4F8A00043F003032E
:1032600069468DF8113002F023FB06B010BD07202F
:10327000FBE700291FB504460BDD6946106802F024
:1032800044FB20B96946D4F8A00002F016FB04B054
:1032900010BD0720FBE70000F8B5054617460C46B1
:1032A00081B9D0F8A0002B4E02F0FEFA0446BCB360
:1032B00021462846FFF7C8F83146A86802F03FF8D3
:1032C0006469F4E716682449304637F07CFF50B94A
:1032D0003A1D611E2846FFF7B0FF01462846BDE8AB
:1032E000F840FEF7F3BA1D49304637F06CFF28B9B5
:1032F0003A1D611E2846FFF7BCFFEEE7184930462D
:1033000037F061FF044668B9D5F8A00002F0F8FC78
:1033100001462846FFF798F80E49A86802F00FF812
:103320002046DAE70F49304637F04DFF044620B912
:10333000D5F8A00002F0DCFCEAE70B49304637F094
:1033400042FF044620B9D5F8A00002F0D5FCDFE723
:103350000720C2E7A4C1030054C3030058C30300FD
:103360005CC3030066C303006BC3030000291FB5E1
:1033700004460BDD6946106802F0C7FA20B96946B9
:10338000D4F8A00002F0A2FA04B010BD0720FBE7B9
:1033900000291FB504460BDD6946106802F0B5FA36
:1033A00020B96946D4F8A00002F095FA04B010BD27
:1033B0000720FBE770B505460E4689B9D0F8A00096
:1033C00002F08EFA044630B11149A86801F0B7FF47
:1033D0003446204670BD0F49A86801F0B0FFF8E7F9
:1033E00016680D49304637F0EEFE044628B9012133
:1033F000D5F8A00002F078FAEBE70849304637F03C
:10340000E2FE044608B90146F2E70724E1E700BFFF
:1034100044CB03004ECB030059CB030060CB030029
:10342000F8B5054616460C4681B9D0F8A0001D4EE9
:1034300002F048FA044684B321462846FFF704F810
:103440003146A86801F07BFF2469F4E71768164944
:10345000384637F0B8FE50B9321D611E2846FFF7D6
:1034600085FF01462846BDE8F840FEF72FBA0F4910
:10347000384637F0A8FE28B9321D611E2846FFF7EE
:1034800087FFEEE70A49384637F09DFE38B9321D0E
:10349000611E2846FFF78EFFE3E72046E1E707209D
:1034A000DFE700BFA4C1030054C3030058C30300F7
:1034B000C9CB0300F7B51F46002301933B78812B4E
:1034C00004460D4616462DD18B8B4A8B80681649D3
:1034D000D21A083201F033FF06F110012046FEF740
:1034E000B3FFFA8896F828301049A06852BA92B211
:1034F00001F025FF01AB0422A98B284602F083FFCF
:1035000003280BD90198A568FEF76EF9064620F04E
:1035100090FF0749821B284601F011FF0549A0686A
:1035200001F00DFF03B0F0BDE1C90300F0C90300D5
:1035300006CA0300A4C10300FFF7BCBF37B50446A9
:1035400020F077FFFEF750F900210190D4F8A00099
:1035500002F0CEF9054698B104220DEB020102F00B
:10356000BFFAE8B9218F284602F0B6FAC0B90123A4
:1035700004F10C022946D4F8A00002F070F978B9E1
:10358000638F013B9BB2638743B1E56B20F051FF32
:103590002A46014604F1400003F046FD03B030BD69
:1035A000284602F095FAEBE72DE9F3410F1E054698
:1035B000164656DDD2F800802B49404637F003FE10
:1035C00005F14003AA6C044650B9934245D0184611
:1035D00003F0F4FC204601462846FEF777F939E06F
:1035E00093423CD1414605F11C000CF05CFC0028E4
:1035F000F1D11E4A4FF47A73C5E90E230124BC426F
:1036000025DA022C0ED0032C15D0012C29D16946C5
:103610007068FEF7AFFF0028DDD1009B2B870134D7
:10362000E4B2ECE76946B068FEF7A4FF0028D2D107
:10363000009B6B87F3E701AAF1682846FFF7D4FDEA
:103640000028C8D1019B002B0BDDEB63E7E7284680
:10365000FFF774FF02B0BDE8F0810D20BBE7052045
:10366000B9E70720B7E700BFB2C4030008000100B4
:10367000024B18680430FFF761BF00BF800D0020C7
:103680002DE9F84F04460E4680683649364F01F062
:1036900056FE2C253946A06801F051FE013DF9D1B6
:1036A000B2883249A068304F01F049FE1C253946E6
:1036B000A06801F044FE013DF9D12A49A068DFF875
:1036C000C08001F03CFEB388A068AB423CD94146C3
:1036D00001F035FE0027B288A068EB19934229D289
:1036E00032682349D25C01F02AFE0137102FF2D153
:1036F0004146A068DFF88C90DFF88CA0DFF88CB032
:1037000001F01DFE0027B288A068EB19934219D280
:103710003268D25CA2F120035E2B0FD8594601F02B
:103720000EFE0137102FEED11249A06801F007FEFE
:103730001035C8E7104901F002FED6E7514601F006
:10374000FEFDEEE74946FAE70C4E53253146A068E8
:1037500001F0F5FD013DF9D1A0680249BDE8F84F3F
:1037600001F0EDBDA4C1030068CB03006ACB0300E8
:1037700078CB03001BC403007ECB03008CCB03007B
:1037800076CB030089CB030086CB030082CB0300FA
:1037900013460A4601461846FFF772BF2DE9F04F5F
:1037A0000F1E89B00646154640F39180182200216D
:1037B00002A837F01AF92F21286837F0F7FC0446E1
:1037C00000287FD00023037002A9286802F09DF82A
:1037D000002877D1024601A9601C37F0BDFD019B8E
:1037E0008DF818001B78002B6FD14FF00108DFF81F
:1037F000E890DFF8E8A0C34647455ED055F828407A
:103800003449204637F0DFFC40B99DF819206BF3AE
:1038100001028DF8192008F10108EDE7494620461C
:1038200037F0D1FC20B99DF8192060F30102F0E7D0
:103830005146204637F0C7FC98B1013C14F8012FDF
:10384000002AE8D0613A122A3FD8DFE802F0163E9B
:10385000201B3E3E3E3E3E3E3E3E3E3E2A0F3E2525
:103860002F009DF8192042F00302D2E79DF819209D
:1038700042F004028DF81920E0E79DF8192042F08B
:103880000802F7E79DF8192042F01002F2E79DF8D0
:10389000192042F02002EDE79DF8192042F0400285
:1038A000E8E79DF8192042F08002E3E79DF81A202E
:1038B00042F001028DF81A20C0E702A9D6F8A00054
:1038C00001F0CAFE09B0BDE8F08F0620FAE7072034
:1038D000F8E700BFC5C90300CAC90300CEC9030089
:1038E00070B5002986B00646154624DD1122002158
:1038F00001A837F07AF82F21286837F057FC0446E2
:10390000A8B10023037001A9286801F0FEFF70B977
:1039100002466946601C37F01FFD009B8DF81400BD
:103920001B7833B901A9D6F8A00001F0C2FE06B099
:1039300070BD0620FBE70720F9E70000F0B58DB069
:1039400000233A4D3A4E3B4F0593044606AA05A97B
:10395000D4F8A00001F0B5FE002863D19DF828102E
:103960000291BDF81E10BDF81A30BDF81820A068ED
:1039700049BA89B20191BDF81C1049BA89B25BBA43
:1039800052BA00919BB292B2294601F0D8FC9DF840
:1039900029305A0703D53146A06801F0D0FC9DF8C4
:1039A00029301B0703D53946A06801F0C8FC9DF8F3
:1039B0002930D80603D52049A06801F0C0FC9DF845
:1039C0002930990603D51D49A06801F0B8FC9DF87F
:1039D00029305A0603D51A49A06801F0B0FC9DF8B9
:1039E0002930DB0903D01749A06801F0A8FC9DF835
:1039F0002A30DB0703D51449A06801F0A0FC9DF82C
:103A0000293043F301035BB2002B07D008DC0133FC
:103A10009CD10E49A06801F092FC97E70C49F9E7A8
:103A20000C49F7E700200DB0F0BD00BF03CB030049
:103A3000F2DB0300F7DB030004CA030084CB0300BE
:103A40002BE00300D0CE03006CDC030015CB030099
:103A50001CCB030023CB0300F8B5044616460D46E5
:103A600039B9FFF76BFF01462046BDE8F840FDF786
:103A70002DBF17680B49384637F0A5FB28B9321D12
:103A8000691E2046FFF78AFEEDE70749384637F002
:103A90009AFB28B9321D691E2046FFF721FFE2E795
:103AA0000720E0E754C30300BEC303002DE9F04F35
:103AB00089B00F46804616460021182202A836F02B
:103AC00094FF002F56DD2F21306837F06FFB04463E
:103AD00088B10023037002A9306801F016FF50B9C5
:103AE000024601A9601C37F037FC019B8DF81800D5
:103AF0001B781BB1062009B0BDE8F08F0124DFF868
:103B00008090DFF880A0A346BC422DD056F8245008
:103B10001949284637F057FB38B99DF81C3043F057
:103B200004038DF81C300134EEE71449284637F0C1
:103B30004AFB20B99DF81C306BF30103F1E74946BD
:103B4000284637F040FB20B99DF81C3060F3010394
:103B5000E7E75146284637F036FB0028CAD19DF8E2
:103B60001C3043F00303DCE702A9D8F8A00001F001
:103B7000B0FDC0E70720BEE76CDC0300C5C9030049
:103B8000CAC90300CEC9030070B586B00C4606460C
:103B900015460021112201A836F027FF002C1DDD5B
:103BA0002F21286837F002FB0446A8B100230370D8
:103BB00001A9286801F0A9FE70B902466946601C97
:103BC00037F0CAFB009B8DF814001B7843B901A99C
:103BD000D6F8A00001F08FFD06B070BD0720FBE70E
:103BE0000620F9E7F0B58DB00023224D224E234F79
:103BF0000593044606AA05A9D4F8A00001F083FDA8
:103C0000002833D19DF828100291BDF81E10BDF890
:103C10001A30BDF81820A06849BA89B20191BDF8E0
:103C20001C1049BA89B25BBA52BA00919BB292B2E7
:103C3000294601F084FB9DF82C305B0703D5314603
:103C4000A06801F07CFB9DF82C3043F301035BB2CC
:103C5000002B07D008DC0133CCD10949A06801F062
:103C60006EFBC7E73946F9E70649F7E700200DB0D4
:103C7000F0BD00BF03CB03006CDC03001CCB0300D2
:103C800015CB030023CB0300F8B5044616460D46BA
:103C900039B9FFF7A7FF01462046BDE8F840FDF718
:103CA00015BE17680B49384637F08DFA28B9321D12
:103CB000691E2046FFF7FAFEEDE70749384637F060
:103CC00082FA28B9321D691E2046FFF75DFFE2E740
:103CD0000720E0E754C30300BEC3030038B5044621
:103CE0000D46806821B91F49BDE8384001F027BB67
:103CF00091F839201C49C2F3401201F020FB05F174
:103D000008021A49A06801F01AFB1949A06801F0DD
:103D100016FB082205F119012046FEF70FFB154995
:103D2000A06801F00CFB6A8E1349A06801F007FB44
:103D3000294620460822FEF701FB95F836200F4958
:103D4000A06801F0FCFA95F937200D49A06801F050
:103D5000F6FA95F83820A0680A49BDE8384001F025
:103D6000EEBA00BFC5C303008ECB030094CB0300A3
:103D7000A4CB03009FC903009DCB0300A7CB030086
:103D8000ABC90300AFCB03000B4601461846FFF753
:103D9000A5BF0000806811B9044901F0D0BA91F9BB
:103DA00001300A78024901F0CABA00BFC5C3030056
:103DB000B9CB03000B4601461846FFF7EBBF0000E6
:103DC0002DE9F047A2B004460D4616460021802298
:103DD00002A81F4636F009FE00238DF80730A760C1
:103DE00095B1711C284637F02FFAB0420CD8202329
:103DF00002AA0DF1070128461BF02EFC38B1202243
:103E00002649A06801F09BFA22B0BDE8F0879DF832
:103E1000077027B92249A06801F091FAF4E7DDF8AC
:103E20000880204E05464FF00C0A0AFB05F9404673
:103E300059F8061037F0C7F978B94E44B16873687D
:103E40004A10C90704EB020048BFA25807F1FF312E
:103E500048BFD35803AA9847D6E701353A2DE4D195
:103E600094F804A00025EEB2B2450FD9236840466D
:103E700053F8351003EBC50937F0A5F901350028D3
:103E8000F1D1D9F8043003A9781E98472379B342B9
:103E9000BAD106212046FDF719FDB5E787C1030019
:103EA000A7C10300E8CB03002DE9FF414C8B8B8BAE
:103EB00007460E4680681349E41A01F040FAA4B29E
:103EC0000025C4B1B18B102CA046294428BF4FF067
:103ED00010086B46424689B2304602F094FAA4EBD1
:103EE00008045FFA88F2694638464544FEF726FA28
:103EF000A4B2ADB2E5E70449B86801F020FA04B015
:103F0000BDE8F081D5CB0300A4C1030013460A46E7
:103F100001461846FFF7C8BF2DE9F041094E0A4D8A
:103F2000074600244FF00C0808FB04F23B68925946
:103F300098682946013401F002FA0B2CF4D10020D4
:103F4000BDE8F081ACD10300AACE03002DE9F04F0B
:103F5000DFF8E4A0DFF8E4B08BB081460F4690466E
:103F600001250024BD4250DA1F2C5BDC58F8256087
:103F70002E49304637F027F948B90AAB661C1C4475
:103F8000092304F8203C0135EDB23446EAE75146F6
:103F9000304637F018F920B90AAB661C1C440B23D5
:103FA000EFE75946304637F00EF920B90AAB661CE8
:103FB0001C440823E5E71E49304637F004F920B9D0
:103FC0000AAB661C1C441223DBE71A49304637F063
:103FD000FAF828BB0135EDB2BD4221DA58F8253098
:103FE0000193184637F016F901304610C4F120024B
:103FF000B24217D302AB1919019BB2B21846FDF7B2
:104000002DFC002810DB2644BDE7D9F80030E2B2D1
:1040100002A9D3F8A00001F0D0FB0BB0BDE8F08FEF
:104020000720FAE70320F8E70620F6E7EDD00300C3
:104030000CD103001AD10300F5D00300FFD0030018
:1040400003680129D3F8A000CCBF5168002101F01A
:104050009ABB000010B50368D3F8A0009C6801F07B
:10406000B6FB03490246204601F069F9002010BD65
:10407000BCC2030003460068024A0349D0F8A0000E
:1040800001F04EBBA14400001D4400000368D3F8BA
:10409000A00001F05DBB70B504298AB00646144645
:1040A00021DD03A95068FEF765FAD0B904A9A0681C
:1040B000FEF760FAA8B905A9E068FEF75BFA80B9D7
:1040C00006AD2946206901F020FC50B93068009502
:1040D000BDF814309DF810200399D0F8A00001F02D
:1040E00057FB0AB070BD0720FBE7000070B505293B
:1040F0008CB0064614462CDD04A95068FEF73AFA47
:1041000028BB05A9A068FEF735FA00BB06A9E06840
:10411000FEF730FAD8B907A92069FEF72BFAB0B933
:1041200008AD2946606901F0F0FB80B90A493068A2
:104130000396CDE90151BDF81C100091BDF818306F
:104140009DF814200499D0F8A00001F026FB0CB0D3
:1041500070BD0720FBE700BF5945000002292DE98B
:10416000FF4180460D4617463EDD94681F492046B4
:1041700037F029F800B308220DEB02012046FDF7C5
:104180006DFB08282ED102AC7E681949304637F005
:104190001AF8D0B9032D27D07823042D01930DD11F
:1041A000D8F80000019BFA68D0F8A000214601F081
:1041B000DFFA04B0BDE8F0810446E5E701A93869FB
:1041C000FEF7B0FF0028EBD0F3E70A49304636F09F
:1041D000FAFF48B9D8F800302146D3F8A00001F022
:1041E000CCFAE6E70620E4E70720E2E7EBD003009D
:1041F00054C30300BEC303002DE9F04F0E1E91B05F
:104200008246174640F3B1801A22002101A836F0F9
:10421000ECFBDFF86CB101240025A64240F39B8043
:104220001F2D03DD032011B0BDE8F08F57F8248067
:104230004F49404636F0C7FFB8B9631CDBB29E4217
:1042400040F393809DF81C2057F8230042F00102B0
:1042500069468DF81C20FEF78DF90028E3D1009BFC
:10426000ADF804300234E4B2D7E74249404636F0B4
:10427000AAFFA0B9631CDBB29E4276DD9DF81C202C
:1042800057F8230042F0020269468DF81C20FEF721
:1042900071F90028C7D1009BADF80630E2E7594616
:1042A000404636F090FF814600BB631CDBB29E4265
:1042B0005BDD9DF81C2057F8238042F00402404645
:1042C0008DF81C2036F0A6FF01304508102DA9D826
:1042D000AAB20DF109014046FDF7C0FA002801DA43
:1042E0000620A0E78DF808504D46BBE7224940461E
:1042F00036F069FFA0B9631CDBB29E4235DD9DF844
:104300001C2057F8230042F0080269468DF81C2053
:10431000FEF730F9002886D1009BADF81A30A1E7EE
:104320001649404636F04FFFF8B9631CDBB29E4297
:104330001BDD57F82380404636F06CFF01304508FE
:10434000202D3FF66FAFAAB208A94046FDF786FAC6
:10435000002887DAC4E7DAF80000EBB208AA01A95E
:10436000D0F8A00001F02EFA5DE707205BE700BF60
:10437000EDD00300F5D003000CD103001AD10300E7
:10438000FFD0030030B5032989B0054614461CDD73
:1043900002A95068FEF7EEF8A8B903A9A068FEF7D5
:1043A000E9F880B904A9E06801F0AFFA58B9084B00
:1043B000286800930195BDF80810039AD0F8A00072
:1043C00004AB01F0F5F909B030BD0720FBE700BFF1
:1043D0008145000038B503680D4604460B499868CE
:1043E00000F0ADFF012D0AD002D3022D0AD038BD56
:1043F000236807499868BDE8384000F0A0BF2368EB
:104400000449F7E723680449F4E700BF6CD10300CF
:10441000FDC203007BD1030089D103000B46014696
:104420001846FFF7D7BF000070B503680D46044675
:1044300014499868164600F082FF042D09D8DFE879
:1044400005F00314171A1D0023680F49986800F03F
:1044500076FF314620680822FDF770FF23680B497C
:104460009868BDE8704000F06ABF23680849EDE72E
:1044700023680849EAE723680749E7E7236807490B
:10448000E4E700BF21D1030037D10300A4C103003A
:104490003ED1030047D1030051D1030056D10300A0
:1044A00013460A4601461846FFF7BEBF2DE9F14FF5
:1044B000B1F100080646174607DC00221146FFF757
:1044C0002BFD072001B0BDE8F08FD2F800A0104C02
:1044D00000254FF00C0B0BFB05F9504659F8041062
:1044E00036F071FE78B94C44A16863684A10C90778
:1044F00006EB020044BFB258D35841463A4601B0D9
:10450000BDE8F04F184701350B2DE4D1D9E700BFC6
:10451000ACD10300F8B51D4603680C4F144606469F
:104520000A4698680A4900F00AFF013C25443368AE
:10453000AC42986805D014F9012F394600F0FFFE0F
:10454000F5E70449BDE8F84000F0F9BE90CB030060
:104550005ED10300A4C1030010B41C4613460A46F2
:10456000014620465DF8044BFFF7D4BF00681346B0
:1045700080680A46014900F0E2BE00BF92D1030004
:1045800013460A4601461846FFF7F0BF2DE9F041F1
:10459000094E0A4D074600244FF00C0808FB04F2B0
:1045A0003B68925998682946013400F0C8FE142CE3
:1045B000F4D10020BDE8F08174D30300AACE03003B
:1045C00008B568220021024836F00FFA002008BD25
:1045D000180D0020002970B519DD1668304636F038
:1045E00019FE441C6408A2B2102A12D80B4DA91A55
:1045F0005C3130461446FDF731F9A0420BD195F8F5
:10460000653043F0020385F86530002070BD072057
:10461000FCE70320FAE70620F8E700BF180D0020AA
:10462000002970B515461ADD106836F0F3FD102824
:10463000064616D80C4C1122002104F1200036F059
:10464000D4F93246296804F1200036F0AAF994F82A
:10465000643043F0080384F86430002070BD072004
:10466000FCE70620FAE700BF180D0020002938B546
:10467000044627DD15681449284636F0A4FD38B9EC
:1046800023681249D3F8A000BDE8384001F0A3B870
:104690000F49284636F097FD38B923680B49D3F8FF
:1046A000A000BDE8384001F0A4B80A49284636F019
:1046B0008AFD38B923680549D3F8A000BDE8384021
:1046C00001F0B9B8072038BD0B030400180D002015
:1046D00059D2030061D20300002937B511DD01A9C9
:1046E0001068FDF747FF50B9074B019C93F8642011
:1046F000E517C3E9004542F0010283F8642003B0E6
:1047000030BD0720FBE700BF180D0020002907B5CA
:1047100011DD01A91068FDF72DFF48B9074B019A7B
:10472000A3F84A2093F8652042F0010283F865203F
:1047300003B05DF804FB0720FAE700BF180D002066
:10474000002907B510DD01A91068FDF713FF40B976
:10475000064B019A1A6693F8652042F0080283F826
:10476000652003B05DF804FB0720FAE7180D002070
:10477000002907B510DD01A91068FDF7FBFE40B95F
:10478000064B019A5A6493F8642042F0400283F881
:10479000642003B05DF804FB0720FAE7180D002041
:1047A000002907B511DD01A91068FDF7E3FE48B93E
:1047B000074B019AA3F8482093F8642042F0800246
:1047C00083F8642003B05DF804FB0720FAE700BF1C
:1047D000180D0020002937B511DD01A91068FDF77B
:1047E000C9FE50B9074B019C93F86420E517C3E953
:1047F000024542F0020283F8642003B030BD072076
:10480000FBE700BF180D002037B50D1E144641DD33
:1048100001A91068FDF7AEFED0BB1F4B019AA3F8AB
:104820005C20012D83F85E002CD06168013911F8FD
:10483000012F3AB36E2A16D005D8622A1DD0632AFA
:1048400016D0062024E06F2A06D0722AF9D193F8F8
:104850005E2042F0200203E093F85E2062F07F02C7
:1048600083F85E20E3E793F85E2042F04002F7E72A
:1048700093F85E2042F01002F2E793F85E2042F0D7
:104880000802EDE793F8652042F0040283F8652002
:1048900003B030BD0720FBE7180D0020002938B514
:1048A00004461ADD15680E49284636F08CFC38B9E6
:1048B00023680C49D3F8A000BDE8384000F092BF4F
:1048C0000949284636F07FFC38B923680549D3F8F2
:1048D000A000BDE8384000F093BF072038BD00BFFE
:1048E0000B030400180D002059D20300002907B55E
:1048F000134619DD082269461868FCF7AFFF002847
:1049000010DB0A4A6B4603CB92F86430C2F83100E0
:1049100043F01003C2F8351082F86430002003B071
:104920005DF804FB0620FAE70720F8E7180D0020E1
:1049300000297FB5134619DD6C4610222146186800
:10494000FCF78CFF10280FD194E80F00084E06F1F9
:10495000100585E80F0096F8643043F0040386F8EC
:104960006430002004B070BD0620FBE70720F9E7A3
:10497000180D002000291FB515DD6946106800F0EC
:10498000C4FF044660B9094A6B4603CB92F8643011
:10499000C2F8390043F02003C2F83D1082F86430B9
:1049A000204604B010BD0724FAE700BF180D002010
:1049B0002DE9F04F0E1EC3B08146154640F36E81BF
:1049C0006822002108A836F010F8DFF804B30124AB
:1049D0004FF00008A64240F33C8155F82470B049DE
:1049E000384636F0F0FBC8B9631CDBB29E4240F398
:1049F00055819DF8842055F8230042F0010203A957
:104A00008DF88420FDF7B6FD002840F03281039A2E
:104A1000D317CDE908230234E4B2DBE7A1493846D5
:104A200036F0D1FBB8B9631CDBB29E4240F336814D
:104A30009DF8842055F8230042F0020203A98DF866
:104A40008420FDF797FD002840F01381039AD317C7
:104A5000CDE90A23DFE75946384636F0B4FB01902A
:104A6000B0B9601CC0B2864240F318819DF8842022
:104A700055F8200042F004028DF884200CA9102281
:104A8000FCF7ECFE1028019B00F0E1800620F0E02E
:104A90008549384636F097FB8246F0B9621CD2B29F
:104AA000964240F3FB809DF8841055F8227041F047
:104AB000080138468DF8841036F0ACFB102880468B
:104AC000E4D81122514610A835F08FFF42463946EE
:104AD00010A835F066FFD0469DE77449384636F099
:104AE00072FBA0B9631CDBB29E4240F3D7809DF8F5
:104AF000842055F8230042F010028DF884200DF137
:104B000051010822FCF7AAFE002884DABEE76849B2
:104B1000384636F058FBC8B9631CDBB29E4240F3FE
:104B2000BD809DF8842055F8230042F0200204A99E
:104B30008DF8842000F0E9FE002840F09A8004AB54
:104B400003CBCDF85900CDF85D1064E759493846DC
:104B500036F039FBA0B9631CDBB29E4240F39E8065
:104B60009DF8842055F8230042F0400203A98DF8F7
:104B70008420FDF7FFFC00287BD1039B19934AE7B3
:104B80004D49384636F01FFBA8B9631CDBB29E4284
:104B900040F384809DF8842055F8230042F0800281
:104BA00003A98DF88420FDF7E5FC002861D1039B63
:104BB000ADF868302FE74149384636F004FBA0B91C
:104BC000631CDBB29E4269DD9DF8852055F8230009
:104BD00042F0010203A98DF88520FDF7CBFC0028E7
:104BE00047D1039BADF86A3015E73549384636F0B2
:104BF000EAFA90B9631CDBB29E424FDD9DF8852036
:104C000055F8230042F0080203A98DF88520FDF72E
:104C1000B1FC70BB039B2093FDE62A49384636F071
:104C2000D2FA00283AD1631CDBB29E4236DD55F839
:104C30002370384636F0EEFA01304FEA5008B8F1EA
:104C4000800F29D81FFA88F222A938465AE79846D9
:104C5000E1E62C681C49204636F0B5FA60B9D9F86F
:104C600000005FFA88F322AA08A9D0F8A00000F09B
:104C7000D3FD43B0BDE8F08F1449204636F0A3FAC7
:104C800060B9D9F800005FFA88F322AA08A9D0F821
:104C9000A00000F0CBFDECE70320EAE70720E8E7FF
:104CA0006DD203007DD203001CD0030056CF030059
:104CB0007AD403008ED2030059CF0300D2CE030072
:104CC00099D203001AD103000B03040059D2030048
:104CD000D1CF03002DE9F04FB1F1000993B0824626
:104CE000904640F3CD800025DFF8C8B1ADF81450F0
:104CF00001242E46A14540F397801F2E00F3BC806F
:104D000058F824705F49384636F05DFA40B99DF88E
:104D1000143043F001038DF814300134E4B2E9E7B4
:104D20005949384636F04FFA20B99DF8143043F00F
:104D30000203F0E75946384636F045FA20B99DF8A7
:104D4000143043F00403E6E75049384636F03BFAA6
:104D500020B99DF8143043F00803DCE74C4938468D
:104D600036F031FA20B99DF8143043F01003D2E741
:104D70004849384636F027FA20B99DF8143043F0F8
:104D80002003C8E74449384636F01DFA20B99DF89B
:104D9000143043F04003BEE74049384636F013FA7A
:104DA00020B99DF8143043F08003B4E73C493846FD
:104DB00036F009FA30B99DF8153043F001038DF84B
:104DC0001530AAE73749384636F0FDF9D0B9013435
:104DD000E4B2A14554DD58F824300393184636F068
:104DE00019FA01304710C6F12002BA4244D30AAB87
:104DF0009919039BBAB21846FCF730FD00283DDB39
:104E00003E448AE72849384636F0DDF9002837D194
:104E10000134E4B2A14533DD06A958F8240000F0BE
:104E200074FDA0B9012578E7D8F800401F49204655
:104E300036F0C9F970B9DAF80030D3F8A000F3B24F
:104E400005B106AD00950AAA05A900F0E0FC13B073
:104E5000BDE8F08F1649204636F0B5F980B9DAF88A
:104E60000030D3F8A000F3B205B106AD00950AAA50
:104E700005A900F0D6FCEAE70320E8E70620E6E70C
:104E80000720E4E76DD203007DD203001CD00300AD
:104E900056CF03007AD403008ED2030059CF03000B
:104EA000D2CE03001AD1030065D203000B03040025
:104EB00059D20300D1CF03002DE9F041084E074637
:104EC0000D4690460C46631B984507DD3B6814F879
:104ED000012B9868314600F032FAF4E7BDE8F08122
:104EE000C2C1030037B591F864300C4699070546F6
:104EF00006D5006870498068D4E9022300F01FFAE3
:104F000094F86430DA0706D528686C498068D4E9DB
:104F1000002300F014FA94F86530DB0706D52B68FF
:104F2000B4F84A206649986800F009FA94F86530A8
:104F3000180705D52B68226E6249986800F0FFF9C2
:104F400094F86430590605D52B68626C5E49986800
:104F500000F0F5F994F86430DA060FD52B685B4958
:104F6000986800F0ECF904F1310128460822FFF7B7
:104F7000A3FF2B685649986800F0E1F994F8643073
:104F80009B0616D5B4F83F10B4F83B30B4F839207E
:104F9000286849BA89B20191B4F83D1049BA89B27A
:104FA00000915BBA52BA9BB292B24A49806800F053
:104FB000C6F994F8643058070ED52B6846499868AE
:104FC00000F0BDF91022A1182846FFF775FF2B68E5
:104FD0003F49986800F0B3F994F8643019070CD58C
:104FE0002B683E49986800F0AAF928683C49806817
:104FF00004F12003112200F0A2F994F86430DB09D7
:1050000006D02B68B4F848203649986800F097F924
:1050100094F865309A070FD52B683349986800F0EB
:105020008EF904F14C0128461022FFF745FF2B684A
:105030002749986800F083F994F865305B0738D504
:105040002B68B4F85C209868284900F078F994F946
:105050005E30002B04DA2B682549986800F06FF960
:1050600094F85E30580604D52B682249986800F001
:1050700066F994F85E30990604D52B681E49986845
:1050800000F05DF994F85E30DA0604D52B681B4910
:10509000986800F054F994F85E301B0704D52B682B
:1050A0001749986800F04BF92B680949986800F097
:1050B00046F9002003B030BDA5D20300BED20300E4
:1050C000ECC50300D6D20300EBD20300F7D20300F5
:1050D000A4C1030004D3030028D3030035D3030085
:1050E0003DCB030044D3030055D303005CD303003E
:1050F000D0CE030039DD03002BE0030084CB030096
:10510000DCDB030010B503689AB004466946D3F8A7
:10511000A00000F060FB18B969462046FFF7E2FEE8
:105120001AB010BD10B503689AB004466946D3F8AA
:10513000A00000F05EFB18B969462046FFF7D2FEDA
:105140001AB010BD2DE9F14F064690460F4629B919
:10515000154901B0BDE8F04FFFF7C4BED2F800A07A
:10516000124C00254FF00C0B0BFB05F9504659F87B
:10517000041036F028F880B94C44A16863684A10DE
:10518000C90706EB020044BFB258D358791E08F194
:10519000040201B0BDE8F04F18470135142DE3D1EA
:1051A000062001B0BDE8F08F180D002074D3030075
:1051B0002DE9F041094E0A4D074600244FF00C0836
:1051C00008FB04F23B68925998682946013400F0C4
:1051D000B6F8042CF4D10020BDE8F08104D503001A
:1051E000AACE030013B5036804466946D3F8A000AD
:1051F00000F09AFB082269462068FDF79FF82368B3
:105200000349986800F09BF8002002B010BD00BF71
:10521000A4C1030030B5012987B0144617DD022967
:105220000C4B056818BF926803934FF0000302937C
:10523000094B0193094B0093049008BF0022084BCF
:105240006168D5F8A00000F065FB07B030BD07200D
:10525000FBE700BF0D530000BED40300D7D403000A
:10526000B3D4030008B50368D3F8A00000F057FBDF
:10527000002008BD2DE9F14FB1F1000806461746A0
:1052800007DC00221146FFF793FF072001B0BDE8BD
:10529000F08FD2F800A0104C00254FF00C0B0BFB48
:1052A00005F9504659F8041035F08DFF78B94C4493
:1052B000A16863684A10C90706EB020044BFB258F0
:1052C000D35841463A4601B0BDE8F04F1847013582
:1052D000042DE4D1D9E700BF04D5030010B503685D
:1052E0009C6829B920460749BDE8104000F027B85E
:1052F000084600F089FF044902462046BDE81040F8
:1053000000F01DB8E0D40300EFD403000B460146C3
:105310001846FFF7E3BF10B5A0B004461346684631
:105320000A46802136F0EAF8684635F073FF2368B4
:1053300082B21B6869462046984720B010BD0EB463
:1053400003B503AA52F8041B0192FFF7E4FF02B071
:105350005DF804EB03B070472DE9F041094E0A4DAA
:10536000074600244FF00C0808FB04F23B689259F2
:10537000986829460134FFF7E2FF062CF4D100209B
:10538000BDE8F08148D50300AACE0300043000F048
:105390007CBE000003460068024AD0F8A000191D38
:1053A00000F061BE5556000030B5022987B00546B1
:1053B000144617D10021142201A835F016FB01A9CB
:1053C000206800F0A2FA58B969466068FDF7D2F883
:1053D00030B9009BADF8143001A9281D00F057FE2C
:1053E00007B030BD0720FBE730B5022987B005467E
:1053F000144617D10021142201A835F0F6FA01A9AC
:10540000206800F082FA58B969466068FDF7B2F882
:1054100030B9009BADF8143001A9281D00F039FE09
:1054200007B030BD0720FBE710B53822044640F82E
:10543000041B002135F0D9FA204610BD2DE9F341B7
:1054400002AD302305F8013D0E46174600244FF00B
:105450006108BC4219D001222946304600F040FBC9
:10546000A0B99DF807300133DBB25B2B07D07B2B53
:1054700009D03A2B08BF41238DF8073001E08DF8A1
:1054800007800134E5E73023F6E7002002B0BDE8ED
:10549000F08100002DE9F04300258FB00C468146D5
:1054A000904629462C2203A8019535F09EFA012C3E
:1054B00049D0032C45D0042C52D12B49D8F80000F8
:1054C00035F081FE00284BD101A9D8F80400FDF782
:1054D00029FE044688BB0125022607A958F82600A4
:1054E00000F013FAB700044638BB474402A97868B5
:1054F000FDF740F8044600BB029BADF82E300236A3
:10550000D9F800300021D3F8A00000F09FFD074635
:1055100040B3D5B10146BDF804204846FFF78EFFE1
:10552000044638B903AA394609F1040000F0B3FD76
:10553000044610B1384600F0CBFA20460FB0BDE863
:10554000F0832E46C9E72E46DAE758F82640204673
:1055500035F060FE214682B2384600F0C1FADFE73E
:105560000724EAE70324E8E734D503002DE9F14FE7
:10557000B1F100080646174607DC00221146FFF786
:10558000EBFE072001B0BDE8F08FD2F800A0114D6E
:1055900000244FF00C0B0BFB04F9504659F8051092
:1055A00035F011FE80B94D44A9686B684A10C907EF
:1055B00006EB020044BFB258D35808F1FF313A1D40
:1055C00001B0BDE8F04F18470134062CE3D1204666
:1055D000D8E700BF48D503002DE9F0410368ADF5D9
:1055E000BC6D044608460D469F68164600F072FAE8
:1055F0008046284600F072FA1349A8EB00023846AC
:10560000FFF79DFE06F110012068FCF71DFF2368DF
:10561000728C0E499868FFF792FE284600F05EFAF9
:1056200001AE3246014640F2DB53284600F05AFAFA
:10563000002333542368064998683246FFF77FFEFB
:105640000DF5BC6DBDE8F08137D503008FCB0300AD
:10565000AACE0300FFF7C0BF37B501B9FEE74B7C08
:1056600013F0040F14BF202400241D0748BF44F08A
:105670001004DA0648BF44F008049D0648BF44F011
:1056800004048D7C5A0648BF44F00204DA0918BFAE
:1056900044F0010405F0010543F3010300F5304037
:1056A0000A7CCDE900455BB2983018F097F903B059
:1056B00030BD01B9FEE700F530400A7C983018F0A3
:1056C00073B901B102B9FEE700F53040983016F029
:1056D0001BBB13B501B9FEE70C7D0A7C44F3010343
:1056E00000F53040C4F3800400945BB2983018F0A9
:1056F000F5F902B010BD01B9FEE700F530400A7CB3
:10570000983018F0D1B901B102B9FEE700F5304088
:10571000983016F0A1BB00F53040983018F0C2BAAE
:105720002DE9F041044600F5334078300D46164629
:105730001F4604F019FE48B904F534403B46324692
:1057400029468830BDE8F04105F040BABDE8F08157
:1057500010B5044600F53440883005F059FB30B9E7
:1057600004F533407830BDE8104004F09BBD10BD17
:1057700000F53440883005F070B900F5344000225F
:10578000883005F0F7B800F53440883004F023BFC6
:1057900000F53540403003F0D3BF10B400F535407C
:1057A000BDF80440019444305DF8044B07F0AEBDF1
:1057B00000F535405C3009F04DBA00F534408830D2
:1057C00004F04CBF00F53440883004F0A9BF4BF220
:1057D000F443C05A704701B9FEE700F51240C830E3
:1057E00005F068BE01B9FEE700F51240C43005F0CF
:1057F000A5BF01B9FEE700F513401C3005F05ABE05
:1058000001B9FEE700F51340183006F0E7BC00F5DB
:105810001240C43006F012BB00F51240C43006F04E
:105820003FB900F51340183006F008BB00F51340EF
:10583000183006F035B900F51240C43006F05ABDF4
:1058400000F539400C3008F057BF00F539400C30F6
:1058500008F048BF00F51040803009F031BB00F57A
:105860001040803009F03ABB00F06EBC4BF630734C
:10587000C05C704700F078BC00F052BC00F094BCF3
:1058800000487047ADD5030000F5114008B5383029
:1058900019B119F081FB002008BD19F0ADFBFAE742
:1058A0004BF27433C05C704749F23813C0587047EC
:1058B00000F5114038300BF057B800F51140383082
:1058C0000BF098B849F23C13C058704700F51140EE
:1058D00038300AF091BF00F5114038300AF0BEBFF1
:1058E00049F24013C05C704749F24013C1547047FD
:1058F0000A4611B14B78022B05D800F51040002163
:105900005C3009F08DBC002070470B4601461846FC
:105910000AF0C9BA00F53840583007F0C7BF00F5A3
:105920003840583008F05CB800F53840583007F07F
:1059300019BE10B5044690B019B900F048FC10B07B
:1059400010BD00F5144001AA2C3001F0F5FE01A9AC
:105950002046F2E700F04DBC49F23443C05C70478A
:1059600038B549F213630446C35C93B900F514409B
:105970002C3002F0C1F8054648B904F51240C43095
:1059800005F07CFE04F51340183006F0C5FB2846F0
:1059900038BD0D25FBE700F514406630704738B57B
:1059A000054601B9FEE749F21363C45C5CB900F532
:1059B0001440603003F0ACFC05F5164008300EF0E2
:1059C00041FC204638BD0D20FCE7000001481EF0D8
:1059D000A5BF00BF880D002049F23243C05A70476E
:1059E00038B549F213630546C45C84B900F5144028
:1059F0002C3001F073FF05F51240C43005F03EFE77
:105A000005F51340183006F087FB204638BD0D2001
:105A1000FCE700F51540EC3001F0C8BC00F515407E
:105A2000EC3001F02FBD00F51440603003F084BC71
:105A300000F514402C304078C0F3C000704710B51A
:105A40004BF27433C45C34B900F514402C3003F0CD
:105A500023F8204610BD0D20FCE710B54BF274333F
:105A6000C35C3BB949F22C42845C61F3000484546A
:105A7000184610BD0D20FCE700F51440A830704713
:105A800070B504460D4616461946049A00F098FB78
:105A900004F5144032462946024B2C30BDE87040D4
:105AA00002F093B83359000070B504460D4616460F
:105AB0001946049A00F096FB04F514403246294634
:105AC000024B2C30BDE8704002F09EB855590000E2
:105AD00000F023BC408B704700F023BC808B7047E4
:105AE00000F068BD10B41C46134622465DF8044B16
:105AF00000F089BC73B5A023054600F580400B80FB
:105B000044300C4600F0E7FB05F515466080A21D09
:105B1000211D06F14C0000F0C9FF04F10A0204F156
:105B2000080106F15C0000F0B7FE04F11A0204F16E
:105B3000180106F1DC0000F0AFFE05F5104004F19D
:105B40000E0204F10C01683000F0B0FF05F51140C1
:105B500004F1120204F11001343000F09DFE05F54D
:105B6000164004F1160204F114016C3000F094FEAA
:105B700005F5114004F11E0204F11C01D83000F0BB
:105B80008BFE05F511400DF1060201A9FC3000F075
:105B900083FEA38BBDF804201344A383BDF8062025
:105BA000E38B05F535401344E38304F1220204F14D
:105BB0002001E03000F070FE05F536400DF10602E0
:105BC00001A9043000F068FE238CBDF804201344C2
:105BD0002384BDF80620638C134463840023A384CC
:105BE000E38402B070BD10B50446FFF73FFE20B15C
:105BF0002046BDE8104001F08DB910BD49F2F863B0
:105C0000C058704700F51640083011F08DB900F506
:105C100014403C30704773B549F213630546C45CC9
:105C20000E4614BB00F514402C3001F06FFE02A9A3
:105C3000FD2301F8083D05F516403368CDF8013025
:105C4000083033798DF80530ADF806400EF076FB5C
:105C500005F51240C43005F011FD05F5134018306C
:105C600006F05AFA204602B070BD0D20FBE707B5DA
:105C700049F23C636946C35C8DF8043001A80BF01F
:105C8000A3FF9DF8000003B05DF804FB13B502AB61
:105C9000044603F8041D684619460BF0A7FF04F5F7
:105CA00016409DF80010083011F058F902B010BDF0
:105CB00000F513408030704738B5044601B9FEE75F
:105CC00049F21363C35C8BB900F5134080300CF0CC
:105CD00041F8054604F51240C43005F0CFFC04F548
:105CE0001340183006F018FA284638BD0D25FBE79A
:105CF00000F517407430704700F517405C3070476E
:105D000000F517404430704700F5144044307047A8
:105D100038B549F213630446C35C8BB900F51440EF
:105D20002C3001F0CFFD054604F51240C43005F0DB
:105D3000A5FC04F51340183006F0EEF9284638BDEE
:105D40000D25FBE749F29033C058704700F513402A
:105D500080300CF0BDB849F2EC33C058704749F2BE
:105D6000EC33C150704700F5164008300FF0FCBD11
:105D700000F51640002108300FF094BD02B101B9C2
:105D8000FEE700F51640083012F06CBF49F21363CD
:105D9000C05C704701B9FEE700F5164008300EF010
:105DA0001BBD00F5164008300EF05ABC70B50C460D
:105DB00001B9FEE749F21363C35C022B36D100F54B
:105DC0001640083011F058FC036823604368636094
:105DD000038B2381038B9B12A37290F82430E37210
:105DE00090F82530C3F383032373837F637390F8A4
:105DF0002530C3F30103A373866805461EF019FB23
:105E0000237C43F001032374801B4FF47A76B0FBAC
:105E1000F6F0E073AB7E03F00F03DA1F53425341F9
:105E2000227C63F341022274002070BD0D20FCE748
:105E300000F533402C3017F0C1BF00F533402C3053
:105E400017F0C0BF00F533402C3018F041BB00F50F
:105E5000164010B508300C4621B10021BDE81040B5
:105E600010F038BF01210EF07FF9204610BD00F57B
:105E70001640083011F0A0BE10B586B006AC00F593
:105E8000164044F8041D0A990291099901919DF860
:105E900020100091083021460FF0E6F906B010BD41
:105EA00000F517403030704749F61803C05A704764
:105EB00000F5184018300BF01FBE00F516400830F2
:105EC00011F0F6BC00F51640083011F0FDBC4BF2A5
:105ED0007F03C05C70474BF27F03C15470474BF2A5
:105EE0008003C05870474BF28003C150704700F5E3
:105EF0003840A43007F048BF08B500F53840A4305A
:105F000007F0A0FF002008BD00F53140A43016F0D6
:105F100003BE00F53140A43016F001BE4BF27C0305
:105F2000C05C70474BF27C03C15470474BF27D0359
:105F3000C05C70474BF27D03C15470473E2904D8C2
:105F400000F52B401C3018F097BC0720704749F231
:105F50001363C35C022B04D009D3042B07D80020A1
:105F6000704700F516400321083012F0E3BF0D2002
:105F7000704700F51640083014F06CB94BF27E0300
:105F8000C05C70474BF27E03C15470474BF29203E2
:105F9000C05C704700F51640083011F0EBBD02B947
:105FA000FEE700F51640083012F0FABD02B9FEE730
:105FB00000F51640083012F0E2BD37B5144602B1C4
:105FC00003B9FEE7158802AA00F5164022F8045D21
:105FD000083012F0A7FC10B9BDF80430238003B0DC
:105FE00030BD3E20704702B9FEE700F52B401C3063
:105FF00018F0AABD02B9FEE700F5394080300AF07A
:10600000C3BF00F51440704738B549F21363054625
:10601000C45C84B900F5134080300BF003FE05F535
:106020001240C43005F02AFB05F51340183006F085
:1060300073F8204638BD0D20FCE74BF29403C056A0
:10604000704700F51640083013F07BBF0A4611B1C7
:106050004B78022B05D800F51040002188300AF05B
:10606000A9BD0020704770B515461E460C4629B1E3
:1060700000F51041883120460AF002FD32462946DB
:106080002046BDE870400AF02FBD0AF057BD0AF067
:1060900077BD0AF0F8BC0AF0C3BD38B50446002548
:1060A00000F00BFFC4E9025504F1100019F07BF970
:1060B00004F58040103001F0D7F804F5804011302D
:1060C00000F0D4FD04F580402146143000F00EFDB0
:1060D00004F580402146443000F09CF849F24C031E
:1060E00004F51040E55049F250032146E55049F2CD
:1060F00054035C30E55049F25803E55009F06AF862
:1061000004F511402146383018F0B0FE4BF63073DC
:106110002046E55438BD000000487047880D002037
:106120001EF0B2BB10B54BF6307301220446C254C8
:1061300000F58040403000F0C3FD04F51640083003
:10614000BDE810400DF0A8BE10B54BF63073054CFD
:10615000E35C2BB92046FFF7A0FF2046FFF7E2FFE4
:10616000004810BD880D002038B54BF6307304464A
:10617000C25CC2B10025C5542946FFF768FE294616
:106180002046FFF781FB29462046FFF766FC04F511
:106190008040403000F09AFD04F580401130BDE8A9
:1061A000384000F0FDBC38BD10B5044600F5804015
:1061B000403000F091FD2046BDE810401EF064BB69
:1061C00049F24C03C15049F25003C2507047024695
:1061D00049F24C030846D3581BB149F250015158BB
:1061E0001847704749F25403C15049F25803C2504E
:1061F0007047024649F254030846D3581BB149F28E
:106200005801515818477047014B53F82000704708
:10621000F4D5030038B5051D04464FF4A042002113
:10622000284634F0E2FB45F20403E218E55004F19D
:10623000840343F8803C80339342FAD144F684735C
:106240000022E250A0232380204638BD10B500F57F
:10625000A043043341B11A680C680A6019600288CF
:10626000013202802146F5E710BD4A681AB98B68F1
:106270000BB9FFF7EBBFFEE7F8B50B4E05460C4632
:1062800017462B88A3420ADA394630460DF0FCF84F
:106290000028F6D02B88A34203DA0320F8BD002C97
:1062A000F8DA0020FAE700BFB8A2002010B50A46CD
:1062B00001210446FFF7E0FF58B945F20402A35854
:1062C0002BB11968A15018602288013A2280184623
:1062D00010BD0023FBE700887047F8B506460F465F
:1062E00005465424BC42296810D219B17C342D686B
:1062F000A4B2F7E796F82910F06801F00301FFF760
:10630000D5FF28600028F1D1032005E000242C608F
:10631000F068FFF79BFF2046F8BD0146C068FFF715
:10632000A4BF70B5038BCD18ADB29D4204460E4696
:1063300027D3542D82BFA5F155017C2291FBF2F1A8
:10634000428B13449BB28CBF01310021542B05D9E1
:10635000553B7C2293FBF2F30133C91A94F82920B0
:10636000E06802F00302FFF787FF48B9294620469C
:10637000FFF7B3FF20B9A38B6683B34200D9A6838E
:1063800070BD0720FCE7036801201BB10130C0B2DB
:106390001B68FAE77047838B428B1944914200DDFA
:1063A000FEE789B29142818300D9FEE70020704761
:1063B000438B8B4200D2FEE781830020704790F828
:1063C0002830C3F383030A2B09D8012202FA03F30E
:1063D00040F24E72134214BF01200020704700208B
:1063E0007047438B8B4200D2FEE75B1A4383838B5B
:1063F000028B8B420A4494BF0023591A02838CBF3C
:10640000818383837047F8B51546428B91420646D7
:1064100042D24819348B9042A8BF551A21448CB2FD
:10642000A8BFADB2532C16D8C4F15407BFB2AF42C7
:1064300028BF2F4606F12C01214418463A4634F075
:10644000B0FAED1B0346ADB23B44002136687B2910
:106450001ED92EB9FEE7A4F1540189B20027F5E751
:106460007C39366889B2F2E7C1F17C04A4B2AC424F
:1064700028BF2C46301D01442246184634F091FABC
:106480002D1B034627443668ADB2BFB2234400211A
:106490001DB1002EE8D1FEE700273846F8BD2DE9F2
:1064A000F0411E46438B15468A189A42074600DD86
:1064B000FEE7048BA8BF5D1A21448CB2A8BFADB221
:1064C000532C16D8C4F154081FFA88F8A84528BFE1
:1064D000A8462C30314642462044A5EB080534F04E
:1064E00060FAADB2464400203F687B281FD937B917
:1064F000FEE7A4F1540080B24FF00008F4E77C38C6
:106500003F6880B2F1E7C0F17C04A4B2AC4228BF7E
:106510002C463B1D31462246184434F042FA2D1BCE
:10652000A0443F68ADB21FFA88F82644002015B198
:10653000002FE8D1FEE74046BDE8F081F8B50446FB
:106540000D46164600F12C07238B9E4218D994F86D
:106550002910E06801F00301FFF7A8FE30B32368BB
:106560000360238B2060532B06D82C30C3F15402D8
:10657000F918184434F015FA238B7C332383E3E7AE
:106580009B1B628B2383A38B3244334492B29BB216
:106590009A42628300D2FEE7A3834DB12B46324676
:1065A00000212046FFF77BFF0020F8BD0320FCE719
:1065B0002846FAE72DE9F041478B8846D11989B280
:1065C00006461446FFF7ADFE054640B9434622464F
:1065D00039463046FFF763FF844200D0FEE7284685
:1065E000BDE8F08138B5054608460C4600F080FD50
:1065F000214602462846BDE83840FFF7DBBF2DE9BB
:10660000F043814685B0884617461D460026CDB129
:10661000102D2C4628BF1024224641466B46484682
:10662000FFF7F1FEA044224639462D1B27446B4656
:106630000C983444FFF733FF1FFA88F8BFB2ADB2AD
:10664000A6B2E4E7304605B0BDE8F0831F2900D9C3
:10665000FEE700EBD100802390F8202001F0070135
:1066600043FA01F10A4214BF0120002070471F299C
:1066700000D9FEE700EBD100802301F007010B41B8
:1066800090F8201021EA030180F8201070471F299C
:1066900000D9FEE700EBD10001F00703802119418A
:1066A00090F82030194380F82010704700F1200244
:1066B00000F1240312F8010B10B99A42FAD1704785
:1066C00001207047014489B2884288BF013188B2F5
:1066D000704710B50024A2420CDD0B5D14F0010FD1
:1066E00008BF1B0203449BB2984288BF013398B293
:1066F0000134F0E710BDF8B506461D460846D1182E
:10670000738B994200DDFEE7348B224494B2532C04
:1067100013D8C4F15407BFB2AF4228BF2F4606F1C9
:106720002C0121443A46ED1BFFF7D3FFADB2002107
:1067300036687B2918D926B9FEE7A4F1540189B23D
:10674000F6E77C39366889B2F3E7C1F17C04A4B27C
:10675000AC4228BF2C46331D19442246FFF7B9FF2F
:106760002D1B3668ADB2002115B1002EEDD1FEE72C
:10677000F8BD002202607047006800B140687047B1
:1067800030B50C690346ECB9086191F8290064F34F
:10679000820081F82900486840B9886830B91C68CF
:1067A0002CB9C1E901112046196030BDFEE76468CB
:1067B0004C601D688D60A1601C68012A6160F4D185
:1067C0001960F2E71820F0E791F82930C3F380024E
:1067D00010B5FAB90B6998421CD14B68CBB18B68E4
:1067E000BBB10468A14203D18B4208BF13460360CA
:1067F000D1E901235A60D1E901329A60002091F871
:1068000029300861C1E9010060F3820381F8293071
:1068100010BDFEE71720FBE70022C0E90022C0E917
:10682000022270470B4650F8232032B9032B1ABFBF
:106830000133DBB213469942F5D11046704708B5D3
:106840000021FFF7EFFF00B1406808BD08B550F820
:1068500021304BB103291ABF0131C9B20021FFF722
:10686000E1FF00B9FEE74368184608BD0021FFF7C5
:10687000D9BF10B50446006994F829305B0707D5E5
:1068800028B1FFF7F3FFA04214BF6068002010BDDD
:106890000028FCD00068F6E738B500230B80138091
:1068A0000D461446FFF768FF024658B12B880133A6
:1068B0002B80FFF768FD2388184420801046FFF7DF
:1068C000D8FFF1E738BD70B50B6906460C46C3B971
:1068D000206191F8295045F0040581F8295005F010
:1068E00003052946FFF79EFF40B14368C4E9013024
:1068F0009C60446046F82540002070BDC4E9014416
:10690000F8E71820F9E791F829305A0710B527D58C
:106910000A69904224D103F0030350F823209142E6
:106920000BD18A68914219D092F8294004F00304EF
:106930009C4218BF002240F82320D1E901329A601E
:10694000D1E901235A60002091F829300861C1E99A
:10695000010060F3820381F8293010BD0022EAE7CC
:106960001720FAE7032970B504460D461FD80669BB
:106970003EB994F8293065F3010384F829300020EA
:1069800016E090F8293003F003028A42F7D05B0743
:10699000EFD501463046FFF7B6FF94F8293065F38E
:1069A000010384F829303046FFF78DFFE7E7072021
:1069B00070BD2DE9F04188461946054617461E462A
:1069C000FFF774FC0446C0B18022002134F00DF8BA
:1069D00094F82830E56068F3010363F07F033146E3
:1069E000278384F828302046FFF7BCFF014638B1E2
:1069F00021462846FFF739FC00242046BDE8F081F7
:106A00002046FFF78EFC0028F7D0F1E710B55BB108
:106A10001C785B78FFF7CDFF28B190F8283064F33D
:106A2000C71380F8283010BD01231C46F2E773B568
:106A300090F82930028B0E4690F82810054603F096
:106A4000030301F00301C068FFF7B3FF044628B356
:106A50003146FFF766FC024618BB014633460094F8
:106A60002846FFF7CCFDA98B638BB14228BF314686
:106A70008B4200D2FEE7A18395F8283094F82820B5
:106A8000C3F3830363F3850284F8282095F8283044
:106A9000D2B2DB0963F3C71284F82820204602B083
:106AA00070BD2046FFF739FC0024F7E738B5002316
:106AB0000B8013800D461446FFF7C1FE024658B105
:106AC0002B8801332B80FFF75EFC2388184420803D
:106AD0001046FFF7CEFEF1E738BD026002B9FEE7CF
